{
  "address": "0xade793A8741b4c52Caafb58DAcA95F2dC62dEC61",
  "abi": [
    {
      "anonymous": false,
      "inputs": [
        {
          "indexed": false,
          "internalType": "uint8",
          "name": "version",
          "type": "uint8"
        }
      ],
      "name": "Initialized",
      "type": "event"
    },
    {
      "anonymous": false,
      "inputs": [
        {
          "indexed": false,
          "internalType": "address",
          "name": "account",
          "type": "address"
        }
      ],
      "name": "Paused",
      "type": "event"
    },
    {
      "anonymous": false,
      "inputs": [
        {
          "indexed": false,
          "internalType": "bytes32",
          "name": "poolInfoHash",
          "type": "bytes32"
        },
        {
          "indexed": false,
          "internalType": "address",
          "name": "pool",
          "type": "address"
        }
      ],
      "name": "PoolCreated",
      "type": "event"
    },
    {
      "anonymous": false,
      "inputs": [
        {
          "indexed": true,
          "internalType": "bytes32",
          "name": "role",
          "type": "bytes32"
        },
        {
          "indexed": true,
          "internalType": "bytes32",
          "name": "previousAdminRole",
          "type": "bytes32"
        },
        {
          "indexed": true,
          "internalType": "bytes32",
          "name": "newAdminRole",
          "type": "bytes32"
        }
      ],
      "name": "RoleAdminChanged",
      "type": "event"
    },
    {
      "anonymous": false,
      "inputs": [
        {
          "indexed": true,
          "internalType": "bytes32",
          "name": "role",
          "type": "bytes32"
        },
        {
          "indexed": true,
          "internalType": "address",
          "name": "account",
          "type": "address"
        },
        {
          "indexed": true,
          "internalType": "address",
          "name": "sender",
          "type": "address"
        }
      ],
      "name": "RoleGranted",
      "type": "event"
    },
    {
      "anonymous": false,
      "inputs": [
        {
          "indexed": true,
          "internalType": "bytes32",
          "name": "role",
          "type": "bytes32"
        },
        {
          "indexed": true,
          "internalType": "address",
          "name": "account",
          "type": "address"
        },
        {
          "indexed": true,
          "internalType": "address",
          "name": "sender",
          "type": "address"
        }
      ],
      "name": "RoleRevoked",
      "type": "event"
    },
    {
      "anonymous": false,
      "inputs": [
        {
          "indexed": false,
          "internalType": "address",
          "name": "account",
          "type": "address"
        }
      ],
      "name": "Unpaused",
      "type": "event"
    },
    {
      "anonymous": false,
      "inputs": [
        {
          "indexed": true,
          "internalType": "address",
          "name": "oldPoolImplementation",
          "type": "address"
        },
        {
          "indexed": true,
          "internalType": "address",
          "name": "newPoolImplementation",
          "type": "address"
        }
      ],
      "name": "UpdatePoolImplementation",
      "type": "event"
    },
    {
      "anonymous": false,
      "inputs": [
        {
          "indexed": true,
          "internalType": "address",
          "name": "oldVestingImplementation",
          "type": "address"
        },
        {
          "indexed": true,
          "internalType": "address",
          "name": "newVestingImplementation",
          "type": "address"
        }
      ],
      "name": "UpdateVestingImplementation",
      "type": "event"
    },
    {
      "anonymous": false,
      "inputs": [
        {
          "indexed": false,
          "internalType": "address",
          "name": "sender",
          "type": "address"
        },
        {
          "indexed": false,
          "internalType": "address",
          "name": "vesting",
          "type": "address"
        }
      ],
      "name": "VestingCreated",
      "type": "event"
    },
    {
      "inputs": [],
      "name": "DEFAULT_ADMIN_ROLE",
      "outputs": [
        {
          "internalType": "bytes32",
          "name": "",
          "type": "bytes32"
        }
      ],
      "stateMutability": "view",
      "type": "function"
    },
    {
      "inputs": [],
      "name": "OWNER_ROLE",
      "outputs": [
        {
          "internalType": "bytes32",
          "name": "",
          "type": "bytes32"
        }
      ],
      "stateMutability": "view",
      "type": "function"
    },
    {
      "inputs": [
        {
          "internalType": "address",
          "name": "owner",
          "type": "address"
        }
      ],
      "name": "__BasePausable__init",
      "outputs": [],
      "stateMutability": "nonpayable",
      "type": "function"
    },
    {
      "inputs": [
        {
          "internalType": "address[2]",
          "name": "addrs",
          "type": "address[2]"
        },
        {
          "internalType": "uint256[18]",
          "name": "uints",
          "type": "uint256[18]"
        },
        {
          "internalType": "uint256",
          "name": "dbProjectId",
          "type": "uint256"
        }
      ],
      "name": "createPool",
      "outputs": [
        {
          "internalType": "address",
          "name": "pool",
          "type": "address"
        }
      ],
      "stateMutability": "nonpayable",
      "type": "function"
    },
    {
      "inputs": [],
      "name": "createVesting",
      "outputs": [
        {
          "internalType": "address",
          "name": "",
          "type": "address"
        }
      ],
      "stateMutability": "nonpayable",
      "type": "function"
    },
    {
      "inputs": [
        {
          "internalType": "bytes32",
          "name": "role",
          "type": "bytes32"
        }
      ],
      "name": "getRoleAdmin",
      "outputs": [
        {
          "internalType": "bytes32",
          "name": "",
          "type": "bytes32"
        }
      ],
      "stateMutability": "view",
      "type": "function"
    },
    {
      "inputs": [
        {
          "internalType": "bytes32",
          "name": "role",
          "type": "bytes32"
        },
        {
          "internalType": "address",
          "name": "account",
          "type": "address"
        }
      ],
      "name": "grantRole",
      "outputs": [],
      "stateMutability": "nonpayable",
      "type": "function"
    },
    {
      "inputs": [
        {
          "internalType": "bytes32",
          "name": "role",
          "type": "bytes32"
        },
        {
          "internalType": "address",
          "name": "account",
          "type": "address"
        }
      ],
      "name": "hasRole",
      "outputs": [
        {
          "internalType": "bool",
          "name": "",
          "type": "bool"
        }
      ],
      "stateMutability": "view",
      "type": "function"
    },
    {
      "inputs": [
        {
          "internalType": "address",
          "name": "_poolImplementationAddress",
          "type": "address"
        },
        {
          "internalType": "address",
          "name": "_vestingImplementationAddress",
          "type": "address"
        }
      ],
      "name": "initialize",
      "outputs": [],
      "stateMutability": "nonpayable",
      "type": "function"
    },
    {
      "inputs": [
        {
          "internalType": "address",
          "name": "sender",
          "type": "address"
        }
      ],
      "name": "isOwner",
      "outputs": [
        {
          "internalType": "bool",
          "name": "",
          "type": "bool"
        }
      ],
      "stateMutability": "view",
      "type": "function"
    },
    {
      "inputs": [],
      "name": "paused",
      "outputs": [
        {
          "internalType": "bool",
          "name": "",
          "type": "bool"
        }
      ],
      "stateMutability": "view",
      "type": "function"
    },
    {
      "inputs": [],
      "name": "poolImplementationAddress",
      "outputs": [
        {
          "internalType": "address",
          "name": "",
          "type": "address"
        }
      ],
      "stateMutability": "view",
      "type": "function"
    },
    {
      "inputs": [
        {
          "internalType": "bytes32",
          "name": "role",
          "type": "bytes32"
        },
        {
          "internalType": "address",
          "name": "account",
          "type": "address"
        }
      ],
      "name": "renounceRole",
      "outputs": [],
      "stateMutability": "nonpayable",
      "type": "function"
    },
    {
      "inputs": [
        {
          "internalType": "bytes32",
          "name": "role",
          "type": "bytes32"
        },
        {
          "internalType": "address",
          "name": "account",
          "type": "address"
        }
      ],
      "name": "revokeRole",
      "outputs": [],
      "stateMutability": "nonpayable",
      "type": "function"
    },
    {
      "inputs": [
        {
          "internalType": "address",
          "name": "_poolImplementationAddress",
          "type": "address"
        }
      ],
      "name": "setPoolImplementation",
      "outputs": [],
      "stateMutability": "nonpayable",
      "type": "function"
    },
    {
      "inputs": [
        {
          "internalType": "address",
          "name": "_vestingImplementationAddress",
          "type": "address"
        }
      ],
      "name": "setVestingImplementation",
      "outputs": [],
      "stateMutability": "nonpayable",
      "type": "function"
    },
    {
      "inputs": [
        {
          "internalType": "bytes4",
          "name": "interfaceId",
          "type": "bytes4"
        }
      ],
      "name": "supportsInterface",
      "outputs": [
        {
          "internalType": "bool",
          "name": "",
          "type": "bool"
        }
      ],
      "stateMutability": "view",
      "type": "function"
    },
    {
      "inputs": [],
      "name": "vestingImplementationAddress",
      "outputs": [
        {
          "internalType": "address",
          "name": "",
          "type": "address"
        }
      ],
      "stateMutability": "view",
      "type": "function"
    }
  ],
  "transactionHash": "0x459d49d276a9a97f95ed3f75fe4e817ccd0a8d6513b9d054e3489b74841df817",
  "args": [],
  "numDeployments": 2,
  "solcInputHash": "7fb081150464d55b8a351bf072939cad",
  "bytecode": "0x608060405234801561001057600080fd5b506001805460ff191681556002556112498061002d6000396000f3fe608060405234801561001057600080fd5b50600436106100f65760003560e01c806391d148541161009257806391d14854146101eb578063a217fddf146101fe578063abaf36df14610206578063bb8e3f4414610219578063cc6f03331461022c578063ce1ee86a14610234578063d547741f14610247578063d6f748981461025a578063e58378bb1461026d57600080fd5b806301ffc9a7146100fb578063159ce1351461012357806315ef4ddc1461014e578063248a9ca3146101615780632f2ff15d146101925780632f54bf6e146101a757806336568abe146101ba578063485cc955146101cd5780635c975abb146101e0575b600080fd5b61010e610109366004610db5565b610282565b60405190151581526020015b60405180910390f35b600454610136906001600160a01b031681565b6040516001600160a01b03909116815260200161011a565b600354610136906001600160a01b031681565b61018461016f366004610ddf565b60009081526020819052604090206001015490565b60405190815260200161011a565b6101a56101a0366004610e0f565b6102b9565b005b61010e6101b5366004610e3b565b6102e3565b6101a56101c8366004610e0f565b6102fd565b6101a56101db366004610e56565b610380565b60015460ff1661010e565b61010e6101f9366004610e0f565b6104fb565b610184600081565b610136610214366004610eff565b610524565b6101a5610227366004610e3b565b61064d565b61013661072c565b6101a5610242366004610e3b565b610791565b6101a5610255366004610e0f565b61082e565b6101a5610268366004610e3b565b610853565b6101846000805160206111f483398151915281565b60006001600160e01b03198216637965db0b60e01b14806102b357506301ffc9a760e01b6001600160e01b03198316145b92915050565b6000828152602081905260409020600101546102d4816108f0565b6102de83836108fa565b505050565b60006102b36000805160206111f4833981519152836104fb565b6001600160a01b03811633146103725760405162461bcd60e51b815260206004820152602f60248201527f416363657373436f6e74726f6c3a2063616e206f6e6c792072656e6f756e636560448201526e103937b632b9903337b91039b2b63360891b60648201526084015b60405180910390fd5b61037c828261097e565b5050565b60015462010000900460ff16158080156103a3575060018054610100900460ff16105b806103c15750303b1580156103c1575060018054610100900460ff16145b6104245760405162461bcd60e51b815260206004820152602e60248201527f496e697469616c697a61626c653a20636f6e747261637420697320616c72656160448201526d191e481a5b9a5d1a585b1a5e995960921b6064820152608401610369565b6001805461ff001916610100179055801561044b576001805462ff00001916620100001790555b600380546001600160a01b038086166001600160a01b03199283161790925560048054928516929091169190911790556104996000805160206111f48339815191526104943390565b6109e3565b6104b16000805160206111f4833981519152806109ed565b80156102de576001805462ff0000191681556040519081527f7f26b83ff96e1f2b6a682f133852f6798a09c465da95921460cefb38474024989060200160405180910390a1505050565b6000918252602082815260408084206001600160a01b0393909316845291905290205460ff1690565b6000808484338560405160200161053e9493929190611011565b60408051601f19818403018152919052805160209091012060035490915061056f906001600160a01b031682610a38565b604051636db6e03160e01b81529092506001600160a01b03831690636db6e031906105a29088908890339060040161104a565b600060405180830381600087803b1580156105bc57600080fd5b505af11580156105d0573d6000803e3d6000fd5b5050505060008585856040516020016105eb93929190611080565b60408051601f1981840301815282825280516020918201208084526001600160a01b0387169184019190915292507fa843b0068d872c047023d406f9e5cea249189566b6fe594909f554578e81656d910160405180910390a150509392505050565b60015462010000900460ff166106b95760405162461bcd60e51b815260206004820152602b60248201527f496e697469616c697a61626c653a20636f6e7472616374206973206e6f74206960448201526a6e697469616c697a696e6760a81b6064820152608401610369565b6040805180820190915260018152600d60fa1b60208201526001600160a01b0382166106f85760405162461bcd60e51b815260040161036991906110d7565b506107116000805160206111f4833981519152826109e3565b6107296000805160206111f4833981519152806109ed565b50565b6004546000908190610746906001600160a01b0316610ad2565b90507f2ee44d821b06c9aa990927d787f4adf9d8d3eb9bf798ef5c80415cd7a396560233604080516001600160a01b03928316815291841660208301520160405180910390a1919050565b61079a336102e3565b604051806040016040528060018152602001601960f91b815250906107d25760405162461bcd60e51b815260040161036991906110d7565b506107dc81610b6f565b600480546001600160a01b038381166001600160a01b0319831681179093556040519116919082907f722ecaaadd945da6d0f5682999119f95d2be4f4bb04ce8883f85e86468f93c3090600090a35050565b600082815260208190526040902060010154610849816108f0565b6102de838361097e565b61085c336102e3565b604051806040016040528060018152602001601960f91b815250906108945760405162461bcd60e51b815260040161036991906110d7565b5061089e81610b6f565b600380546001600160a01b038381166001600160a01b0319831681179093556040519116919082907f0617fd31aa5ab95ec80eefc1eb61a2c477aa419d1d761b4e46f5f077e47852aa90600090a35050565b6107298133610bae565b61090482826104fb565b61037c576000828152602081815260408083206001600160a01b03851684529091529020805460ff1916600117905561093a3390565b6001600160a01b0316816001600160a01b0316837f2f8788117e7eff1d82e926ec794901d17c78024a50270940304540a733656f0d60405160405180910390a45050565b61098882826104fb565b1561037c576000828152602081815260408083206001600160a01b0385168085529252808320805460ff1916905551339285917ff6391f5c32d9c69d2a47ea670b442974b53935d1edc7fd64eb21e047a839171b9190a45050565b61037c82826108fa565b600082815260208190526040808220600101805490849055905190918391839186917fbd79b86ffe0ab8e8776151514217cd7cacd52c909f66475c3af44e129f0b00ff9190a4505050565b6000604051733d602d80600a3d3981f3363d3d373d3d3d363d7360601b81528360601b60148201526e5af43d82803e903d91602b57fd5bf360881b6028820152826037826000f59150506001600160a01b0381166102b35760405162461bcd60e51b8152602060048201526017602482015276115490cc4c4d8dce8818dc99585d194c8819985a5b1959604a1b6044820152606401610369565b6000604051733d602d80600a3d3981f3363d3d373d3d3d363d7360601b81528260601b60148201526e5af43d82803e903d91602b57fd5bf360881b60288201526037816000f09150506001600160a01b038116610b6a5760405162461bcd60e51b8152602060048201526016602482015275115490cc4c4d8dce8818dc99585d194819985a5b195960521b6044820152606401610369565b919050565b6040805180820190915260018152600d60fa1b60208201526001600160a01b03821661037c5760405162461bcd60e51b815260040161036991906110d7565b610bb882826104fb565b61037c57610bd0816001600160a01b03166014610c12565b610bdb836020610c12565b604051602001610bec92919061110a565b60408051601f198184030181529082905262461bcd60e51b8252610369916004016110d7565b60606000610c2183600261118f565b610c2c9060026111ae565b67ffffffffffffffff811115610c4457610c44610e80565b6040519080825280601f01601f191660200182016040528015610c6e576020820181803683370190505b509050600360fc1b81600081518110610c8957610c896111c6565b60200101906001600160f81b031916908160001a905350600f60fb1b81600181518110610cb857610cb86111c6565b60200101906001600160f81b031916908160001a9053506000610cdc84600261118f565b610ce79060016111ae565b90505b6001811115610d5f576f181899199a1a9b1b9c1cb0b131b232b360811b85600f1660108110610d1b57610d1b6111c6565b1a60f81b828281518110610d3157610d316111c6565b60200101906001600160f81b031916908160001a90535060049490941c93610d58816111dc565b9050610cea565b508315610dae5760405162461bcd60e51b815260206004820181905260248201527f537472696e67733a20686578206c656e67746820696e73756666696369656e746044820152606401610369565b9392505050565b600060208284031215610dc757600080fd5b81356001600160e01b031981168114610dae57600080fd5b600060208284031215610df157600080fd5b5035919050565b80356001600160a01b0381168114610b6a57600080fd5b60008060408385031215610e2257600080fd5b82359150610e3260208401610df8565b90509250929050565b600060208284031215610e4d57600080fd5b610dae82610df8565b60008060408385031215610e6957600080fd5b610e7283610df8565b9150610e3260208401610df8565b634e487b7160e01b600052604160045260246000fd5b6040805190810167ffffffffffffffff81118282101715610ec757634e487b7160e01b600052604160045260246000fd5b60405290565b604051610240810167ffffffffffffffff81118282101715610ec757634e487b7160e01b600052604160045260246000fd5b60008060006102a08486031215610f1557600080fd5b84601f850112610f2457600080fd5b610f2c610e96565b806040860187811115610f3e57600080fd5b865b81811015610f5f57610f5181610df8565b845260209384019301610f40565b5081955087605f880112610f7257600080fd5b610f7a610ecd565b9250829150610280870188811115610f9157600080fd5b5b80821015610fad578135845260209384019390910190610f92565b95989197505093359450505050565b8060005b6002811015610fe85781516001600160a01b0316845260209384019390910190600101610fc0565b50505050565b8060005b6012811015610fe8578151845260209384019390910190600101610ff2565b6102c081016110208287610fbc565b61102d6040830186610fee565b6001600160a01b03939093166102808201526102a0015292915050565b6102a081016110598286610fbc565b6110666040830185610fee565b6001600160a01b0392909216610280919091015292915050565b6102a0810161108f8286610fbc565b61109c6040830185610fee565b82610280830152949350505050565b60005b838110156110c65781810151838201526020016110ae565b83811115610fe85750506000910152565b60208152600082518060208401526110f68160408501602087016110ab565b601f01601f19169190910160400192915050565b76020b1b1b2b9b9a1b7b73a3937b61d1030b1b1b7bab73a1604d1b81526000835161113c8160178501602088016110ab565b7001034b99036b4b9b9b4b733903937b6329607d1b601791840191820152835161116d8160288401602088016110ab565b01602801949350505050565b634e487b7160e01b600052601160045260246000fd5b60008160001904831182151516156111a9576111a9611179565b500290565b600082198211156111c1576111c1611179565b500190565b634e487b7160e01b600052603260045260246000fd5b6000816111eb576111eb611179565b50600019019056feb19546dff01e856fb3f010c267a7b1c60363cf8a4664e21cc89c26224620214ea2646970667358221220ef8399f43b43a3f6bedeba8d40756909540941b91a4691edcd6821c32030969a64736f6c634300080a0033",
  "devdoc": {
    "kind": "dev",
    "methods": {
      "createPool(address[2],uint256[18],uint256)": {
        "details": "Only has one pool address respectively for one input params",
        "params": {
          "addrs": "Array of address includes: - address of IDO token, - address of purchase token",
          "dbProjectId": "Project Id in database",
          "uints": "Array of pool information includes: - max purchase amount for KYC user, - max purchase amount for Not KYC user, - token project fee percentage, // will be sent to admin if success or investor in vice versa - galaxy participation fee percentage, // will be sent to admin - crowdfunding participation fee percentage, // will be sent to admin - galaxy pool proportion, (ratio with all project) - early access proportion, (ratio with only crowdfunding pool) - total raise amount, - whale open time, - whale duration, - community duration, - rate of IDO token (based on formula in README), - decimal of IDO token (based on formula in README, is different from decimals in contract of IDO token), - TGE date, - TGE percentage, - vesting cliff, - vesting frequency, - number of vesting release"
        },
        "returns": {
          "pool": "Address of new pool"
        }
      },
      "getRoleAdmin(bytes32)": {
        "details": "Returns the admin role that controls `role`. See {grantRole} and {revokeRole}. To change a role's admin, use {_setRoleAdmin}."
      },
      "grantRole(bytes32,address)": {
        "details": "Grants `role` to `account`. If `account` had not been already granted `role`, emits a {RoleGranted} event. Requirements: - the caller must have ``role``'s admin role. May emit a {RoleGranted} event."
      },
      "hasRole(bytes32,address)": {
        "details": "Returns `true` if `account` has been granted `role`."
      },
      "initialize(address,address)": {
        "details": "Called only once",
        "params": {
          "_poolImplementationAddress": "Address of pool implementation"
        }
      },
      "paused()": {
        "details": "Returns true if the contract is paused, and false otherwise."
      },
      "renounceRole(bytes32,address)": {
        "details": "Revokes `role` from the calling account. Roles are often managed via {grantRole} and {revokeRole}: this function's purpose is to provide a mechanism for accounts to lose their privileges if they are compromised (such as when a trusted device is misplaced). If the calling account had been revoked `role`, emits a {RoleRevoked} event. Requirements: - the caller must be `account`. May emit a {RoleRevoked} event."
      },
      "revokeRole(bytes32,address)": {
        "details": "Revokes `role` from `account`. If `account` had been granted `role`, emits a {RoleRevoked} event. Requirements: - the caller must have ``role``'s admin role. May emit a {RoleRevoked} event."
      },
      "setPoolImplementation(address)": {
        "details": "Only admin can can call it",
        "params": {
          "_poolImplementationAddress": "Address of new pool implementation"
        }
      },
      "setVestingImplementation(address)": {
        "details": "Only admin can can call it",
        "params": {
          "_vestingImplementationAddress": "Address of new vesting implementation"
        }
      },
      "supportsInterface(bytes4)": {
        "details": "See {IERC165-supportsInterface}."
      }
    },
    "stateVariables": {
      "poolImplementationAddress": {
        "details": "Address of pool implementation"
      },
      "vestingImplementationAddress": {
        "details": "Address of vesting implementation"
      }
    },
    "version": 1
  },
  "userdoc": {
    "kind": "user",
    "methods": {
      "OWNER_ROLE()": {
        "notice": "keccak256(\"OWNER_ROLE\")"
      },
      "createPool(address[2],uint256[18],uint256)": {
        "notice": "Create new pool. One pool has 2 sub-pool: galaxy pool and crowfunding pool, with 2 different participation fee. In crowfunding pool, there is a part for WHALE to buy early (called EARLY ACCESS) and another for NORMAL user to buy (called NORMAL ACCESS). Duration of galaxy pool and EARLY ACCESS are same and before duration of NORMAL ACCESS. There are 3 types of profit: participation fee, token fee and collaborator profit. Token fee + Collaborator profit = total raise amount (IDO token) * price = purchased amount (purchase token) Investors need to pay purchase amount and participation fee If project is success (not be cancelled by admin or funded enough IDO token),  - System's admin claims participation fee and token fee    (call pool.claimParticipationFee(), pool.claimTokenFee())  - Collaborator claims collaborator profit (purchased amount - token fee) based on vesting rule    (call pool.claimProfit())  - Investors claim IDO token based on vesting rule  - Collaborator withdraws redundant IDO token    (call pool.withdrawRedundantIDOToken()) If project is fail (cancelled or not be funded enough IDO token) (of course before TGE date)  - System's admin claims participation fee    (call pool.claimParticipationFee())  - Investors withdraw purchased amount    (call pool.withdrawPurchasedAmount())  - Collaborator withdraws funded IDO token    (call pool.withdrawRedundantIDOToken())"
      },
      "initialize(address,address)": {
        "notice": "Initialize pool factory with address of pool implementation"
      },
      "setPoolImplementation(address)": {
        "notice": "Set or change address of pool implementation"
      },
      "setVestingImplementation(address)": {
        "notice": "Set or change address of vesting implementation"
      }
    },
    "version": 1
  },
  "storageLayout": {
    "storage": [
      {
        "astId": 10235,
        "contract": "contracts/core/IgnitionFactory.sol:IgnitionFactory",
        "label": "_roles",
        "offset": 0,
        "slot": "0",
        "type": "t_mapping(t_bytes32,t_struct(RoleData)10230_storage)"
      },
      {
        "astId": 10710,
        "contract": "contracts/core/IgnitionFactory.sol:IgnitionFactory",
        "label": "_paused",
        "offset": 0,
        "slot": "1",
        "type": "t_bool"
      },
      {
        "astId": 10582,
        "contract": "contracts/core/IgnitionFactory.sol:IgnitionFactory",
        "label": "_initialized",
        "offset": 1,
        "slot": "1",
        "type": "t_uint8"
      },
      {
        "astId": 10585,
        "contract": "contracts/core/IgnitionFactory.sol:IgnitionFactory",
        "label": "_initializing",
        "offset": 2,
        "slot": "1",
        "type": "t_bool"
      },
      {
        "astId": 10811,
        "contract": "contracts/core/IgnitionFactory.sol:IgnitionFactory",
        "label": "_status",
        "offset": 0,
        "slot": "2",
        "type": "t_uint256"
      },
      {
        "astId": 3073,
        "contract": "contracts/core/IgnitionFactory.sol:IgnitionFactory",
        "label": "poolImplementationAddress",
        "offset": 0,
        "slot": "3",
        "type": "t_address"
      },
      {
        "astId": 3076,
        "contract": "contracts/core/IgnitionFactory.sol:IgnitionFactory",
        "label": "vestingImplementationAddress",
        "offset": 0,
        "slot": "4",
        "type": "t_address"
      }
    ],
    "types": {
      "t_address": {
        "encoding": "inplace",
        "label": "address",
        "numberOfBytes": "20"
      },
      "t_bool": {
        "encoding": "inplace",
        "label": "bool",
        "numberOfBytes": "1"
      },
      "t_bytes32": {
        "encoding": "inplace",
        "label": "bytes32",
        "numberOfBytes": "32"
      },
      "t_mapping(t_address,t_bool)": {
        "encoding": "mapping",
        "key": "t_address",
        "label": "mapping(address => bool)",
        "numberOfBytes": "32",
        "value": "t_bool"
      },
      "t_mapping(t_bytes32,t_struct(RoleData)10230_storage)": {
        "encoding": "mapping",
        "key": "t_bytes32",
        "label": "mapping(bytes32 => struct AccessControl.RoleData)",
        "numberOfBytes": "32",
        "value": "t_struct(RoleData)10230_storage"
      },
      "t_struct(RoleData)10230_storage": {
        "encoding": "inplace",
        "label": "struct AccessControl.RoleData",
        "members": [
          {
            "astId": 10227,
            "contract": "contracts/core/IgnitionFactory.sol:IgnitionFactory",
            "label": "members",
            "offset": 0,
            "slot": "0",
            "type": "t_mapping(t_address,t_bool)"
          },
          {
            "astId": 10229,
            "contract": "contracts/core/IgnitionFactory.sol:IgnitionFactory",
            "label": "adminRole",
            "offset": 0,
            "slot": "1",
            "type": "t_bytes32"
          }
        ],
        "numberOfBytes": "64"
      },
      "t_uint256": {
        "encoding": "inplace",
        "label": "uint256",
        "numberOfBytes": "32"
      },
      "t_uint8": {
        "encoding": "inplace",
        "label": "uint8",
        "numberOfBytes": "1"
      }
    }
  }
}