{
  "address": "0xFBFb9D921d65a566444C7aBF9620ADA5B92d6CE0",
  "abi": [
    {
      "inputs": [
        {
          "internalType": "bool",
          "name": "presentStatus",
          "type": "bool"
        }
      ],
      "name": "AlreadySetClaimableTGE",
      "type": "error"
    },
    {
      "inputs": [],
      "name": "ClaimExceedMaxTGEAmount",
      "type": "error"
    },
    {
      "inputs": [
        {
          "internalType": "address",
          "name": "buyer",
          "type": "address"
        },
        {
          "internalType": "uint256",
          "name": "purchaseAmount",
          "type": "uint256"
        }
      ],
      "name": "ExceedMaxPurchaseAmountForEarlyAccess",
      "type": "error"
    },
    {
      "inputs": [
        {
          "internalType": "address",
          "name": "buyer",
          "type": "address"
        },
        {
          "internalType": "uint256",
          "name": "purchaseAmount",
          "type": "uint256"
        }
      ],
      "name": "ExceedMaxPurchaseAmountForGalaxyPool",
      "type": "error"
    },
    {
      "inputs": [
        {
          "internalType": "address",
          "name": "buyer",
          "type": "address"
        },
        {
          "internalType": "uint256",
          "name": "purchaseAmount",
          "type": "uint256"
        }
      ],
      "name": "ExceedMaxPurchaseAmountForKYCUser",
      "type": "error"
    },
    {
      "inputs": [
        {
          "internalType": "address",
          "name": "buyer",
          "type": "address"
        },
        {
          "internalType": "uint256",
          "name": "purchaseAmount",
          "type": "uint256"
        }
      ],
      "name": "ExceedMaxPurchaseAmountForNotKYCUser",
      "type": "error"
    },
    {
      "inputs": [],
      "name": "ExceedMaxPurchaseAmountForUser",
      "type": "error"
    },
    {
      "inputs": [
        {
          "internalType": "address",
          "name": "buyer",
          "type": "address"
        },
        {
          "internalType": "uint256",
          "name": "purchaseAmount",
          "type": "uint256"
        }
      ],
      "name": "ExceedTotalRaiseAmount",
      "type": "error"
    },
    {
      "inputs": [],
      "name": "NotAdmin",
      "type": "error"
    },
    {
      "inputs": [],
      "name": "NotAllowedToClaimTGEIDOAmount",
      "type": "error"
    },
    {
      "inputs": [
        {
          "internalType": "address",
          "name": "buyer",
          "type": "address"
        },
        {
          "internalType": "address",
          "name": "purchaseToken",
          "type": "address"
        },
        {
          "internalType": "uint256",
          "name": "allowance",
          "type": "uint256"
        },
        {
          "internalType": "uint256",
          "name": "amount",
          "type": "uint256"
        }
      ],
      "name": "NotEnoughAllowance",
      "type": "error"
    },
    {
      "inputs": [],
      "name": "NotEnoughConditionToRedeemIDOToken",
      "type": "error"
    },
    {
      "inputs": [],
      "name": "NotEnoughConditionToRedeemPurchaseToken",
      "type": "error"
    },
    {
      "inputs": [
        {
          "internalType": "address",
          "name": "buyer",
          "type": "address"
        }
      ],
      "name": "NotInWhaleList",
      "type": "error"
    },
    {
      "inputs": [
        {
          "internalType": "uint256",
          "name": "whaleOpenTime",
          "type": "uint256"
        },
        {
          "internalType": "uint256",
          "name": "whaleCloseTime",
          "type": "uint256"
        },
        {
          "internalType": "uint256",
          "name": "communityOpenTime",
          "type": "uint256"
        },
        {
          "internalType": "uint256",
          "name": "communityCloseTime",
          "type": "uint256"
        }
      ],
      "name": "NotUpdateValidTime",
      "type": "error"
    },
    {
      "inputs": [],
      "name": "NotValidSignature",
      "type": "error"
    },
    {
      "inputs": [],
      "name": "NotYetTimeToClaimTGE",
      "type": "error"
    },
    {
      "inputs": [
        {
          "internalType": "uint256",
          "name": "whaleOpenTime",
          "type": "uint256"
        },
        {
          "internalType": "uint256",
          "name": "whaleCloseTime",
          "type": "uint256"
        },
        {
          "internalType": "uint256",
          "name": "communityOpenTime",
          "type": "uint256"
        },
        {
          "internalType": "uint256",
          "name": "communityCloseTime",
          "type": "uint256"
        },
        {
          "internalType": "uint256",
          "name": "timestamp",
          "type": "uint256"
        },
        {
          "internalType": "address",
          "name": "buyer",
          "type": "address"
        }
      ],
      "name": "TimeOutToBuyToken",
      "type": "error"
    },
    {
      "inputs": [],
      "name": "TimeOutToSetPoolStatus",
      "type": "error"
    },
    {
      "inputs": [],
      "name": "ZeroAddress",
      "type": "error"
    },
    {
      "inputs": [],
      "name": "ZeroAmount",
      "type": "error"
    },
    {
      "anonymous": false,
      "inputs": [
        {
          "indexed": true,
          "internalType": "address",
          "name": "buyer",
          "type": "address"
        },
        {
          "indexed": true,
          "internalType": "address",
          "name": "pool",
          "type": "address"
        },
        {
          "indexed": true,
          "internalType": "address",
          "name": "IDOToken",
          "type": "address"
        },
        {
          "indexed": false,
          "internalType": "uint256",
          "name": "purchaseAmount",
          "type": "uint256"
        }
      ],
      "name": "BuyToken",
      "type": "event"
    },
    {
      "anonymous": false,
      "inputs": [
        {
          "indexed": false,
          "internalType": "address",
          "name": "buyer",
          "type": "address"
        },
        {
          "indexed": false,
          "internalType": "uint256",
          "name": "claimAmount",
          "type": "uint256"
        }
      ],
      "name": "ClaimTGEAmount",
      "type": "event"
    },
    {
      "anonymous": false,
      "inputs": [
        {
          "indexed": false,
          "internalType": "uint8",
          "name": "version",
          "type": "uint8"
        }
      ],
      "name": "Initialized",
      "type": "event"
    },
    {
      "anonymous": false,
      "inputs": [
        {
          "indexed": false,
          "internalType": "address",
          "name": "account",
          "type": "address"
        }
      ],
      "name": "Paused",
      "type": "event"
    },
    {
      "anonymous": false,
      "inputs": [
        {
          "indexed": false,
          "internalType": "address",
          "name": "IDOToken",
          "type": "address"
        },
        {
          "indexed": false,
          "internalType": "address",
          "name": "purchaseToken",
          "type": "address"
        },
        {
          "indexed": false,
          "internalType": "uint256",
          "name": "rate",
          "type": "uint256"
        },
        {
          "indexed": false,
          "internalType": "uint256",
          "name": "decimal",
          "type": "uint256"
        },
        {
          "indexed": false,
          "internalType": "uint256",
          "name": "maxPurchaseAmountForKYCUser",
          "type": "uint256"
        },
        {
          "indexed": false,
          "internalType": "uint256",
          "name": "maxPurchaseAmountForNotKYCUser",
          "type": "uint256"
        },
        {
          "indexed": false,
          "internalType": "uint16",
          "name": "participationFeePercentage",
          "type": "uint16"
        },
        {
          "indexed": false,
          "internalType": "uint16",
          "name": "galaxyPoolProportion",
          "type": "uint16"
        },
        {
          "indexed": false,
          "internalType": "uint16",
          "name": "earlyAccessProportion",
          "type": "uint16"
        },
        {
          "indexed": false,
          "internalType": "uint256",
          "name": "totalRaiseAmount",
          "type": "uint256"
        },
        {
          "indexed": false,
          "internalType": "uint64",
          "name": "whaleOpenTime",
          "type": "uint64"
        },
        {
          "indexed": false,
          "internalType": "uint64",
          "name": "whaleCloseTime",
          "type": "uint64"
        },
        {
          "indexed": false,
          "internalType": "uint64",
          "name": "communityCloseTime",
          "type": "uint64"
        }
      ],
      "name": "PoolCreated",
      "type": "event"
    },
    {
      "anonymous": false,
      "inputs": [
        {
          "indexed": false,
          "internalType": "address",
          "name": "redeemIDOTokenRecipient",
          "type": "address"
        },
        {
          "indexed": false,
          "internalType": "address",
          "name": "IDOToken",
          "type": "address"
        },
        {
          "indexed": false,
          "internalType": "uint256",
          "name": "remainAmount",
          "type": "uint256"
        }
      ],
      "name": "RedeemIDOToken",
      "type": "event"
    },
    {
      "anonymous": false,
      "inputs": [
        {
          "indexed": false,
          "internalType": "address",
          "name": "redeemPurchaseTokenRecipient",
          "type": "address"
        },
        {
          "indexed": false,
          "internalType": "address",
          "name": "purchaseToken",
          "type": "address"
        },
        {
          "indexed": false,
          "internalType": "uint256",
          "name": "purchaseAmount",
          "type": "uint256"
        }
      ],
      "name": "RedeemPurchaseToken",
      "type": "event"
    },
    {
      "anonymous": false,
      "inputs": [
        {
          "indexed": true,
          "internalType": "bytes32",
          "name": "role",
          "type": "bytes32"
        },
        {
          "indexed": true,
          "internalType": "bytes32",
          "name": "previousAdminRole",
          "type": "bytes32"
        },
        {
          "indexed": true,
          "internalType": "bytes32",
          "name": "newAdminRole",
          "type": "bytes32"
        }
      ],
      "name": "RoleAdminChanged",
      "type": "event"
    },
    {
      "anonymous": false,
      "inputs": [
        {
          "indexed": true,
          "internalType": "bytes32",
          "name": "role",
          "type": "bytes32"
        },
        {
          "indexed": true,
          "internalType": "address",
          "name": "account",
          "type": "address"
        },
        {
          "indexed": true,
          "internalType": "address",
          "name": "sender",
          "type": "address"
        }
      ],
      "name": "RoleGranted",
      "type": "event"
    },
    {
      "anonymous": false,
      "inputs": [
        {
          "indexed": true,
          "internalType": "bytes32",
          "name": "role",
          "type": "bytes32"
        },
        {
          "indexed": true,
          "internalType": "address",
          "name": "account",
          "type": "address"
        },
        {
          "indexed": true,
          "internalType": "address",
          "name": "sender",
          "type": "address"
        }
      ],
      "name": "RoleRevoked",
      "type": "event"
    },
    {
      "anonymous": false,
      "inputs": [
        {
          "indexed": false,
          "internalType": "address",
          "name": "IDOToken",
          "type": "address"
        }
      ],
      "name": "SetIDOTokenAddress",
      "type": "event"
    },
    {
      "anonymous": false,
      "inputs": [
        {
          "indexed": false,
          "internalType": "bool",
          "name": "claimable",
          "type": "bool"
        }
      ],
      "name": "SetTGEClaimable",
      "type": "event"
    },
    {
      "anonymous": false,
      "inputs": [
        {
          "indexed": false,
          "internalType": "address",
          "name": "account",
          "type": "address"
        }
      ],
      "name": "Unpaused",
      "type": "event"
    },
    {
      "anonymous": false,
      "inputs": [
        {
          "indexed": true,
          "internalType": "address",
          "name": "feeRecipient",
          "type": "address"
        }
      ],
      "name": "UpdateFeeRecipient",
      "type": "event"
    },
    {
      "anonymous": false,
      "inputs": [
        {
          "indexed": false,
          "internalType": "uint256",
          "name": "_rate",
          "type": "uint256"
        },
        {
          "indexed": false,
          "internalType": "uint256",
          "name": "_decimal",
          "type": "uint256"
        }
      ],
      "name": "UpdateOfferedCurrencyRateAndDecimal",
      "type": "event"
    },
    {
      "anonymous": false,
      "inputs": [
        {
          "indexed": true,
          "internalType": "address",
          "name": "pool",
          "type": "address"
        },
        {
          "indexed": false,
          "internalType": "bool",
          "name": "status",
          "type": "bool"
        }
      ],
      "name": "UpdateOpenPoolStatus",
      "type": "event"
    },
    {
      "anonymous": false,
      "inputs": [
        {
          "indexed": false,
          "internalType": "bytes32",
          "name": "root",
          "type": "bytes32"
        }
      ],
      "name": "UpdateRoot",
      "type": "event"
    },
    {
      "anonymous": false,
      "inputs": [
        {
          "indexed": false,
          "internalType": "uint64",
          "name": "whaleOpenTime",
          "type": "uint64"
        },
        {
          "indexed": false,
          "internalType": "uint64",
          "name": "whaleCloseTime",
          "type": "uint64"
        },
        {
          "indexed": false,
          "internalType": "uint64",
          "name": "communityOpenTime",
          "type": "uint64"
        },
        {
          "indexed": false,
          "internalType": "uint64",
          "name": "communityCloseTime",
          "type": "uint64"
        }
      ],
      "name": "UpdateTime",
      "type": "event"
    },
    {
      "inputs": [],
      "name": "DEFAULT_ADMIN_ROLE",
      "outputs": [
        {
          "internalType": "bytes32",
          "name": "",
          "type": "bytes32"
        }
      ],
      "stateMutability": "view",
      "type": "function"
    },
    {
      "inputs": [],
      "name": "IDOToken",
      "outputs": [
        {
          "internalType": "contract IERC20",
          "name": "",
          "type": "address"
        }
      ],
      "stateMutability": "view",
      "type": "function"
    },
    {
      "inputs": [],
      "name": "NORMAL_USER",
      "outputs": [
        {
          "internalType": "bytes32",
          "name": "",
          "type": "bytes32"
        }
      ],
      "stateMutability": "view",
      "type": "function"
    },
    {
      "inputs": [],
      "name": "PERCENTAGE_DENOMINATOR",
      "outputs": [
        {
          "internalType": "uint16",
          "name": "",
          "type": "uint16"
        }
      ],
      "stateMutability": "view",
      "type": "function"
    },
    {
      "inputs": [],
      "name": "TGEClaimable",
      "outputs": [
        {
          "internalType": "bool",
          "name": "",
          "type": "bool"
        }
      ],
      "stateMutability": "view",
      "type": "function"
    },
    {
      "inputs": [],
      "name": "TGEDate",
      "outputs": [
        {
          "internalType": "uint64",
          "name": "",
          "type": "uint64"
        }
      ],
      "stateMutability": "view",
      "type": "function"
    },
    {
      "inputs": [],
      "name": "TGEPercentage",
      "outputs": [
        {
          "internalType": "uint16",
          "name": "",
          "type": "uint16"
        }
      ],
      "stateMutability": "view",
      "type": "function"
    },
    {
      "inputs": [],
      "name": "WHALE",
      "outputs": [
        {
          "internalType": "bytes32",
          "name": "",
          "type": "bytes32"
        }
      ],
      "stateMutability": "view",
      "type": "function"
    },
    {
      "inputs": [
        {
          "internalType": "bytes32[]",
          "name": "proof",
          "type": "bytes32[]"
        },
        {
          "internalType": "uint256",
          "name": "_purchaseAmount",
          "type": "uint256"
        }
      ],
      "name": "buyTokenInCrowdfundingPool",
      "outputs": [],
      "stateMutability": "nonpayable",
      "type": "function"
    },
    {
      "inputs": [
        {
          "internalType": "bytes32[]",
          "name": "proof",
          "type": "bytes32[]"
        },
        {
          "internalType": "uint256",
          "name": "_purchaseAmount",
          "type": "uint256"
        },
        {
          "internalType": "uint256",
          "name": "_allowance",
          "type": "uint256"
        },
        {
          "internalType": "uint256",
          "name": "_deadline",
          "type": "uint256"
        },
        {
          "internalType": "bytes",
          "name": "_signature",
          "type": "bytes"
        }
      ],
      "name": "buyTokenInCrowdfundingPoolWithPermit",
      "outputs": [],
      "stateMutability": "nonpayable",
      "type": "function"
    },
    {
      "inputs": [
        {
          "internalType": "bytes32[]",
          "name": "proof",
          "type": "bytes32[]"
        },
        {
          "internalType": "uint256",
          "name": "_purchaseAmount",
          "type": "uint256"
        },
        {
          "internalType": "uint256",
          "name": "_maxPurchaseBaseOnAllocations",
          "type": "uint256"
        }
      ],
      "name": "buyTokenInGalaxyPool",
      "outputs": [],
      "stateMutability": "nonpayable",
      "type": "function"
    },
    {
      "inputs": [
        {
          "internalType": "bytes32[]",
          "name": "proof",
          "type": "bytes32[]"
        },
        {
          "internalType": "uint256",
          "name": "_purchaseAmount",
          "type": "uint256"
        },
        {
          "internalType": "uint256",
          "name": "_maxPurchaseBaseOnAllocations",
          "type": "uint256"
        },
        {
          "internalType": "uint256",
          "name": "_deadline",
          "type": "uint256"
        },
        {
          "internalType": "bytes",
          "name": "_signature",
          "type": "bytes"
        }
      ],
      "name": "buyTokenInGalaxyPoolWithPermit",
      "outputs": [],
      "stateMutability": "nonpayable",
      "type": "function"
    },
    {
      "inputs": [
        {
          "internalType": "uint256",
          "name": "_IDOClaimAmount",
          "type": "uint256"
        }
      ],
      "name": "claimTGEIDOToken",
      "outputs": [],
      "stateMutability": "nonpayable",
      "type": "function"
    },
    {
      "inputs": [],
      "name": "closePool",
      "outputs": [],
      "stateMutability": "nonpayable",
      "type": "function"
    },
    {
      "inputs": [],
      "name": "communityCloseTime",
      "outputs": [
        {
          "internalType": "uint64",
          "name": "",
          "type": "uint64"
        }
      ],
      "stateMutability": "view",
      "type": "function"
    },
    {
      "inputs": [],
      "name": "communityOpenTime",
      "outputs": [
        {
          "internalType": "uint64",
          "name": "",
          "type": "uint64"
        }
      ],
      "stateMutability": "view",
      "type": "function"
    },
    {
      "inputs": [],
      "name": "earlyAccessProportion",
      "outputs": [
        {
          "internalType": "uint16",
          "name": "",
          "type": "uint16"
        }
      ],
      "stateMutability": "view",
      "type": "function"
    },
    {
      "inputs": [],
      "name": "galaxyPoolProportion",
      "outputs": [
        {
          "internalType": "uint16",
          "name": "",
          "type": "uint16"
        }
      ],
      "stateMutability": "view",
      "type": "function"
    },
    {
      "inputs": [
        {
          "internalType": "bytes32",
          "name": "role",
          "type": "bytes32"
        }
      ],
      "name": "getRoleAdmin",
      "outputs": [
        {
          "internalType": "bytes32",
          "name": "",
          "type": "bytes32"
        }
      ],
      "stateMutability": "view",
      "type": "function"
    },
    {
      "inputs": [
        {
          "internalType": "bytes32",
          "name": "role",
          "type": "bytes32"
        },
        {
          "internalType": "address",
          "name": "account",
          "type": "address"
        }
      ],
      "name": "grantRole",
      "outputs": [],
      "stateMutability": "nonpayable",
      "type": "function"
    },
    {
      "inputs": [
        {
          "internalType": "bytes32",
          "name": "role",
          "type": "bytes32"
        },
        {
          "internalType": "address",
          "name": "account",
          "type": "address"
        }
      ],
      "name": "hasRole",
      "outputs": [
        {
          "internalType": "bool",
          "name": "",
          "type": "bool"
        }
      ],
      "stateMutability": "view",
      "type": "function"
    },
    {
      "inputs": [
        {
          "internalType": "address[2]",
          "name": "addrs",
          "type": "address[2]"
        },
        {
          "internalType": "uint256[13]",
          "name": "uints",
          "type": "uint256[13]"
        }
      ],
      "name": "initialize",
      "outputs": [],
      "stateMutability": "nonpayable",
      "type": "function"
    },
    {
      "inputs": [],
      "name": "maxPurchaseAmountForEarlyAccess",
      "outputs": [
        {
          "internalType": "uint256",
          "name": "",
          "type": "uint256"
        }
      ],
      "stateMutability": "view",
      "type": "function"
    },
    {
      "inputs": [],
      "name": "maxPurchaseAmountForGalaxyPool",
      "outputs": [
        {
          "internalType": "uint256",
          "name": "",
          "type": "uint256"
        }
      ],
      "stateMutability": "view",
      "type": "function"
    },
    {
      "inputs": [],
      "name": "maxPurchaseAmountForKYCUser",
      "outputs": [
        {
          "internalType": "uint256",
          "name": "",
          "type": "uint256"
        }
      ],
      "stateMutability": "view",
      "type": "function"
    },
    {
      "inputs": [],
      "name": "maxPurchaseAmountForNotKYCUser",
      "outputs": [
        {
          "internalType": "uint256",
          "name": "",
          "type": "uint256"
        }
      ],
      "stateMutability": "view",
      "type": "function"
    },
    {
      "inputs": [],
      "name": "offeredCurrency",
      "outputs": [
        {
          "internalType": "uint256",
          "name": "rate",
          "type": "uint256"
        },
        {
          "internalType": "uint256",
          "name": "decimal",
          "type": "uint256"
        }
      ],
      "stateMutability": "view",
      "type": "function"
    },
    {
      "inputs": [],
      "name": "participationFeePercentage",
      "outputs": [
        {
          "internalType": "uint16",
          "name": "",
          "type": "uint16"
        }
      ],
      "stateMutability": "view",
      "type": "function"
    },
    {
      "inputs": [],
      "name": "paused",
      "outputs": [
        {
          "internalType": "bool",
          "name": "",
          "type": "bool"
        }
      ],
      "stateMutability": "view",
      "type": "function"
    },
    {
      "inputs": [],
      "name": "poolFactory",
      "outputs": [
        {
          "internalType": "contract IPoolFactory",
          "name": "",
          "type": "address"
        }
      ],
      "stateMutability": "view",
      "type": "function"
    },
    {
      "inputs": [],
      "name": "purchaseToken",
      "outputs": [
        {
          "internalType": "contract IERC20",
          "name": "",
          "type": "address"
        }
      ],
      "stateMutability": "view",
      "type": "function"
    },
    {
      "inputs": [],
      "name": "purchasedAmount",
      "outputs": [
        {
          "internalType": "uint256",
          "name": "",
          "type": "uint256"
        }
      ],
      "stateMutability": "view",
      "type": "function"
    },
    {
      "inputs": [],
      "name": "purchasedAmountInEarlyAccess",
      "outputs": [
        {
          "internalType": "uint256",
          "name": "",
          "type": "uint256"
        }
      ],
      "stateMutability": "view",
      "type": "function"
    },
    {
      "inputs": [],
      "name": "purchasedAmountInGalaxyPool",
      "outputs": [
        {
          "internalType": "uint256",
          "name": "",
          "type": "uint256"
        }
      ],
      "stateMutability": "view",
      "type": "function"
    },
    {
      "inputs": [
        {
          "internalType": "address",
          "name": "_redeemIDOTokenRecipient",
          "type": "address"
        }
      ],
      "name": "redeemIDOToken",
      "outputs": [],
      "stateMutability": "nonpayable",
      "type": "function"
    },
    {
      "inputs": [
        {
          "internalType": "address",
          "name": "_redeemPurchaseTokenRecipient",
          "type": "address"
        }
      ],
      "name": "redeemPurchaseToken",
      "outputs": [],
      "stateMutability": "nonpayable",
      "type": "function"
    },
    {
      "inputs": [
        {
          "internalType": "bytes32",
          "name": "role",
          "type": "bytes32"
        },
        {
          "internalType": "address",
          "name": "account",
          "type": "address"
        }
      ],
      "name": "renounceRole",
      "outputs": [],
      "stateMutability": "nonpayable",
      "type": "function"
    },
    {
      "inputs": [
        {
          "internalType": "bytes32",
          "name": "role",
          "type": "bytes32"
        },
        {
          "internalType": "address",
          "name": "account",
          "type": "address"
        }
      ],
      "name": "revokeRole",
      "outputs": [],
      "stateMutability": "nonpayable",
      "type": "function"
    },
    {
      "inputs": [],
      "name": "root",
      "outputs": [
        {
          "internalType": "bytes32",
          "name": "",
          "type": "bytes32"
        }
      ],
      "stateMutability": "view",
      "type": "function"
    },
    {
      "inputs": [
        {
          "internalType": "bool",
          "name": "_TGEClaimableStatus",
          "type": "bool"
        }
      ],
      "name": "setClaimableTGEIDOToken",
      "outputs": [],
      "stateMutability": "nonpayable",
      "type": "function"
    },
    {
      "inputs": [
        {
          "internalType": "bytes32",
          "name": "_root",
          "type": "bytes32"
        }
      ],
      "name": "setRoot",
      "outputs": [],
      "stateMutability": "nonpayable",
      "type": "function"
    },
    {
      "inputs": [
        {
          "internalType": "bytes4",
          "name": "interfaceId",
          "type": "bytes4"
        }
      ],
      "name": "supportsInterface",
      "outputs": [
        {
          "internalType": "bool",
          "name": "",
          "type": "bool"
        }
      ],
      "stateMutability": "view",
      "type": "function"
    },
    {
      "inputs": [],
      "name": "totalRaiseAmount",
      "outputs": [
        {
          "internalType": "uint256",
          "name": "",
          "type": "uint256"
        }
      ],
      "stateMutability": "view",
      "type": "function"
    },
    {
      "inputs": [
        {
          "internalType": "uint64",
          "name": "_newWhaleCloseTime",
          "type": "uint64"
        },
        {
          "internalType": "uint64",
          "name": "_newCommunityCloseTime",
          "type": "uint64"
        }
      ],
      "name": "updateTime",
      "outputs": [],
      "stateMutability": "nonpayable",
      "type": "function"
    },
    {
      "inputs": [
        {
          "internalType": "address",
          "name": "",
          "type": "address"
        }
      ],
      "name": "userIDOAirdropAmount",
      "outputs": [
        {
          "internalType": "uint256",
          "name": "",
          "type": "uint256"
        }
      ],
      "stateMutability": "view",
      "type": "function"
    },
    {
      "inputs": [
        {
          "internalType": "address",
          "name": "",
          "type": "address"
        }
      ],
      "name": "userIDOTGEAmount",
      "outputs": [
        {
          "internalType": "uint256",
          "name": "",
          "type": "uint256"
        }
      ],
      "stateMutability": "view",
      "type": "function"
    },
    {
      "inputs": [
        {
          "internalType": "address",
          "name": "",
          "type": "address"
        }
      ],
      "name": "userPurchasedAmount",
      "outputs": [
        {
          "internalType": "uint256",
          "name": "",
          "type": "uint256"
        }
      ],
      "stateMutability": "view",
      "type": "function"
    },
    {
      "inputs": [],
      "name": "whaleCloseTime",
      "outputs": [
        {
          "internalType": "uint64",
          "name": "",
          "type": "uint64"
        }
      ],
      "stateMutability": "view",
      "type": "function"
    },
    {
      "inputs": [],
      "name": "whaleOpenTime",
      "outputs": [
        {
          "internalType": "uint64",
          "name": "",
          "type": "uint64"
        }
      ],
      "stateMutability": "view",
      "type": "function"
    }
  ],
  "transactionHash": "0xf79e2ec67f95656e4a463254acfa9b6e6ed79d679e9c205133e93d01a95c23e7",
  "args": [],
  "numDeployments": 2,
  "solcInputHash": "530248caf089a1b51ebded0f5e95c980",
  "bytecode": "0x608060405234801561001057600080fd5b506000805460ff191690556001805561301a8061002e6000396000f3fe608060405234801561001057600080fd5b50600436106102ab5760003560e01c806381e2403b11610172578063b4582276116100d9578063d547741f11610092578063d547741f14610629578063dab5f3401461063c578063e5fa15fa1461064f578063e995914914610663578063ebf0c7171461068a578063efaad0ec14610693578063f1379939146106a657600080fd5b8063b4582276146105aa578063c09d6fb9146105bf578063cb128728146105d4578063cdc5598e146105e7578063ce7c6410146105fc578063d38ae12b1461061657600080fd5b8063a217fddf1161012b578063a217fddf14610543578063a4f276c71461054b578063a558b65c1461056b578063a95c4d6214610585578063b3679bda14610598578063b3cd4254146105a157600080fd5b806381e2403b146104d957806385f8f4be146104ec57806387e44935146104f557806391d148541461050857806397ff2f221461051b578063a09e06a11461053057600080fd5b80633baa6fca116102165780635c5b1f83116101cf5780635c5b1f83146104815780635c975abb146104a157806366805de5146104ac5780637656cb83146104b457806377292d5b146104c75780637b1a0838146104d057600080fd5b80633baa6fca146103df5780633d3e3763146103f25780633da1d412146104055780634219dc40146104255780634327a9031461044b5780634f93d1ad1461045e57600080fd5b8063248a9ca311610268578063248a9ca3146103525780632f2ff15d1461037557806330bba6c41461038857806332aff4d31461039157806334fa224b146103a457806336568abe146103cc57600080fd5b806301ffc9a7146102b0578063086425bc146102d85780631353ff75146102ed5780631649da6e146103045780631acbc823146103175780632013b4c414610320575b600080fd5b6102c36102be3660046127c0565b6106af565b60405190151581526020015b60405180910390f35b6102eb6102e63660046128ef565b6106e6565b005b6102f660095481565b6040519081526020016102cf565b6102eb610312366004612958565b6107e0565b6102f660125481565b600f5461033a90600160c01b90046001600160401b031681565b6040516001600160401b0390911681526020016102cf565b6102f6610360366004612a0f565b60009081526003602052604090206001015490565b6102eb610383366004612a28565b610c6e565b6102f6600c5481565b6102eb61039f366004612a54565b610c93565b600d546103b990600160601b900461ffff1681565b60405161ffff90911681526020016102cf565b6102eb6103da366004612a28565b610e68565b600f5461033a906001600160401b031681565b6102eb610400366004612a86565b610ee2565b6102f6610413366004612a54565b60146020526000908152604090205481565b60045461043e906201000090046001600160a01b031681565b6040516102cf9190612ab0565b6102eb610459366004612ad2565b611093565b60075460085461046c919082565b604080519283526020830191909152016102cf565b6102f661048f366004612a54565b60156020526000908152604090205481565b60005460ff166102c3565b6102eb6111c8565b6102eb6104c2366004612a0f565b61129a565b6102f660105481565b6102f660115481565b6102eb6104e7366004612aef565b611396565b6102f6600b5481565b60055461043e906001600160a01b031681565b6102c3610516366004612a28565b6114b3565b600d546103b990600160501b900461ffff1681565b6102eb61053e366004612aef565b6114de565b6102f6600081565b6102f6610559366004612a54565b60136020526000908152604090205481565b600f5461033a90600160801b90046001600160401b031681565b60065461043e906001600160a01b031681565b6102f6600e5481565b6103b961271081565b600d546103b990600160401b900461ffff1681565b6102f6600080516020612fc583398151915281565b600d5461033a906001600160401b031681565b600d546103b990600160701b900461ffff1681565b600f5461033a90600160401b90046001600160401b031681565b6102eb610624366004612a54565b611633565b6102eb610637366004612a28565b6117e3565b6102eb61064a366004612a0f565b611808565b600d546102c390600160801b900460ff1681565b6102f67f13e31188d81b941f4c541528790db4031bef078b78d364bde6fc2d4e5ad79e0181565b6102f660025481565b6102eb6106a1366004612bc2565b6118cf565b6102f6600a5481565b60006001600160e01b03198216637965db0b60e01b14806106e057506301ffc9a760e01b6001600160e01b03198316145b92915050565b6106ee611973565b6002600154141561071a5760405162461bcd60e51b815260040161071190612c06565b60405180910390fd5b60026001556107276119bb565b6107ad57600f546001600160401b0380821691600160401b8104821691600160801b8204811691600160c01b90041642335b6040516364daa85360e11b81526001600160401b039687166004820152948616602486015292851660448501529316606483015260848201929092526001600160a01b0390911660a482015260c401610711565b6107b733836119ef565b6107c18282611aac565b6107ce8383836000611ad6565b6107d782611b5c565b50506001805550565b600454610100900460ff16158080156108005750600454600160ff909116105b8061081a5750303b15801561081a575060045460ff166001145b61087d5760405162461bcd60e51b815260206004820152602e60248201527f496e697469616c697a61626c653a20636f6e747261637420697320616c72656160448201526d191e481a5b9a5d1a585b1a5e995960921b6064820152608401610711565b6004805460ff1916600117905580156108a0576004805461ff0019166101001790555b6004805462010000330262010000600160b01b03199091161790558251602080850151600580546001600160a01b039485166001600160a01b0319918216179091556006805492909416911617909155825190830151600b91909155600c556040820151606083015161091282611b76565b600d805467ffffffffffffffff19166001600160401b039290921691909117905561093c81611be2565b600d805461ffff92909216600160401b0261ffff60401b199092169190911790555050608082015161096d81611be2565b600d805461ffff92909216600160501b0261ffff60501b199092169190911790555060a082015160c083015160e08401516109a783611be2565b600d600c6101000a81548161ffff021916908361ffff1602179055506109cc82611be2565b600d805461ffff92909216600160701b0261ffff60701b19909216919091179055600e8190556127106109ff8483612c69565b610a099190612c88565b6009556127108083610a1b8683612caa565b610a259085612c69565b610a2f9190612c69565b610a399190612c88565b610a439190612c88565b600a55505050610100820151610120830151610140840151610a6483611b76565b600f805467ffffffffffffffff19166001600160401b0392909216919091179055610a97610a928385612cc1565b611b76565b600f8054600160401b600160c01b0319811667ffffffffffffffff60801b196001600160401b03948516600160401b9081029182169290921767ffffffffffffffff60401b1990931617048316600160801b9081029190911791829055610b0692610a92928592900416612cc1565b600f80546001600160c01b038116600160c01b6001600160401b03948516810291821793849055610160808b0151610180808d015160078390556008819055600554600654600b54600c54600d54600e54604080516001600160a01b039788168152969095166020870152938501979097526060840194909452608083015260a0820192909252600160501b840461ffff90811660c0830152600160601b8504811660e0830152600160701b90940490931661010084015261012083015293871694871694909417610140850152600160401b8504861690840152909204909216908201527fff88ccb1dfbd918de09a2534be0afa5c86dde65c8c50d601b6d8e6a4de4bf60893506101a0019150610c1b9050565b60405180910390a18015610c69576004805461ff0019169055604051600181527f7f26b83ff96e1f2b6a682f133852f6798a09c465da95921460cefb38474024989060200160405180910390a15b505050565b600082815260036020526040902060010154610c8981611c45565b610c698383611c4f565b6004546201000090046001600160a01b031663c395fcb3336040518263ffffffff1660e01b8152600401610cc79190612ab0565b602060405180830381865afa158015610ce4573d6000803e3d6000fd5b505050506040513d601f19601f82011682018060405250810190610d089190612cd9565b610d2557604051637bfa4b9f60e01b815260040160405180910390fd5b600554610d3a906001600160a01b0316611cd5565b610d4381611cd5565b60005460ff16151560011480610d6a5750600f54600160c01b90046001600160401b031642115b15610e4c576005546040516370a0823160e01b81526000916001600160a01b0316906370a0823190610da0903090600401612ab0565b602060405180830381865afa158015610dbd573d6000803e3d6000fd5b505050506040513d601f19601f82011682018060405250810190610de19190612cf6565b90508015610e4857600554610e00906001600160a01b03168383611cfc565b6005546040517fb475b33e23c517ab04a59359c4593620c1fafb083636f450b501cfdc5fa7c1d191610e3f9185916001600160a01b0316908590612d0f565b60405180910390a15b5050565b6040516320f0ba3d60e21b815260040160405180910390fd5b50565b6001600160a01b0381163314610ed85760405162461bcd60e51b815260206004820152602f60248201527f416363657373436f6e74726f6c3a2063616e206f6e6c792072656e6f756e636560448201526e103937b632b9903337b91039b2b63360891b6064820152608401610711565b610e488282611d52565b6004546201000090046001600160a01b031663c395fcb3336040518263ffffffff1660e01b8152600401610f169190612ab0565b602060405180830381865afa158015610f33573d6000803e3d6000fd5b505050506040513d601f19601f82011682018060405250810190610f579190612cd9565b610f7457604051637bfa4b9f60e01b815260040160405180910390fd5b806001600160401b0316826001600160401b0316101580610fa45750600f546001600160401b0390811690831611155b15610fef57600f54604051633d9877ad60e11b8152610711916001600160401b0380821692600160401b8304821692600160801b8104831692600160c01b9091041690600401612d33565b600f8054600160401b600160c01b031916600160401b6001600160401b0385811682810267ffffffffffffffff60801b191693909317600160801b938402176001600160c01b038116600160c01b8784168102918217968790556040517feedf049ba2a9e400be9e2a2d93b7e6023411a5c4fd77fe703bc75c2fea691fc397610e3f9794861693861693909317958304851694938304841693919092041690612d33565b6004546201000090046001600160a01b031663c395fcb3336040518263ffffffff1660e01b81526004016110c79190612ab0565b602060405180830381865afa1580156110e4573d6000803e3d6000fd5b505050506040513d601f19601f820116820180604052508101906111089190612cd9565b61112557604051637bfa4b9f60e01b815260040160405180910390fd5b60055461113a906001600160a01b0316611cd5565b600d5460ff600160801b9091041615158115151415611170576040516338a6518f60e01b81528115156004820152602401610711565b600d8054821515600160801b0260ff60801b199091161790556040517fccb5bfd8e614719f5c62e9ee750481317991fd8133670aa1079f1c51d255c6de906111bd90831515815260200190565b60405180910390a150565b6004546201000090046001600160a01b031663c395fcb3336040518263ffffffff1660e01b81526004016111fc9190612ab0565b602060405180830381865afa158015611219573d6000803e3d6000fd5b505050506040513d601f19601f8201168201806040525081019061123d9190612cd9565b61125a57604051637bfa4b9f60e01b815260040160405180910390fd5b611262611db9565b6040516000815230907ff0d6825187080fb76e877d6e8990b1e2a60ed4f2d8ccf610e889659854577e749060200160405180910390a2565b6005546112af906001600160a01b0316611cd5565b600d54600160801b900460ff166112d957604051637e5634e560e11b815260040160405180910390fd5b600d546001600160401b031642101561130557604051634f10668960e01b815260040160405180910390fd5b336000908152601560205260409020548082111561133657604051631ee1609d60e11b815260040160405180910390fd5b3360009081526015602052604081208054849290611355908490612caa565b9091555061136590503383611e0d565b7f5db24f7604bd2c572f0b463cd8df4de756789f84ced94dafd7f83a4bcb6716403383604051610e3f929190612d5e565b61139e611973565b600260015414156113c15760405162461bcd60e51b815260040161071190612c06565b6002600155600080806113d384611e24565b60065460405163d505accf60e01b815293965091945092506001600160a01b03169063d505accf9061141590339030908c908b9088908b908b90600401612d77565b600060405180830381600087803b15801561142f57600080fd5b505af1158015611443573d6000803e3d6000fd5b5050505061144f6119bb565b61148557600f546001600160401b0380821691600160401b8104821691600160801b8204811691600160c01b9004164233610759565b61148f8787611aac565b61149c8888886000611ad6565b6114a587611b5c565b505060018055505050505050565b60009182526003602090815260408084206001600160a01b0393909316845291905290205460ff1690565b6114e6611973565b600260015414156115095760405162461bcd60e51b815260040161071190612c06565b60026001556000808061151b84611e24565b60065460405163d505accf60e01b815293965091945092506001600160a01b03169063d505accf9061155d90339030908b908b9088908b908b90600401612d77565b600060405180830381600087803b15801561157757600080fd5b505af115801561158b573d6000803e3d6000fd5b5050505061159f6115993390565b886119ef565b6115a76119bb565b156115e1576115b587611e50565b600d546115d39089908990600090600160501b900461ffff16611ad6565b6115dc87611e8d565b6114a5565b6115e9611e9f565b15611601576115f787611ed8565b6115dc8888611f15565b600f546001600160401b0380821691600160401b8104821691600160801b8204811691600160c01b9004164233610759565b6004546201000090046001600160a01b031663c395fcb3336040518263ffffffff1660e01b81526004016116679190612ab0565b602060405180830381865afa158015611684573d6000803e3d6000fd5b505050506040513d601f19601f820116820180604052508101906116a89190612cd9565b6116c557604051637bfa4b9f60e01b815260040160405180910390fd5b6116ce81611cd5565b60005460ff161515600114806116f55750600f54600160c01b90046001600160401b031642115b156117ca576006546040516370a0823160e01b81526000916001600160a01b0316906370a082319061172b903090600401612ab0565b602060405180830381865afa158015611748573d6000803e3d6000fd5b505050506040513d601f19601f8201168201806040525081019061176c9190612cf6565b90508015610e485760065461178b906001600160a01b03168383611cfc565b6006546040517fd7be39376e98ef778d32829f2b7f11d5108fcefb6b518dcecf6b21859865fd4f91610e3f9185916001600160a01b0316908590612d0f565b604051633586a6e960e11b815260040160405180910390fd5b6000828152600360205260409020600101546117fe81611c45565b610c698383611d52565b6004546201000090046001600160a01b031663c395fcb3336040518263ffffffff1660e01b815260040161183c9190612ab0565b602060405180830381865afa158015611859573d6000803e3d6000fd5b505050506040513d601f19601f8201168201806040525081019061187d9190612cd9565b61189a57604051637bfa4b9f60e01b815260040160405180910390fd5b60028190556040518181527fc8d52687b85ab11e6859cb0b390a9e926e1b348d9796e084f88f88420c176fc6906020016111bd565b6118d7611973565b600260015414156118fa5760405162461bcd60e51b815260040161071190612c06565b600260015561190933826119ef565b6119116119bb565b1561194b5761191f81611e50565b600d5461193d9083908390600090600160501b900461ffff16611ad6565b61194681611e8d565b61196b565b611953611e9f565b156116015761196181611ed8565b6119468282611f15565b505060018055565b60005460ff16156119b95760405162461bcd60e51b815260206004820152601060248201526f14185d5cd8589b194e881c185d5cd95960821b6044820152606401610711565b565b600f546000906001600160401b0316421180156119ea5750600f54600160401b90046001600160401b03164211155b905090565b600654604051636eb1769f60e11b81526001600160a01b038481166004830152306024830152600092169063dd62ed3e90604401602060405180830381865afa158015611a40573d6000803e3d6000fd5b505050506040513d601f19601f82011682018060405250810190611a649190612cf6565b905081811015610c69576006546040516304fee01560e31b81526001600160a01b03808616600483015290911660248201526044810182905260648101839052608401610711565b611ab582611f81565b80821115610e4857604051632b37c00360e11b815260040160405180910390fd5b611af433600b54600080516020612fc5833981519152908588611f9f565b15611b0b57611b063384836001612008565b611b56565b611b2933600c54600080516020612fc5833981519152908588611f9f565b15611b3b57611b063384836000612008565b33604051632e4f414f60e01b81526004016107119190612ab0565b50505050565b8060106000828254611b6e9190612cc1565b909155505050565b60006001600160401b03821115611bde5760405162461bcd60e51b815260206004820152602660248201527f53616665436173743a2076616c756520646f65736e27742066697420696e203660448201526534206269747360d01b6064820152608401610711565b5090565b600061ffff821115611bde5760405162461bcd60e51b815260206004820152602660248201527f53616665436173743a2076616c756520646f65736e27742066697420696e203160448201526536206269747360d01b6064820152608401610711565b610e6581336121b4565b611c5982826114b3565b610e485760008281526003602090815260408083206001600160a01b03851684529091529020805460ff19166001179055611c913390565b6001600160a01b0316816001600160a01b0316837f2f8788117e7eff1d82e926ec794901d17c78024a50270940304540a733656f0d60405160405180910390a45050565b6001600160a01b038116610e655760405163d92e233d60e01b815260040160405180910390fd5b610c698363a9059cbb60e01b8484604051602401611d1b929190612d5e565b60408051601f198184030181529190526020810180516001600160e01b03166001600160e01b031990931692909217909152612218565b611d5c82826114b3565b15610e485760008281526003602090815260408083206001600160a01b0385168085529252808320805460ff1916905551339285917ff6391f5c32d9c69d2a47ea670b442974b53935d1edc7fd64eb21e047a839171b9190a45050565b611dc1611973565b6000805460ff191660011790557f62e78cea01bee320cd4e420270b5ea74000d11b0c9f74754ebdbfc544b05a258611df63390565b604051611e039190612ab0565b60405180910390a1565b600554610e48906001600160a01b03168383611cfc565b6000806000611e32846122ea565b50505060208101516040820151606090920151909260009190911a90565b611e5981611f81565b600a5481601154611e6a9190612cc1565b1115610e655733816040516330b052c360e01b8152600401610711929190612d5e565b8060116000828254611b6e9190612cc1565b600f54600090600160801b90046001600160401b0316421180156119ea575050600f54600160c01b90046001600160401b031642111590565b611ee181611f81565b600e5481601254611ef29190612cc1565b1115610e6557338160405163b17009d360e01b8152600401610711929190612d5e565b611f4633600b547f13e31188d81b941f4c541528790db4031bef078b78d364bde6fc2d4e5ad79e0190600086611f9f565b15611f6657610e4833600d548390600160501b900461ffff166001612008565b610e4833600d548390600160501b900461ffff166000612008565b80610e6557604051631f2a200560e01b815260040160405180910390fd5b6040516bffffffffffffffffffffffff19606087901b1660208201526034810185905260548101849052607481018390526000908190609401604051602081830303815290604052805190602001209050611ffd836002548361230c565b979650505050505050565b60018115151480156120355750600b5433600090815260136020526040902054612033908590612cc1565b115b15612057573383604051631087b52160e01b8152600401610711929190612d5e565b801580156120805750600c543360009081526013602052604090205461207e908590612cc1565b115b156120a25733836040516384e66cd160e01b8152600401610711929190612d5e565b60006120ae8484612324565b905080156120ce576006546120ce906001600160a01b031686308461234a565b6120d8858561236b565b6005546001600160a01b03161515806120f2575060075415155b1561215157600061210285612383565b600d549091506000906127109061212490600160401b900461ffff1684612c69565b61212e9190612c88565b9050600061213c8284612caa565b90506121498782846123ab565b50505061215d565b61215d846000806123ab565b6005546001600160a01b031630336001600160a01b03167fb56e31baf5ee91fd07834187784fb1cbdae3cb94b95610e2a8da75a624e71eaf876040516121a591815260200190565b60405180910390a45050505050565b6121be82826114b3565b610e48576121d6816001600160a01b03166014612433565b6121e1836020612433565b6040516020016121f2929190612de4565b60408051601f198184030181529082905262461bcd60e51b825261071191600401612e53565b600061226d826040518060400160405280602081526020017f5361666545524332303a206c6f772d6c6576656c2063616c6c206661696c6564815250856001600160a01b03166125ce9092919063ffffffff16565b805190915015610c69578080602001905181019061228b9190612cd9565b610c695760405162461bcd60e51b815260206004820152602a60248201527f5361666545524332303a204552433230206f7065726174696f6e20646964206e6044820152691bdd081cdd58d8d9595960b21b6064820152608401610711565b8051604114610e6557604051637141605d60e11b815260040160405180910390fd5b60008261231985846125e5565b1490505b9392505050565b600081612333575060006106e0565b6127106123408385612c69565b61231d9190612c88565b611b56846323b872dd60e01b858585604051602401611d1b93929190612d0f565b600654610e48906001600160a01b031683308461234a565b60085460009061239490600a612f6a565b6007546123a19084612c69565b6106e09190612c88565b82601260008282546123bd9190612cc1565b909155505033600090815260136020526040812080548592906123e1908490612cc1565b90915550503360009081526014602052604081208054849290612405908490612cc1565b90915550503360009081526015602052604081208054839290612429908490612cc1565b9091555050505050565b60606000612442836002612c69565b61244d906002612cc1565b6001600160401b03811115612464576124646127ea565b6040519080825280601f01601f19166020018201604052801561248e576020820181803683370190505b509050600360fc1b816000815181106124a9576124a9612c3d565b60200101906001600160f81b031916908160001a905350600f60fb1b816001815181106124d8576124d8612c3d565b60200101906001600160f81b031916908160001a90535060006124fc846002612c69565b612507906001612cc1565b90505b600181111561257f576f181899199a1a9b1b9c1cb0b131b232b360811b85600f166010811061253b5761253b612c3d565b1a60f81b82828151811061255157612551612c3d565b60200101906001600160f81b031916908160001a90535060049490941c9361257881612f76565b905061250a565b50831561231d5760405162461bcd60e51b815260206004820181905260248201527f537472696e67733a20686578206c656e67746820696e73756666696369656e746044820152606401610711565b60606125dd8484600085612632565b949350505050565b600081815b845181101561262a576126168286838151811061260957612609612c3d565b6020026020010151612758565b91508061262281612f8d565b9150506125ea565b509392505050565b6060824710156126935760405162461bcd60e51b815260206004820152602660248201527f416464726573733a20696e73756666696369656e742062616c616e636520666f6044820152651c8818d85b1b60d21b6064820152608401610711565b6001600160a01b0385163b6126ea5760405162461bcd60e51b815260206004820152601d60248201527f416464726573733a2063616c6c20746f206e6f6e2d636f6e74726163740000006044820152606401610711565b600080866001600160a01b031685876040516127069190612fa8565b60006040518083038185875af1925050503d8060008114612743576040519150601f19603f3d011682016040523d82523d6000602084013e612748565b606091505b5091509150611ffd828286612787565b600081831061277457600082815260208490526040902061231d565b600083815260208390526040902061231d565b6060831561279657508161231d565b8251156127a65782518084602001fd5b8160405162461bcd60e51b81526004016107119190612e53565b6000602082840312156127d257600080fd5b81356001600160e01b03198116811461231d57600080fd5b634e487b7160e01b600052604160045260246000fd5b604080519081016001600160401b0381118282101715612822576128226127ea565b60405290565b6040516101a081016001600160401b0381118282101715612822576128226127ea565b604051601f8201601f191681016001600160401b0381118282101715612873576128736127ea565b604052919050565b600082601f83011261288c57600080fd5b813560206001600160401b038211156128a7576128a76127ea565b8160051b6128b682820161284b565b92835284810182019282810190878511156128d057600080fd5b83870192505b84831015611ffd578235825291830191908301906128d6565b60008060006060848603121561290457600080fd5b83356001600160401b0381111561291a57600080fd5b6129268682870161287b565b9660208601359650604090950135949350505050565b80356001600160a01b038116811461295357600080fd5b919050565b6000806101e080848603121561296d57600080fd5b84601f85011261297c57600080fd5b612984612800565b80604086018781111561299657600080fd5b865b818110156129b7576129a98161293c565b845260209384019301612998565b5081955087605f8801126129ca57600080fd5b6129d2612828565b938701939250829150878411156129e857600080fd5b5b83811015612a015780358352602092830192016129e9565b508093505050509250929050565b600060208284031215612a2157600080fd5b5035919050565b60008060408385031215612a3b57600080fd5b82359150612a4b6020840161293c565b90509250929050565b600060208284031215612a6657600080fd5b61231d8261293c565b80356001600160401b038116811461295357600080fd5b60008060408385031215612a9957600080fd5b612aa283612a6f565b9150612a4b60208401612a6f565b6001600160a01b0391909116815260200190565b8015158114610e6557600080fd5b600060208284031215612ae457600080fd5b813561231d81612ac4565b600080600080600060a08688031215612b0757600080fd5b85356001600160401b0380821115612b1e57600080fd5b612b2a89838a0161287b565b9650602091508188013595506040880135945060608801359350608088013581811115612b5657600080fd5b8801601f81018a13612b6757600080fd5b803582811115612b7957612b796127ea565b612b8b601f8201601f1916850161284b565b92508083528a84828401011115612ba157600080fd5b80848301858501376000848285010152505080925050509295509295909350565b60008060408385031215612bd557600080fd5b82356001600160401b03811115612beb57600080fd5b612bf78582860161287b565b95602094909401359450505050565b6020808252601f908201527f5265656e7472616e637947756172643a207265656e7472616e742063616c6c00604082015260600190565b634e487b7160e01b600052603260045260246000fd5b634e487b7160e01b600052601160045260246000fd5b6000816000190483118215151615612c8357612c83612c53565b500290565b600082612ca557634e487b7160e01b600052601260045260246000fd5b500490565b600082821015612cbc57612cbc612c53565b500390565b60008219821115612cd457612cd4612c53565b500190565b600060208284031215612ceb57600080fd5b815161231d81612ac4565b600060208284031215612d0857600080fd5b5051919050565b6001600160a01b039384168152919092166020820152604081019190915260600190565b6001600160401b03948516815292841660208401529083166040830152909116606082015260800190565b6001600160a01b03929092168252602082015260400190565b6001600160a01b0397881681529590961660208601526040850193909352606084019190915260ff16608083015260a082015260c081019190915260e00190565b60005b83811015612dd3578181015183820152602001612dbb565b83811115611b565750506000910152565b76020b1b1b2b9b9a1b7b73a3937b61d1030b1b1b7bab73a1604d1b815260008351612e16816017850160208801612db8565b7001034b99036b4b9b9b4b733903937b6329607d1b6017918401918201528351612e47816028840160208801612db8565b01602801949350505050565b6020815260008251806020840152612e72816040850160208701612db8565b601f01601f19169190910160400192915050565b600181815b80851115612ec1578160001904821115612ea757612ea7612c53565b80851615612eb457918102915b93841c9390800290612e8b565b509250929050565b600082612ed8575060016106e0565b81612ee5575060006106e0565b8160018114612efb5760028114612f0557612f21565b60019150506106e0565b60ff841115612f1657612f16612c53565b50506001821b6106e0565b5060208310610133831016604e8410600b8410161715612f44575081810a6106e0565b612f4e8383612e86565b8060001904821115612f6257612f62612c53565b029392505050565b600061231d8383612ec9565b600081612f8557612f85612c53565b506000190190565b6000600019821415612fa157612fa1612c53565b5060010190565b60008251612fba818460208701612db8565b919091019291505056feed4b80c86c7954bdbf516c492acb4a2899eb0ee85b7c74e26d85e55a07562c95a2646970667358221220a58214e07f5578d86aac42a94b74e0ab3e53161ab2ec47a96b982595dd3fcb2564736f6c634300080a0033",
  "devdoc": {
    "kind": "dev",
    "methods": {
      "getRoleAdmin(bytes32)": {
        "details": "Returns the admin role that controls `role`. See {grantRole} and {revokeRole}. To change a role's admin, use {_setRoleAdmin}."
      },
      "grantRole(bytes32,address)": {
        "details": "Grants `role` to `account`. If `account` had not been already granted `role`, emits a {RoleGranted} event. Requirements: - the caller must have ``role``'s admin role. May emit a {RoleGranted} event."
      },
      "hasRole(bytes32,address)": {
        "details": "Returns `true` if `account` has been granted `role`."
      },
      "paused()": {
        "details": "Returns true if the contract is paused, and false otherwise."
      },
      "renounceRole(bytes32,address)": {
        "details": "Revokes `role` from the calling account. Roles are often managed via {grantRole} and {revokeRole}: this function's purpose is to provide a mechanism for accounts to lose their privileges if they are compromised (such as when a trusted device is misplaced). If the calling account had been revoked `role`, emits a {RoleRevoked} event. Requirements: - the caller must be `account`. May emit a {RoleRevoked} event."
      },
      "revokeRole(bytes32,address)": {
        "details": "Revokes `role` from `account`. If `account` had been granted `role`, emits a {RoleRevoked} event. Requirements: - the caller must have ``role``'s admin role. May emit a {RoleRevoked} event."
      },
      "supportsInterface(bytes4)": {
        "details": "See {IERC165-supportsInterface}."
      }
    },
    "version": 1
  },
  "userdoc": {
    "kind": "user",
    "methods": {},
    "version": 1
  },
  "storageLayout": {
    "storage": [
      {
        "astId": 9277,
        "contract": "contracts/IDOpool/Pool.sol:Pool",
        "label": "_paused",
        "offset": 0,
        "slot": "0",
        "type": "t_bool"
      },
      {
        "astId": 9378,
        "contract": "contracts/IDOpool/Pool.sol:Pool",
        "label": "_status",
        "offset": 0,
        "slot": "1",
        "type": "t_uint256"
      },
      {
        "astId": 5107,
        "contract": "contracts/IDOpool/Pool.sol:Pool",
        "label": "root",
        "offset": 0,
        "slot": "2",
        "type": "t_bytes32"
      },
      {
        "astId": 8766,
        "contract": "contracts/IDOpool/Pool.sol:Pool",
        "label": "_roles",
        "offset": 0,
        "slot": "3",
        "type": "t_mapping(t_bytes32,t_struct(RoleData)8761_storage)"
      },
      {
        "astId": 9113,
        "contract": "contracts/IDOpool/Pool.sol:Pool",
        "label": "_initialized",
        "offset": 0,
        "slot": "4",
        "type": "t_uint8"
      },
      {
        "astId": 9116,
        "contract": "contracts/IDOpool/Pool.sol:Pool",
        "label": "_initializing",
        "offset": 1,
        "slot": "4",
        "type": "t_bool"
      },
      {
        "astId": 3025,
        "contract": "contracts/IDOpool/Pool.sol:Pool",
        "label": "poolFactory",
        "offset": 2,
        "slot": "4",
        "type": "t_contract(IPoolFactory)5367"
      },
      {
        "astId": 3031,
        "contract": "contracts/IDOpool/Pool.sol:Pool",
        "label": "IDOToken",
        "offset": 0,
        "slot": "5",
        "type": "t_contract(IERC20)2372"
      },
      {
        "astId": 3034,
        "contract": "contracts/IDOpool/Pool.sol:Pool",
        "label": "purchaseToken",
        "offset": 0,
        "slot": "6",
        "type": "t_contract(IERC20)2372"
      },
      {
        "astId": 3037,
        "contract": "contracts/IDOpool/Pool.sol:Pool",
        "label": "offeredCurrency",
        "offset": 0,
        "slot": "7",
        "type": "t_struct(OfferedCurrency)3016_storage"
      },
      {
        "astId": 3039,
        "contract": "contracts/IDOpool/Pool.sol:Pool",
        "label": "maxPurchaseAmountForGalaxyPool",
        "offset": 0,
        "slot": "9",
        "type": "t_uint256"
      },
      {
        "astId": 3041,
        "contract": "contracts/IDOpool/Pool.sol:Pool",
        "label": "maxPurchaseAmountForEarlyAccess",
        "offset": 0,
        "slot": "10",
        "type": "t_uint256"
      },
      {
        "astId": 3043,
        "contract": "contracts/IDOpool/Pool.sol:Pool",
        "label": "maxPurchaseAmountForKYCUser",
        "offset": 0,
        "slot": "11",
        "type": "t_uint256"
      },
      {
        "astId": 3045,
        "contract": "contracts/IDOpool/Pool.sol:Pool",
        "label": "maxPurchaseAmountForNotKYCUser",
        "offset": 0,
        "slot": "12",
        "type": "t_uint256"
      },
      {
        "astId": 3047,
        "contract": "contracts/IDOpool/Pool.sol:Pool",
        "label": "TGEDate",
        "offset": 0,
        "slot": "13",
        "type": "t_uint64"
      },
      {
        "astId": 3049,
        "contract": "contracts/IDOpool/Pool.sol:Pool",
        "label": "TGEPercentage",
        "offset": 8,
        "slot": "13",
        "type": "t_uint16"
      },
      {
        "astId": 3051,
        "contract": "contracts/IDOpool/Pool.sol:Pool",
        "label": "participationFeePercentage",
        "offset": 10,
        "slot": "13",
        "type": "t_uint16"
      },
      {
        "astId": 3053,
        "contract": "contracts/IDOpool/Pool.sol:Pool",
        "label": "galaxyPoolProportion",
        "offset": 12,
        "slot": "13",
        "type": "t_uint16"
      },
      {
        "astId": 3055,
        "contract": "contracts/IDOpool/Pool.sol:Pool",
        "label": "earlyAccessProportion",
        "offset": 14,
        "slot": "13",
        "type": "t_uint16"
      },
      {
        "astId": 3057,
        "contract": "contracts/IDOpool/Pool.sol:Pool",
        "label": "TGEClaimable",
        "offset": 16,
        "slot": "13",
        "type": "t_bool"
      },
      {
        "astId": 3059,
        "contract": "contracts/IDOpool/Pool.sol:Pool",
        "label": "totalRaiseAmount",
        "offset": 0,
        "slot": "14",
        "type": "t_uint256"
      },
      {
        "astId": 3061,
        "contract": "contracts/IDOpool/Pool.sol:Pool",
        "label": "whaleOpenTime",
        "offset": 0,
        "slot": "15",
        "type": "t_uint64"
      },
      {
        "astId": 3063,
        "contract": "contracts/IDOpool/Pool.sol:Pool",
        "label": "whaleCloseTime",
        "offset": 8,
        "slot": "15",
        "type": "t_uint64"
      },
      {
        "astId": 3065,
        "contract": "contracts/IDOpool/Pool.sol:Pool",
        "label": "communityOpenTime",
        "offset": 16,
        "slot": "15",
        "type": "t_uint64"
      },
      {
        "astId": 3067,
        "contract": "contracts/IDOpool/Pool.sol:Pool",
        "label": "communityCloseTime",
        "offset": 24,
        "slot": "15",
        "type": "t_uint64"
      },
      {
        "astId": 3069,
        "contract": "contracts/IDOpool/Pool.sol:Pool",
        "label": "purchasedAmountInGalaxyPool",
        "offset": 0,
        "slot": "16",
        "type": "t_uint256"
      },
      {
        "astId": 3071,
        "contract": "contracts/IDOpool/Pool.sol:Pool",
        "label": "purchasedAmountInEarlyAccess",
        "offset": 0,
        "slot": "17",
        "type": "t_uint256"
      },
      {
        "astId": 3073,
        "contract": "contracts/IDOpool/Pool.sol:Pool",
        "label": "purchasedAmount",
        "offset": 0,
        "slot": "18",
        "type": "t_uint256"
      },
      {
        "astId": 3077,
        "contract": "contracts/IDOpool/Pool.sol:Pool",
        "label": "userPurchasedAmount",
        "offset": 0,
        "slot": "19",
        "type": "t_mapping(t_address,t_uint256)"
      },
      {
        "astId": 3081,
        "contract": "contracts/IDOpool/Pool.sol:Pool",
        "label": "userIDOAirdropAmount",
        "offset": 0,
        "slot": "20",
        "type": "t_mapping(t_address,t_uint256)"
      },
      {
        "astId": 3085,
        "contract": "contracts/IDOpool/Pool.sol:Pool",
        "label": "userIDOTGEAmount",
        "offset": 0,
        "slot": "21",
        "type": "t_mapping(t_address,t_uint256)"
      }
    ],
    "types": {
      "t_address": {
        "encoding": "inplace",
        "label": "address",
        "numberOfBytes": "20"
      },
      "t_bool": {
        "encoding": "inplace",
        "label": "bool",
        "numberOfBytes": "1"
      },
      "t_bytes32": {
        "encoding": "inplace",
        "label": "bytes32",
        "numberOfBytes": "32"
      },
      "t_contract(IERC20)2372": {
        "encoding": "inplace",
        "label": "contract IERC20",
        "numberOfBytes": "20"
      },
      "t_contract(IPoolFactory)5367": {
        "encoding": "inplace",
        "label": "contract IPoolFactory",
        "numberOfBytes": "20"
      },
      "t_mapping(t_address,t_bool)": {
        "encoding": "mapping",
        "key": "t_address",
        "label": "mapping(address => bool)",
        "numberOfBytes": "32",
        "value": "t_bool"
      },
      "t_mapping(t_address,t_uint256)": {
        "encoding": "mapping",
        "key": "t_address",
        "label": "mapping(address => uint256)",
        "numberOfBytes": "32",
        "value": "t_uint256"
      },
      "t_mapping(t_bytes32,t_struct(RoleData)8761_storage)": {
        "encoding": "mapping",
        "key": "t_bytes32",
        "label": "mapping(bytes32 => struct AccessControl.RoleData)",
        "numberOfBytes": "32",
        "value": "t_struct(RoleData)8761_storage"
      },
      "t_struct(OfferedCurrency)3016_storage": {
        "encoding": "inplace",
        "label": "struct Pool.OfferedCurrency",
        "members": [
          {
            "astId": 3013,
            "contract": "contracts/IDOpool/Pool.sol:Pool",
            "label": "rate",
            "offset": 0,
            "slot": "0",
            "type": "t_uint256"
          },
          {
            "astId": 3015,
            "contract": "contracts/IDOpool/Pool.sol:Pool",
            "label": "decimal",
            "offset": 0,
            "slot": "1",
            "type": "t_uint256"
          }
        ],
        "numberOfBytes": "64"
      },
      "t_struct(RoleData)8761_storage": {
        "encoding": "inplace",
        "label": "struct AccessControl.RoleData",
        "members": [
          {
            "astId": 8758,
            "contract": "contracts/IDOpool/Pool.sol:Pool",
            "label": "members",
            "offset": 0,
            "slot": "0",
            "type": "t_mapping(t_address,t_bool)"
          },
          {
            "astId": 8760,
            "contract": "contracts/IDOpool/Pool.sol:Pool",
            "label": "adminRole",
            "offset": 0,
            "slot": "1",
            "type": "t_bytes32"
          }
        ],
        "numberOfBytes": "64"
      },
      "t_uint16": {
        "encoding": "inplace",
        "label": "uint16",
        "numberOfBytes": "2"
      },
      "t_uint256": {
        "encoding": "inplace",
        "label": "uint256",
        "numberOfBytes": "32"
      },
      "t_uint64": {
        "encoding": "inplace",
        "label": "uint64",
        "numberOfBytes": "8"
      },
      "t_uint8": {
        "encoding": "inplace",
        "label": "uint8",
        "numberOfBytes": "1"
      }
    }
  }
}