{
  "address": "0xdeB8fa252aDBf1d8a1bFA1791C5b2C971AD11FA8",
  "abi": [
    {
      "inputs": [
        {
          "internalType": "bool",
          "name": "presentStatus",
          "type": "bool"
        }
      ],
      "name": "AlreadySetRedeemableTGE",
      "type": "error"
    },
    {
      "inputs": [
        {
          "internalType": "address",
          "name": "buyer",
          "type": "address"
        },
        {
          "internalType": "uint256",
          "name": "purchaseAmount",
          "type": "uint256"
        }
      ],
      "name": "ExceedMaxPurchaseAmountForEarlyAccess",
      "type": "error"
    },
    {
      "inputs": [
        {
          "internalType": "address",
          "name": "buyer",
          "type": "address"
        },
        {
          "internalType": "uint256",
          "name": "purchaseAmount",
          "type": "uint256"
        }
      ],
      "name": "ExceedMaxPurchaseAmountForGalaxyPool",
      "type": "error"
    },
    {
      "inputs": [
        {
          "internalType": "address",
          "name": "buyer",
          "type": "address"
        },
        {
          "internalType": "uint256",
          "name": "purchaseAmount",
          "type": "uint256"
        }
      ],
      "name": "ExceedMaxPurchaseAmountForKYCUser",
      "type": "error"
    },
    {
      "inputs": [
        {
          "internalType": "address",
          "name": "buyer",
          "type": "address"
        },
        {
          "internalType": "uint256",
          "name": "purchaseAmount",
          "type": "uint256"
        }
      ],
      "name": "ExceedMaxPurchaseAmountForNotKYCUser",
      "type": "error"
    },
    {
      "inputs": [],
      "name": "ExceedMaxPurchaseAmountForUser",
      "type": "error"
    },
    {
      "inputs": [
        {
          "internalType": "address",
          "name": "buyer",
          "type": "address"
        },
        {
          "internalType": "uint256",
          "name": "purchaseAmount",
          "type": "uint256"
        }
      ],
      "name": "ExceedTotalRaiseAmount",
      "type": "error"
    },
    {
      "inputs": [],
      "name": "NotAdmin",
      "type": "error"
    },
    {
      "inputs": [],
      "name": "NotAllowedToRedeemTGEIDOAmount",
      "type": "error"
    },
    {
      "inputs": [
        {
          "internalType": "address",
          "name": "buyer",
          "type": "address"
        },
        {
          "internalType": "address",
          "name": "purchaseToken",
          "type": "address"
        },
        {
          "internalType": "uint256",
          "name": "allowance",
          "type": "uint256"
        },
        {
          "internalType": "uint256",
          "name": "amount",
          "type": "uint256"
        }
      ],
      "name": "NotEnoughAllowance",
      "type": "error"
    },
    {
      "inputs": [],
      "name": "NotEnoughConditionToWithdrawIDOToken",
      "type": "error"
    },
    {
      "inputs": [],
      "name": "NotEnoughConditionToWithdrawPurchaseToken",
      "type": "error"
    },
    {
      "inputs": [
        {
          "internalType": "address",
          "name": "buyer",
          "type": "address"
        }
      ],
      "name": "NotInWhaleList",
      "type": "error"
    },
    {
      "inputs": [
        {
          "internalType": "uint256",
          "name": "whaleOpenTime",
          "type": "uint256"
        },
        {
          "internalType": "uint256",
          "name": "whaleCloseTime",
          "type": "uint256"
        },
        {
          "internalType": "uint256",
          "name": "communityOpenTime",
          "type": "uint256"
        },
        {
          "internalType": "uint256",
          "name": "communityCloseTime",
          "type": "uint256"
        }
      ],
      "name": "NotUpdateValidTime",
      "type": "error"
    },
    {
      "inputs": [],
      "name": "NotValidSignature",
      "type": "error"
    },
    {
      "inputs": [],
      "name": "NotYetTimeToRedeemTGE",
      "type": "error"
    },
    {
      "inputs": [],
      "name": "RedeemExceedMaxTGEAmount",
      "type": "error"
    },
    {
      "inputs": [
        {
          "internalType": "uint256",
          "name": "whaleOpenTime",
          "type": "uint256"
        },
        {
          "internalType": "uint256",
          "name": "whaleCloseTime",
          "type": "uint256"
        },
        {
          "internalType": "uint256",
          "name": "communityOpenTime",
          "type": "uint256"
        },
        {
          "internalType": "uint256",
          "name": "communityCloseTime",
          "type": "uint256"
        },
        {
          "internalType": "uint256",
          "name": "timestamp",
          "type": "uint256"
        },
        {
          "internalType": "address",
          "name": "buyer",
          "type": "address"
        }
      ],
      "name": "TimeOutToBuyToken",
      "type": "error"
    },
    {
      "inputs": [],
      "name": "TimeOutToSetPoolStatus",
      "type": "error"
    },
    {
      "inputs": [],
      "name": "ZeroAddress",
      "type": "error"
    },
    {
      "inputs": [],
      "name": "ZeroAmount",
      "type": "error"
    },
    {
      "anonymous": false,
      "inputs": [
        {
          "indexed": true,
          "internalType": "address",
          "name": "buyer",
          "type": "address"
        },
        {
          "indexed": true,
          "internalType": "address",
          "name": "pool",
          "type": "address"
        },
        {
          "indexed": true,
          "internalType": "address",
          "name": "IDOToken",
          "type": "address"
        },
        {
          "indexed": false,
          "internalType": "uint256",
          "name": "purchaseAmount",
          "type": "uint256"
        }
      ],
      "name": "BuyToken",
      "type": "event"
    },
    {
      "anonymous": false,
      "inputs": [
        {
          "indexed": false,
          "internalType": "uint8",
          "name": "version",
          "type": "uint8"
        }
      ],
      "name": "Initialized",
      "type": "event"
    },
    {
      "anonymous": false,
      "inputs": [
        {
          "indexed": false,
          "internalType": "address",
          "name": "account",
          "type": "address"
        }
      ],
      "name": "Paused",
      "type": "event"
    },
    {
      "anonymous": false,
      "inputs": [
        {
          "indexed": false,
          "internalType": "address",
          "name": "IDOToken",
          "type": "address"
        },
        {
          "indexed": false,
          "internalType": "address",
          "name": "purchaseToken",
          "type": "address"
        },
        {
          "indexed": false,
          "internalType": "uint256",
          "name": "maxPurchaseAmountForKYCUser",
          "type": "uint256"
        },
        {
          "indexed": false,
          "internalType": "uint256",
          "name": "maxPurchaseAmountForNotKYCUser",
          "type": "uint256"
        },
        {
          "indexed": false,
          "internalType": "uint64",
          "name": "TGEDate",
          "type": "uint64"
        },
        {
          "indexed": false,
          "internalType": "uint16",
          "name": "TGEPercentage",
          "type": "uint16"
        },
        {
          "indexed": false,
          "internalType": "uint16",
          "name": "galaxyParticipationFeePercentage",
          "type": "uint16"
        },
        {
          "indexed": false,
          "internalType": "uint16",
          "name": "crowdfundingParticipationFeePercentage",
          "type": "uint16"
        }
      ],
      "name": "PoolCreatedChild1",
      "type": "event"
    },
    {
      "anonymous": false,
      "inputs": [
        {
          "indexed": false,
          "internalType": "uint16",
          "name": "galaxyPoolProportion",
          "type": "uint16"
        },
        {
          "indexed": false,
          "internalType": "uint16",
          "name": "earlyAccessProportion",
          "type": "uint16"
        },
        {
          "indexed": false,
          "internalType": "uint256",
          "name": "totalRaiseAmount",
          "type": "uint256"
        },
        {
          "indexed": false,
          "internalType": "uint64",
          "name": "whaleOpenTime",
          "type": "uint64"
        },
        {
          "indexed": false,
          "internalType": "uint64",
          "name": "whaleCloseTime",
          "type": "uint64"
        },
        {
          "indexed": false,
          "internalType": "uint64",
          "name": "communityCloseTime",
          "type": "uint64"
        },
        {
          "indexed": false,
          "internalType": "uint256",
          "name": "rate",
          "type": "uint256"
        },
        {
          "indexed": false,
          "internalType": "uint256",
          "name": "decimal",
          "type": "uint256"
        }
      ],
      "name": "PoolCreatedChild2",
      "type": "event"
    },
    {
      "anonymous": false,
      "inputs": [
        {
          "indexed": false,
          "internalType": "address",
          "name": "buyer",
          "type": "address"
        },
        {
          "indexed": false,
          "internalType": "uint256",
          "name": "redeemAmount",
          "type": "uint256"
        }
      ],
      "name": "RedeemTGEAmount",
      "type": "event"
    },
    {
      "anonymous": false,
      "inputs": [
        {
          "indexed": true,
          "internalType": "bytes32",
          "name": "role",
          "type": "bytes32"
        },
        {
          "indexed": true,
          "internalType": "bytes32",
          "name": "previousAdminRole",
          "type": "bytes32"
        },
        {
          "indexed": true,
          "internalType": "bytes32",
          "name": "newAdminRole",
          "type": "bytes32"
        }
      ],
      "name": "RoleAdminChanged",
      "type": "event"
    },
    {
      "anonymous": false,
      "inputs": [
        {
          "indexed": true,
          "internalType": "bytes32",
          "name": "role",
          "type": "bytes32"
        },
        {
          "indexed": true,
          "internalType": "address",
          "name": "account",
          "type": "address"
        },
        {
          "indexed": true,
          "internalType": "address",
          "name": "sender",
          "type": "address"
        }
      ],
      "name": "RoleGranted",
      "type": "event"
    },
    {
      "anonymous": false,
      "inputs": [
        {
          "indexed": true,
          "internalType": "bytes32",
          "name": "role",
          "type": "bytes32"
        },
        {
          "indexed": true,
          "internalType": "address",
          "name": "account",
          "type": "address"
        },
        {
          "indexed": true,
          "internalType": "address",
          "name": "sender",
          "type": "address"
        }
      ],
      "name": "RoleRevoked",
      "type": "event"
    },
    {
      "anonymous": false,
      "inputs": [
        {
          "indexed": false,
          "internalType": "address",
          "name": "IDOToken",
          "type": "address"
        }
      ],
      "name": "SetIDOTokenAddress",
      "type": "event"
    },
    {
      "anonymous": false,
      "inputs": [
        {
          "indexed": false,
          "internalType": "bool",
          "name": "redeemable",
          "type": "bool"
        }
      ],
      "name": "SetTGERedeemable",
      "type": "event"
    },
    {
      "anonymous": false,
      "inputs": [
        {
          "indexed": false,
          "internalType": "address",
          "name": "account",
          "type": "address"
        }
      ],
      "name": "Unpaused",
      "type": "event"
    },
    {
      "anonymous": false,
      "inputs": [
        {
          "indexed": true,
          "internalType": "address",
          "name": "feeRecipient",
          "type": "address"
        }
      ],
      "name": "UpdateFeeRecipient",
      "type": "event"
    },
    {
      "anonymous": false,
      "inputs": [
        {
          "indexed": false,
          "internalType": "uint256",
          "name": "_rate",
          "type": "uint256"
        },
        {
          "indexed": false,
          "internalType": "uint256",
          "name": "_decimal",
          "type": "uint256"
        }
      ],
      "name": "UpdateOfferedCurrencyRateAndDecimal",
      "type": "event"
    },
    {
      "anonymous": false,
      "inputs": [
        {
          "indexed": true,
          "internalType": "address",
          "name": "pool",
          "type": "address"
        },
        {
          "indexed": false,
          "internalType": "bool",
          "name": "status",
          "type": "bool"
        }
      ],
      "name": "UpdateOpenPoolStatus",
      "type": "event"
    },
    {
      "anonymous": false,
      "inputs": [
        {
          "indexed": false,
          "internalType": "bytes32",
          "name": "root",
          "type": "bytes32"
        }
      ],
      "name": "UpdateRoot",
      "type": "event"
    },
    {
      "anonymous": false,
      "inputs": [
        {
          "indexed": false,
          "internalType": "uint64",
          "name": "whaleOpenTime",
          "type": "uint64"
        },
        {
          "indexed": false,
          "internalType": "uint64",
          "name": "whaleCloseTime",
          "type": "uint64"
        },
        {
          "indexed": false,
          "internalType": "uint64",
          "name": "communityOpenTime",
          "type": "uint64"
        },
        {
          "indexed": false,
          "internalType": "uint64",
          "name": "communityCloseTime",
          "type": "uint64"
        }
      ],
      "name": "UpdateTime",
      "type": "event"
    },
    {
      "anonymous": false,
      "inputs": [
        {
          "indexed": false,
          "internalType": "address",
          "name": "withdrawIDOTokenRecipient",
          "type": "address"
        },
        {
          "indexed": false,
          "internalType": "address",
          "name": "IDOToken",
          "type": "address"
        },
        {
          "indexed": false,
          "internalType": "uint256",
          "name": "remainAmount",
          "type": "uint256"
        }
      ],
      "name": "WithdrawIDOToken",
      "type": "event"
    },
    {
      "anonymous": false,
      "inputs": [
        {
          "indexed": false,
          "internalType": "address",
          "name": "withdrawPurchaseTokenRecipient",
          "type": "address"
        },
        {
          "indexed": false,
          "internalType": "address",
          "name": "purchaseToken",
          "type": "address"
        },
        {
          "indexed": false,
          "internalType": "uint256",
          "name": "purchaseAmount",
          "type": "uint256"
        }
      ],
      "name": "WithdrawPurchaseToken",
      "type": "event"
    },
    {
      "inputs": [],
      "name": "DEFAULT_ADMIN_ROLE",
      "outputs": [
        {
          "internalType": "bytes32",
          "name": "",
          "type": "bytes32"
        }
      ],
      "stateMutability": "view",
      "type": "function"
    },
    {
      "inputs": [],
      "name": "IDOToken",
      "outputs": [
        {
          "internalType": "contract IERC20",
          "name": "",
          "type": "address"
        }
      ],
      "stateMutability": "view",
      "type": "function"
    },
    {
      "inputs": [],
      "name": "NORMAL_USER",
      "outputs": [
        {
          "internalType": "bytes32",
          "name": "",
          "type": "bytes32"
        }
      ],
      "stateMutability": "view",
      "type": "function"
    },
    {
      "inputs": [],
      "name": "PERCENTAGE_DENOMINATOR",
      "outputs": [
        {
          "internalType": "uint16",
          "name": "",
          "type": "uint16"
        }
      ],
      "stateMutability": "view",
      "type": "function"
    },
    {
      "inputs": [],
      "name": "TGEDate",
      "outputs": [
        {
          "internalType": "uint64",
          "name": "",
          "type": "uint64"
        }
      ],
      "stateMutability": "view",
      "type": "function"
    },
    {
      "inputs": [],
      "name": "TGEPercentage",
      "outputs": [
        {
          "internalType": "uint16",
          "name": "",
          "type": "uint16"
        }
      ],
      "stateMutability": "view",
      "type": "function"
    },
    {
      "inputs": [],
      "name": "TGERedeemable",
      "outputs": [
        {
          "internalType": "bool",
          "name": "",
          "type": "bool"
        }
      ],
      "stateMutability": "view",
      "type": "function"
    },
    {
      "inputs": [],
      "name": "WHALE",
      "outputs": [
        {
          "internalType": "bytes32",
          "name": "",
          "type": "bytes32"
        }
      ],
      "stateMutability": "view",
      "type": "function"
    },
    {
      "inputs": [
        {
          "internalType": "bytes32[]",
          "name": "proof",
          "type": "bytes32[]"
        },
        {
          "internalType": "uint256",
          "name": "_purchaseAmount",
          "type": "uint256"
        }
      ],
      "name": "buyTokenInCrowdfundingPool",
      "outputs": [],
      "stateMutability": "nonpayable",
      "type": "function"
    },
    {
      "inputs": [
        {
          "internalType": "bytes32[]",
          "name": "proof",
          "type": "bytes32[]"
        },
        {
          "internalType": "uint256",
          "name": "_purchaseAmount",
          "type": "uint256"
        },
        {
          "internalType": "uint256",
          "name": "_allowance",
          "type": "uint256"
        },
        {
          "internalType": "uint256",
          "name": "_deadline",
          "type": "uint256"
        },
        {
          "internalType": "bytes",
          "name": "_signature",
          "type": "bytes"
        }
      ],
      "name": "buyTokenInCrowdfundingPoolWithPermit",
      "outputs": [],
      "stateMutability": "nonpayable",
      "type": "function"
    },
    {
      "inputs": [
        {
          "internalType": "bytes32[]",
          "name": "proof",
          "type": "bytes32[]"
        },
        {
          "internalType": "uint256",
          "name": "_purchaseAmount",
          "type": "uint256"
        },
        {
          "internalType": "uint256",
          "name": "_maxPurchaseBaseOnAllocations",
          "type": "uint256"
        }
      ],
      "name": "buyTokenInGalaxyPool",
      "outputs": [],
      "stateMutability": "nonpayable",
      "type": "function"
    },
    {
      "inputs": [
        {
          "internalType": "bytes32[]",
          "name": "proof",
          "type": "bytes32[]"
        },
        {
          "internalType": "uint256",
          "name": "_purchaseAmount",
          "type": "uint256"
        },
        {
          "internalType": "uint256",
          "name": "_maxPurchaseBaseOnAllocations",
          "type": "uint256"
        },
        {
          "internalType": "uint256",
          "name": "_deadline",
          "type": "uint256"
        },
        {
          "internalType": "bytes",
          "name": "_signature",
          "type": "bytes"
        }
      ],
      "name": "buyTokenInGalaxyPoolWithPermit",
      "outputs": [],
      "stateMutability": "nonpayable",
      "type": "function"
    },
    {
      "inputs": [],
      "name": "closePool",
      "outputs": [],
      "stateMutability": "nonpayable",
      "type": "function"
    },
    {
      "inputs": [],
      "name": "communityCloseTime",
      "outputs": [
        {
          "internalType": "uint64",
          "name": "",
          "type": "uint64"
        }
      ],
      "stateMutability": "view",
      "type": "function"
    },
    {
      "inputs": [],
      "name": "communityOpenTime",
      "outputs": [
        {
          "internalType": "uint64",
          "name": "",
          "type": "uint64"
        }
      ],
      "stateMutability": "view",
      "type": "function"
    },
    {
      "inputs": [],
      "name": "crowdfundingParticipationFeePercentage",
      "outputs": [
        {
          "internalType": "uint16",
          "name": "",
          "type": "uint16"
        }
      ],
      "stateMutability": "view",
      "type": "function"
    },
    {
      "inputs": [],
      "name": "earlyAccessProportion",
      "outputs": [
        {
          "internalType": "uint16",
          "name": "",
          "type": "uint16"
        }
      ],
      "stateMutability": "view",
      "type": "function"
    },
    {
      "inputs": [],
      "name": "galaxyParticipationFeePercentage",
      "outputs": [
        {
          "internalType": "uint16",
          "name": "",
          "type": "uint16"
        }
      ],
      "stateMutability": "view",
      "type": "function"
    },
    {
      "inputs": [],
      "name": "galaxyPoolProportion",
      "outputs": [
        {
          "internalType": "uint16",
          "name": "",
          "type": "uint16"
        }
      ],
      "stateMutability": "view",
      "type": "function"
    },
    {
      "inputs": [
        {
          "internalType": "bytes32",
          "name": "role",
          "type": "bytes32"
        }
      ],
      "name": "getRoleAdmin",
      "outputs": [
        {
          "internalType": "bytes32",
          "name": "",
          "type": "bytes32"
        }
      ],
      "stateMutability": "view",
      "type": "function"
    },
    {
      "inputs": [
        {
          "internalType": "bytes32",
          "name": "role",
          "type": "bytes32"
        },
        {
          "internalType": "address",
          "name": "account",
          "type": "address"
        }
      ],
      "name": "grantRole",
      "outputs": [],
      "stateMutability": "nonpayable",
      "type": "function"
    },
    {
      "inputs": [
        {
          "internalType": "bytes32",
          "name": "role",
          "type": "bytes32"
        },
        {
          "internalType": "address",
          "name": "account",
          "type": "address"
        }
      ],
      "name": "hasRole",
      "outputs": [
        {
          "internalType": "bool",
          "name": "",
          "type": "bool"
        }
      ],
      "stateMutability": "view",
      "type": "function"
    },
    {
      "inputs": [
        {
          "internalType": "address[2]",
          "name": "addrs",
          "type": "address[2]"
        },
        {
          "internalType": "uint256[14]",
          "name": "uints",
          "type": "uint256[14]"
        }
      ],
      "name": "initialize",
      "outputs": [],
      "stateMutability": "nonpayable",
      "type": "function"
    },
    {
      "inputs": [],
      "name": "maxPurchaseAmountForEarlyAccess",
      "outputs": [
        {
          "internalType": "uint256",
          "name": "",
          "type": "uint256"
        }
      ],
      "stateMutability": "view",
      "type": "function"
    },
    {
      "inputs": [],
      "name": "maxPurchaseAmountForGalaxyPool",
      "outputs": [
        {
          "internalType": "uint256",
          "name": "",
          "type": "uint256"
        }
      ],
      "stateMutability": "view",
      "type": "function"
    },
    {
      "inputs": [],
      "name": "maxPurchaseAmountForKYCUser",
      "outputs": [
        {
          "internalType": "uint256",
          "name": "",
          "type": "uint256"
        }
      ],
      "stateMutability": "view",
      "type": "function"
    },
    {
      "inputs": [],
      "name": "maxPurchaseAmountForNotKYCUser",
      "outputs": [
        {
          "internalType": "uint256",
          "name": "",
          "type": "uint256"
        }
      ],
      "stateMutability": "view",
      "type": "function"
    },
    {
      "inputs": [],
      "name": "offeredCurrency",
      "outputs": [
        {
          "internalType": "uint256",
          "name": "rate",
          "type": "uint256"
        },
        {
          "internalType": "uint256",
          "name": "decimal",
          "type": "uint256"
        }
      ],
      "stateMutability": "view",
      "type": "function"
    },
    {
      "inputs": [],
      "name": "paused",
      "outputs": [
        {
          "internalType": "bool",
          "name": "",
          "type": "bool"
        }
      ],
      "stateMutability": "view",
      "type": "function"
    },
    {
      "inputs": [],
      "name": "poolFactory",
      "outputs": [
        {
          "internalType": "contract IPoolFactory",
          "name": "",
          "type": "address"
        }
      ],
      "stateMutability": "view",
      "type": "function"
    },
    {
      "inputs": [],
      "name": "purchaseToken",
      "outputs": [
        {
          "internalType": "contract IERC20",
          "name": "",
          "type": "address"
        }
      ],
      "stateMutability": "view",
      "type": "function"
    },
    {
      "inputs": [],
      "name": "purchasedAmount",
      "outputs": [
        {
          "internalType": "uint256",
          "name": "",
          "type": "uint256"
        }
      ],
      "stateMutability": "view",
      "type": "function"
    },
    {
      "inputs": [],
      "name": "purchasedAmountInEarlyAccess",
      "outputs": [
        {
          "internalType": "uint256",
          "name": "",
          "type": "uint256"
        }
      ],
      "stateMutability": "view",
      "type": "function"
    },
    {
      "inputs": [],
      "name": "purchasedAmountInGalaxyPool",
      "outputs": [
        {
          "internalType": "uint256",
          "name": "",
          "type": "uint256"
        }
      ],
      "stateMutability": "view",
      "type": "function"
    },
    {
      "inputs": [
        {
          "internalType": "uint256",
          "name": "_IDORedeemAmount",
          "type": "uint256"
        }
      ],
      "name": "redeemTGEIDOToken",
      "outputs": [],
      "stateMutability": "nonpayable",
      "type": "function"
    },
    {
      "inputs": [
        {
          "internalType": "bytes32",
          "name": "role",
          "type": "bytes32"
        },
        {
          "internalType": "address",
          "name": "account",
          "type": "address"
        }
      ],
      "name": "renounceRole",
      "outputs": [],
      "stateMutability": "nonpayable",
      "type": "function"
    },
    {
      "inputs": [
        {
          "internalType": "bytes32",
          "name": "role",
          "type": "bytes32"
        },
        {
          "internalType": "address",
          "name": "account",
          "type": "address"
        }
      ],
      "name": "revokeRole",
      "outputs": [],
      "stateMutability": "nonpayable",
      "type": "function"
    },
    {
      "inputs": [],
      "name": "root",
      "outputs": [
        {
          "internalType": "bytes32",
          "name": "",
          "type": "bytes32"
        }
      ],
      "stateMutability": "view",
      "type": "function"
    },
    {
      "inputs": [
        {
          "internalType": "bool",
          "name": "_TGERedeemableStatus",
          "type": "bool"
        }
      ],
      "name": "setRedeemableTGEIDOToken",
      "outputs": [],
      "stateMutability": "nonpayable",
      "type": "function"
    },
    {
      "inputs": [
        {
          "internalType": "bytes32",
          "name": "_root",
          "type": "bytes32"
        }
      ],
      "name": "setRoot",
      "outputs": [],
      "stateMutability": "nonpayable",
      "type": "function"
    },
    {
      "inputs": [
        {
          "internalType": "bytes4",
          "name": "interfaceId",
          "type": "bytes4"
        }
      ],
      "name": "supportsInterface",
      "outputs": [
        {
          "internalType": "bool",
          "name": "",
          "type": "bool"
        }
      ],
      "stateMutability": "view",
      "type": "function"
    },
    {
      "inputs": [],
      "name": "totalRaiseAmount",
      "outputs": [
        {
          "internalType": "uint256",
          "name": "",
          "type": "uint256"
        }
      ],
      "stateMutability": "view",
      "type": "function"
    },
    {
      "inputs": [
        {
          "internalType": "uint64",
          "name": "_newWhaleCloseTime",
          "type": "uint64"
        },
        {
          "internalType": "uint64",
          "name": "_newCommunityCloseTime",
          "type": "uint64"
        }
      ],
      "name": "updateTime",
      "outputs": [],
      "stateMutability": "nonpayable",
      "type": "function"
    },
    {
      "inputs": [
        {
          "internalType": "address",
          "name": "",
          "type": "address"
        }
      ],
      "name": "userIDOAirdropAmount",
      "outputs": [
        {
          "internalType": "uint256",
          "name": "",
          "type": "uint256"
        }
      ],
      "stateMutability": "view",
      "type": "function"
    },
    {
      "inputs": [
        {
          "internalType": "address",
          "name": "",
          "type": "address"
        }
      ],
      "name": "userIDOTGEAmount",
      "outputs": [
        {
          "internalType": "uint256",
          "name": "",
          "type": "uint256"
        }
      ],
      "stateMutability": "view",
      "type": "function"
    },
    {
      "inputs": [
        {
          "internalType": "address",
          "name": "",
          "type": "address"
        }
      ],
      "name": "userPurchasedAmount",
      "outputs": [
        {
          "internalType": "uint256",
          "name": "",
          "type": "uint256"
        }
      ],
      "stateMutability": "view",
      "type": "function"
    },
    {
      "inputs": [],
      "name": "whaleCloseTime",
      "outputs": [
        {
          "internalType": "uint64",
          "name": "",
          "type": "uint64"
        }
      ],
      "stateMutability": "view",
      "type": "function"
    },
    {
      "inputs": [],
      "name": "whaleOpenTime",
      "outputs": [
        {
          "internalType": "uint64",
          "name": "",
          "type": "uint64"
        }
      ],
      "stateMutability": "view",
      "type": "function"
    },
    {
      "inputs": [
        {
          "internalType": "address",
          "name": "_withdrawIDOTokenRecipient",
          "type": "address"
        }
      ],
      "name": "withdrawIDOToken",
      "outputs": [],
      "stateMutability": "nonpayable",
      "type": "function"
    },
    {
      "inputs": [
        {
          "internalType": "address",
          "name": "_withdrawPurchaseTokenRecipient",
          "type": "address"
        }
      ],
      "name": "withdrawPurchaseToken",
      "outputs": [],
      "stateMutability": "nonpayable",
      "type": "function"
    }
  ],
  "transactionHash": "0xc921da28c9769ecaacc0630a6ba348ea04c586f448865b25fa61a9064ff01cf5",
  "args": [],
  "numDeployments": 1,
  "solcInputHash": "6054ad8f649b2dbf15deb68caecd2d05",
  "bytecode": "0x608060405234801561001057600080fd5b506000805460ff19169055600180556130de8061002e6000396000f3fe608060405234801561001057600080fd5b50600436106102b65760003560e01c806385f8f4be11610172578063be5bb519116100d9578063ce7c641011610092578063ce7c641014610643578063d547741f1461065d578063dab5f34014610670578063e995914914610683578063ebf0c717146106aa578063efaad0ec146106b3578063f1379939146106c657600080fd5b8063be5bb519146105cb578063c09d6fb9146105de578063c4746f01146105f3578063c6b3665c14610606578063cb1287281461061b578063cdc5598e1461062e57600080fd5b8063a558b65c1161012b578063a558b65c14610563578063a95c4d621461057d578063aad967e414610590578063b3679bda146105a4578063b3cd4254146105ad578063b4582276146105b657600080fd5b806385f8f4be146104f957806387e449351461050257806391d1485414610515578063a09e06a114610528578063a217fddf1461053b578063a4f276c71461054357600080fd5b80633baa6fca116102215780635c975abb116101da5780635c975abb1461049957806366805de5146104a457806377292d5b146104ac5780637837734f146104b55780637b1a0838146104ca5780637dbdddfa146104d357806381e2403b146104e657600080fd5b80633baa6fca146103ea5780633d3e3763146103fd5780633da1d412146104105780634219dc40146104305780634f93d1ad146104565780635c5b1f831461047957600080fd5b806326e3e0d41161027357806326e3e0d41461036d5780632f2ff15d1461038057806330bba6c41461039357806331f7ebc51461039c57806334fa224b146103af57806336568abe146103d757600080fd5b806301ffc9a7146102bb578063086425bc146102e35780631353ff75146102f85780631acbc8231461030f5780632013b4c414610318578063248a9ca31461034a575b600080fd5b6102ce6102c9366004612884565b6106cf565b60405190151581526020015b60405180910390f35b6102f66102f13660046129b3565b610706565b005b61030160095481565b6040519081526020016102da565b61030160125481565b600f5461033290600160c01b90046001600160401b031681565b6040516001600160401b0390911681526020016102da565b610301610358366004612a00565b60009081526003602052604090206001015490565b6102f661037b366004612a35565b610810565b6102f661038e366004612a50565b6109d0565b610301600c5481565b6102f66103aa366004612a7c565b6109fa565b600d546103c490600160701b900461ffff1681565b60405161ffff90911681526020016102da565b6102f66103e5366004612a50565b610f07565b600f54610332906001600160401b031681565b6102f661040b366004612b4a565b610f81565b61030161041e366004612a35565b60146020526000908152604090205481565b600454610449906201000090046001600160a01b031681565b6040516102da9190612b74565b600754600854610464919082565b604080519283526020830191909152016102da565b610301610487366004612a35565b60156020526000908152604090205481565b60005460ff166102ce565b6102f6611132565b61030160105481565b600d546103c490600160501b900461ffff1681565b61030160115481565b6102f66104e1366004612a00565b611204565b6102f66104f4366004612b88565b611300565b610301600b5481565b600554610449906001600160a01b031681565b6102ce610523366004612a50565b61142d565b6102f6610536366004612b88565b611458565b610301600081565b610301610551366004612a35565b60136020526000908152604090205481565b600f5461033290600160801b90046001600160401b031681565b600654610449906001600160a01b031681565b600d546102ce90600160901b900460ff1681565b610301600e5481565b6103c461271081565b600d546103c490600160401b900461ffff1681565b6102f66105d9366004612a35565b6115ad565b61030160008051602061308983398151915281565b6102f6610601366004612c69565b611772565b600d546103c490600160601b900461ffff1681565b600d54610332906001600160401b031681565b600d546103c490600160801b900461ffff1681565b600f5461033290600160401b90046001600160401b031681565b6102f661066b366004612a50565b6118a7565b6102f661067e366004612a00565b6118cc565b6103017f13e31188d81b941f4c541528790db4031bef078b78d364bde6fc2d4e5ad79e0181565b61030160025481565b6102f66106c1366004612c86565b611993565b610301600a5481565b60006001600160e01b03198216637965db0b60e01b148061070057506301ffc9a760e01b6001600160e01b03198316145b92915050565b61070e611a37565b6002600154141561073a5760405162461bcd60e51b815260040161073190612cca565b60405180910390fd5b6002600155610747611a7f565b6107cd57600f546001600160401b0380821691600160401b8104821691600160801b8204811691600160c01b90041642335b6040516364daa85360e11b81526001600160401b039687166004820152948616602486015292851660448501529316606483015260848201929092526001600160a01b0390911660a482015260c401610731565b6107d73383611ab3565b6107e18282611b70565b600d546107fe90849084908490600160501b900461ffff16611b9a565b61080782611c20565b50506001805550565b6004546201000090046001600160a01b031663c395fcb3336040518263ffffffff1660e01b81526004016108449190612b74565b602060405180830381865afa158015610861573d6000803e3d6000fd5b505050506040513d601f19601f820116820180604052508101906108859190612d01565b6108a257604051637bfa4b9f60e01b815260040160405180910390fd5b6108ab81611c3a565b60005460ff161515600114806108d25750600f54600160c01b90046001600160401b031642115b156109b4576006546040516370a0823160e01b81526000916001600160a01b0316906370a0823190610908903090600401612b74565b602060405180830381865afa158015610925573d6000803e3d6000fd5b505050506040513d601f19601f820116820180604052508101906109499190612d1e565b905080156109b057600654610968906001600160a01b03168383611c61565b6006546040517f5fd58c95befebb6f19ad0a64e78722ab52aa3dcb7bb63efd80edb730b0cf12e8916109a79185916001600160a01b0316908590612d37565b60405180910390a15b5050565b6040516356621b7b60e11b815260040160405180910390fd5b50565b6000828152600360205260409020600101546109eb81611cb7565b6109f58383611cc1565b505050565b600454610100900460ff1615808015610a1a5750600454600160ff909116105b80610a345750303b158015610a34575060045460ff166001145b610a975760405162461bcd60e51b815260206004820152602e60248201527f496e697469616c697a61626c653a20636f6e747261637420697320616c72656160448201526d191e481a5b9a5d1a585b1a5e995960921b6064820152608401610731565b6004805460ff191660011790558015610aba576004805461ff0019166101001790555b6004805462010000330262010000600160b01b03199091161790558251602080850151600580546001600160a01b039485166001600160a01b0319918216179091556006805492909416911617909155825190830151600b91909155600c5560408201516060830151610b2c82611d47565b600d805467ffffffffffffffff19166001600160401b0392909216919091179055610b5681611db3565b600d805461ffff92909216600160401b0261ffff60401b199092169190911790555050608082015160a0830151610b8c82611db3565b600d600a6101000a81548161ffff021916908361ffff160217905550610bb181611db3565b600d805461ffff92909216600160601b0261ffff60601b19909216919091179055505060c082015160e0830151610100840151610bed83611db3565b600d600e6101000a81548161ffff021916908361ffff160217905550610c1282611db3565b600d805461ffff92909216600160801b0261ffff60801b19909216919091179055600e819055612710610c458483612d87565b610c4f9190612da6565b6009556127108083610c618683612dc8565b610c6b9085612d87565b610c759190612d87565b610c7f9190612da6565b610c899190612da6565b600a55505050610120820151610140830151610160840151610caa83611d47565b600f805467ffffffffffffffff19166001600160401b0392909216919091179055610cdd610cd88385612ddf565b611d47565b600f8054600160401b600160c01b0319811667ffffffffffffffff60801b196001600160401b03948516600160401b9081029182169290921767ffffffffffffffff60401b1990931617048316600160801b9081029190911791829055610d4c92610cd8928592900416612ddf565b600f80546001600160c01b0316600160c01b6001600160401b03938416021790556101808601516101a0870151600791909155600855600554600654600b54600c54600d54604080516001600160a01b039687168152959094166020860152928401919091526060830152918216608082015261ffff600160401b8304811660a0830152600160501b8304811660c0830152600160601b90920490911660e08201527f75ab989fd8fb2390aca189e73e7167205ac4a3c29fd9d89c112c8a2fc97102fd93506101000191505060405180910390a1600d54600e54600f546007546008546040805161ffff600160701b880481168252600160801b90970490961660208701528501939093526001600160401b038083166060860152600160401b830481166080860152600160c01b90920490911660a084015260c083015260e08201527fe2a22c458b2e239482efb8652576064c276b0d1ce108e306de284c6c614e8f72906101000160405180910390a180156109f5576004805461ff0019169055604051600181527f7f26b83ff96e1f2b6a682f133852f6798a09c465da95921460cefb38474024989060200160405180910390a1505050565b6001600160a01b0381163314610f775760405162461bcd60e51b815260206004820152602f60248201527f416363657373436f6e74726f6c3a2063616e206f6e6c792072656e6f756e636560448201526e103937b632b9903337b91039b2b63360891b6064820152608401610731565b6109b08282611e16565b6004546201000090046001600160a01b031663c395fcb3336040518263ffffffff1660e01b8152600401610fb59190612b74565b602060405180830381865afa158015610fd2573d6000803e3d6000fd5b505050506040513d601f19601f82011682018060405250810190610ff69190612d01565b61101357604051637bfa4b9f60e01b815260040160405180910390fd5b806001600160401b0316826001600160401b03161015806110435750600f546001600160401b0390811690831611155b1561108e57600f54604051633d9877ad60e11b8152610731916001600160401b0380821692600160401b8304821692600160801b8104831692600160c01b9091041690600401612df7565b600f8054600160401b600160c01b031916600160401b6001600160401b0385811682810267ffffffffffffffff60801b191693909317600160801b938402176001600160c01b038116600160c01b8784168102918217968790556040517feedf049ba2a9e400be9e2a2d93b7e6023411a5c4fd77fe703bc75c2fea691fc3976109a79794861693861693909317958304851694938304841693919092041690612df7565b6004546201000090046001600160a01b031663c395fcb3336040518263ffffffff1660e01b81526004016111669190612b74565b602060405180830381865afa158015611183573d6000803e3d6000fd5b505050506040513d601f19601f820116820180604052508101906111a79190612d01565b6111c457604051637bfa4b9f60e01b815260040160405180910390fd5b6111cc611e7d565b6040516000815230907ff0d6825187080fb76e877d6e8990b1e2a60ed4f2d8ccf610e889659854577e749060200160405180910390a2565b600554611219906001600160a01b0316611c3a565b600d54600160901b900460ff1661124357604051631b8b49f960e01b815260040160405180910390fd5b600d546001600160401b031642101561126f57604051630a919d3360e01b815260040160405180910390fd5b33600090815260156020526040902054808211156112a057604051630dc37d7560e21b815260040160405180910390fd5b33600090815260156020526040812080548492906112bf908490612dc8565b909155506112cf90503383611ed1565b7f248517048bc1878f5d0308e1114eba756dc34c77ea2627325801a71c05b5d39533836040516109a7929190612e22565b611308611a37565b6002600154141561132b5760405162461bcd60e51b815260040161073190612cca565b60026001556000808061133d84611ee8565b60065460405163d505accf60e01b815293965091945092506001600160a01b03169063d505accf9061137f90339030908c908b9088908b908b90600401612e3b565b600060405180830381600087803b15801561139957600080fd5b505af11580156113ad573d6000803e3d6000fd5b505050506113b9611a7f565b6113ef57600f546001600160401b0380821691600160401b8104821691600160801b8204811691600160c01b9004164233610779565b6113f98787611b70565b600d5461141690899089908990600160501b900461ffff16611b9a565b61141f87611c20565b505060018055505050505050565b60009182526003602090815260408084206001600160a01b0393909316845291905290205460ff1690565b611460611a37565b600260015414156114835760405162461bcd60e51b815260040161073190612cca565b60026001556000808061149584611ee8565b60065460405163d505accf60e01b815293965091945092506001600160a01b03169063d505accf906114d790339030908b908b9088908b908b90600401612e3b565b600060405180830381600087803b1580156114f157600080fd5b505af1158015611505573d6000803e3d6000fd5b505050506115196115133390565b88611ab3565b611521611a7f565b1561155b5761152f87611f14565b600d5461154d9089908990600090600160601b900461ffff16611b9a565b61155687611f51565b61141f565b611563611f63565b1561157b5761157187611f9c565b6115568888611fd9565b600f546001600160401b0380821691600160401b8104821691600160801b8204811691600160c01b9004164233610779565b6004546201000090046001600160a01b031663c395fcb3336040518263ffffffff1660e01b81526004016115e19190612b74565b602060405180830381865afa1580156115fe573d6000803e3d6000fd5b505050506040513d601f19601f820116820180604052508101906116229190612d01565b61163f57604051637bfa4b9f60e01b815260040160405180910390fd5b600554611654906001600160a01b0316611c3a565b61165d81611c3a565b60005460ff161515600114806116845750600f54600160c01b90046001600160401b031642115b15611759576005546040516370a0823160e01b81526000916001600160a01b0316906370a08231906116ba903090600401612b74565b602060405180830381865afa1580156116d7573d6000803e3d6000fd5b505050506040513d601f19601f820116820180604052508101906116fb9190612d1e565b905080156109b05760055461171a906001600160a01b03168383611c61565b6005546040517f7645a5c54de72438a4de1507bde579a46ca541fe92760409bca92b588af03140916109a79185916001600160a01b0316908590612d37565b60405163b5d0229760e01b815260040160405180910390fd5b6004546201000090046001600160a01b031663c395fcb3336040518263ffffffff1660e01b81526004016117a69190612b74565b602060405180830381865afa1580156117c3573d6000803e3d6000fd5b505050506040513d601f19601f820116820180604052508101906117e79190612d01565b61180457604051637bfa4b9f60e01b815260040160405180910390fd5b600554611819906001600160a01b0316611c3a565b600d5460ff600160901b909104161515811515141561184f57604051633a5c93f960e11b81528115156004820152602401610731565b600d8054821515600160901b0260ff60901b199091161790556040517f54b036c17e62300d398f2d9af8763c2bf1ebce09c3b5743016e62cdccebec2c59061189c90831515815260200190565b60405180910390a150565b6000828152600360205260409020600101546118c281611cb7565b6109f58383611e16565b6004546201000090046001600160a01b031663c395fcb3336040518263ffffffff1660e01b81526004016119009190612b74565b602060405180830381865afa15801561191d573d6000803e3d6000fd5b505050506040513d601f19601f820116820180604052508101906119419190612d01565b61195e57604051637bfa4b9f60e01b815260040160405180910390fd5b60028190556040518181527fc8d52687b85ab11e6859cb0b390a9e926e1b348d9796e084f88f88420c176fc69060200161189c565b61199b611a37565b600260015414156119be5760405162461bcd60e51b815260040161073190612cca565b60026001556119cd3382611ab3565b6119d5611a7f565b15611a0f576119e381611f14565b600d54611a019083908390600090600160601b900461ffff16611b9a565b611a0a81611f51565b611a2f565b611a17611f63565b1561157b57611a2581611f9c565b611a0a8282611fd9565b505060018055565b60005460ff1615611a7d5760405162461bcd60e51b815260206004820152601060248201526f14185d5cd8589b194e881c185d5cd95960821b6044820152606401610731565b565b600f546000906001600160401b031642118015611aae5750600f54600160401b90046001600160401b03164211155b905090565b600654604051636eb1769f60e11b81526001600160a01b038481166004830152306024830152600092169063dd62ed3e90604401602060405180830381865afa158015611b04573d6000803e3d6000fd5b505050506040513d601f19601f82011682018060405250810190611b289190612d1e565b9050818110156109f5576006546040516304fee01560e31b81526001600160a01b03808616600483015290911660248201526044810182905260648101839052608401610731565b611b7982612045565b808211156109b057604051632b37c00360e11b815260040160405180910390fd5b611bb833600b54600080516020613089833981519152908588612063565b15611bcf57611bca33848360016120cc565b611c1a565b611bed33600c54600080516020613089833981519152908588612063565b15611bff57611bca33848360006120cc565b33604051632e4f414f60e01b81526004016107319190612b74565b50505050565b8060106000828254611c329190612ddf565b909155505050565b6001600160a01b0381166109cd5760405163d92e233d60e01b815260040160405180910390fd5b6109f58363a9059cbb60e01b8484604051602401611c80929190612e22565b60408051601f198184030181529190526020810180516001600160e01b03166001600160e01b031990931692909217909152612278565b6109cd813361234a565b611ccb828261142d565b6109b05760008281526003602090815260408083206001600160a01b03851684529091529020805460ff19166001179055611d033390565b6001600160a01b0316816001600160a01b0316837f2f8788117e7eff1d82e926ec794901d17c78024a50270940304540a733656f0d60405160405180910390a45050565b60006001600160401b03821115611daf5760405162461bcd60e51b815260206004820152602660248201527f53616665436173743a2076616c756520646f65736e27742066697420696e203660448201526534206269747360d01b6064820152608401610731565b5090565b600061ffff821115611daf5760405162461bcd60e51b815260206004820152602660248201527f53616665436173743a2076616c756520646f65736e27742066697420696e203160448201526536206269747360d01b6064820152608401610731565b611e20828261142d565b156109b05760008281526003602090815260408083206001600160a01b0385168085529252808320805460ff1916905551339285917ff6391f5c32d9c69d2a47ea670b442974b53935d1edc7fd64eb21e047a839171b9190a45050565b611e85611a37565b6000805460ff191660011790557f62e78cea01bee320cd4e420270b5ea74000d11b0c9f74754ebdbfc544b05a258611eba3390565b604051611ec79190612b74565b60405180910390a1565b6005546109b0906001600160a01b03168383611c61565b6000806000611ef6846123ae565b50505060208101516040820151606090920151909260009190911a90565b611f1d81612045565b600a5481601154611f2e9190612ddf565b11156109cd5733816040516330b052c360e01b8152600401610731929190612e22565b8060116000828254611c329190612ddf565b600f54600090600160801b90046001600160401b031642118015611aae575050600f54600160c01b90046001600160401b031642111590565b611fa581612045565b600e5481601254611fb69190612ddf565b11156109cd57338160405163b17009d360e01b8152600401610731929190612e22565b61200a33600b547f13e31188d81b941f4c541528790db4031bef078b78d364bde6fc2d4e5ad79e0190600086612063565b1561202a576109b033600d548390600160601b900461ffff1660016120cc565b6109b033600d548390600160601b900461ffff1660006120cc565b806109cd57604051631f2a200560e01b815260040160405180910390fd5b6040516bffffffffffffffffffffffff19606087901b16602082015260348101859052605481018490526074810183905260009081906094016040516020818303038152906040528051906020012090506120c183600254836123d0565b979650505050505050565b60018115151480156120f95750600b54336000908152601360205260409020546120f7908590612ddf565b115b1561211b573383604051631087b52160e01b8152600401610731929190612e22565b801580156121445750600c5433600090815260136020526040902054612142908590612ddf565b115b156121665733836040516384e66cd160e01b8152600401610731929190612e22565b600061217284846123e8565b9050801561219257600654612192906001600160a01b031686308461240e565b61219c858561242f565b6005546001600160a01b03161515806121b6575060075415155b156122155760006121c685612447565b600d54909150600090612710906121e890600160401b900461ffff1684612d87565b6121f29190612da6565b905060006122008284612dc8565b905061220d87828461246f565b505050612221565b6122218460008061246f565b6005546001600160a01b031630336001600160a01b03167fb56e31baf5ee91fd07834187784fb1cbdae3cb94b95610e2a8da75a624e71eaf8760405161226991815260200190565b60405180910390a45050505050565b60006122cd826040518060400160405280602081526020017f5361666545524332303a206c6f772d6c6576656c2063616c6c206661696c6564815250856001600160a01b03166124f79092919063ffffffff16565b8051909150156109f557808060200190518101906122eb9190612d01565b6109f55760405162461bcd60e51b815260206004820152602a60248201527f5361666545524332303a204552433230206f7065726174696f6e20646964206e6044820152691bdd081cdd58d8d9595960b21b6064820152608401610731565b612354828261142d565b6109b05761236c816001600160a01b0316601461250e565b61237783602061250e565b604051602001612388929190612ea8565b60408051601f198184030181529082905262461bcd60e51b825261073191600401612f17565b80516041146109cd57604051637141605d60e11b815260040160405180910390fd5b6000826123dd85846126a9565b1490505b9392505050565b6000816123f757506000610700565b6127106124048385612d87565b6123e19190612da6565b611c1a846323b872dd60e01b858585604051602401611c8093929190612d37565b6006546109b0906001600160a01b031683308461240e565b60085460009061245890600a61302e565b6007546124659084612d87565b6107009190612da6565b82601260008282546124819190612ddf565b909155505033600090815260136020526040812080548592906124a5908490612ddf565b909155505033600090815260146020526040812080548492906124c9908490612ddf565b909155505033600090815260156020526040812080548392906124ed908490612ddf565b9091555050505050565b606061250684846000856126f6565b949350505050565b6060600061251d836002612d87565b612528906002612ddf565b6001600160401b0381111561253f5761253f6128ae565b6040519080825280601f01601f191660200182016040528015612569576020820181803683370190505b509050600360fc1b8160008151811061258457612584612d5b565b60200101906001600160f81b031916908160001a905350600f60fb1b816001815181106125b3576125b3612d5b565b60200101906001600160f81b031916908160001a90535060006125d7846002612d87565b6125e2906001612ddf565b90505b600181111561265a576f181899199a1a9b1b9c1cb0b131b232b360811b85600f166010811061261657612616612d5b565b1a60f81b82828151811061262c5761262c612d5b565b60200101906001600160f81b031916908160001a90535060049490941c936126538161303a565b90506125e5565b5083156123e15760405162461bcd60e51b815260206004820181905260248201527f537472696e67733a20686578206c656e67746820696e73756666696369656e746044820152606401610731565b600081815b84518110156126ee576126da828683815181106126cd576126cd612d5b565b602002602001015161281c565b9150806126e681613051565b9150506126ae565b509392505050565b6060824710156127575760405162461bcd60e51b815260206004820152602660248201527f416464726573733a20696e73756666696369656e742062616c616e636520666f6044820152651c8818d85b1b60d21b6064820152608401610731565b6001600160a01b0385163b6127ae5760405162461bcd60e51b815260206004820152601d60248201527f416464726573733a2063616c6c20746f206e6f6e2d636f6e74726163740000006044820152606401610731565b600080866001600160a01b031685876040516127ca919061306c565b60006040518083038185875af1925050503d8060008114612807576040519150601f19603f3d011682016040523d82523d6000602084013e61280c565b606091505b50915091506120c182828661284b565b60008183106128385760008281526020849052604090206123e1565b60008381526020839052604090206123e1565b6060831561285a5750816123e1565b82511561286a5782518084602001fd5b8160405162461bcd60e51b81526004016107319190612f17565b60006020828403121561289657600080fd5b81356001600160e01b0319811681146123e157600080fd5b634e487b7160e01b600052604160045260246000fd5b604080519081016001600160401b03811182821017156128e6576128e66128ae565b60405290565b6040516101c081016001600160401b03811182821017156128e6576128e66128ae565b604051601f8201601f191681016001600160401b0381118282101715612937576129376128ae565b604052919050565b600082601f83011261295057600080fd5b813560206001600160401b0382111561296b5761296b6128ae565b8160051b61297a82820161290f565b928352848101820192828101908785111561299457600080fd5b83870192505b848310156120c15782358252918301919083019061299a565b6000806000606084860312156129c857600080fd5b83356001600160401b038111156129de57600080fd5b6129ea8682870161293f565b9660208601359650604090950135949350505050565b600060208284031215612a1257600080fd5b5035919050565b80356001600160a01b0381168114612a3057600080fd5b919050565b600060208284031215612a4757600080fd5b6123e182612a19565b60008060408385031215612a6357600080fd5b82359150612a7360208401612a19565b90509250929050565b600080610200808486031215612a9157600080fd5b84601f850112612aa057600080fd5b612aa86128c4565b806040860187811115612aba57600080fd5b865b81811015612adb57612acd81612a19565b845260209384019301612abc565b5081955087605f880112612aee57600080fd5b612af66128ec565b93870193925082915087841115612b0c57600080fd5b5b83811015612b25578035835260209283019201612b0d565b508093505050509250929050565b80356001600160401b0381168114612a3057600080fd5b60008060408385031215612b5d57600080fd5b612b6683612b33565b9150612a7360208401612b33565b6001600160a01b0391909116815260200190565b600080600080600060a08688031215612ba057600080fd5b85356001600160401b0380821115612bb757600080fd5b612bc389838a0161293f565b9650602091508188013595506040880135945060608801359350608088013581811115612bef57600080fd5b8801601f81018a13612c0057600080fd5b803582811115612c1257612c126128ae565b612c24601f8201601f1916850161290f565b92508083528a84828401011115612c3a57600080fd5b80848301858501376000848285010152505080925050509295509295909350565b80151581146109cd57600080fd5b600060208284031215612c7b57600080fd5b81356123e181612c5b565b60008060408385031215612c9957600080fd5b82356001600160401b03811115612caf57600080fd5b612cbb8582860161293f565b95602094909401359450505050565b6020808252601f908201527f5265656e7472616e637947756172643a207265656e7472616e742063616c6c00604082015260600190565b600060208284031215612d1357600080fd5b81516123e181612c5b565b600060208284031215612d3057600080fd5b5051919050565b6001600160a01b039384168152919092166020820152604081019190915260600190565b634e487b7160e01b600052603260045260246000fd5b634e487b7160e01b600052601160045260246000fd5b6000816000190483118215151615612da157612da1612d71565b500290565b600082612dc357634e487b7160e01b600052601260045260246000fd5b500490565b600082821015612dda57612dda612d71565b500390565b60008219821115612df257612df2612d71565b500190565b6001600160401b03948516815292841660208401529083166040830152909116606082015260800190565b6001600160a01b03929092168252602082015260400190565b6001600160a01b0397881681529590961660208601526040850193909352606084019190915260ff16608083015260a082015260c081019190915260e00190565b60005b83811015612e97578181015183820152602001612e7f565b83811115611c1a5750506000910152565b76020b1b1b2b9b9a1b7b73a3937b61d1030b1b1b7bab73a1604d1b815260008351612eda816017850160208801612e7c565b7001034b99036b4b9b9b4b733903937b6329607d1b6017918401918201528351612f0b816028840160208801612e7c565b01602801949350505050565b6020815260008251806020840152612f36816040850160208701612e7c565b601f01601f19169190910160400192915050565b600181815b80851115612f85578160001904821115612f6b57612f6b612d71565b80851615612f7857918102915b93841c9390800290612f4f565b509250929050565b600082612f9c57506001610700565b81612fa957506000610700565b8160018114612fbf5760028114612fc957612fe5565b6001915050610700565b60ff841115612fda57612fda612d71565b50506001821b610700565b5060208310610133831016604e8410600b8410161715613008575081810a610700565b6130128383612f4a565b806000190482111561302657613026612d71565b029392505050565b60006123e18383612f8d565b60008161304957613049612d71565b506000190190565b600060001982141561306557613065612d71565b5060010190565b6000825161307e818460208701612e7c565b919091019291505056feed4b80c86c7954bdbf516c492acb4a2899eb0ee85b7c74e26d85e55a07562c95a2646970667358221220ab5f88ebddef9f8e1c18ad0a2adfd172dea52a9aa000da13c5fa88ae4a1de81a64736f6c634300080a0033",
  "devdoc": {
    "kind": "dev",
    "methods": {
      "buyTokenInCrowdfundingPool(bytes32[],uint256)": {
        "details": "Must be in time for crowdfunding pool and pool is not closed",
        "params": {
          "_purchaseAmount": "Purchase amount of investor",
          "proof": "Respective proof for a leaf, which is respective for investor in merkle tree"
        }
      },
      "buyTokenInCrowdfundingPoolWithPermit(bytes32[],uint256,uint256,uint256,bytes)": {
        "details": "Investor do not need execute approve transaction, but need to sign data off-chain; used only for USDC. Must be in time for crowdfunding pool and pool is not closed",
        "params": {
          "_allowance": "Allowance amount of investor's USDC for pool",
          "_deadline": "Deadline of off-chain investor's signature",
          "_purchaseAmount": "Purchase amount of investor",
          "_signature": "Signature of investor",
          "proof": "Respective proof for a leaf, which is respective for investor in merkle tree"
        }
      },
      "buyTokenInGalaxyPool(bytes32[],uint256,uint256)": {
        "details": "Must be in time for whale and pool is not closed",
        "params": {
          "_maxPurchaseBaseOnAllocations": "Max purchase amount base on allocation of whale",
          "_purchaseAmount": "Purchase amount of investor",
          "proof": "Respective proof for a leaf, which is respective for investor in merkle tree"
        }
      },
      "buyTokenInGalaxyPoolWithPermit(bytes32[],uint256,uint256,uint256,bytes)": {
        "details": "Investor do not need execute approve transaction, but need to sign data off-chain; used only for USDC. Must be in time for whale and pool is not closed",
        "params": {
          "_deadline": "Deadline of off-chain investor's signature",
          "_maxPurchaseBaseOnAllocations": "Max purchase amount base on allocation of whale",
          "_purchaseAmount": "Purchase amount of investor",
          "_signature": "Signature of investor",
          "proof": "Respective proof for a leaf, which is respective for investor in merkle tree"
        }
      },
      "closePool()": {
        "details": "Only admin can call it"
      },
      "getRoleAdmin(bytes32)": {
        "details": "Returns the admin role that controls `role`. See {grantRole} and {revokeRole}. To change a role's admin, use {_setRoleAdmin}."
      },
      "grantRole(bytes32,address)": {
        "details": "Grants `role` to `account`. If `account` had not been already granted `role`, emits a {RoleGranted} event. Requirements: - the caller must have ``role``'s admin role. May emit a {RoleGranted} event."
      },
      "hasRole(bytes32,address)": {
        "details": "Returns `true` if `account` has been granted `role`."
      },
      "initialize(address[2],uint256[14])": {
        "details": "Emit 2 events",
        "params": {
          "addrs": "Array of address includes: address of IDO token, address of purchase token",
          "uints": "Array of pool information includes: max purchase amount for KYC user, max purchase amount for Not KYC user, TGE date, TGE percentage,  galaxy participation fee percentage, crowdfunding participation fee percentage, galaxy pool proportion, early access proportion, total raise amount, whale open time, whale duration, community duration, rate and decimal of IDO token"
        }
      },
      "paused()": {
        "details": "Returns true if the contract is paused, and false otherwise."
      },
      "redeemTGEIDOToken(uint256)": {
        "params": {
          "_IDORedeemAmount": "Amount of IDO token is wanted to redeem"
        }
      },
      "renounceRole(bytes32,address)": {
        "details": "Revokes `role` from the calling account. Roles are often managed via {grantRole} and {revokeRole}: this function's purpose is to provide a mechanism for accounts to lose their privileges if they are compromised (such as when a trusted device is misplaced). If the calling account had been revoked `role`, emits a {RoleRevoked} event. Requirements: - the caller must be `account`. May emit a {RoleRevoked} event."
      },
      "revokeRole(bytes32,address)": {
        "details": "Revokes `role` from `account`. If `account` had been granted `role`, emits a {RoleRevoked} event. Requirements: - the caller must have ``role``'s admin role. May emit a {RoleRevoked} event."
      },
      "setRedeemableTGEIDOToken(bool)": {
        "details": "Only admin can call it"
      },
      "setRoot(bytes32)": {
        "details": "Only admin can call it",
        "params": {
          "_root": "Root of merkle tree"
        }
      },
      "supportsInterface(bytes4)": {
        "details": "See {IERC165-supportsInterface}."
      },
      "updateTime(uint64,uint64)": {
        "details": "Only admin can call it, galaxy pool must be closed before crowdfunding pool",
        "params": {
          "_newCommunityCloseTime": "New close time of crowdfunding pool",
          "_newWhaleCloseTime": "New close time of galaxy pool"
        }
      },
      "withdrawIDOToken(address)": {
        "details": "Only admin can call it after pool closed",
        "params": {
          "_withdrawIDOTokenRecipient": "Address of recipient"
        }
      },
      "withdrawPurchaseToken(address)": {
        "details": "Only admin can call it after pool closed",
        "params": {
          "_withdrawPurchaseTokenRecipient": "Address of recipient"
        }
      }
    },
    "version": 1
  },
  "userdoc": {
    "kind": "user",
    "methods": {
      "buyTokenInCrowdfundingPool(bytes32[],uint256)": {
        "notice": "Investor buy token in crowdfunding pool"
      },
      "buyTokenInCrowdfundingPoolWithPermit(bytes32[],uint256,uint256,uint256,bytes)": {
        "notice": "Investor buy token in crowdfunding pool"
      },
      "buyTokenInGalaxyPool(bytes32[],uint256,uint256)": {
        "notice": "Investor buy token in galaxy pool"
      },
      "buyTokenInGalaxyPoolWithPermit(bytes32[],uint256,uint256,uint256,bytes)": {
        "notice": "Investor buy token in galaxy pool"
      },
      "closePool()": {
        "notice": "Close pool: cancel project, nobody can buy token"
      },
      "initialize(address[2],uint256[14])": {
        "notice": "Initialize a pool with its information"
      },
      "redeemTGEIDOToken(uint256)": {
        "notice": "Investor redeem IDO token after TGE date"
      },
      "setRedeemableTGEIDOToken(bool)": {
        "notice": "Allow or disallow investors to redeem TGE amount of IDO token"
      },
      "setRoot(bytes32)": {
        "notice": "Set merkle tree root after snapshoting information of investor"
      },
      "updateTime(uint64,uint64)": {
        "notice": "Update time for galaxy pool and crowdfunding pool"
      },
      "withdrawIDOToken(address)": {
        "notice": "Admin withdraw redundant IDO token in pool"
      },
      "withdrawPurchaseToken(address)": {
        "notice": "Admin withdraw purchase token in pool"
      }
    },
    "version": 1
  },
  "storageLayout": {
    "storage": [
      {
        "astId": 9528,
        "contract": "contracts/IDOpool/Pool.sol:Pool",
        "label": "_paused",
        "offset": 0,
        "slot": "0",
        "type": "t_bool"
      },
      {
        "astId": 9629,
        "contract": "contracts/IDOpool/Pool.sol:Pool",
        "label": "_status",
        "offset": 0,
        "slot": "1",
        "type": "t_uint256"
      },
      {
        "astId": 5358,
        "contract": "contracts/IDOpool/Pool.sol:Pool",
        "label": "root",
        "offset": 0,
        "slot": "2",
        "type": "t_bytes32"
      },
      {
        "astId": 9017,
        "contract": "contracts/IDOpool/Pool.sol:Pool",
        "label": "_roles",
        "offset": 0,
        "slot": "3",
        "type": "t_mapping(t_bytes32,t_struct(RoleData)9012_storage)"
      },
      {
        "astId": 9364,
        "contract": "contracts/IDOpool/Pool.sol:Pool",
        "label": "_initialized",
        "offset": 0,
        "slot": "4",
        "type": "t_uint8"
      },
      {
        "astId": 9367,
        "contract": "contracts/IDOpool/Pool.sol:Pool",
        "label": "_initializing",
        "offset": 1,
        "slot": "4",
        "type": "t_bool"
      },
      {
        "astId": 3025,
        "contract": "contracts/IDOpool/Pool.sol:Pool",
        "label": "poolFactory",
        "offset": 2,
        "slot": "4",
        "type": "t_contract(IPoolFactory)5618"
      },
      {
        "astId": 3031,
        "contract": "contracts/IDOpool/Pool.sol:Pool",
        "label": "IDOToken",
        "offset": 0,
        "slot": "5",
        "type": "t_contract(IERC20)2372"
      },
      {
        "astId": 3034,
        "contract": "contracts/IDOpool/Pool.sol:Pool",
        "label": "purchaseToken",
        "offset": 0,
        "slot": "6",
        "type": "t_contract(IERC20)2372"
      },
      {
        "astId": 3037,
        "contract": "contracts/IDOpool/Pool.sol:Pool",
        "label": "offeredCurrency",
        "offset": 0,
        "slot": "7",
        "type": "t_struct(OfferedCurrency)3016_storage"
      },
      {
        "astId": 3039,
        "contract": "contracts/IDOpool/Pool.sol:Pool",
        "label": "maxPurchaseAmountForGalaxyPool",
        "offset": 0,
        "slot": "9",
        "type": "t_uint256"
      },
      {
        "astId": 3041,
        "contract": "contracts/IDOpool/Pool.sol:Pool",
        "label": "maxPurchaseAmountForEarlyAccess",
        "offset": 0,
        "slot": "10",
        "type": "t_uint256"
      },
      {
        "astId": 3043,
        "contract": "contracts/IDOpool/Pool.sol:Pool",
        "label": "maxPurchaseAmountForKYCUser",
        "offset": 0,
        "slot": "11",
        "type": "t_uint256"
      },
      {
        "astId": 3045,
        "contract": "contracts/IDOpool/Pool.sol:Pool",
        "label": "maxPurchaseAmountForNotKYCUser",
        "offset": 0,
        "slot": "12",
        "type": "t_uint256"
      },
      {
        "astId": 3047,
        "contract": "contracts/IDOpool/Pool.sol:Pool",
        "label": "TGEDate",
        "offset": 0,
        "slot": "13",
        "type": "t_uint64"
      },
      {
        "astId": 3049,
        "contract": "contracts/IDOpool/Pool.sol:Pool",
        "label": "TGEPercentage",
        "offset": 8,
        "slot": "13",
        "type": "t_uint16"
      },
      {
        "astId": 3051,
        "contract": "contracts/IDOpool/Pool.sol:Pool",
        "label": "galaxyParticipationFeePercentage",
        "offset": 10,
        "slot": "13",
        "type": "t_uint16"
      },
      {
        "astId": 3053,
        "contract": "contracts/IDOpool/Pool.sol:Pool",
        "label": "crowdfundingParticipationFeePercentage",
        "offset": 12,
        "slot": "13",
        "type": "t_uint16"
      },
      {
        "astId": 3055,
        "contract": "contracts/IDOpool/Pool.sol:Pool",
        "label": "galaxyPoolProportion",
        "offset": 14,
        "slot": "13",
        "type": "t_uint16"
      },
      {
        "astId": 3057,
        "contract": "contracts/IDOpool/Pool.sol:Pool",
        "label": "earlyAccessProportion",
        "offset": 16,
        "slot": "13",
        "type": "t_uint16"
      },
      {
        "astId": 3059,
        "contract": "contracts/IDOpool/Pool.sol:Pool",
        "label": "TGERedeemable",
        "offset": 18,
        "slot": "13",
        "type": "t_bool"
      },
      {
        "astId": 3061,
        "contract": "contracts/IDOpool/Pool.sol:Pool",
        "label": "totalRaiseAmount",
        "offset": 0,
        "slot": "14",
        "type": "t_uint256"
      },
      {
        "astId": 3063,
        "contract": "contracts/IDOpool/Pool.sol:Pool",
        "label": "whaleOpenTime",
        "offset": 0,
        "slot": "15",
        "type": "t_uint64"
      },
      {
        "astId": 3065,
        "contract": "contracts/IDOpool/Pool.sol:Pool",
        "label": "whaleCloseTime",
        "offset": 8,
        "slot": "15",
        "type": "t_uint64"
      },
      {
        "astId": 3067,
        "contract": "contracts/IDOpool/Pool.sol:Pool",
        "label": "communityOpenTime",
        "offset": 16,
        "slot": "15",
        "type": "t_uint64"
      },
      {
        "astId": 3069,
        "contract": "contracts/IDOpool/Pool.sol:Pool",
        "label": "communityCloseTime",
        "offset": 24,
        "slot": "15",
        "type": "t_uint64"
      },
      {
        "astId": 3071,
        "contract": "contracts/IDOpool/Pool.sol:Pool",
        "label": "purchasedAmountInGalaxyPool",
        "offset": 0,
        "slot": "16",
        "type": "t_uint256"
      },
      {
        "astId": 3073,
        "contract": "contracts/IDOpool/Pool.sol:Pool",
        "label": "purchasedAmountInEarlyAccess",
        "offset": 0,
        "slot": "17",
        "type": "t_uint256"
      },
      {
        "astId": 3075,
        "contract": "contracts/IDOpool/Pool.sol:Pool",
        "label": "purchasedAmount",
        "offset": 0,
        "slot": "18",
        "type": "t_uint256"
      },
      {
        "astId": 3079,
        "contract": "contracts/IDOpool/Pool.sol:Pool",
        "label": "userPurchasedAmount",
        "offset": 0,
        "slot": "19",
        "type": "t_mapping(t_address,t_uint256)"
      },
      {
        "astId": 3083,
        "contract": "contracts/IDOpool/Pool.sol:Pool",
        "label": "userIDOAirdropAmount",
        "offset": 0,
        "slot": "20",
        "type": "t_mapping(t_address,t_uint256)"
      },
      {
        "astId": 3087,
        "contract": "contracts/IDOpool/Pool.sol:Pool",
        "label": "userIDOTGEAmount",
        "offset": 0,
        "slot": "21",
        "type": "t_mapping(t_address,t_uint256)"
      }
    ],
    "types": {
      "t_address": {
        "encoding": "inplace",
        "label": "address",
        "numberOfBytes": "20"
      },
      "t_bool": {
        "encoding": "inplace",
        "label": "bool",
        "numberOfBytes": "1"
      },
      "t_bytes32": {
        "encoding": "inplace",
        "label": "bytes32",
        "numberOfBytes": "32"
      },
      "t_contract(IERC20)2372": {
        "encoding": "inplace",
        "label": "contract IERC20",
        "numberOfBytes": "20"
      },
      "t_contract(IPoolFactory)5618": {
        "encoding": "inplace",
        "label": "contract IPoolFactory",
        "numberOfBytes": "20"
      },
      "t_mapping(t_address,t_bool)": {
        "encoding": "mapping",
        "key": "t_address",
        "label": "mapping(address => bool)",
        "numberOfBytes": "32",
        "value": "t_bool"
      },
      "t_mapping(t_address,t_uint256)": {
        "encoding": "mapping",
        "key": "t_address",
        "label": "mapping(address => uint256)",
        "numberOfBytes": "32",
        "value": "t_uint256"
      },
      "t_mapping(t_bytes32,t_struct(RoleData)9012_storage)": {
        "encoding": "mapping",
        "key": "t_bytes32",
        "label": "mapping(bytes32 => struct AccessControl.RoleData)",
        "numberOfBytes": "32",
        "value": "t_struct(RoleData)9012_storage"
      },
      "t_struct(OfferedCurrency)3016_storage": {
        "encoding": "inplace",
        "label": "struct Pool.OfferedCurrency",
        "members": [
          {
            "astId": 3013,
            "contract": "contracts/IDOpool/Pool.sol:Pool",
            "label": "rate",
            "offset": 0,
            "slot": "0",
            "type": "t_uint256"
          },
          {
            "astId": 3015,
            "contract": "contracts/IDOpool/Pool.sol:Pool",
            "label": "decimal",
            "offset": 0,
            "slot": "1",
            "type": "t_uint256"
          }
        ],
        "numberOfBytes": "64"
      },
      "t_struct(RoleData)9012_storage": {
        "encoding": "inplace",
        "label": "struct AccessControl.RoleData",
        "members": [
          {
            "astId": 9009,
            "contract": "contracts/IDOpool/Pool.sol:Pool",
            "label": "members",
            "offset": 0,
            "slot": "0",
            "type": "t_mapping(t_address,t_bool)"
          },
          {
            "astId": 9011,
            "contract": "contracts/IDOpool/Pool.sol:Pool",
            "label": "adminRole",
            "offset": 0,
            "slot": "1",
            "type": "t_bytes32"
          }
        ],
        "numberOfBytes": "64"
      },
      "t_uint16": {
        "encoding": "inplace",
        "label": "uint16",
        "numberOfBytes": "2"
      },
      "t_uint256": {
        "encoding": "inplace",
        "label": "uint256",
        "numberOfBytes": "32"
      },
      "t_uint64": {
        "encoding": "inplace",
        "label": "uint64",
        "numberOfBytes": "8"
      },
      "t_uint8": {
        "encoding": "inplace",
        "label": "uint8",
        "numberOfBytes": "1"
      }
    }
  }
}