{
  "address": "0x8B490f8706a981C4342Dce88CF806D9c4E598cc6",
  "abi": [
    {
      "inputs": [],
      "name": "PERCENTAGE_DENOMINATOR",
      "outputs": [
        {
          "internalType": "uint16",
          "name": "",
          "type": "uint16"
        }
      ],
      "stateMutability": "view",
      "type": "function"
    },
    {
      "inputs": [
        {
          "internalType": "uint256",
          "name": "_purchaseAmount",
          "type": "uint256"
        },
        {
          "internalType": "uint256",
          "name": "_participationFeePercentage",
          "type": "uint256"
        }
      ],
      "name": "calculateParticipantFee",
      "outputs": [
        {
          "internalType": "uint256",
          "name": "",
          "type": "uint256"
        }
      ],
      "stateMutability": "pure",
      "type": "function"
    },
    {
      "inputs": [
        {
          "internalType": "address[2]",
          "name": "addrs",
          "type": "address[2]"
        },
        {
          "internalType": "uint256[18]",
          "name": "uints",
          "type": "uint256[18]"
        }
      ],
      "name": "verifyPoolInfo",
      "outputs": [],
      "stateMutability": "pure",
      "type": "function"
    }
  ],
  "transactionHash": "0x630db14c675782f9cb787a1494b0c6a51f4f56e2553f6b703178578f6fb30220",
  "args": [],
  "numDeployments": 2,
  "solcInputHash": "7fb081150464d55b8a351bf072939cad",
  "bytecode": "0x6104f361003a600b82828239805160001a60731461002d57634e487b7160e01b600052600060045260246000fd5b30600052607381538281f3fe730000000000000000000000000000000000000000301460806040526004361061004b5760003560e01c8063a775594214610050578063b3cd425414610076578063b95f0a6314610092575b600080fd5b61006361005e3660046102a8565b6100a7565b6040519081526020015b60405180910390f35b61007f61271081565b60405161ffff909116815260200161006d565b6100a56100a0366004610333565b6100d6565b005b6000816100b6575060006100d0565b6127106100c3838561040f565b6100cd919061042e565b90505b92915050565b60208201516100e490610233565b604080820151815180830190925260018252603560f81b6020830152612710101561012b5760405162461bcd60e51b81526004016101229190610450565b60405180910390fd5b5061013d8160055b6020020151610272565b60a08101516040805180820190915260018152603760f81b6020820152906127101161017c5760405162461bcd60e51b81526004016101229190610450565b5060c08101516040805180820190915260018152600760fb1b602082015290612710116101bc5760405162461bcd60e51b81526004016101229190610450565b506101a08101516101408201516101208301516101008401516101df91906104a5565b6101e991906104a5565b1115604051806040016040528060018152602001603960f81b815250906102235760405162461bcd60e51b81526004016101229190610450565b5061022f816007610133565b5050565b6040805180820190915260018152600d60fa1b60208201526001600160a01b03821661022f5760405162461bcd60e51b81526004016101229190610450565b6040805180820190915260018152603360f81b60208201528161022f5760405162461bcd60e51b81526004016101229190610450565b600080604083850312156102bb57600080fd5b50508035926020909101359150565b6040805190810167ffffffffffffffff811182821017156102fb57634e487b7160e01b600052604160045260246000fd5b60405290565b604051610240810167ffffffffffffffff811182821017156102fb57634e487b7160e01b600052604160045260246000fd5b60008061028080848603121561034857600080fd5b84601f85011261035757600080fd5b61035f6102ca565b80604086018781111561037157600080fd5b865b818110156103a15780356001600160a01b03811681146103935760008081fd5b845260209384019301610373565b5081955087605f8801126103b457600080fd5b6103bc610301565b938701939250829150878411156103d257600080fd5b5b838110156103eb5780358352602092830192016103d3565b508093505050509250929050565b634e487b7160e01b600052601160045260246000fd5b6000816000190483118215151615610429576104296103f9565b500290565b60008261044b57634e487b7160e01b600052601260045260246000fd5b500490565b600060208083528351808285015260005b8181101561047d57858101830151858201604001528201610461565b8181111561048f576000604083870101525b50601f01601f1916929092016040019392505050565b600082198211156104b8576104b86103f9565b50019056fea2646970667358221220bcca64f2febb24db261c19fba459faf6e65f792a09669cab20c7252d65dba2c264736f6c634300080a0033",
  "devdoc": {
    "kind": "dev",
    "methods": {
      "calculateParticipantFee(uint256,uint256)": {
        "details": "Calculate fee when investor buy token",
        "params": {
          "_participationFeePercentage": "Fee percentage when buying token",
          "_purchaseAmount": "Purchase amount of investor"
        },
        "returns": {
          "_0": "Return amount of fee when investor buy token"
        }
      },
      "verifyPoolInfo(address[2],uint256[18])": {
        "details": "verify information of pool",
        "params": {
          "addrs": "Array of address includes: - address of IDO token, - address of purchase token",
          "uints": "Array of pool information includes: - max purchase amount for KYC user, - max purchase amount for Not KYC user, - token fee percentage, - galaxy participation fee percentage, - crowdfunding participation fee percentage, - galaxy pool proportion, - early access proportion, - total raise amount, - whale open time, - whale duration, - community duration, - rate of IDO token (based on README formula), - decimal of IDO token (based on README formula, is different from decimals in contract of IDO token), - TGE date, - TGE percentage, - vesting cliff, - vesting frequency, - number of vesting release"
        }
      }
    },
    "stateVariables": {
      "PERCENTAGE_DENOMINATOR": {
        "details": "Percentage denominator"
      }
    },
    "version": 1
  },
  "userdoc": {
    "kind": "user",
    "methods": {},
    "version": 1
  },
  "storageLayout": {
    "storage": [],
    "types": null
  }
}