{
  "address": "0xe3ECAE12321301E3AF6fE91cFE29dd88c7eb71b4",
  "abi": [
    {
      "anonymous": false,
      "inputs": [
        {
          "indexed": false,
          "internalType": "address",
          "name": "sender",
          "type": "address"
        },
        {
          "indexed": false,
          "internalType": "address",
          "name": "_beneficiary",
          "type": "address"
        },
        {
          "indexed": false,
          "internalType": "uint256",
          "name": "claimableAmount",
          "type": "uint256"
        }
      ],
      "name": "ClaimIDOToken",
      "type": "event"
    },
    {
      "anonymous": false,
      "inputs": [
        {
          "indexed": false,
          "internalType": "bool",
          "name": "_status",
          "type": "bool"
        }
      ],
      "name": "Funded",
      "type": "event"
    },
    {
      "anonymous": false,
      "inputs": [
        {
          "indexed": false,
          "internalType": "uint8",
          "name": "version",
          "type": "uint8"
        }
      ],
      "name": "Initialized",
      "type": "event"
    },
    {
      "anonymous": false,
      "inputs": [
        {
          "indexed": false,
          "internalType": "address",
          "name": "account",
          "type": "address"
        }
      ],
      "name": "Paused",
      "type": "event"
    },
    {
      "anonymous": false,
      "inputs": [
        {
          "indexed": true,
          "internalType": "bytes32",
          "name": "role",
          "type": "bytes32"
        },
        {
          "indexed": true,
          "internalType": "bytes32",
          "name": "previousAdminRole",
          "type": "bytes32"
        },
        {
          "indexed": true,
          "internalType": "bytes32",
          "name": "newAdminRole",
          "type": "bytes32"
        }
      ],
      "name": "RoleAdminChanged",
      "type": "event"
    },
    {
      "anonymous": false,
      "inputs": [
        {
          "indexed": true,
          "internalType": "bytes32",
          "name": "role",
          "type": "bytes32"
        },
        {
          "indexed": true,
          "internalType": "address",
          "name": "account",
          "type": "address"
        },
        {
          "indexed": true,
          "internalType": "address",
          "name": "sender",
          "type": "address"
        }
      ],
      "name": "RoleGranted",
      "type": "event"
    },
    {
      "anonymous": false,
      "inputs": [
        {
          "indexed": true,
          "internalType": "bytes32",
          "name": "role",
          "type": "bytes32"
        },
        {
          "indexed": true,
          "internalType": "address",
          "name": "account",
          "type": "address"
        },
        {
          "indexed": true,
          "internalType": "address",
          "name": "sender",
          "type": "address"
        }
      ],
      "name": "RoleRevoked",
      "type": "event"
    },
    {
      "anonymous": false,
      "inputs": [
        {
          "indexed": false,
          "internalType": "bool",
          "name": "_status",
          "type": "bool"
        }
      ],
      "name": "SetClaimableStatus",
      "type": "event"
    },
    {
      "anonymous": false,
      "inputs": [
        {
          "indexed": false,
          "internalType": "address",
          "name": "_IDOToken",
          "type": "address"
        }
      ],
      "name": "SetIDOTokenAddress",
      "type": "event"
    },
    {
      "anonymous": false,
      "inputs": [
        {
          "indexed": false,
          "internalType": "address",
          "name": "account",
          "type": "address"
        }
      ],
      "name": "Unpaused",
      "type": "event"
    },
    {
      "anonymous": false,
      "inputs": [
        {
          "indexed": false,
          "internalType": "uint64",
          "name": "_newTGEDate",
          "type": "uint64"
        }
      ],
      "name": "UpdateTGEDate",
      "type": "event"
    },
    {
      "anonymous": false,
      "inputs": [
        {
          "indexed": false,
          "internalType": "address",
          "name": "_beneficiary",
          "type": "address"
        },
        {
          "indexed": false,
          "internalType": "uint256",
          "name": "_redundantAmount",
          "type": "uint256"
        }
      ],
      "name": "WithdrawRedundantIDOToken",
      "type": "event"
    },
    {
      "inputs": [],
      "name": "DEFAULT_ADMIN_ROLE",
      "outputs": [
        {
          "internalType": "bytes32",
          "name": "",
          "type": "bytes32"
        }
      ],
      "stateMutability": "view",
      "type": "function"
    },
    {
      "inputs": [],
      "name": "IDOToken",
      "outputs": [
        {
          "internalType": "contract IERC20withDec",
          "name": "",
          "type": "address"
        }
      ],
      "stateMutability": "view",
      "type": "function"
    },
    {
      "inputs": [],
      "name": "OWNER_ROLE",
      "outputs": [
        {
          "internalType": "bytes32",
          "name": "",
          "type": "bytes32"
        }
      ],
      "stateMutability": "view",
      "type": "function"
    },
    {
      "inputs": [],
      "name": "PERCENTAGE_DENOMINATOR",
      "outputs": [
        {
          "internalType": "uint16",
          "name": "",
          "type": "uint16"
        }
      ],
      "stateMutability": "view",
      "type": "function"
    },
    {
      "inputs": [],
      "name": "TGEDate",
      "outputs": [
        {
          "internalType": "uint64",
          "name": "",
          "type": "uint64"
        }
      ],
      "stateMutability": "view",
      "type": "function"
    },
    {
      "inputs": [],
      "name": "TGEPercentage",
      "outputs": [
        {
          "internalType": "uint16",
          "name": "",
          "type": "uint16"
        }
      ],
      "stateMutability": "view",
      "type": "function"
    },
    {
      "inputs": [
        {
          "internalType": "address",
          "name": "owner",
          "type": "address"
        }
      ],
      "name": "__BasePausable__init",
      "outputs": [],
      "stateMutability": "nonpayable",
      "type": "function"
    },
    {
      "inputs": [
        {
          "internalType": "address",
          "name": "_beneficiary",
          "type": "address"
        }
      ],
      "name": "claimIDOToken",
      "outputs": [],
      "stateMutability": "nonpayable",
      "type": "function"
    },
    {
      "inputs": [],
      "name": "claimable",
      "outputs": [
        {
          "internalType": "bool",
          "name": "",
          "type": "bool"
        }
      ],
      "stateMutability": "view",
      "type": "function"
    },
    {
      "inputs": [
        {
          "internalType": "address",
          "name": "_user",
          "type": "address"
        },
        {
          "internalType": "uint256",
          "name": "_totalAmount",
          "type": "uint256"
        }
      ],
      "name": "createVestingSchedule",
      "outputs": [],
      "stateMutability": "nonpayable",
      "type": "function"
    },
    {
      "inputs": [],
      "name": "funded",
      "outputs": [
        {
          "internalType": "bool",
          "name": "",
          "type": "bool"
        }
      ],
      "stateMutability": "view",
      "type": "function"
    },
    {
      "inputs": [
        {
          "internalType": "address",
          "name": "user",
          "type": "address"
        }
      ],
      "name": "getClaimableAmount",
      "outputs": [
        {
          "internalType": "uint256",
          "name": "",
          "type": "uint256"
        }
      ],
      "stateMutability": "view",
      "type": "function"
    },
    {
      "inputs": [],
      "name": "getIDOToken",
      "outputs": [
        {
          "internalType": "contract IERC20withDec",
          "name": "",
          "type": "address"
        }
      ],
      "stateMutability": "view",
      "type": "function"
    },
    {
      "inputs": [
        {
          "internalType": "bytes32",
          "name": "role",
          "type": "bytes32"
        }
      ],
      "name": "getRoleAdmin",
      "outputs": [
        {
          "internalType": "bytes32",
          "name": "",
          "type": "bytes32"
        }
      ],
      "stateMutability": "view",
      "type": "function"
    },
    {
      "inputs": [],
      "name": "getVestingInfo",
      "outputs": [
        {
          "internalType": "uint64",
          "name": "",
          "type": "uint64"
        },
        {
          "internalType": "uint16",
          "name": "",
          "type": "uint16"
        },
        {
          "internalType": "uint64",
          "name": "",
          "type": "uint64"
        },
        {
          "internalType": "uint64",
          "name": "",
          "type": "uint64"
        },
        {
          "internalType": "uint256",
          "name": "",
          "type": "uint256"
        }
      ],
      "stateMutability": "view",
      "type": "function"
    },
    {
      "inputs": [
        {
          "internalType": "bytes32",
          "name": "role",
          "type": "bytes32"
        },
        {
          "internalType": "address",
          "name": "account",
          "type": "address"
        }
      ],
      "name": "grantRole",
      "outputs": [],
      "stateMutability": "nonpayable",
      "type": "function"
    },
    {
      "inputs": [
        {
          "internalType": "bytes32",
          "name": "role",
          "type": "bytes32"
        },
        {
          "internalType": "address",
          "name": "account",
          "type": "address"
        }
      ],
      "name": "hasRole",
      "outputs": [
        {
          "internalType": "bool",
          "name": "",
          "type": "bool"
        }
      ],
      "stateMutability": "view",
      "type": "function"
    },
    {
      "inputs": [
        {
          "internalType": "address",
          "name": "owner",
          "type": "address"
        },
        {
          "internalType": "address",
          "name": "_IDOToken",
          "type": "address"
        },
        {
          "internalType": "uint256",
          "name": "_TGEDate",
          "type": "uint256"
        },
        {
          "internalType": "uint256",
          "name": "_TGEPercentage",
          "type": "uint256"
        },
        {
          "internalType": "uint256",
          "name": "_vestingCliff",
          "type": "uint256"
        },
        {
          "internalType": "uint256",
          "name": "_vestingFrequency",
          "type": "uint256"
        },
        {
          "internalType": "uint256",
          "name": "_numberOfVestingRelease",
          "type": "uint256"
        }
      ],
      "name": "initialize",
      "outputs": [],
      "stateMutability": "nonpayable",
      "type": "function"
    },
    {
      "inputs": [],
      "name": "isClaimable",
      "outputs": [
        {
          "internalType": "bool",
          "name": "",
          "type": "bool"
        }
      ],
      "stateMutability": "view",
      "type": "function"
    },
    {
      "inputs": [],
      "name": "isFunded",
      "outputs": [
        {
          "internalType": "bool",
          "name": "",
          "type": "bool"
        }
      ],
      "stateMutability": "view",
      "type": "function"
    },
    {
      "inputs": [
        {
          "internalType": "address",
          "name": "sender",
          "type": "address"
        }
      ],
      "name": "isOwner",
      "outputs": [
        {
          "internalType": "bool",
          "name": "",
          "type": "bool"
        }
      ],
      "stateMutability": "view",
      "type": "function"
    },
    {
      "inputs": [],
      "name": "numberOfVestingRelease",
      "outputs": [
        {
          "internalType": "uint256",
          "name": "",
          "type": "uint256"
        }
      ],
      "stateMutability": "view",
      "type": "function"
    },
    {
      "inputs": [],
      "name": "paused",
      "outputs": [
        {
          "internalType": "bool",
          "name": "",
          "type": "bool"
        }
      ],
      "stateMutability": "view",
      "type": "function"
    },
    {
      "inputs": [
        {
          "internalType": "bytes32",
          "name": "role",
          "type": "bytes32"
        },
        {
          "internalType": "address",
          "name": "account",
          "type": "address"
        }
      ],
      "name": "renounceRole",
      "outputs": [],
      "stateMutability": "nonpayable",
      "type": "function"
    },
    {
      "inputs": [
        {
          "internalType": "bytes32",
          "name": "role",
          "type": "bytes32"
        },
        {
          "internalType": "address",
          "name": "account",
          "type": "address"
        }
      ],
      "name": "revokeRole",
      "outputs": [],
      "stateMutability": "nonpayable",
      "type": "function"
    },
    {
      "inputs": [
        {
          "internalType": "bool",
          "name": "_status",
          "type": "bool"
        }
      ],
      "name": "setClaimableStatus",
      "outputs": [],
      "stateMutability": "nonpayable",
      "type": "function"
    },
    {
      "inputs": [
        {
          "internalType": "bool",
          "name": "_status",
          "type": "bool"
        }
      ],
      "name": "setFundedStatus",
      "outputs": [],
      "stateMutability": "nonpayable",
      "type": "function"
    },
    {
      "inputs": [
        {
          "internalType": "contract IERC20withDec",
          "name": "_IDOToken",
          "type": "address"
        }
      ],
      "name": "setIDOToken",
      "outputs": [],
      "stateMutability": "nonpayable",
      "type": "function"
    },
    {
      "inputs": [
        {
          "internalType": "bytes4",
          "name": "interfaceId",
          "type": "bytes4"
        }
      ],
      "name": "supportsInterface",
      "outputs": [
        {
          "internalType": "bool",
          "name": "",
          "type": "bool"
        }
      ],
      "stateMutability": "view",
      "type": "function"
    },
    {
      "inputs": [
        {
          "internalType": "uint64",
          "name": "_TGEDate",
          "type": "uint64"
        }
      ],
      "name": "updateTGEDate",
      "outputs": [],
      "stateMutability": "nonpayable",
      "type": "function"
    },
    {
      "inputs": [
        {
          "internalType": "address",
          "name": "",
          "type": "address"
        }
      ],
      "name": "vestingAmountInfo",
      "outputs": [
        {
          "internalType": "uint256",
          "name": "totalAmount",
          "type": "uint256"
        },
        {
          "internalType": "uint256",
          "name": "claimedAmount",
          "type": "uint256"
        }
      ],
      "stateMutability": "view",
      "type": "function"
    },
    {
      "inputs": [],
      "name": "vestingCliff",
      "outputs": [
        {
          "internalType": "uint64",
          "name": "",
          "type": "uint64"
        }
      ],
      "stateMutability": "view",
      "type": "function"
    },
    {
      "inputs": [],
      "name": "vestingFrequency",
      "outputs": [
        {
          "internalType": "uint64",
          "name": "",
          "type": "uint64"
        }
      ],
      "stateMutability": "view",
      "type": "function"
    },
    {
      "inputs": [
        {
          "internalType": "address",
          "name": "_beneficiary",
          "type": "address"
        },
        {
          "internalType": "uint256",
          "name": "_redundantAmount",
          "type": "uint256"
        }
      ],
      "name": "withdrawRedundantIDOToken",
      "outputs": [],
      "stateMutability": "nonpayable",
      "type": "function"
    }
  ],
  "transactionHash": "0xcfee28f572ddf5828c3164c06dca3a3707cfa1432e531f246f5e5fe365797dcc",
  "args": [],
  "numDeployments": 2,
  "solcInputHash": "7fb081150464d55b8a351bf072939cad",
  "bytecode": "0x60806040526004805461ff00191661010017905534801561001f57600080fd5b506006805460ff191690556001600755611c178061003e6000396000f3fe608060405234801561001057600080fd5b50600436106101c65760003560e01c806387e44935116100fa578063cb1287281161009d578063cb1287281461040c578063d547741f14610426578063dc25a30014610439578063e12f3a6114610495578063e3b37f30146104a8578063e58378bb146104bb578063edbf4ac2146104d0578063f3640e74146104e3578063f3a504f2146104f657600080fd5b806387e449351461037557806391d1485414610388578063a217fddf1461039b578063af38d757146103a3578063b3cd4254146103b5578063b4582276146103d1578063b61a40c7146103e6578063bb8e3f44146103f957600080fd5b806336568abe1161016d57806336568abe14610295578063419544a0146102a85780634e76bad8146102bb5780635671e8c9146102f75780635c975abb1461030a5780635dccc1e414610315578063646fcfa91461032857806374478bb31461035a5780637c6543031461036a57600080fd5b806301ffc9a7146101cb5780630c8f6d00146101f35780631db5efe614610208578063248a9ca3146102225780632f2ff15d146102535780632f54bf6e146102665780633614ea4f14610279578063364d960414610282575b600080fd5b6101de6101d936600461183b565b610503565b60405190151581526020015b60405180910390f35b61020661020136600461187a565b61053a565b005b6000546001600160a01b03165b6040516101ea9190611897565b6102456102303660046118ab565b60009081526005602052604090206001015490565b6040519081526020016101ea565b6102066102613660046118c4565b6105db565b6101de61027436600461187a565b610605565b61024560025481565b61020661029036600461187a565b61061f565b6102066102a33660046118c4565b6108fc565b6102066102b63660046118f4565b61097a565b6102e26102c936600461187a565b6003602052600090815260409020805460019091015482565b604080519283526020830191909152016101ea565b61020661030536600461192e565b610a24565b60065460ff166101de565b6102066103233660046118f4565b610aaf565b60015461034290600160401b90046001600160401b031681565b6040516001600160401b0390911681526020016101ea565b600454610100900460ff166101de565b60045460ff166101de565b600054610215906001600160a01b031681565b6101de6103963660046118c4565b610bb2565b610245600081565b6004546101de90610100900460ff1681565b6103be61271081565b60405161ffff90911681526020016101ea565b6000546103be90600160e01b900461ffff1681565b6102066103f436600461192e565b610bdd565b61020661040736600461187a565b610c60565b60005461034290600160a01b90046001600160401b031681565b6102066104343660046118c4565b610d3f565b60005460015460025460408051600160a01b85046001600160401b039081168252600160e01b90950461ffff16602082015284841691810191909152600160401b9092049092166060820152608081019190915260a0016101ea565b6102456104a336600461187a565b610d64565b6102066104b636600461194b565b610e69565b610245600080516020611bc283398151915281565b6102066104de366004611974565b610f06565b600154610342906001600160401b031681565b6004546101de9060ff1681565b60006001600160e01b03198216637965db0b60e01b148061053457506301ffc9a760e01b6001600160e01b03198316145b92915050565b61054333610605565b604051806040016040528060018152602001601960f91b815250906105845760405162461bcd60e51b815260040161057b9190611a06565b60405180910390fd5b50600080546001600160a01b0319166001600160a01b0383161790556040517f222c4e474522c0d864730dd6d2e687696a9f3427100f333e3b8c55bef5dce3a1906105d0908390611897565b60405180910390a150565b6000828152600560205260409020600101546105f681611141565b610600838361114b565b505050565b6000610534600080516020611bc283398151915283610bb2565b60045460ff1680156106385750600454610100900460ff165b60405180604001604052806002815260200161323360f01b815250906106715760405162461bcd60e51b815260040161057b9190611a06565b50600260075414156106955760405162461bcd60e51b815260040161057b90611a39565b600260078190556000546040805180820190915291825261333160f01b6020830152600160a01b90046001600160401b03164210156106e75760405162461bcd60e51b815260040161057b9190611a06565b50336000908152600360209081526040918290208054600182015484518086019095526002855261189b60f11b938501939093529092911061073c5760405162461bcd60e51b815260040161057b9190611a06565b50600061074833610d64565b90506000811160405180604001604052806002815260200161313160f01b815250906107875760405162461bcd60e51b815260040161057b9190611a06565b506000546040516370a0823160e01b81526001600160a01b03909116906370a08231906107b8903090600401611897565b602060405180830381865afa1580156107d5573d6000803e3d6000fd5b505050506040513d601f19601f820116820180604052508101906107f99190611a70565b811115610876576000546040516370a0823160e01b81526001600160a01b03909116906370a0823190610830903090600401611897565b602060405180830381865afa15801561084d573d6000803e3d6000fd5b505050506040513d601f19601f820116820180604052508101906108719190611a70565b610878565b805b90508082600101600082825461088e9190611a9f565b90915550506000546108aa906001600160a01b031684836111d1565b604080513381526001600160a01b038516602082015280820183905290517fe0840c3affeed6114b4f967d5e1ff6d6859d1447352c8485505fe6bc4bbe89629181900360600190a15050600160075550565b6001600160a01b038116331461096c5760405162461bcd60e51b815260206004820152602f60248201527f416363657373436f6e74726f6c3a2063616e206f6e6c792072656e6f756e636560448201526e103937b632b9903337b91039b2b63360891b606482015260840161057b565b6109768282611223565b5050565b61098333610605565b604051806040016040528060018152602001601960f91b815250906109bb5760405162461bcd60e51b815260040161057b9190611a06565b506040805180820190915260018152603360f81b6020820152816109f25760405162461bcd60e51b815260040161057b9190611a06565b506001600160a01b03821660009081526003602052604081208054839290610a1b908490611a9f565b90915550505050565b610a2d33610605565b604051806040016040528060018152602001601960f91b81525090610a655760405162461bcd60e51b815260040161057b9190611a06565b50600480548215156101000261ff00199091161790556040517f35f55c7d97c6d087f4d4d1a887911235fe3d6e306297164b2d0cca084b46ae15906105d090831515815260200190565b610ab833610605565b604051806040016040528060018152602001601960f91b81525090610af05760405162461bcd60e51b815260040161057b9190611a06565b5060026007541415610b145760405162461bcd60e51b815260040161057b90611a39565b60026007556040805180820190915260018152603360f81b602082015281610b4f5760405162461bcd60e51b815260040161057b9190611a06565b50600054610b67906001600160a01b031683836111d1565b604080516001600160a01b0384168152602081018390527f4ca7919e8abba2df7c7cea8d1ee0027fbe3e7f9876ded2a52f29b6c3d72cd594910160405180910390a150506001600755565b60009182526005602090815260408084206001600160a01b0393909316845291905290205460ff1690565b610be633610605565b604051806040016040528060018152602001601960f91b81525090610c1e5760405162461bcd60e51b815260040161057b9190611a06565b506004805460ff19168215159081179091556040519081527f5cf6fb00ad75ebe42b35e396bfd4e9b28c58c9014908950f750c6791aa8c6b8b906020016105d0565b60065462010000900460ff16610ccc5760405162461bcd60e51b815260206004820152602b60248201527f496e697469616c697a61626c653a20636f6e7472616374206973206e6f74206960448201526a6e697469616c697a696e6760a81b606482015260840161057b565b6040805180820190915260018152600d60fa1b60208201526001600160a01b038216610d0b5760405162461bcd60e51b815260040161057b9190611a06565b50610d24600080516020611bc28339815191528261128a565b610d3c600080516020611bc283398151915280611294565b50565b600082815260056020526040902060010154610d5a81611141565b6106008383611223565b6001600160a01b0381166000908152600360209081526040808320815180830183528154808252600192830154948201859052855492546002549451633954a8c760e01b815260048101929092526024820195909552600160e01b830461ffff166044820152600160a01b9092046001600160401b0390811660648401528085166084840152600160401b90940490931660a482015260c481019190915273F2d1912ac63c95d1e13058fc779563f5130Efb3E90633954a8c79060e401602060405180830381865af4158015610e3e573d6000803e3d6000fd5b505050506040513d601f19601f82011682018060405250810190610e629190611a70565b9392505050565b610e7233610605565b604051806040016040528060018152602001601960f91b81525090610eaa5760405162461bcd60e51b815260040161057b9190611a06565b506000805467ffffffffffffffff60a01b1916600160a01b6001600160401b038416908102919091179091556040519081527f6eebb3c93f528da9e353afdbc82826995d809ed26550991cd8db0734f38daae8906020016105d0565b60065462010000900460ff1615808015610f2b5750600654600161010090910460ff16105b80610f4b5750303b158015610f4b575060065460ff610100909104166001145b610fae5760405162461bcd60e51b815260206004820152602e60248201527f496e697469616c697a61626c653a20636f6e747261637420697320616c72656160448201526d191e481a5b9a5d1a585b1a5e995960921b606482015260840161057b565b6006805461ff0019166101001790558015610fd5576006805462ff00001916620100001790555b610fde856112df565b600080546001600160a01b0319166001600160a01b0389161790556110028661131a565b600060146101000a8154816001600160401b0302191690836001600160401b0316021790555061103185611386565b6000601c6101000a81548161ffff021916908361ffff1602179055506110568461131a565b6001805467ffffffffffffffff19166001600160401b03929092169190911790556110808361131a565b600180546001600160401b0392909216600160401b0267ffffffffffffffff60401b1990921691909117905560028290556004805461ff0019166101001790556110d8600080516020611bc28339815191528961128a565b6110f0600080516020611bc283398151915280611294565b8015611137576006805462ff000019169055604051600181527f7f26b83ff96e1f2b6a682f133852f6798a09c465da95921460cefb38474024989060200160405180910390a15b5050505050505050565b610d3c81336113e9565b6111558282610bb2565b6109765760008281526005602090815260408083206001600160a01b03851684529091529020805460ff1916600117905561118d3390565b6001600160a01b0316816001600160a01b0316837f2f8788117e7eff1d82e926ec794901d17c78024a50270940304540a733656f0d60405160405180910390a45050565b604080516001600160a01b038416602482015260448082018490528251808303909101815260649091019091526020810180516001600160e01b031663a9059cbb60e01b17905261060090849061144d565b61122d8282610bb2565b156109765760008281526005602090815260408083206001600160a01b0385168085529252808320805460ff1916905551339285917ff6391f5c32d9c69d2a47ea670b442974b53935d1edc7fd64eb21e047a839171b9190a45050565b610976828261114b565b600082815260056020526040808220600101805490849055905190918391839186917fbd79b86ffe0ab8e8776151514217cd7cacd52c909f66475c3af44e129f0b00ff9190a4505050565b6040805180820190915260018152601b60f91b60208201526127108211156109765760405162461bcd60e51b815260040161057b9190611a06565b60006001600160401b038211156113825760405162461bcd60e51b815260206004820152602660248201527f53616665436173743a2076616c756520646f65736e27742066697420696e203660448201526534206269747360d01b606482015260840161057b565b5090565b600061ffff8211156113825760405162461bcd60e51b815260206004820152602660248201527f53616665436173743a2076616c756520646f65736e27742066697420696e203160448201526536206269747360d01b606482015260840161057b565b6113f38282610bb2565b6109765761140b816001600160a01b0316601461151f565b61141683602061151f565b604051602001611427929190611ab7565b60408051601f198184030181529082905262461bcd60e51b825261057b91600401611a06565b60006114a2826040518060400160405280602081526020017f5361666545524332303a206c6f772d6c6576656c2063616c6c206661696c6564815250856001600160a01b03166116ba9092919063ffffffff16565b80519091501561060057808060200190518101906114c09190611b26565b6106005760405162461bcd60e51b815260206004820152602a60248201527f5361666545524332303a204552433230206f7065726174696f6e20646964206e6044820152691bdd081cdd58d8d9595960b21b606482015260840161057b565b6060600061152e836002611b43565b611539906002611a9f565b6001600160401b0381111561155057611550611b62565b6040519080825280601f01601f19166020018201604052801561157a576020820181803683370190505b509050600360fc1b8160008151811061159557611595611b78565b60200101906001600160f81b031916908160001a905350600f60fb1b816001815181106115c4576115c4611b78565b60200101906001600160f81b031916908160001a90535060006115e8846002611b43565b6115f3906001611a9f565b90505b600181111561166b576f181899199a1a9b1b9c1cb0b131b232b360811b85600f166010811061162757611627611b78565b1a60f81b82828151811061163d5761163d611b78565b60200101906001600160f81b031916908160001a90535060049490941c9361166481611b8e565b90506115f6565b508315610e625760405162461bcd60e51b815260206004820181905260248201527f537472696e67733a20686578206c656e67746820696e73756666696369656e74604482015260640161057b565b60606116c984846000856116d1565b949350505050565b6060824710156117325760405162461bcd60e51b815260206004820152602660248201527f416464726573733a20696e73756666696369656e742062616c616e636520666f6044820152651c8818d85b1b60d21b606482015260840161057b565b6001600160a01b0385163b6117895760405162461bcd60e51b815260206004820152601d60248201527f416464726573733a2063616c6c20746f206e6f6e2d636f6e7472616374000000604482015260640161057b565b600080866001600160a01b031685876040516117a59190611ba5565b60006040518083038185875af1925050503d80600081146117e2576040519150601f19603f3d011682016040523d82523d6000602084013e6117e7565b606091505b50915091506117f7828286611802565b979650505050505050565b60608315611811575081610e62565b8251156118215782518084602001fd5b8160405162461bcd60e51b815260040161057b9190611a06565b60006020828403121561184d57600080fd5b81356001600160e01b031981168114610e6257600080fd5b6001600160a01b0381168114610d3c57600080fd5b60006020828403121561188c57600080fd5b8135610e6281611865565b6001600160a01b0391909116815260200190565b6000602082840312156118bd57600080fd5b5035919050565b600080604083850312156118d757600080fd5b8235915060208301356118e981611865565b809150509250929050565b6000806040838503121561190757600080fd5b823561191281611865565b946020939093013593505050565b8015158114610d3c57600080fd5b60006020828403121561194057600080fd5b8135610e6281611920565b60006020828403121561195d57600080fd5b81356001600160401b0381168114610e6257600080fd5b600080600080600080600060e0888a03121561198f57600080fd5b873561199a81611865565b965060208801356119aa81611865565b96999698505050506040850135946060810135946080820135945060a0820135935060c0909101359150565b60005b838110156119f15781810151838201526020016119d9565b83811115611a00576000848401525b50505050565b6020815260008251806020840152611a258160408501602087016119d6565b601f01601f19169190910160400192915050565b6020808252601f908201527f5265656e7472616e637947756172643a207265656e7472616e742063616c6c00604082015260600190565b600060208284031215611a8257600080fd5b5051919050565b634e487b7160e01b600052601160045260246000fd5b60008219821115611ab257611ab2611a89565b500190565b76020b1b1b2b9b9a1b7b73a3937b61d1030b1b1b7bab73a1604d1b815260008351611ae98160178501602088016119d6565b7001034b99036b4b9b9b4b733903937b6329607d1b6017918401918201528351611b1a8160288401602088016119d6565b01602801949350505050565b600060208284031215611b3857600080fd5b8151610e6281611920565b6000816000190483118215151615611b5d57611b5d611a89565b500290565b634e487b7160e01b600052604160045260246000fd5b634e487b7160e01b600052603260045260246000fd5b600081611b9d57611b9d611a89565b506000190190565b60008251611bb78184602087016119d6565b919091019291505056feb19546dff01e856fb3f010c267a7b1c60363cf8a4664e21cc89c26224620214ea2646970667358221220eb88a0588d725b859fd8e96acfd4d4630f4c6468e630fbb6cd37c93f746922f564736f6c634300080a0033",
  "deployedBytecode": "0x608060405234801561001057600080fd5b50600436106101c65760003560e01c806387e44935116100fa578063cb1287281161009d578063cb1287281461040c578063d547741f14610426578063dc25a30014610439578063e12f3a6114610495578063e3b37f30146104a8578063e58378bb146104bb578063edbf4ac2146104d0578063f3640e74146104e3578063f3a504f2146104f657600080fd5b806387e449351461037557806391d1485414610388578063a217fddf1461039b578063af38d757146103a3578063b3cd4254146103b5578063b4582276146103d1578063b61a40c7146103e6578063bb8e3f44146103f957600080fd5b806336568abe1161016d57806336568abe14610295578063419544a0146102a85780634e76bad8146102bb5780635671e8c9146102f75780635c975abb1461030a5780635dccc1e414610315578063646fcfa91461032857806374478bb31461035a5780637c6543031461036a57600080fd5b806301ffc9a7146101cb5780630c8f6d00146101f35780631db5efe614610208578063248a9ca3146102225780632f2ff15d146102535780632f54bf6e146102665780633614ea4f14610279578063364d960414610282575b600080fd5b6101de6101d936600461183b565b610503565b60405190151581526020015b60405180910390f35b61020661020136600461187a565b61053a565b005b6000546001600160a01b03165b6040516101ea9190611897565b6102456102303660046118ab565b60009081526005602052604090206001015490565b6040519081526020016101ea565b6102066102613660046118c4565b6105db565b6101de61027436600461187a565b610605565b61024560025481565b61020661029036600461187a565b61061f565b6102066102a33660046118c4565b6108fc565b6102066102b63660046118f4565b61097a565b6102e26102c936600461187a565b6003602052600090815260409020805460019091015482565b604080519283526020830191909152016101ea565b61020661030536600461192e565b610a24565b60065460ff166101de565b6102066103233660046118f4565b610aaf565b60015461034290600160401b90046001600160401b031681565b6040516001600160401b0390911681526020016101ea565b600454610100900460ff166101de565b60045460ff166101de565b600054610215906001600160a01b031681565b6101de6103963660046118c4565b610bb2565b610245600081565b6004546101de90610100900460ff1681565b6103be61271081565b60405161ffff90911681526020016101ea565b6000546103be90600160e01b900461ffff1681565b6102066103f436600461192e565b610bdd565b61020661040736600461187a565b610c60565b60005461034290600160a01b90046001600160401b031681565b6102066104343660046118c4565b610d3f565b60005460015460025460408051600160a01b85046001600160401b039081168252600160e01b90950461ffff16602082015284841691810191909152600160401b9092049092166060820152608081019190915260a0016101ea565b6102456104a336600461187a565b610d64565b6102066104b636600461194b565b610e69565b610245600080516020611bc283398151915281565b6102066104de366004611974565b610f06565b600154610342906001600160401b031681565b6004546101de9060ff1681565b60006001600160e01b03198216637965db0b60e01b148061053457506301ffc9a760e01b6001600160e01b03198316145b92915050565b61054333610605565b604051806040016040528060018152602001601960f91b815250906105845760405162461bcd60e51b815260040161057b9190611a06565b60405180910390fd5b50600080546001600160a01b0319166001600160a01b0383161790556040517f222c4e474522c0d864730dd6d2e687696a9f3427100f333e3b8c55bef5dce3a1906105d0908390611897565b60405180910390a150565b6000828152600560205260409020600101546105f681611141565b610600838361114b565b505050565b6000610534600080516020611bc283398151915283610bb2565b60045460ff1680156106385750600454610100900460ff165b60405180604001604052806002815260200161323360f01b815250906106715760405162461bcd60e51b815260040161057b9190611a06565b50600260075414156106955760405162461bcd60e51b815260040161057b90611a39565b600260078190556000546040805180820190915291825261333160f01b6020830152600160a01b90046001600160401b03164210156106e75760405162461bcd60e51b815260040161057b9190611a06565b50336000908152600360209081526040918290208054600182015484518086019095526002855261189b60f11b938501939093529092911061073c5760405162461bcd60e51b815260040161057b9190611a06565b50600061074833610d64565b90506000811160405180604001604052806002815260200161313160f01b815250906107875760405162461bcd60e51b815260040161057b9190611a06565b506000546040516370a0823160e01b81526001600160a01b03909116906370a08231906107b8903090600401611897565b602060405180830381865afa1580156107d5573d6000803e3d6000fd5b505050506040513d601f19601f820116820180604052508101906107f99190611a70565b811115610876576000546040516370a0823160e01b81526001600160a01b03909116906370a0823190610830903090600401611897565b602060405180830381865afa15801561084d573d6000803e3d6000fd5b505050506040513d601f19601f820116820180604052508101906108719190611a70565b610878565b805b90508082600101600082825461088e9190611a9f565b90915550506000546108aa906001600160a01b031684836111d1565b604080513381526001600160a01b038516602082015280820183905290517fe0840c3affeed6114b4f967d5e1ff6d6859d1447352c8485505fe6bc4bbe89629181900360600190a15050600160075550565b6001600160a01b038116331461096c5760405162461bcd60e51b815260206004820152602f60248201527f416363657373436f6e74726f6c3a2063616e206f6e6c792072656e6f756e636560448201526e103937b632b9903337b91039b2b63360891b606482015260840161057b565b6109768282611223565b5050565b61098333610605565b604051806040016040528060018152602001601960f91b815250906109bb5760405162461bcd60e51b815260040161057b9190611a06565b506040805180820190915260018152603360f81b6020820152816109f25760405162461bcd60e51b815260040161057b9190611a06565b506001600160a01b03821660009081526003602052604081208054839290610a1b908490611a9f565b90915550505050565b610a2d33610605565b604051806040016040528060018152602001601960f91b81525090610a655760405162461bcd60e51b815260040161057b9190611a06565b50600480548215156101000261ff00199091161790556040517f35f55c7d97c6d087f4d4d1a887911235fe3d6e306297164b2d0cca084b46ae15906105d090831515815260200190565b610ab833610605565b604051806040016040528060018152602001601960f91b81525090610af05760405162461bcd60e51b815260040161057b9190611a06565b5060026007541415610b145760405162461bcd60e51b815260040161057b90611a39565b60026007556040805180820190915260018152603360f81b602082015281610b4f5760405162461bcd60e51b815260040161057b9190611a06565b50600054610b67906001600160a01b031683836111d1565b604080516001600160a01b0384168152602081018390527f4ca7919e8abba2df7c7cea8d1ee0027fbe3e7f9876ded2a52f29b6c3d72cd594910160405180910390a150506001600755565b60009182526005602090815260408084206001600160a01b0393909316845291905290205460ff1690565b610be633610605565b604051806040016040528060018152602001601960f91b81525090610c1e5760405162461bcd60e51b815260040161057b9190611a06565b506004805460ff19168215159081179091556040519081527f5cf6fb00ad75ebe42b35e396bfd4e9b28c58c9014908950f750c6791aa8c6b8b906020016105d0565b60065462010000900460ff16610ccc5760405162461bcd60e51b815260206004820152602b60248201527f496e697469616c697a61626c653a20636f6e7472616374206973206e6f74206960448201526a6e697469616c697a696e6760a81b606482015260840161057b565b6040805180820190915260018152600d60fa1b60208201526001600160a01b038216610d0b5760405162461bcd60e51b815260040161057b9190611a06565b50610d24600080516020611bc28339815191528261128a565b610d3c600080516020611bc283398151915280611294565b50565b600082815260056020526040902060010154610d5a81611141565b6106008383611223565b6001600160a01b0381166000908152600360209081526040808320815180830183528154808252600192830154948201859052855492546002549451633954a8c760e01b815260048101929092526024820195909552600160e01b830461ffff166044820152600160a01b9092046001600160401b0390811660648401528085166084840152600160401b90940490931660a482015260c481019190915273__$9fb2edb4e987366f36b33ed733baa6b7a5$__90633954a8c79060e401602060405180830381865af4158015610e3e573d6000803e3d6000fd5b505050506040513d601f19601f82011682018060405250810190610e629190611a70565b9392505050565b610e7233610605565b604051806040016040528060018152602001601960f91b81525090610eaa5760405162461bcd60e51b815260040161057b9190611a06565b506000805467ffffffffffffffff60a01b1916600160a01b6001600160401b038416908102919091179091556040519081527f6eebb3c93f528da9e353afdbc82826995d809ed26550991cd8db0734f38daae8906020016105d0565b60065462010000900460ff1615808015610f2b5750600654600161010090910460ff16105b80610f4b5750303b158015610f4b575060065460ff610100909104166001145b610fae5760405162461bcd60e51b815260206004820152602e60248201527f496e697469616c697a61626c653a20636f6e747261637420697320616c72656160448201526d191e481a5b9a5d1a585b1a5e995960921b606482015260840161057b565b6006805461ff0019166101001790558015610fd5576006805462ff00001916620100001790555b610fde856112df565b600080546001600160a01b0319166001600160a01b0389161790556110028661131a565b600060146101000a8154816001600160401b0302191690836001600160401b0316021790555061103185611386565b6000601c6101000a81548161ffff021916908361ffff1602179055506110568461131a565b6001805467ffffffffffffffff19166001600160401b03929092169190911790556110808361131a565b600180546001600160401b0392909216600160401b0267ffffffffffffffff60401b1990921691909117905560028290556004805461ff0019166101001790556110d8600080516020611bc28339815191528961128a565b6110f0600080516020611bc283398151915280611294565b8015611137576006805462ff000019169055604051600181527f7f26b83ff96e1f2b6a682f133852f6798a09c465da95921460cefb38474024989060200160405180910390a15b5050505050505050565b610d3c81336113e9565b6111558282610bb2565b6109765760008281526005602090815260408083206001600160a01b03851684529091529020805460ff1916600117905561118d3390565b6001600160a01b0316816001600160a01b0316837f2f8788117e7eff1d82e926ec794901d17c78024a50270940304540a733656f0d60405160405180910390a45050565b604080516001600160a01b038416602482015260448082018490528251808303909101815260649091019091526020810180516001600160e01b031663a9059cbb60e01b17905261060090849061144d565b61122d8282610bb2565b156109765760008281526005602090815260408083206001600160a01b0385168085529252808320805460ff1916905551339285917ff6391f5c32d9c69d2a47ea670b442974b53935d1edc7fd64eb21e047a839171b9190a45050565b610976828261114b565b600082815260056020526040808220600101805490849055905190918391839186917fbd79b86ffe0ab8e8776151514217cd7cacd52c909f66475c3af44e129f0b00ff9190a4505050565b6040805180820190915260018152601b60f91b60208201526127108211156109765760405162461bcd60e51b815260040161057b9190611a06565b60006001600160401b038211156113825760405162461bcd60e51b815260206004820152602660248201527f53616665436173743a2076616c756520646f65736e27742066697420696e203660448201526534206269747360d01b606482015260840161057b565b5090565b600061ffff8211156113825760405162461bcd60e51b815260206004820152602660248201527f53616665436173743a2076616c756520646f65736e27742066697420696e203160448201526536206269747360d01b606482015260840161057b565b6113f38282610bb2565b6109765761140b816001600160a01b0316601461151f565b61141683602061151f565b604051602001611427929190611ab7565b60408051601f198184030181529082905262461bcd60e51b825261057b91600401611a06565b60006114a2826040518060400160405280602081526020017f5361666545524332303a206c6f772d6c6576656c2063616c6c206661696c6564815250856001600160a01b03166116ba9092919063ffffffff16565b80519091501561060057808060200190518101906114c09190611b26565b6106005760405162461bcd60e51b815260206004820152602a60248201527f5361666545524332303a204552433230206f7065726174696f6e20646964206e6044820152691bdd081cdd58d8d9595960b21b606482015260840161057b565b6060600061152e836002611b43565b611539906002611a9f565b6001600160401b0381111561155057611550611b62565b6040519080825280601f01601f19166020018201604052801561157a576020820181803683370190505b509050600360fc1b8160008151811061159557611595611b78565b60200101906001600160f81b031916908160001a905350600f60fb1b816001815181106115c4576115c4611b78565b60200101906001600160f81b031916908160001a90535060006115e8846002611b43565b6115f3906001611a9f565b90505b600181111561166b576f181899199a1a9b1b9c1cb0b131b232b360811b85600f166010811061162757611627611b78565b1a60f81b82828151811061163d5761163d611b78565b60200101906001600160f81b031916908160001a90535060049490941c9361166481611b8e565b90506115f6565b508315610e625760405162461bcd60e51b815260206004820181905260248201527f537472696e67733a20686578206c656e67746820696e73756666696369656e74604482015260640161057b565b60606116c984846000856116d1565b949350505050565b6060824710156117325760405162461bcd60e51b815260206004820152602660248201527f416464726573733a20696e73756666696369656e742062616c616e636520666f6044820152651c8818d85b1b60d21b606482015260840161057b565b6001600160a01b0385163b6117895760405162461bcd60e51b815260206004820152601d60248201527f416464726573733a2063616c6c20746f206e6f6e2d636f6e7472616374000000604482015260640161057b565b600080866001600160a01b031685876040516117a59190611ba5565b60006040518083038185875af1925050503d80600081146117e2576040519150601f19603f3d011682016040523d82523d6000602084013e6117e7565b606091505b50915091506117f7828286611802565b979650505050505050565b60608315611811575081610e62565b8251156118215782518084602001fd5b8160405162461bcd60e51b815260040161057b9190611a06565b60006020828403121561184d57600080fd5b81356001600160e01b031981168114610e6257600080fd5b6001600160a01b0381168114610d3c57600080fd5b60006020828403121561188c57600080fd5b8135610e6281611865565b6001600160a01b0391909116815260200190565b6000602082840312156118bd57600080fd5b5035919050565b600080604083850312156118d757600080fd5b8235915060208301356118e981611865565b809150509250929050565b6000806040838503121561190757600080fd5b823561191281611865565b946020939093013593505050565b8015158114610d3c57600080fd5b60006020828403121561194057600080fd5b8135610e6281611920565b60006020828403121561195d57600080fd5b81356001600160401b0381168114610e6257600080fd5b600080600080600080600060e0888a03121561198f57600080fd5b873561199a81611865565b965060208801356119aa81611865565b96999698505050506040850135946060810135946080820135945060a0820135935060c0909101359150565b60005b838110156119f15781810151838201526020016119d9565b83811115611a00576000848401525b50505050565b6020815260008251806020840152611a258160408501602087016119d6565b601f01601f19169190910160400192915050565b6020808252601f908201527f5265656e7472616e637947756172643a207265656e7472616e742063616c6c00604082015260600190565b600060208284031215611a8257600080fd5b5051919050565b634e487b7160e01b600052601160045260246000fd5b60008219821115611ab257611ab2611a89565b500190565b76020b1b1b2b9b9a1b7b73a3937b61d1030b1b1b7bab73a1604d1b815260008351611ae98160178501602088016119d6565b7001034b99036b4b9b9b4b733903937b6329607d1b6017918401918201528351611b1a8160288401602088016119d6565b01602801949350505050565b600060208284031215611b3857600080fd5b8151610e6281611920565b6000816000190483118215151615611b5d57611b5d611a89565b500290565b634e487b7160e01b600052604160045260246000fd5b634e487b7160e01b600052603260045260246000fd5b600081611b9d57611b9d611a89565b506000190190565b60008251611bb78184602087016119d6565b919091019291505056feb19546dff01e856fb3f010c267a7b1c60363cf8a4664e21cc89c26224620214ea2646970667358221220eb88a0588d725b859fd8e96acfd4d4630f4c6468e630fbb6cd37c93f746922f564736f6c634300080a0033",
  "libraries": {
    "VestingLogic": "0xF2d1912ac63c95d1e13058fc779563f5130Efb3E"
  },
  "devdoc": {
    "kind": "dev",
    "methods": {
      "getRoleAdmin(bytes32)": {
        "details": "Returns the admin role that controls `role`. See {grantRole} and {revokeRole}. To change a role's admin, use {_setRoleAdmin}."
      },
      "grantRole(bytes32,address)": {
        "details": "Grants `role` to `account`. If `account` had not been already granted `role`, emits a {RoleGranted} event. Requirements: - the caller must have ``role``'s admin role. May emit a {RoleGranted} event."
      },
      "hasRole(bytes32,address)": {
        "details": "Returns `true` if `account` has been granted `role`."
      },
      "paused()": {
        "details": "Returns true if the contract is paused, and false otherwise."
      },
      "renounceRole(bytes32,address)": {
        "details": "Revokes `role` from the calling account. Roles are often managed via {grantRole} and {revokeRole}: this function's purpose is to provide a mechanism for accounts to lose their privileges if they are compromised (such as when a trusted device is misplaced). If the calling account had been revoked `role`, emits a {RoleRevoked} event. Requirements: - the caller must be `account`. May emit a {RoleRevoked} event."
      },
      "revokeRole(bytes32,address)": {
        "details": "Revokes `role` from `account`. If `account` had been granted `role`, emits a {RoleRevoked} event. Requirements: - the caller must have ``role``'s admin role. May emit a {RoleRevoked} event."
      },
      "supportsInterface(bytes4)": {
        "details": "See {IERC165-supportsInterface}."
      }
    },
    "version": 1
  },
  "userdoc": {
    "kind": "user",
    "methods": {
      "IDOToken()": {
        "notice": "Address of IDO token"
      },
      "OWNER_ROLE()": {
        "notice": "keccak256(\"OWNER_ROLE\")"
      },
      "PERCENTAGE_DENOMINATOR()": {
        "notice": "Percentage denominator"
      },
      "TGEDate()": {
        "notice": "Time for user to redeem IDO token"
      },
      "TGEPercentage()": {
        "notice": "Percentage of IDO token amount of user, which can be redeemed after TGEDate"
      },
      "claimable()": {
        "notice": "True if admin allow user to claim"
      },
      "funded()": {
        "notice": "True if collaborator fund enough IDO token"
      },
      "numberOfVestingRelease()": {
        "notice": "Number of vesting release"
      },
      "vestingAmountInfo(address)": {
        "notice": "vesting info of each user"
      },
      "vestingCliff()": {
        "notice": "Vesting cliff"
      },
      "vestingFrequency()": {
        "notice": "Vesting frequency"
      }
    },
    "version": 1
  },
  "storageLayout": {
    "storage": [
      {
        "astId": 5600,
        "contract": "contracts/core/Vesting.sol:Vesting",
        "label": "IDOToken",
        "offset": 0,
        "slot": "0",
        "type": "t_contract(IERC20withDec)5985"
      },
      {
        "astId": 5603,
        "contract": "contracts/core/Vesting.sol:Vesting",
        "label": "TGEDate",
        "offset": 20,
        "slot": "0",
        "type": "t_uint64"
      },
      {
        "astId": 5606,
        "contract": "contracts/core/Vesting.sol:Vesting",
        "label": "TGEPercentage",
        "offset": 28,
        "slot": "0",
        "type": "t_uint16"
      },
      {
        "astId": 5609,
        "contract": "contracts/core/Vesting.sol:Vesting",
        "label": "vestingCliff",
        "offset": 0,
        "slot": "1",
        "type": "t_uint64"
      },
      {
        "astId": 5612,
        "contract": "contracts/core/Vesting.sol:Vesting",
        "label": "vestingFrequency",
        "offset": 8,
        "slot": "1",
        "type": "t_uint64"
      },
      {
        "astId": 5615,
        "contract": "contracts/core/Vesting.sol:Vesting",
        "label": "numberOfVestingRelease",
        "offset": 0,
        "slot": "2",
        "type": "t_uint256"
      },
      {
        "astId": 5621,
        "contract": "contracts/core/Vesting.sol:Vesting",
        "label": "vestingAmountInfo",
        "offset": 0,
        "slot": "3",
        "type": "t_mapping(t_address,t_struct(VestingAmountInfo)5592_storage)"
      },
      {
        "astId": 5624,
        "contract": "contracts/core/Vesting.sol:Vesting",
        "label": "funded",
        "offset": 0,
        "slot": "4",
        "type": "t_bool"
      },
      {
        "astId": 5628,
        "contract": "contracts/core/Vesting.sol:Vesting",
        "label": "claimable",
        "offset": 1,
        "slot": "4",
        "type": "t_bool"
      },
      {
        "astId": 10235,
        "contract": "contracts/core/Vesting.sol:Vesting",
        "label": "_roles",
        "offset": 0,
        "slot": "5",
        "type": "t_mapping(t_bytes32,t_struct(RoleData)10230_storage)"
      },
      {
        "astId": 10710,
        "contract": "contracts/core/Vesting.sol:Vesting",
        "label": "_paused",
        "offset": 0,
        "slot": "6",
        "type": "t_bool"
      },
      {
        "astId": 10582,
        "contract": "contracts/core/Vesting.sol:Vesting",
        "label": "_initialized",
        "offset": 1,
        "slot": "6",
        "type": "t_uint8"
      },
      {
        "astId": 10585,
        "contract": "contracts/core/Vesting.sol:Vesting",
        "label": "_initializing",
        "offset": 2,
        "slot": "6",
        "type": "t_bool"
      },
      {
        "astId": 10811,
        "contract": "contracts/core/Vesting.sol:Vesting",
        "label": "_status",
        "offset": 0,
        "slot": "7",
        "type": "t_uint256"
      }
    ],
    "types": {
      "t_address": {
        "encoding": "inplace",
        "label": "address",
        "numberOfBytes": "20"
      },
      "t_bool": {
        "encoding": "inplace",
        "label": "bool",
        "numberOfBytes": "1"
      },
      "t_bytes32": {
        "encoding": "inplace",
        "label": "bytes32",
        "numberOfBytes": "32"
      },
      "t_contract(IERC20withDec)5985": {
        "encoding": "inplace",
        "label": "contract IERC20withDec",
        "numberOfBytes": "20"
      },
      "t_mapping(t_address,t_bool)": {
        "encoding": "mapping",
        "key": "t_address",
        "label": "mapping(address => bool)",
        "numberOfBytes": "32",
        "value": "t_bool"
      },
      "t_mapping(t_address,t_struct(VestingAmountInfo)5592_storage)": {
        "encoding": "mapping",
        "key": "t_address",
        "label": "mapping(address => struct VestingStorage.VestingAmountInfo)",
        "numberOfBytes": "32",
        "value": "t_struct(VestingAmountInfo)5592_storage"
      },
      "t_mapping(t_bytes32,t_struct(RoleData)10230_storage)": {
        "encoding": "mapping",
        "key": "t_bytes32",
        "label": "mapping(bytes32 => struct AccessControl.RoleData)",
        "numberOfBytes": "32",
        "value": "t_struct(RoleData)10230_storage"
      },
      "t_struct(RoleData)10230_storage": {
        "encoding": "inplace",
        "label": "struct AccessControl.RoleData",
        "members": [
          {
            "astId": 10227,
            "contract": "contracts/core/Vesting.sol:Vesting",
            "label": "members",
            "offset": 0,
            "slot": "0",
            "type": "t_mapping(t_address,t_bool)"
          },
          {
            "astId": 10229,
            "contract": "contracts/core/Vesting.sol:Vesting",
            "label": "adminRole",
            "offset": 0,
            "slot": "1",
            "type": "t_bytes32"
          }
        ],
        "numberOfBytes": "64"
      },
      "t_struct(VestingAmountInfo)5592_storage": {
        "encoding": "inplace",
        "label": "struct VestingStorage.VestingAmountInfo",
        "members": [
          {
            "astId": 5589,
            "contract": "contracts/core/Vesting.sol:Vesting",
            "label": "totalAmount",
            "offset": 0,
            "slot": "0",
            "type": "t_uint256"
          },
          {
            "astId": 5591,
            "contract": "contracts/core/Vesting.sol:Vesting",
            "label": "claimedAmount",
            "offset": 0,
            "slot": "1",
            "type": "t_uint256"
          }
        ],
        "numberOfBytes": "64"
      },
      "t_uint16": {
        "encoding": "inplace",
        "label": "uint16",
        "numberOfBytes": "2"
      },
      "t_uint256": {
        "encoding": "inplace",
        "label": "uint256",
        "numberOfBytes": "32"
      },
      "t_uint64": {
        "encoding": "inplace",
        "label": "uint64",
        "numberOfBytes": "8"
      },
      "t_uint8": {
        "encoding": "inplace",
        "label": "uint8",
        "numberOfBytes": "1"
      }
    }
  }
}