{
  "address": "0xF2d1912ac63c95d1e13058fc779563f5130Efb3E",
  "abi": [
    {
      "inputs": [],
      "name": "PERCENTAGE_DENOMINATOR",
      "outputs": [
        {
          "internalType": "uint16",
          "name": "",
          "type": "uint16"
        }
      ],
      "stateMutability": "view",
      "type": "function"
    },
    {
      "inputs": [
        {
          "internalType": "uint256",
          "name": "totalAmount",
          "type": "uint256"
        },
        {
          "internalType": "uint256",
          "name": "claimedAmount",
          "type": "uint256"
        },
        {
          "internalType": "uint16",
          "name": "TGEPercentage",
          "type": "uint16"
        },
        {
          "internalType": "uint64",
          "name": "TGEDate",
          "type": "uint64"
        },
        {
          "internalType": "uint64",
          "name": "vestingCliff",
          "type": "uint64"
        },
        {
          "internalType": "uint64",
          "name": "vestingFrequency",
          "type": "uint64"
        },
        {
          "internalType": "uint256",
          "name": "numberOfVestingRelease",
          "type": "uint256"
        }
      ],
      "name": "calculateClaimableAmount",
      "outputs": [
        {
          "internalType": "uint256",
          "name": "",
          "type": "uint256"
        }
      ],
      "stateMutability": "view",
      "type": "function"
    }
  ],
  "transactionHash": "0x07753788de62b5e27db5e629fe1d4585dfabebad3eb7ec7cb406cb32f5ccfbec",
  "args": [],
  "numDeployments": 1,
  "solcInputHash": "ef923eccb63327838caf0616ffa15c8e",
  "bytecode": "0x61031661003a600b82828239805160001a60731461002d57634e487b7160e01b600052600060045260246000fd5b30600052607381538281f3fe73000000000000000000000000000000000000000030146080604052600436106100405760003560e01c80633954a8c714610045578063b3cd42541461006b575b600080fd5b6100586100533660046101b4565b610087565b6040519081526020015b60405180910390f35b61007461271081565b60405161ffff9091168152602001610062565b60008787106100985750600061018c565b60006127106100ab61ffff89168b610244565b6100b59190610263565b90506100c18587610285565b67ffffffffffffffff164210156100e4576100dc88826102b1565b91505061018c565b60008467ffffffffffffffff168667ffffffffffffffff168867ffffffffffffffff164261011291906102b1565b61011c91906102b1565b6101269190610263565b6101319060016102c8565b905083811061014d57610144898b6102b1565b9250505061018c565b6000610159838c6102b1565b90508983866101688486610244565b6101729190610263565b61017c91906102c8565b61018691906102b1565b93505050505b979650505050505050565b803567ffffffffffffffff811681146101af57600080fd5b919050565b600080600080600080600060e0888a0312156101cf57600080fd5b8735965060208801359550604088013561ffff811681146101ef57600080fd5b94506101fd60608901610197565b935061020b60808901610197565b925061021960a08901610197565b915060c0880135905092959891949750929550565b634e487b7160e01b600052601160045260246000fd5b600081600019048311821515161561025e5761025e61022e565b500290565b60008261028057634e487b7160e01b600052601260045260246000fd5b500490565b600067ffffffffffffffff8083168185168083038211156102a8576102a861022e565b01949350505050565b6000828210156102c3576102c361022e565b500390565b600082198211156102db576102db61022e565b50019056fea264697066735822122008c670e25555b7c80e198b3a2c3065ed8eb1ab7f87d8ff925fe6e2dc2428998864736f6c634300080a0033",
  "devdoc": {
    "kind": "dev",
    "methods": {},
    "stateVariables": {
      "PERCENTAGE_DENOMINATOR": {
        "details": "Percentage denominator"
      }
    },
    "version": 1
  },
  "userdoc": {
    "kind": "user",
    "methods": {},
    "version": 1
  },
  "storageLayout": {
    "storage": [],
    "types": null
  }
}