{
  "address": "0xDc9e978cD8f569b3f4B3c0Ba504c38669B2950eA",
  "abi": [
    {
      "inputs": [],
      "name": "PERCENTAGE_DENOMINATOR",
      "outputs": [
        {
          "internalType": "uint16",
          "name": "",
          "type": "uint16"
        }
      ],
      "stateMutability": "view",
      "type": "function"
    },
    {
      "inputs": [
        {
          "internalType": "uint256",
          "name": "totalAmount",
          "type": "uint256"
        },
        {
          "internalType": "uint256",
          "name": "claimedAmount",
          "type": "uint256"
        },
        {
          "internalType": "uint16",
          "name": "TGEPercentage",
          "type": "uint16"
        },
        {
          "internalType": "uint64",
          "name": "TGEDate",
          "type": "uint64"
        },
        {
          "internalType": "uint64",
          "name": "vestingCliff",
          "type": "uint64"
        },
        {
          "internalType": "uint64",
          "name": "vestingFrequency",
          "type": "uint64"
        },
        {
          "internalType": "uint256",
          "name": "numberOfVestingRelease",
          "type": "uint256"
        }
      ],
      "name": "calculateClaimableAmount",
      "outputs": [
        {
          "internalType": "uint256",
          "name": "",
          "type": "uint256"
        }
      ],
      "stateMutability": "view",
      "type": "function"
    },
    {
      "inputs": [
        {
          "internalType": "uint256",
          "name": "_TGEPercentage",
          "type": "uint256"
        }
      ],
      "name": "verifyVestingInfo",
      "outputs": [],
      "stateMutability": "pure",
      "type": "function"
    }
  ],
  "transactionHash": "0xef28c75a4b413584a3e911fb6c995ecdd3e1ceb0e0aeae306a7bedface75ddab",
  "args": [],
  "numDeployments": 2,
  "solcInputHash": "08d186b3485eb0cad6ad87b850a40fd0",
  "bytecode": "0x6103ec61003a600b82828239805160001a60731461002d57634e487b7160e01b600052600060045260246000fd5b30600052607381538281f3fe730000000000000000000000000000000000000000301460806040526004361061004b5760003560e01c80633954a8c714610050578063b3cd425414610076578063e206f93414610092575b600080fd5b61006361005e36600461021c565b6100a7565b6040519081526020015b60405180910390f35b61007f61271081565b60405161ffff909116815260200161006d565b6100a56100a0366004610296565b6101b7565b005b60008787106100b8575060006101ac565b60006127106100cb61ffff89168b6102c5565b6100d591906102e4565b90506100e18587610306565b67ffffffffffffffff16421015610104576100fc8882610332565b9150506101ac565b60008467ffffffffffffffff168667ffffffffffffffff168867ffffffffffffffff16426101329190610332565b61013c9190610332565b61014691906102e4565b610151906001610349565b905083811061016d57610164898b610332565b925050506101ac565b6000610179838c610332565b905089838661018884866102c5565b61019291906102e4565b61019c9190610349565b6101a69190610332565b93505050505b979650505050505050565b6040805180820190915260018152601b60f91b60208201526127108211156101fb5760405162461bcd60e51b81526004016101f29190610361565b60405180910390fd5b5050565b803567ffffffffffffffff8116811461021757600080fd5b919050565b600080600080600080600060e0888a03121561023757600080fd5b8735965060208801359550604088013561ffff8116811461025757600080fd5b9450610265606089016101ff565b9350610273608089016101ff565b925061028160a089016101ff565b915060c0880135905092959891949750929550565b6000602082840312156102a857600080fd5b5035919050565b634e487b7160e01b600052601160045260246000fd5b60008160001904831182151516156102df576102df6102af565b500290565b60008261030157634e487b7160e01b600052601260045260246000fd5b500490565b600067ffffffffffffffff808316818516808303821115610329576103296102af565b01949350505050565b600082821015610344576103446102af565b500390565b6000821982111561035c5761035c6102af565b500190565b600060208083528351808285015260005b8181101561038e57858101830151858201604001528201610372565b818111156103a0576000604083870101525b50601f01601f191692909201604001939250505056fea2646970667358221220cdc7dd8ab5ed3d1e24a82e33d08b2cf97026d0141a4fc719c5b1cd05ef1294de64736f6c634300080a0033",
  "devdoc": {
    "kind": "dev",
    "methods": {},
    "stateVariables": {
      "PERCENTAGE_DENOMINATOR": {
        "details": "Percentage denominator"
      }
    },
    "version": 1
  },
  "userdoc": {
    "kind": "user",
    "methods": {},
    "version": 1
  },
  "storageLayout": {
    "storage": [],
    "types": null
  }
}