{
  "address": "0xd8Bd9f1Fb9368a67cC1D9063df13109f195ef432",
  "abi": [
    {
      "anonymous": false,
      "inputs": [
        {
          "indexed": true,
          "internalType": "address",
          "name": "owner",
          "type": "address"
        },
        {
          "indexed": true,
          "internalType": "address",
          "name": "spender",
          "type": "address"
        },
        {
          "indexed": false,
          "internalType": "uint256",
          "name": "value",
          "type": "uint256"
        }
      ],
      "name": "Approval",
      "type": "event"
    },
    {
      "anonymous": false,
      "inputs": [
        {
          "indexed": false,
          "internalType": "uint8",
          "name": "version",
          "type": "uint8"
        }
      ],
      "name": "Initialized",
      "type": "event"
    },
    {
      "anonymous": false,
      "inputs": [
        {
          "indexed": true,
          "internalType": "address",
          "name": "from",
          "type": "address"
        },
        {
          "indexed": true,
          "internalType": "address",
          "name": "to",
          "type": "address"
        },
        {
          "indexed": false,
          "internalType": "uint256",
          "name": "value",
          "type": "uint256"
        }
      ],
      "name": "Transfer",
      "type": "event"
    },
    {
      "inputs": [],
      "name": "DOMAIN_SEPARATOR",
      "outputs": [
        {
          "internalType": "bytes32",
          "name": "",
          "type": "bytes32"
        }
      ],
      "stateMutability": "view",
      "type": "function"
    },
    {
      "inputs": [
        {
          "internalType": "address",
          "name": "owner",
          "type": "address"
        },
        {
          "internalType": "address",
          "name": "spender",
          "type": "address"
        }
      ],
      "name": "allowance",
      "outputs": [
        {
          "internalType": "uint256",
          "name": "",
          "type": "uint256"
        }
      ],
      "stateMutability": "view",
      "type": "function"
    },
    {
      "inputs": [
        {
          "internalType": "address",
          "name": "spender",
          "type": "address"
        },
        {
          "internalType": "uint256",
          "name": "amount",
          "type": "uint256"
        }
      ],
      "name": "approve",
      "outputs": [
        {
          "internalType": "bool",
          "name": "",
          "type": "bool"
        }
      ],
      "stateMutability": "nonpayable",
      "type": "function"
    },
    {
      "inputs": [
        {
          "internalType": "address",
          "name": "account",
          "type": "address"
        }
      ],
      "name": "balanceOf",
      "outputs": [
        {
          "internalType": "uint256",
          "name": "",
          "type": "uint256"
        }
      ],
      "stateMutability": "view",
      "type": "function"
    },
    {
      "inputs": [
        {
          "internalType": "address",
          "name": "_from",
          "type": "address"
        },
        {
          "internalType": "uint256",
          "name": "_amount",
          "type": "uint256"
        }
      ],
      "name": "burn",
      "outputs": [],
      "stateMutability": "nonpayable",
      "type": "function"
    },
    {
      "inputs": [],
      "name": "decimals",
      "outputs": [
        {
          "internalType": "uint8",
          "name": "",
          "type": "uint8"
        }
      ],
      "stateMutability": "view",
      "type": "function"
    },
    {
      "inputs": [
        {
          "internalType": "address",
          "name": "spender",
          "type": "address"
        },
        {
          "internalType": "uint256",
          "name": "subtractedValue",
          "type": "uint256"
        }
      ],
      "name": "decreaseAllowance",
      "outputs": [
        {
          "internalType": "bool",
          "name": "",
          "type": "bool"
        }
      ],
      "stateMutability": "nonpayable",
      "type": "function"
    },
    {
      "inputs": [
        {
          "internalType": "address",
          "name": "spender",
          "type": "address"
        },
        {
          "internalType": "uint256",
          "name": "addedValue",
          "type": "uint256"
        }
      ],
      "name": "increaseAllowance",
      "outputs": [
        {
          "internalType": "bool",
          "name": "",
          "type": "bool"
        }
      ],
      "stateMutability": "nonpayable",
      "type": "function"
    },
    {
      "inputs": [
        {
          "internalType": "string",
          "name": "name",
          "type": "string"
        },
        {
          "internalType": "string",
          "name": "symbol",
          "type": "string"
        },
        {
          "internalType": "uint8",
          "name": "decimals_",
          "type": "uint8"
        }
      ],
      "name": "initialize",
      "outputs": [],
      "stateMutability": "nonpayable",
      "type": "function"
    },
    {
      "inputs": [
        {
          "internalType": "address",
          "name": "_to",
          "type": "address"
        },
        {
          "internalType": "uint256",
          "name": "_amount",
          "type": "uint256"
        }
      ],
      "name": "mint",
      "outputs": [],
      "stateMutability": "nonpayable",
      "type": "function"
    },
    {
      "inputs": [],
      "name": "name",
      "outputs": [
        {
          "internalType": "string",
          "name": "",
          "type": "string"
        }
      ],
      "stateMutability": "view",
      "type": "function"
    },
    {
      "inputs": [
        {
          "internalType": "address",
          "name": "owner",
          "type": "address"
        }
      ],
      "name": "nonces",
      "outputs": [
        {
          "internalType": "uint256",
          "name": "",
          "type": "uint256"
        }
      ],
      "stateMutability": "view",
      "type": "function"
    },
    {
      "inputs": [
        {
          "internalType": "address",
          "name": "owner",
          "type": "address"
        },
        {
          "internalType": "address",
          "name": "spender",
          "type": "address"
        },
        {
          "internalType": "uint256",
          "name": "value",
          "type": "uint256"
        },
        {
          "internalType": "uint256",
          "name": "deadline",
          "type": "uint256"
        },
        {
          "internalType": "uint8",
          "name": "v",
          "type": "uint8"
        },
        {
          "internalType": "bytes32",
          "name": "r",
          "type": "bytes32"
        },
        {
          "internalType": "bytes32",
          "name": "s",
          "type": "bytes32"
        }
      ],
      "name": "permit",
      "outputs": [],
      "stateMutability": "nonpayable",
      "type": "function"
    },
    {
      "inputs": [
        {
          "internalType": "uint8",
          "name": "decimals_",
          "type": "uint8"
        }
      ],
      "name": "setDecimals",
      "outputs": [],
      "stateMutability": "nonpayable",
      "type": "function"
    },
    {
      "inputs": [],
      "name": "symbol",
      "outputs": [
        {
          "internalType": "string",
          "name": "",
          "type": "string"
        }
      ],
      "stateMutability": "view",
      "type": "function"
    },
    {
      "inputs": [],
      "name": "totalSupply",
      "outputs": [
        {
          "internalType": "uint256",
          "name": "",
          "type": "uint256"
        }
      ],
      "stateMutability": "view",
      "type": "function"
    },
    {
      "inputs": [
        {
          "internalType": "address",
          "name": "to",
          "type": "address"
        },
        {
          "internalType": "uint256",
          "name": "amount",
          "type": "uint256"
        }
      ],
      "name": "transfer",
      "outputs": [
        {
          "internalType": "bool",
          "name": "",
          "type": "bool"
        }
      ],
      "stateMutability": "nonpayable",
      "type": "function"
    },
    {
      "inputs": [
        {
          "internalType": "address",
          "name": "from",
          "type": "address"
        },
        {
          "internalType": "address",
          "name": "to",
          "type": "address"
        },
        {
          "internalType": "uint256",
          "name": "amount",
          "type": "uint256"
        }
      ],
      "name": "transferFrom",
      "outputs": [
        {
          "internalType": "bool",
          "name": "",
          "type": "bool"
        }
      ],
      "stateMutability": "nonpayable",
      "type": "function"
    }
  ],
  "transactionHash": "0x1ddc9b16a8b49378bd251b1ebb6787d9ffd7f10cfbf05f080b46f05edf2b679a",
  "args": [],
  "numDeployments": 3,
  "solcInputHash": "057fb27096ac595306bc91b965f6ece2",
  "bytecode": "0x608060405260cc805460ff1916601217905534801561001d57600080fd5b506116b58061002d6000396000f3fe608060405234801561001057600080fd5b50600436106100f65760003560e01c806370a082311161009257806370a08231146101b95780637a1395aa146101e25780637ecebe00146101f557806395d89b41146102085780639dc29fac14610210578063a457c2d714610223578063a9059cbb14610236578063d505accf14610249578063dd62ed3e1461025c57600080fd5b806306fdde03146100fb578063095ea7b3146101195780631624f6c61461013c57806318160ddd1461015157806323b872dd14610163578063313ce567146101765780633644e5151461018b578063395093511461019357806340c10f19146101a6575b600080fd5b61010361026f565b60405161011091906112b1565b60405180910390f35b61012c610127366004611300565b610301565b6040519015158152602001610110565b61014f61014a3660046113de565b610319565b005b6035545b604051908152602001610110565b61012c610171366004611452565b610446565b60cc5460405160ff9091168152602001610110565b61015561046a565b61012c6101a1366004611300565b610479565b61014f6101b4366004611300565b61049b565b6101556101c736600461148e565b6001600160a01b031660009081526033602052604090205490565b61014f6101f03660046114b0565b6104a9565b61015561020336600461148e565b6104bf565b6101036104df565b61014f61021e366004611300565b6104ee565b61012c610231366004611300565b6104f8565b61012c610244366004611300565b610573565b61014f6102573660046114cb565b610581565b61015561026a366004611535565b6106e5565b60606036805461027e90611568565b80601f01602080910402602001604051908101604052809291908181526020018280546102aa90611568565b80156102f75780601f106102cc576101008083540402835291602001916102f7565b820191906000526020600020905b8154815290600101906020018083116102da57829003601f168201915b5050505050905090565b60003361030f818585610710565b5060019392505050565b600054610100900460ff16158080156103395750600054600160ff909116105b806103535750303b158015610353575060005460ff166001145b6103bb5760405162461bcd60e51b815260206004820152602e60248201527f496e697469616c697a61626c653a20636f6e747261637420697320616c72656160448201526d191e481a5b9a5d1a585b1a5e995960921b60648201526084015b60405180910390fd5b6000805460ff1916600117905580156103de576000805461ff0019166101001790555b6103e7846107d6565b6103f18484610823565b6103fa826104a9565b8015610440576000805461ff0019169055604051600181527f7f26b83ff96e1f2b6a682f133852f6798a09c465da95921460cefb38474024989060200160405180910390a15b50505050565b600033610454858285610854565b61045f8585856108c8565b506001949350505050565b6000610474610a84565b905090565b60003361030f81858561048c83836106e5565b61049691906115b3565b610710565b6104a58282610aff565b5050565b60cc805460ff191660ff92909216919091179055565b6001600160a01b0381166000908152609960205260408120545b92915050565b60606037805461027e90611568565b6104a58282610bcc565b6000338161050682866106e5565b9050838110156105665760405162461bcd60e51b815260206004820152602560248201527f45524332303a2064656372656173656420616c6c6f77616e63652062656c6f77604482015264207a65726f60d81b60648201526084016103b2565b61045f8286868403610710565b60003361030f8185856108c8565b834211156105d15760405162461bcd60e51b815260206004820152601d60248201527f45524332305065726d69743a206578706972656420646561646c696e6500000060448201526064016103b2565b60007f6e71edae12b1b97f4d1f60370fef10105fa2faae0126114a169c64845d6126c98888886106008c610d0a565b6040805160208101969096526001600160a01b0394851690860152929091166060840152608083015260a082015260c0810186905260e001604051602081830303815290604052805190602001209050600061065b82610d32565b9050600061066b82878787610d80565b9050896001600160a01b0316816001600160a01b0316146106ce5760405162461bcd60e51b815260206004820152601e60248201527f45524332305065726d69743a20696e76616c6964207369676e6174757265000060448201526064016103b2565b6106d98a8a8a610710565b50505050505050505050565b6001600160a01b03918216600090815260346020908152604080832093909416825291909152205490565b600061071a6104df565b604051631554d11560e21b6020820152909150602401604051602081830303815290604052805190602001208160405160200161075791906115cb565b6040516020818303038152906040528051906020012014156107cb57811580159061078a575061078733846106e5565b15155b156107cb5760405162461bcd60e51b8152602060048201526011602482015270105c1c1c9bdd99481554d1150819985a5b607a1b60448201526064016103b2565b610440848484610da8565b600054610100900460ff166107fd5760405162461bcd60e51b81526004016103b2906115e7565b61082081604051806040016040528060018152602001601960f91b815250610ec4565b50565b600054610100900460ff1661084a5760405162461bcd60e51b81526004016103b2906115e7565b6104a58282610f05565b600061086084846106e5565b9050600019811461044057818110156108bb5760405162461bcd60e51b815260206004820152601d60248201527f45524332303a20696e73756666696369656e7420616c6c6f77616e636500000060448201526064016103b2565b6104408484848403610710565b6001600160a01b03831661092c5760405162461bcd60e51b815260206004820152602560248201527f45524332303a207472616e736665722066726f6d20746865207a65726f206164604482015264647265737360d81b60648201526084016103b2565b6001600160a01b03821661098e5760405162461bcd60e51b815260206004820152602360248201527f45524332303a207472616e7366657220746f20746865207a65726f206164647260448201526265737360e81b60648201526084016103b2565b6001600160a01b03831660009081526033602052604090205481811015610a065760405162461bcd60e51b815260206004820152602660248201527f45524332303a207472616e7366657220616d6f756e7420657863656564732062604482015265616c616e636560d01b60648201526084016103b2565b6001600160a01b03808516600090815260336020526040808220858503905591851681529081208054849290610a3d9084906115b3565b92505081905550826001600160a01b0316846001600160a01b031660008051602061166083398151915284604051610a7791815260200190565b60405180910390a3610440565b60006104747f8b73c3c69bb8fe3d512ecc4cf759cc79239f7b179b0ffacaa9a75d522b39400f610ab360655490565b6066546040805160208101859052908101839052606081018290524660808201523060a082015260009060c0016040516020818303038152906040528051906020012090509392505050565b6001600160a01b038216610b555760405162461bcd60e51b815260206004820152601f60248201527f45524332303a206d696e7420746f20746865207a65726f20616464726573730060448201526064016103b2565b8060356000828254610b6791906115b3565b90915550506001600160a01b03821660009081526033602052604081208054839290610b949084906115b3565b90915550506040518181526001600160a01b038316906000906000805160206116608339815191529060200160405180910390a35050565b6001600160a01b038216610c2c5760405162461bcd60e51b815260206004820152602160248201527f45524332303a206275726e2066726f6d20746865207a65726f206164647265736044820152607360f81b60648201526084016103b2565b6001600160a01b03821660009081526033602052604090205481811015610ca05760405162461bcd60e51b815260206004820152602260248201527f45524332303a206275726e20616d6f756e7420657863656564732062616c616e604482015261636560f01b60648201526084016103b2565b6001600160a01b0383166000908152603360205260408120838303905560358054849290610ccf908490611632565b90915550506040518281526000906001600160a01b03851690600080516020611660833981519152906020015b60405180910390a35b505050565b6001600160a01b03811660009081526099602052604090208054600181018255905b50919050565b60006104d9610d3f610a84565b8360405161190160f01b6020820152602281018390526042810182905260009060620160405160208183030381529060405280519060200120905092915050565b6000806000610d9187878787610f53565b91509150610d9e81611036565b5095945050505050565b6001600160a01b038316610e0a5760405162461bcd60e51b8152602060048201526024808201527f45524332303a20617070726f76652066726f6d20746865207a65726f206164646044820152637265737360e01b60648201526084016103b2565b6001600160a01b038216610e6b5760405162461bcd60e51b815260206004820152602260248201527f45524332303a20617070726f766520746f20746865207a65726f206164647265604482015261737360f01b60648201526084016103b2565b6001600160a01b0383811660008181526034602090815260408083209487168084529482529182902085905590518481527f8c5be1e5ebec7d5bd14f71427d1e84f3dd0314c0f7b2291e5b200ac8c7c3b9259101610cfc565b600054610100900460ff16610eeb5760405162461bcd60e51b81526004016103b2906115e7565b815160209283012081519190920120606591909155606655565b600054610100900460ff16610f2c5760405162461bcd60e51b81526004016103b2906115e7565b8151610f3f9060369060208501906111ec565b508051610d059060379060208401906111ec565b6000806fa2a8918ca85bafe22016d0b997e4df60600160ff1b03831115610f80575060009050600361102d565b8460ff16601b14158015610f9857508460ff16601c14155b15610fa9575060009050600461102d565b6040805160008082526020820180845289905260ff881692820192909252606081018690526080810185905260019060a0016020604051602081039080840390855afa158015610ffd573d6000803e3d6000fd5b5050604051601f1901519150506001600160a01b0381166110265760006001925092505061102d565b9150600090505b94509492505050565b600081600481111561104a5761104a611649565b14156110535750565b600181600481111561106757611067611649565b14156110b05760405162461bcd60e51b815260206004820152601860248201527745434453413a20696e76616c6964207369676e617475726560401b60448201526064016103b2565b60028160048111156110c4576110c4611649565b14156111125760405162461bcd60e51b815260206004820152601f60248201527f45434453413a20696e76616c6964207369676e6174757265206c656e6774680060448201526064016103b2565b600381600481111561112657611126611649565b141561117f5760405162461bcd60e51b815260206004820152602260248201527f45434453413a20696e76616c6964207369676e6174757265202773272076616c604482015261756560f01b60648201526084016103b2565b600481600481111561119357611193611649565b14156108205760405162461bcd60e51b815260206004820152602260248201527f45434453413a20696e76616c6964207369676e6174757265202776272076616c604482015261756560f01b60648201526084016103b2565b8280546111f890611568565b90600052602060002090601f01602090048101928261121a5760008555611260565b82601f1061123357805160ff1916838001178555611260565b82800160010185558215611260579182015b82811115611260578251825591602001919060010190611245565b5061126c929150611270565b5090565b5b8082111561126c5760008155600101611271565b60005b838110156112a0578181015183820152602001611288565b838111156104405750506000910152565b60208152600082518060208401526112d0816040850160208701611285565b601f01601f19169190910160400192915050565b80356001600160a01b03811681146112fb57600080fd5b919050565b6000806040838503121561131357600080fd5b61131c836112e4565b946020939093013593505050565b634e487b7160e01b600052604160045260246000fd5b600082601f83011261135157600080fd5b813567ffffffffffffffff8082111561136c5761136c61132a565b604051601f8301601f19908116603f011681019082821181831017156113945761139461132a565b816040528381528660208588010111156113ad57600080fd5b836020870160208301376000602085830101528094505050505092915050565b803560ff811681146112fb57600080fd5b6000806000606084860312156113f357600080fd5b833567ffffffffffffffff8082111561140b57600080fd5b61141787838801611340565b9450602086013591508082111561142d57600080fd5b5061143a86828701611340565b925050611449604085016113cd565b90509250925092565b60008060006060848603121561146757600080fd5b611470846112e4565b925061147e602085016112e4565b9150604084013590509250925092565b6000602082840312156114a057600080fd5b6114a9826112e4565b9392505050565b6000602082840312156114c257600080fd5b6114a9826113cd565b600080600080600080600060e0888a0312156114e657600080fd5b6114ef886112e4565b96506114fd602089016112e4565b95506040880135945060608801359350611519608089016113cd565b925060a0880135915060c0880135905092959891949750929550565b6000806040838503121561154857600080fd5b611551836112e4565b915061155f602084016112e4565b90509250929050565b600181811c9082168061157c57607f821691505b60208210811415610d2c57634e487b7160e01b600052602260045260246000fd5b634e487b7160e01b600052601160045260246000fd5b600082198211156115c6576115c661159d565b500190565b600082516115dd818460208701611285565b9190910192915050565b6020808252602b908201527f496e697469616c697a61626c653a20636f6e7472616374206973206e6f74206960408201526a6e697469616c697a696e6760a81b606082015260800190565b6000828210156116445761164461159d565b500390565b634e487b7160e01b600052602160045260246000fdfeddf252ad1be2c89b69c2b068fc378daa952ba7f163c4a11628f55a4df523b3efa264697066735822122061073758fca042d995b97f96991ad41d7ffe811edaf06d377e708966276da11564736f6c634300080a0033",
  "devdoc": {
    "kind": "dev",
    "methods": {
      "DOMAIN_SEPARATOR()": {
        "details": "See {IERC20Permit-DOMAIN_SEPARATOR}."
      },
      "allowance(address,address)": {
        "details": "See {IERC20-allowance}."
      },
      "approve(address,uint256)": {
        "details": "See {IERC20-approve}. NOTE: If `amount` is the maximum `uint256`, the allowance is not updated on `transferFrom`. This is semantically equivalent to an infinite approval. Requirements: - `spender` cannot be the zero address."
      },
      "balanceOf(address)": {
        "details": "See {IERC20-balanceOf}."
      },
      "decimals()": {
        "details": "Returns the number of decimals used to get its user representation. For example, if `decimals` equals `2`, a balance of `505` tokens should be displayed to a user as `5.05` (`505 / 10 ** 2`). Tokens usually opt for a value of 18, imitating the relationship between Ether and Wei. This is the value {ERC20} uses, unless this function is overridden; NOTE: This information is only used for _display_ purposes: it in no way affects any of the arithmetic of the contract, including {IERC20-balanceOf} and {IERC20-transfer}."
      },
      "decreaseAllowance(address,uint256)": {
        "details": "Atomically decreases the allowance granted to `spender` by the caller. This is an alternative to {approve} that can be used as a mitigation for problems described in {IERC20-approve}. Emits an {Approval} event indicating the updated allowance. Requirements: - `spender` cannot be the zero address. - `spender` must have allowance for the caller of at least `subtractedValue`."
      },
      "increaseAllowance(address,uint256)": {
        "details": "Atomically increases the allowance granted to `spender` by the caller. This is an alternative to {approve} that can be used as a mitigation for problems described in {IERC20-approve}. Emits an {Approval} event indicating the updated allowance. Requirements: - `spender` cannot be the zero address."
      },
      "name()": {
        "details": "Returns the name of the token."
      },
      "nonces(address)": {
        "details": "See {IERC20Permit-nonces}."
      },
      "permit(address,address,uint256,uint256,uint8,bytes32,bytes32)": {
        "details": "See {IERC20Permit-permit}."
      },
      "symbol()": {
        "details": "Returns the symbol of the token, usually a shorter version of the name."
      },
      "totalSupply()": {
        "details": "See {IERC20-totalSupply}."
      },
      "transfer(address,uint256)": {
        "details": "See {IERC20-transfer}. Requirements: - `to` cannot be the zero address. - the caller must have a balance of at least `amount`."
      },
      "transferFrom(address,address,uint256)": {
        "details": "See {IERC20-transferFrom}. Emits an {Approval} event indicating the updated allowance. This is not required by the EIP. See the note at the beginning of {ERC20}. NOTE: Does not update the allowance if the current allowance is the maximum `uint256`. Requirements: - `from` and `to` cannot be the zero address. - `from` must have a balance of at least `amount`. - the caller must have allowance for ``from``'s tokens of at least `amount`."
      }
    },
    "version": 1
  },
  "userdoc": {
    "kind": "user",
    "methods": {},
    "version": 1
  },
  "storageLayout": {
    "storage": [
      {
        "astId": 6,
        "contract": "contracts/test/ERC20Token.sol:ERC20Token",
        "label": "_initialized",
        "offset": 0,
        "slot": "0",
        "type": "t_uint8"
      },
      {
        "astId": 9,
        "contract": "contracts/test/ERC20Token.sol:ERC20Token",
        "label": "_initializing",
        "offset": 1,
        "slot": "0",
        "type": "t_bool"
      },
      {
        "astId": 1375,
        "contract": "contracts/test/ERC20Token.sol:ERC20Token",
        "label": "__gap",
        "offset": 0,
        "slot": "1",
        "type": "t_array(t_uint256)50_storage"
      },
      {
        "astId": 169,
        "contract": "contracts/test/ERC20Token.sol:ERC20Token",
        "label": "_balances",
        "offset": 0,
        "slot": "51",
        "type": "t_mapping(t_address,t_uint256)"
      },
      {
        "astId": 175,
        "contract": "contracts/test/ERC20Token.sol:ERC20Token",
        "label": "_allowances",
        "offset": 0,
        "slot": "52",
        "type": "t_mapping(t_address,t_mapping(t_address,t_uint256))"
      },
      {
        "astId": 177,
        "contract": "contracts/test/ERC20Token.sol:ERC20Token",
        "label": "_totalSupply",
        "offset": 0,
        "slot": "53",
        "type": "t_uint256"
      },
      {
        "astId": 179,
        "contract": "contracts/test/ERC20Token.sol:ERC20Token",
        "label": "_name",
        "offset": 0,
        "slot": "54",
        "type": "t_string_storage"
      },
      {
        "astId": 181,
        "contract": "contracts/test/ERC20Token.sol:ERC20Token",
        "label": "_symbol",
        "offset": 0,
        "slot": "55",
        "type": "t_string_storage"
      },
      {
        "astId": 760,
        "contract": "contracts/test/ERC20Token.sol:ERC20Token",
        "label": "__gap",
        "offset": 0,
        "slot": "56",
        "type": "t_array(t_uint256)45_storage"
      },
      {
        "astId": 2073,
        "contract": "contracts/test/ERC20Token.sol:ERC20Token",
        "label": "_HASHED_NAME",
        "offset": 0,
        "slot": "101",
        "type": "t_bytes32"
      },
      {
        "astId": 2075,
        "contract": "contracts/test/ERC20Token.sol:ERC20Token",
        "label": "_HASHED_VERSION",
        "offset": 0,
        "slot": "102",
        "type": "t_bytes32"
      },
      {
        "astId": 2213,
        "contract": "contracts/test/ERC20Token.sol:ERC20Token",
        "label": "__gap",
        "offset": 0,
        "slot": "103",
        "type": "t_array(t_uint256)50_storage"
      },
      {
        "astId": 890,
        "contract": "contracts/test/ERC20Token.sol:ERC20Token",
        "label": "_nonces",
        "offset": 0,
        "slot": "153",
        "type": "t_mapping(t_address,t_struct(Counter)1382_storage)"
      },
      {
        "astId": 898,
        "contract": "contracts/test/ERC20Token.sol:ERC20Token",
        "label": "_PERMIT_TYPEHASH_DEPRECATED_SLOT",
        "offset": 0,
        "slot": "154",
        "type": "t_bytes32"
      },
      {
        "astId": 1054,
        "contract": "contracts/test/ERC20Token.sol:ERC20Token",
        "label": "__gap",
        "offset": 0,
        "slot": "155",
        "type": "t_array(t_uint256)49_storage"
      },
      {
        "astId": 8733,
        "contract": "contracts/test/ERC20Token.sol:ERC20Token",
        "label": "_decimals",
        "offset": 0,
        "slot": "204",
        "type": "t_uint8"
      }
    ],
    "types": {
      "t_address": {
        "encoding": "inplace",
        "label": "address",
        "numberOfBytes": "20"
      },
      "t_array(t_uint256)45_storage": {
        "base": "t_uint256",
        "encoding": "inplace",
        "label": "uint256[45]",
        "numberOfBytes": "1440"
      },
      "t_array(t_uint256)49_storage": {
        "base": "t_uint256",
        "encoding": "inplace",
        "label": "uint256[49]",
        "numberOfBytes": "1568"
      },
      "t_array(t_uint256)50_storage": {
        "base": "t_uint256",
        "encoding": "inplace",
        "label": "uint256[50]",
        "numberOfBytes": "1600"
      },
      "t_bool": {
        "encoding": "inplace",
        "label": "bool",
        "numberOfBytes": "1"
      },
      "t_bytes32": {
        "encoding": "inplace",
        "label": "bytes32",
        "numberOfBytes": "32"
      },
      "t_mapping(t_address,t_mapping(t_address,t_uint256))": {
        "encoding": "mapping",
        "key": "t_address",
        "label": "mapping(address => mapping(address => uint256))",
        "numberOfBytes": "32",
        "value": "t_mapping(t_address,t_uint256)"
      },
      "t_mapping(t_address,t_struct(Counter)1382_storage)": {
        "encoding": "mapping",
        "key": "t_address",
        "label": "mapping(address => struct CountersUpgradeable.Counter)",
        "numberOfBytes": "32",
        "value": "t_struct(Counter)1382_storage"
      },
      "t_mapping(t_address,t_uint256)": {
        "encoding": "mapping",
        "key": "t_address",
        "label": "mapping(address => uint256)",
        "numberOfBytes": "32",
        "value": "t_uint256"
      },
      "t_string_storage": {
        "encoding": "bytes",
        "label": "string",
        "numberOfBytes": "32"
      },
      "t_struct(Counter)1382_storage": {
        "encoding": "inplace",
        "label": "struct CountersUpgradeable.Counter",
        "members": [
          {
            "astId": 1381,
            "contract": "contracts/test/ERC20Token.sol:ERC20Token",
            "label": "_value",
            "offset": 0,
            "slot": "0",
            "type": "t_uint256"
          }
        ],
        "numberOfBytes": "32"
      },
      "t_uint256": {
        "encoding": "inplace",
        "label": "uint256",
        "numberOfBytes": "32"
      },
      "t_uint8": {
        "encoding": "inplace",
        "label": "uint8",
        "numberOfBytes": "1"
      }
    }
  }
}