{
  "address": "0x8dd7455b736e61FD1aD0b1858503FE0E82b62682",
  "abi": [
    {
      "anonymous": false,
      "inputs": [
        {
          "indexed": false,
          "internalType": "uint8",
          "name": "version",
          "type": "uint8"
        }
      ],
      "name": "Initialized",
      "type": "event"
    },
    {
      "anonymous": false,
      "inputs": [
        {
          "indexed": false,
          "internalType": "address",
          "name": "account",
          "type": "address"
        }
      ],
      "name": "Paused",
      "type": "event"
    },
    {
      "anonymous": false,
      "inputs": [
        {
          "indexed": false,
          "internalType": "bytes32",
          "name": "poolInfoHash",
          "type": "bytes32"
        },
        {
          "indexed": false,
          "internalType": "address",
          "name": "pool",
          "type": "address"
        }
      ],
      "name": "PoolCreated",
      "type": "event"
    },
    {
      "anonymous": false,
      "inputs": [
        {
          "indexed": true,
          "internalType": "bytes32",
          "name": "role",
          "type": "bytes32"
        },
        {
          "indexed": true,
          "internalType": "bytes32",
          "name": "previousAdminRole",
          "type": "bytes32"
        },
        {
          "indexed": true,
          "internalType": "bytes32",
          "name": "newAdminRole",
          "type": "bytes32"
        }
      ],
      "name": "RoleAdminChanged",
      "type": "event"
    },
    {
      "anonymous": false,
      "inputs": [
        {
          "indexed": true,
          "internalType": "bytes32",
          "name": "role",
          "type": "bytes32"
        },
        {
          "indexed": true,
          "internalType": "address",
          "name": "account",
          "type": "address"
        },
        {
          "indexed": true,
          "internalType": "address",
          "name": "sender",
          "type": "address"
        }
      ],
      "name": "RoleGranted",
      "type": "event"
    },
    {
      "anonymous": false,
      "inputs": [
        {
          "indexed": true,
          "internalType": "bytes32",
          "name": "role",
          "type": "bytes32"
        },
        {
          "indexed": true,
          "internalType": "address",
          "name": "account",
          "type": "address"
        },
        {
          "indexed": true,
          "internalType": "address",
          "name": "sender",
          "type": "address"
        }
      ],
      "name": "RoleRevoked",
      "type": "event"
    },
    {
      "anonymous": false,
      "inputs": [
        {
          "indexed": false,
          "internalType": "address",
          "name": "account",
          "type": "address"
        }
      ],
      "name": "Unpaused",
      "type": "event"
    },
    {
      "anonymous": false,
      "inputs": [
        {
          "indexed": true,
          "internalType": "address",
          "name": "oldPoolImplementation",
          "type": "address"
        },
        {
          "indexed": true,
          "internalType": "address",
          "name": "newPoolImplementation",
          "type": "address"
        }
      ],
      "name": "UpdatePoolImplementation",
      "type": "event"
    },
    {
      "anonymous": false,
      "inputs": [
        {
          "indexed": true,
          "internalType": "address",
          "name": "oldVestingImplementation",
          "type": "address"
        },
        {
          "indexed": true,
          "internalType": "address",
          "name": "newVestingImplementation",
          "type": "address"
        }
      ],
      "name": "UpdateVestingImplementation",
      "type": "event"
    },
    {
      "anonymous": false,
      "inputs": [
        {
          "indexed": false,
          "internalType": "address",
          "name": "sender",
          "type": "address"
        },
        {
          "indexed": false,
          "internalType": "address",
          "name": "vesting",
          "type": "address"
        }
      ],
      "name": "VestingCreated",
      "type": "event"
    },
    {
      "inputs": [],
      "name": "DEFAULT_ADMIN_ROLE",
      "outputs": [
        {
          "internalType": "bytes32",
          "name": "",
          "type": "bytes32"
        }
      ],
      "stateMutability": "view",
      "type": "function"
    },
    {
      "inputs": [],
      "name": "LOCKUP_DURATION",
      "outputs": [
        {
          "internalType": "uint256",
          "name": "",
          "type": "uint256"
        }
      ],
      "stateMutability": "view",
      "type": "function"
    },
    {
      "inputs": [],
      "name": "MAXIMUM_CROWN_FUNDING_PARTICIPATION_FEE_PERCENTAGE",
      "outputs": [
        {
          "internalType": "uint16",
          "name": "",
          "type": "uint16"
        }
      ],
      "stateMutability": "view",
      "type": "function"
    },
    {
      "inputs": [],
      "name": "MAXIMUM_GALAXY_PARTICIPATION_FEE_PERCENTAGE",
      "outputs": [
        {
          "internalType": "uint16",
          "name": "",
          "type": "uint16"
        }
      ],
      "stateMutability": "view",
      "type": "function"
    },
    {
      "inputs": [],
      "name": "MAXIMUM_TGE_DATE_ADJUSTMENT",
      "outputs": [
        {
          "internalType": "uint256",
          "name": "",
          "type": "uint256"
        }
      ],
      "stateMutability": "view",
      "type": "function"
    },
    {
      "inputs": [],
      "name": "MINIMUM_CROWN_FUNDING_PARTICIPATION_FEE_PERCENTAGE",
      "outputs": [
        {
          "internalType": "uint16",
          "name": "",
          "type": "uint16"
        }
      ],
      "stateMutability": "view",
      "type": "function"
    },
    {
      "inputs": [],
      "name": "MINIMUM_GALAXY_PARTICIPATION_FEE_PERCENTAGE",
      "outputs": [
        {
          "internalType": "uint16",
          "name": "",
          "type": "uint16"
        }
      ],
      "stateMutability": "view",
      "type": "function"
    },
    {
      "inputs": [],
      "name": "OWNER_ROLE",
      "outputs": [
        {
          "internalType": "bytes32",
          "name": "",
          "type": "bytes32"
        }
      ],
      "stateMutability": "view",
      "type": "function"
    },
    {
      "inputs": [
        {
          "internalType": "address",
          "name": "owner",
          "type": "address"
        }
      ],
      "name": "__BasePausable__init",
      "outputs": [],
      "stateMutability": "nonpayable",
      "type": "function"
    },
    {
      "inputs": [
        {
          "internalType": "address[2]",
          "name": "addrs",
          "type": "address[2]"
        },
        {
          "internalType": "uint256[18]",
          "name": "uints",
          "type": "uint256[18]"
        },
        {
          "internalType": "uint256",
          "name": "dbProjectId",
          "type": "uint256"
        }
      ],
      "name": "createPool",
      "outputs": [
        {
          "internalType": "address",
          "name": "pool",
          "type": "address"
        }
      ],
      "stateMutability": "nonpayable",
      "type": "function"
    },
    {
      "inputs": [],
      "name": "createVesting",
      "outputs": [
        {
          "internalType": "address",
          "name": "",
          "type": "address"
        }
      ],
      "stateMutability": "nonpayable",
      "type": "function"
    },
    {
      "inputs": [],
      "name": "getLockupDuration",
      "outputs": [
        {
          "internalType": "uint256",
          "name": "",
          "type": "uint256"
        }
      ],
      "stateMutability": "pure",
      "type": "function"
    },
    {
      "inputs": [],
      "name": "getMaxCrowdfundingParticipationFeePercentage",
      "outputs": [
        {
          "internalType": "uint16",
          "name": "",
          "type": "uint16"
        }
      ],
      "stateMutability": "pure",
      "type": "function"
    },
    {
      "inputs": [],
      "name": "getMaxGalaxyParticipationFeePercentage",
      "outputs": [
        {
          "internalType": "uint16",
          "name": "",
          "type": "uint16"
        }
      ],
      "stateMutability": "pure",
      "type": "function"
    },
    {
      "inputs": [],
      "name": "getMaximumTGEDateAdjustment",
      "outputs": [
        {
          "internalType": "uint256",
          "name": "",
          "type": "uint256"
        }
      ],
      "stateMutability": "pure",
      "type": "function"
    },
    {
      "inputs": [],
      "name": "getMinCrowdfundingParticipationFeePercentage",
      "outputs": [
        {
          "internalType": "uint16",
          "name": "",
          "type": "uint16"
        }
      ],
      "stateMutability": "pure",
      "type": "function"
    },
    {
      "inputs": [],
      "name": "getMinGalaxyParticipationFeePercentage",
      "outputs": [
        {
          "internalType": "uint16",
          "name": "",
          "type": "uint16"
        }
      ],
      "stateMutability": "pure",
      "type": "function"
    },
    {
      "inputs": [
        {
          "internalType": "bytes32",
          "name": "role",
          "type": "bytes32"
        }
      ],
      "name": "getRoleAdmin",
      "outputs": [
        {
          "internalType": "bytes32",
          "name": "",
          "type": "bytes32"
        }
      ],
      "stateMutability": "view",
      "type": "function"
    },
    {
      "inputs": [
        {
          "internalType": "bytes32",
          "name": "role",
          "type": "bytes32"
        },
        {
          "internalType": "address",
          "name": "account",
          "type": "address"
        }
      ],
      "name": "grantRole",
      "outputs": [],
      "stateMutability": "nonpayable",
      "type": "function"
    },
    {
      "inputs": [
        {
          "internalType": "bytes32",
          "name": "role",
          "type": "bytes32"
        },
        {
          "internalType": "address",
          "name": "account",
          "type": "address"
        }
      ],
      "name": "hasRole",
      "outputs": [
        {
          "internalType": "bool",
          "name": "",
          "type": "bool"
        }
      ],
      "stateMutability": "view",
      "type": "function"
    },
    {
      "inputs": [
        {
          "internalType": "address",
          "name": "_poolImplementationAddress",
          "type": "address"
        },
        {
          "internalType": "address",
          "name": "_vestingImplementationAddress",
          "type": "address"
        }
      ],
      "name": "initialize",
      "outputs": [],
      "stateMutability": "nonpayable",
      "type": "function"
    },
    {
      "inputs": [
        {
          "internalType": "address",
          "name": "sender",
          "type": "address"
        }
      ],
      "name": "isOwner",
      "outputs": [
        {
          "internalType": "bool",
          "name": "",
          "type": "bool"
        }
      ],
      "stateMutability": "view",
      "type": "function"
    },
    {
      "inputs": [],
      "name": "paused",
      "outputs": [
        {
          "internalType": "bool",
          "name": "",
          "type": "bool"
        }
      ],
      "stateMutability": "view",
      "type": "function"
    },
    {
      "inputs": [],
      "name": "poolImplementationAddress",
      "outputs": [
        {
          "internalType": "address",
          "name": "",
          "type": "address"
        }
      ],
      "stateMutability": "view",
      "type": "function"
    },
    {
      "inputs": [
        {
          "internalType": "bytes32",
          "name": "role",
          "type": "bytes32"
        },
        {
          "internalType": "address",
          "name": "account",
          "type": "address"
        }
      ],
      "name": "renounceRole",
      "outputs": [],
      "stateMutability": "nonpayable",
      "type": "function"
    },
    {
      "inputs": [
        {
          "internalType": "bytes32",
          "name": "role",
          "type": "bytes32"
        },
        {
          "internalType": "address",
          "name": "account",
          "type": "address"
        }
      ],
      "name": "revokeRole",
      "outputs": [],
      "stateMutability": "nonpayable",
      "type": "function"
    },
    {
      "inputs": [
        {
          "internalType": "address",
          "name": "_poolImplementationAddress",
          "type": "address"
        }
      ],
      "name": "setPoolImplementation",
      "outputs": [],
      "stateMutability": "nonpayable",
      "type": "function"
    },
    {
      "inputs": [
        {
          "internalType": "address",
          "name": "_vestingImplementationAddress",
          "type": "address"
        }
      ],
      "name": "setVestingImplementation",
      "outputs": [],
      "stateMutability": "nonpayable",
      "type": "function"
    },
    {
      "inputs": [
        {
          "internalType": "bytes4",
          "name": "interfaceId",
          "type": "bytes4"
        }
      ],
      "name": "supportsInterface",
      "outputs": [
        {
          "internalType": "bool",
          "name": "",
          "type": "bool"
        }
      ],
      "stateMutability": "view",
      "type": "function"
    },
    {
      "inputs": [],
      "name": "vestingImplementationAddress",
      "outputs": [
        {
          "internalType": "address",
          "name": "",
          "type": "address"
        }
      ],
      "stateMutability": "view",
      "type": "function"
    }
  ],
  "transactionHash": "0xc245287cea0c707e5754d40d75716a555e734700a3bd23ca469fcb358707f97f",
  "args": [],
  "numDeployments": 1,
  "solcInputHash": "0cb47bcf4fb1d70d415b4e4423331225",
  "bytecode": "0x608060405234801561001057600080fd5b50611411806100206000396000f3fe608060405234801561001057600080fd5b506004361061019a5760003560e01c8063a217fddf116100e4578063cc6f033311610092578063cc6f033314610329578063ce1ee86a14610331578063d547741f14610344578063d6de71fd146102c7578063d6f7489814610357578063d8c128221461028d578063e58378bb1461036a578063ee0ca4421461032157600080fd5b8063a217fddf146102e2578063abaf36df146102ea578063b379c89a146102fd578063bb8e3f4414610306578063bc87783f14610319578063c1994af1146101c7578063c72967e21461032157600080fd5b806336568abe1161014c57806336568abe1461027a578063397a1cb31461028d578063485cc955146102945780635c975abb146102a7578063605ff1bf146102b257806362c1adc2146102bd578063884c4509146102c757806391d14854146102cf57600080fd5b806301ffc9a71461019f5780631380d5d3146101c7578063159ce135146101e357806315ef4ddc1461020e578063248a9ca3146102215780632f2ff15d146102525780632f54bf6e14610267575b600080fd5b6101b26101ad366004610f32565b61037f565b60405190151581526020015b60405180910390f35b6101d061138881565b60405161ffff90911681526020016101be565b60fc546101f6906001600160a01b031681565b6040516001600160a01b0390911681526020016101be565b60fb546101f6906001600160a01b031681565b61024461022f366004610f5c565b60009081526065602052604090206001015490565b6040519081526020016101be565b610265610260366004610f8c565b6103b6565b005b6101b2610275366004610fb8565b6103e0565b610265610288366004610f8c565b6103fa565b60006101d0565b6102656102a2366004610fd3565b61047d565b60975460ff166101b2565b6102446301e1338081565b6301e13380610244565b6113886101d0565b6101b26102dd366004610f8c565b6105c1565b610244600081565b6101f66102f836600461107c565b6105ec565b61024461012c81565b610265610314366004610fb8565b610715565b61012c610244565b6101d0600081565b6101f66107c7565b61026561033f366004610fb8565b61082c565b610265610352366004610f8c565b6108c9565b610265610365366004610fb8565b6108ee565b6102446000805160206113bc83398151915281565b60006001600160e01b03198216637965db0b60e01b14806103b057506301ffc9a760e01b6001600160e01b03198316145b92915050565b6000828152606560205260409020600101546103d18161098b565b6103db8383610995565b505050565b60006103b06000805160206113bc833981519152836105c1565b6001600160a01b038116331461046f5760405162461bcd60e51b815260206004820152602f60248201527f416363657373436f6e74726f6c3a2063616e206f6e6c792072656e6f756e636560448201526e103937b632b9903337b91039b2b63360891b60648201526084015b60405180910390fd5b6104798282610a1b565b5050565b600054610100900460ff161580801561049d5750600054600160ff909116105b806104b75750303b1580156104b7575060005460ff166001145b61051a5760405162461bcd60e51b815260206004820152602e60248201527f496e697469616c697a61626c653a20636f6e747261637420697320616c72656160448201526d191e481a5b9a5d1a585b1a5e995960921b6064820152608401610466565b6000805460ff19166001179055801561053d576000805461ff0019166101001790555b60fb80546001600160a01b038086166001600160a01b03199283161790925560fc8054928516929091169190911790556105776103143390565b80156103db576000805461ff0019169055604051600181527f7f26b83ff96e1f2b6a682f133852f6798a09c465da95921460cefb38474024989060200160405180910390a1505050565b60009182526065602090815260408084206001600160a01b0393909316845291905290205460ff1690565b60008084843385604051602001610606949392919061118e565b60408051601f19818403018152919052805160209091012060fb54909150610637906001600160a01b031682610a82565b604051636db6e03160e01b81529092506001600160a01b03831690636db6e0319061066a908890889033906004016111c7565b600060405180830381600087803b15801561068457600080fd5b505af1158015610698573d6000803e3d6000fd5b5050505060008585856040516020016106b3939291906111fd565b60408051601f1981840301815282825280516020918201208084526001600160a01b0387169184019190915292507fa843b0068d872c047023d406f9e5cea249189566b6fe594909f554578e81656d910160405180910390a150509392505050565b600054610100900460ff1661073c5760405162461bcd60e51b815260040161046690611228565b6040805180820190915260018152600d60fa1b60208201526001600160a01b03821661077b5760405162461bcd60e51b8152600401610466919061129f565b50610784610b1c565b61078c610b45565b610794610b74565b6107ac6000805160206113bc83398151915282610995565b6107c46000805160206113bc83398151915280610ba3565b50565b60fc5460009081906107e1906001600160a01b0316610bee565b90507f2ee44d821b06c9aa990927d787f4adf9d8d3eb9bf798ef5c80415cd7a396560233604080516001600160a01b03928316815291841660208301520160405180910390a1919050565b610835336103e0565b604051806040016040528060018152602001601960f91b8152509061086d5760405162461bcd60e51b8152600401610466919061129f565b5061087781610c8b565b60fc80546001600160a01b038381166001600160a01b0319831681179093556040519116919082907f722ecaaadd945da6d0f5682999119f95d2be4f4bb04ce8883f85e86468f93c3090600090a35050565b6000828152606560205260409020600101546108e48161098b565b6103db8383610a1b565b6108f7336103e0565b604051806040016040528060018152602001601960f91b8152509061092f5760405162461bcd60e51b8152600401610466919061129f565b5061093981610c8b565b60fb80546001600160a01b038381166001600160a01b0319831681179093556040519116919082907f0617fd31aa5ab95ec80eefc1eb61a2c477aa419d1d761b4e46f5f077e47852aa90600090a35050565b6107c48133610cca565b61099f82826105c1565b6104795760008281526065602090815260408083206001600160a01b03851684529091529020805460ff191660011790556109d73390565b6001600160a01b0316816001600160a01b0316837f2f8788117e7eff1d82e926ec794901d17c78024a50270940304540a733656f0d60405160405180910390a45050565b610a2582826105c1565b156104795760008281526065602090815260408083206001600160a01b0385168085529252808320805460ff1916905551339285917ff6391f5c32d9c69d2a47ea670b442974b53935d1edc7fd64eb21e047a839171b9190a45050565b6000604051733d602d80600a3d3981f3363d3d373d3d3d363d7360601b81528360601b60148201526e5af43d82803e903d91602b57fd5bf360881b6028820152826037826000f59150506001600160a01b0381166103b05760405162461bcd60e51b8152602060048201526017602482015276115490cc4c4d8dce8818dc99585d194c8819985a5b1959604a1b6044820152606401610466565b600054610100900460ff16610b435760405162461bcd60e51b815260040161046690611228565b565b600054610100900460ff16610b6c5760405162461bcd60e51b815260040161046690611228565b610b43610d2e565b600054610100900460ff16610b9b5760405162461bcd60e51b815260040161046690611228565b610b43610d61565b600082815260656020526040808220600101805490849055905190918391839186917fbd79b86ffe0ab8e8776151514217cd7cacd52c909f66475c3af44e129f0b00ff9190a4505050565b6000604051733d602d80600a3d3981f3363d3d373d3d3d363d7360601b81528260601b60148201526e5af43d82803e903d91602b57fd5bf360881b60288201526037816000f09150506001600160a01b038116610c865760405162461bcd60e51b8152602060048201526016602482015275115490cc4c4d8dce8818dc99585d194819985a5b195960521b6044820152606401610466565b919050565b6040805180820190915260018152600d60fa1b60208201526001600160a01b0382166104795760405162461bcd60e51b8152600401610466919061129f565b610cd482826105c1565b61047957610cec816001600160a01b03166014610d8f565b610cf7836020610d8f565b604051602001610d089291906112d2565b60408051601f198184030181529082905262461bcd60e51b82526104669160040161129f565b600054610100900460ff16610d555760405162461bcd60e51b815260040161046690611228565b6097805460ff19169055565b600054610100900460ff16610d885760405162461bcd60e51b815260040161046690611228565b600160c955565b60606000610d9e836002611357565b610da9906002611376565b67ffffffffffffffff811115610dc157610dc1610ffd565b6040519080825280601f01601f191660200182016040528015610deb576020820181803683370190505b509050600360fc1b81600081518110610e0657610e0661138e565b60200101906001600160f81b031916908160001a905350600f60fb1b81600181518110610e3557610e3561138e565b60200101906001600160f81b031916908160001a9053506000610e59846002611357565b610e64906001611376565b90505b6001811115610edc576f181899199a1a9b1b9c1cb0b131b232b360811b85600f1660108110610e9857610e9861138e565b1a60f81b828281518110610eae57610eae61138e565b60200101906001600160f81b031916908160001a90535060049490941c93610ed5816113a4565b9050610e67565b508315610f2b5760405162461bcd60e51b815260206004820181905260248201527f537472696e67733a20686578206c656e67746820696e73756666696369656e746044820152606401610466565b9392505050565b600060208284031215610f4457600080fd5b81356001600160e01b031981168114610f2b57600080fd5b600060208284031215610f6e57600080fd5b5035919050565b80356001600160a01b0381168114610c8657600080fd5b60008060408385031215610f9f57600080fd5b82359150610faf60208401610f75565b90509250929050565b600060208284031215610fca57600080fd5b610f2b82610f75565b60008060408385031215610fe657600080fd5b610fef83610f75565b9150610faf60208401610f75565b634e487b7160e01b600052604160045260246000fd5b6040805190810167ffffffffffffffff8111828210171561104457634e487b7160e01b600052604160045260246000fd5b60405290565b604051610240810167ffffffffffffffff8111828210171561104457634e487b7160e01b600052604160045260246000fd5b60008060006102a0848603121561109257600080fd5b84601f8501126110a157600080fd5b6110a9611013565b8060408601878111156110bb57600080fd5b865b818110156110dc576110ce81610f75565b8452602093840193016110bd565b5081955087605f8801126110ef57600080fd5b6110f761104a565b925082915061028087018881111561110e57600080fd5b5b8082101561112a57813584526020938401939091019061110f565b95989197505093359450505050565b8060005b60028110156111655781516001600160a01b031684526020938401939091019060010161113d565b50505050565b8060005b601281101561116557815184526020938401939091019060010161116f565b6102c0810161119d8287611139565b6111aa604083018661116b565b6001600160a01b03939093166102808201526102a0015292915050565b6102a081016111d68286611139565b6111e3604083018561116b565b6001600160a01b0392909216610280919091015292915050565b6102a0810161120c8286611139565b611219604083018561116b565b82610280830152949350505050565b6020808252602b908201527f496e697469616c697a61626c653a20636f6e7472616374206973206e6f74206960408201526a6e697469616c697a696e6760a81b606082015260800190565b60005b8381101561128e578181015183820152602001611276565b838111156111655750506000910152565b60208152600082518060208401526112be816040850160208701611273565b601f01601f19169190910160400192915050565b76020b1b1b2b9b9a1b7b73a3937b61d1030b1b1b7bab73a1604d1b815260008351611304816017850160208801611273565b7001034b99036b4b9b9b4b733903937b6329607d1b6017918401918201528351611335816028840160208801611273565b01602801949350505050565b634e487b7160e01b600052601160045260246000fd5b600081600019048311821515161561137157611371611341565b500290565b6000821982111561138957611389611341565b500190565b634e487b7160e01b600052603260045260246000fd5b6000816113b3576113b3611341565b50600019019056feb19546dff01e856fb3f010c267a7b1c60363cf8a4664e21cc89c26224620214ea2646970667358221220bbc38be4c03d426ebed923e475dd4cf0caf2fecaab09a46cd3e2a5d4e217372c64736f6c634300080a0033",
  "devdoc": {
    "kind": "dev",
    "methods": {
      "createPool(address[2],uint256[18],uint256)": {
        "details": "Only has one pool address respectively for one input params",
        "params": {
          "addrs": "Array of address includes: - address of IDO token, - address of purchase token",
          "dbProjectId": "Project Id in database",
          "uints": "Array of pool information includes: - max purchase amount for KYC user, - max purchase amount for Not KYC user, - token project fee percentage, // will be sent to admin if success or investor in vice versa - galaxy participation fee percentage, // will be sent to admin - crowdfunding participation fee percentage, // will be sent to admin - galaxy pool proportion, (ratio with all project) - early access proportion, (ratio with only crowdfunding pool) - total raise amount, - whale open time, - whale duration, - community duration, - rate of IDO token (based on formula in README), - decimal of IDO token (based on formula in README, is different from decimals in contract of IDO token), - TGE date, - TGE percentage, - vesting cliff, - vesting frequency, - number of vesting release"
        },
        "returns": {
          "pool": "Address of new pool"
        }
      },
      "getRoleAdmin(bytes32)": {
        "details": "Returns the admin role that controls `role`. See {grantRole} and {revokeRole}. To change a role's admin, use {_setRoleAdmin}."
      },
      "grantRole(bytes32,address)": {
        "details": "Grants `role` to `account`. If `account` had not been already granted `role`, emits a {RoleGranted} event. Requirements: - the caller must have ``role``'s admin role. May emit a {RoleGranted} event."
      },
      "hasRole(bytes32,address)": {
        "details": "Returns `true` if `account` has been granted `role`."
      },
      "initialize(address,address)": {
        "details": "Called only once",
        "params": {
          "_poolImplementationAddress": "Address of pool implementation"
        }
      },
      "paused()": {
        "details": "Returns true if the contract is paused, and false otherwise."
      },
      "renounceRole(bytes32,address)": {
        "details": "Revokes `role` from the calling account. Roles are often managed via {grantRole} and {revokeRole}: this function's purpose is to provide a mechanism for accounts to lose their privileges if they are compromised (such as when a trusted device is misplaced). If the calling account had been revoked `role`, emits a {RoleRevoked} event. Requirements: - the caller must be `account`. May emit a {RoleRevoked} event."
      },
      "revokeRole(bytes32,address)": {
        "details": "Revokes `role` from `account`. If `account` had been granted `role`, emits a {RoleRevoked} event. Requirements: - the caller must have ``role``'s admin role. May emit a {RoleRevoked} event."
      },
      "setPoolImplementation(address)": {
        "details": "Only admin can can call it",
        "params": {
          "_poolImplementationAddress": "Address of new pool implementation"
        }
      },
      "setVestingImplementation(address)": {
        "details": "Only admin can can call it",
        "params": {
          "_vestingImplementationAddress": "Address of new vesting implementation"
        }
      },
      "supportsInterface(bytes4)": {
        "details": "See {IERC165-supportsInterface}."
      }
    },
    "stateVariables": {
      "poolImplementationAddress": {
        "details": "Address of pool implementation"
      },
      "vestingImplementationAddress": {
        "details": "Address of vesting implementation"
      }
    },
    "version": 1
  },
  "userdoc": {
    "kind": "user",
    "methods": {
      "LOCKUP_DURATION()": {
        "notice": "fix: M03"
      },
      "OWNER_ROLE()": {
        "notice": "keccak256(\"OWNER_ROLE\")"
      },
      "createPool(address[2],uint256[18],uint256)": {
        "notice": "Create new pool. One pool has 2 sub-pool: galaxy pool and crowfunding pool, with 2 different participation fee. In crowfunding pool, there is a part for WHALE to buy early (called EARLY ACCESS) and another for NORMAL user to buy (called NORMAL ACCESS). Duration of galaxy pool and EARLY ACCESS are same and before duration of NORMAL ACCESS. There are 3 types of fund: PARTICIPATION FEE, TOKEN FEE and COLLABORATOR FUND. Investors need to pay PURCHASE AMOUNT and PARTICIPATION FEE PURCHASE AMOUNT (purchase token) = TOKEN FEE + COLLABORATOR FUND = total raise amount (IDO token) * price Sale End -> TGE Date -> 14 days -> Lockup 14 days is a config variable in the system (constant) If project is success (not be cancelled by admin or funded enough IDO token or not emergency canceled in lockup duration),  - System's admin claims participation fee and token fee after lockup time    (call pool.claimParticipationFee(), pool.claimTokenFee())  - Collaborator claims collaborator fund (purchased amount - token fee) based on vesting rule after lockup time (vesting schedule start from TGE date)    (call pool.claimFund())  - Investors claim IDO token based on vesting rule after TGE date    (call vesting.claim())  - Collaborator withdraws redundant IDO token after TGE date    (call pool.withdrawRedundantIDOToken()) If project is fail before TGE Date (cancelled by admin or not be funded enough IDO token) (of course before TGE date)  - Investors withdraw purchased amount and participation fee after cancelled time or TGE date    (call pool.withdrawPurchasedAmountAndParticipationFee())  - Collaborator withdraws funded IDO token after cancelled time or TGE date    (call pool.withdrawRedundantIDOToken()) If project is fail after TGE Date and before Lockup time  - Investors claim IDO token based on vesting rule after TGE date and before cancelled time    (call vesting.claim())  - Investors withdraw purchased amount and participation fee at cancelled time    (call pool.withdrawPurchasedAmount())  - Collaborator withdraws redundant IDO token after TGE date and before cancelled time    (call pool.withdrawRedundantIDOToken())  - All remaining IDO will be locked in contract."
      },
      "initialize(address,address)": {
        "notice": "Initialize pool factory with address of pool implementation"
      },
      "setPoolImplementation(address)": {
        "notice": "Set or change address of pool implementation"
      },
      "setVestingImplementation(address)": {
        "notice": "Set or change address of vesting implementation"
      }
    },
    "version": 1
  },
  "storageLayout": {
    "storage": [
      {
        "astId": 419,
        "contract": "contracts/core/IgnitionFactory.sol:IgnitionFactory",
        "label": "_initialized",
        "offset": 0,
        "slot": "0",
        "type": "t_uint8"
      },
      {
        "astId": 422,
        "contract": "contracts/core/IgnitionFactory.sol:IgnitionFactory",
        "label": "_initializing",
        "offset": 1,
        "slot": "0",
        "type": "t_bool"
      },
      {
        "astId": 1033,
        "contract": "contracts/core/IgnitionFactory.sol:IgnitionFactory",
        "label": "__gap",
        "offset": 0,
        "slot": "1",
        "type": "t_array(t_uint256)50_storage"
      },
      {
        "astId": 1841,
        "contract": "contracts/core/IgnitionFactory.sol:IgnitionFactory",
        "label": "__gap",
        "offset": 0,
        "slot": "51",
        "type": "t_array(t_uint256)50_storage"
      },
      {
        "astId": 39,
        "contract": "contracts/core/IgnitionFactory.sol:IgnitionFactory",
        "label": "_roles",
        "offset": 0,
        "slot": "101",
        "type": "t_mapping(t_bytes32,t_struct(RoleData)34_storage)"
      },
      {
        "astId": 338,
        "contract": "contracts/core/IgnitionFactory.sol:IgnitionFactory",
        "label": "__gap",
        "offset": 0,
        "slot": "102",
        "type": "t_array(t_uint256)49_storage"
      },
      {
        "astId": 584,
        "contract": "contracts/core/IgnitionFactory.sol:IgnitionFactory",
        "label": "_paused",
        "offset": 0,
        "slot": "151",
        "type": "t_bool"
      },
      {
        "astId": 689,
        "contract": "contracts/core/IgnitionFactory.sol:IgnitionFactory",
        "label": "__gap",
        "offset": 0,
        "slot": "152",
        "type": "t_array(t_uint256)49_storage"
      },
      {
        "astId": 704,
        "contract": "contracts/core/IgnitionFactory.sol:IgnitionFactory",
        "label": "_status",
        "offset": 0,
        "slot": "201",
        "type": "t_uint256"
      },
      {
        "astId": 748,
        "contract": "contracts/core/IgnitionFactory.sol:IgnitionFactory",
        "label": "__gap",
        "offset": 0,
        "slot": "202",
        "type": "t_array(t_uint256)49_storage"
      },
      {
        "astId": 5686,
        "contract": "contracts/core/IgnitionFactory.sol:IgnitionFactory",
        "label": "poolImplementationAddress",
        "offset": 0,
        "slot": "251",
        "type": "t_address"
      },
      {
        "astId": 5689,
        "contract": "contracts/core/IgnitionFactory.sol:IgnitionFactory",
        "label": "vestingImplementationAddress",
        "offset": 0,
        "slot": "252",
        "type": "t_address"
      }
    ],
    "types": {
      "t_address": {
        "encoding": "inplace",
        "label": "address",
        "numberOfBytes": "20"
      },
      "t_array(t_uint256)49_storage": {
        "base": "t_uint256",
        "encoding": "inplace",
        "label": "uint256[49]",
        "numberOfBytes": "1568"
      },
      "t_array(t_uint256)50_storage": {
        "base": "t_uint256",
        "encoding": "inplace",
        "label": "uint256[50]",
        "numberOfBytes": "1600"
      },
      "t_bool": {
        "encoding": "inplace",
        "label": "bool",
        "numberOfBytes": "1"
      },
      "t_bytes32": {
        "encoding": "inplace",
        "label": "bytes32",
        "numberOfBytes": "32"
      },
      "t_mapping(t_address,t_bool)": {
        "encoding": "mapping",
        "key": "t_address",
        "label": "mapping(address => bool)",
        "numberOfBytes": "32",
        "value": "t_bool"
      },
      "t_mapping(t_bytes32,t_struct(RoleData)34_storage)": {
        "encoding": "mapping",
        "key": "t_bytes32",
        "label": "mapping(bytes32 => struct AccessControlUpgradeable.RoleData)",
        "numberOfBytes": "32",
        "value": "t_struct(RoleData)34_storage"
      },
      "t_struct(RoleData)34_storage": {
        "encoding": "inplace",
        "label": "struct AccessControlUpgradeable.RoleData",
        "members": [
          {
            "astId": 31,
            "contract": "contracts/core/IgnitionFactory.sol:IgnitionFactory",
            "label": "members",
            "offset": 0,
            "slot": "0",
            "type": "t_mapping(t_address,t_bool)"
          },
          {
            "astId": 33,
            "contract": "contracts/core/IgnitionFactory.sol:IgnitionFactory",
            "label": "adminRole",
            "offset": 0,
            "slot": "1",
            "type": "t_bytes32"
          }
        ],
        "numberOfBytes": "64"
      },
      "t_uint256": {
        "encoding": "inplace",
        "label": "uint256",
        "numberOfBytes": "32"
      },
      "t_uint8": {
        "encoding": "inplace",
        "label": "uint8",
        "numberOfBytes": "1"
      }
    }
  }
}