{
  "address": "0x385F49573434743e883e511a071870466fDa5772",
  "abi": [
    {
      "inputs": [],
      "name": "PERCENTAGE_DENOMINATOR",
      "outputs": [
        {
          "internalType": "uint16",
          "name": "",
          "type": "uint16"
        }
      ],
      "stateMutability": "view",
      "type": "function"
    },
    {
      "inputs": [
        {
          "internalType": "uint256",
          "name": "_purchaseAmount",
          "type": "uint256"
        },
        {
          "internalType": "uint256",
          "name": "_participationFeePercentage",
          "type": "uint256"
        }
      ],
      "name": "calculateParticipantFee",
      "outputs": [
        {
          "internalType": "uint256",
          "name": "",
          "type": "uint256"
        }
      ],
      "stateMutability": "pure",
      "type": "function"
    },
    {
      "inputs": [
        {
          "internalType": "address[2]",
          "name": "addrs",
          "type": "address[2]"
        },
        {
          "internalType": "uint256[18]",
          "name": "uints",
          "type": "uint256[18]"
        }
      ],
      "name": "verifyPoolInfo",
      "outputs": [],
      "stateMutability": "pure",
      "type": "function"
    }
  ],
  "transactionHash": "0xc43b282cc842a08590ef89079e930676a5420ec83d8745f9e07733ec12d97e0c",
  "args": [],
  "numDeployments": 1,
  "solcInputHash": "94df6ef0d2a881ca017979b5683c5927",
  "bytecode": "0x61046c61003a600b82828239805160001a60731461002d57634e487b7160e01b600052600060045260246000fd5b30600052607381538281f3fe730000000000000000000000000000000000000000301460806040526004361061004b5760003560e01c8063a775594214610050578063b3cd425414610076578063b95f0a6314610092575b600080fd5b61006361005e366004610241565b6100a7565b6040519081526020015b60405180910390f35b61007f61271081565b60405161ffff909116815260200161006d565b6100a56100a03660046102cc565b6100d6565b005b6000816100b6575060006100d0565b6127106100c38385610392565b6100cd91906103bf565b90505b92915050565b60208201516100e4906101cc565b604080820151815180830190925260018252603560f81b6020830152612710101561012b5760405162461bcd60e51b815260040161012291906103e1565b60405180910390fd5b5061013d8160055b602002015161020b565b60a08101516040805180820190915260018152603760f81b6020820152906127101161017c5760405162461bcd60e51b815260040161012291906103e1565b5060c08101516040805180820190915260018152600760fb1b602082015290612710116101bc5760405162461bcd60e51b815260040161012291906103e1565b506101c8816007610133565b5050565b6040805180820190915260018152600d60fa1b60208201526001600160a01b0382166101c85760405162461bcd60e51b815260040161012291906103e1565b6040805180820190915260018152603360f81b6020820152816101c85760405162461bcd60e51b815260040161012291906103e1565b6000806040838503121561025457600080fd5b50508035926020909101359150565b6040805190810167ffffffffffffffff8111828210171561029457634e487b7160e01b600052604160045260246000fd5b60405290565b604051610240810167ffffffffffffffff8111828210171561029457634e487b7160e01b600052604160045260246000fd5b6000806102808084860312156102e157600080fd5b84601f8501126102f057600080fd5b6102f8610263565b80604086018781111561030a57600080fd5b865b8181101561033a5780356001600160a01b038116811461032c5760008081fd5b84526020938401930161030c565b5081955087605f88011261034d57600080fd5b61035561029a565b9387019392508291508784111561036b57600080fd5b5b8381101561038457803583526020928301920161036c565b508093505050509250929050565b60008160001904831182151516156103ba57634e487b7160e01b600052601160045260246000fd5b500290565b6000826103dc57634e487b7160e01b600052601260045260246000fd5b500490565b600060208083528351808285015260005b8181101561040e578581018301518582016040015282016103f2565b81811115610420576000604083870101525b50601f01601f191692909201604001939250505056fea26469706673582212203d7cb00b5232b8c4e9616e9a44d9eba74332e20299d85680ce22951d5717a49f64736f6c634300080a0033",
  "devdoc": {
    "kind": "dev",
    "methods": {
      "calculateParticipantFee(uint256,uint256)": {
        "details": "Calculate fee when investor buy token",
        "params": {
          "_participationFeePercentage": "Fee percentage when buying token",
          "_purchaseAmount": "Purchase amount of investor"
        },
        "returns": {
          "_0": "Return amount of fee when investor buy token"
        }
      },
      "verifyPoolInfo(address[2],uint256[18])": {
        "details": "verify information of pool",
        "params": {
          "addrs": "Array of address includes: - address of IDO token, - address of purchase token",
          "uints": "Array of pool information includes: - max purchase amount for KYC user, - max purchase amount for Not KYC user, - token fee percentage, - galaxy participation fee percentage, - crowdfunding participation fee percentage, - galaxy pool proportion, - early access proportion, - total raise amount, - whale open time, - whale duration, - community duration, - rate of IDO token (based on README formula), - decimal of IDO token (based on README formula, is different from decimals in contract of IDO token), - TGE date, - TGE percentage, - vesting cliff, - vesting frequency, - number of vesting release"
        }
      }
    },
    "stateVariables": {
      "PERCENTAGE_DENOMINATOR": {
        "details": "Percentage denominator"
      }
    },
    "version": 1
  },
  "userdoc": {
    "kind": "user",
    "methods": {},
    "version": 1
  },
  "storageLayout": {
    "storage": [],
    "types": null
  }
}