{
  "address": "0xaBefC6e201617C19108d4F5bdbB87d3B7e93c913",
  "abi": [
    {
      "inputs": [
        {
          "internalType": "bool",
          "name": "presentStatus",
          "type": "bool"
        }
      ],
      "name": "AlreadySetClaimableTGE",
      "type": "error"
    },
    {
      "inputs": [],
      "name": "ClaimExceedMaxTGEAmount",
      "type": "error"
    },
    {
      "inputs": [
        {
          "internalType": "address",
          "name": "buyer",
          "type": "address"
        },
        {
          "internalType": "uint256",
          "name": "purchaseAmount",
          "type": "uint256"
        }
      ],
      "name": "ExceedMaxPurchaseAmountForEarlyAccess",
      "type": "error"
    },
    {
      "inputs": [
        {
          "internalType": "address",
          "name": "buyer",
          "type": "address"
        },
        {
          "internalType": "uint256",
          "name": "purchaseAmount",
          "type": "uint256"
        }
      ],
      "name": "ExceedMaxPurchaseAmountForGalaxyPool",
      "type": "error"
    },
    {
      "inputs": [
        {
          "internalType": "address",
          "name": "buyer",
          "type": "address"
        },
        {
          "internalType": "uint256",
          "name": "purchaseAmount",
          "type": "uint256"
        }
      ],
      "name": "ExceedMaxPurchaseAmountForKYCUser",
      "type": "error"
    },
    {
      "inputs": [
        {
          "internalType": "address",
          "name": "buyer",
          "type": "address"
        },
        {
          "internalType": "uint256",
          "name": "purchaseAmount",
          "type": "uint256"
        }
      ],
      "name": "ExceedMaxPurchaseAmountForNotKYCUser",
      "type": "error"
    },
    {
      "inputs": [],
      "name": "ExceedMaxPurchaseAmountForUser",
      "type": "error"
    },
    {
      "inputs": [
        {
          "internalType": "address",
          "name": "buyer",
          "type": "address"
        },
        {
          "internalType": "uint256",
          "name": "purchaseAmount",
          "type": "uint256"
        }
      ],
      "name": "ExceedTotalRaiseAmount",
      "type": "error"
    },
    {
      "inputs": [],
      "name": "NotAdmin",
      "type": "error"
    },
    {
      "inputs": [],
      "name": "NotAllowedToClaimTGEIDOAmount",
      "type": "error"
    },
    {
      "inputs": [
        {
          "internalType": "address",
          "name": "buyer",
          "type": "address"
        },
        {
          "internalType": "address",
          "name": "purchaseToken",
          "type": "address"
        },
        {
          "internalType": "uint256",
          "name": "allowance",
          "type": "uint256"
        },
        {
          "internalType": "uint256",
          "name": "amount",
          "type": "uint256"
        }
      ],
      "name": "NotEnoughAllowance",
      "type": "error"
    },
    {
      "inputs": [],
      "name": "NotEnoughConditionToRedeemIDOToken",
      "type": "error"
    },
    {
      "inputs": [],
      "name": "NotEnoughConditionToRedeemPurchaseToken",
      "type": "error"
    },
    {
      "inputs": [
        {
          "internalType": "address",
          "name": "buyer",
          "type": "address"
        }
      ],
      "name": "NotInWhaleList",
      "type": "error"
    },
    {
      "inputs": [],
      "name": "NotValidSignature",
      "type": "error"
    },
    {
      "inputs": [],
      "name": "NotYetTimeToClaimTGE",
      "type": "error"
    },
    {
      "inputs": [
        {
          "internalType": "uint256",
          "name": "whaleOpenTime",
          "type": "uint256"
        },
        {
          "internalType": "uint256",
          "name": "whaleDuration",
          "type": "uint256"
        },
        {
          "internalType": "uint256",
          "name": "communityOpenTime",
          "type": "uint256"
        },
        {
          "internalType": "uint256",
          "name": "communityDuration",
          "type": "uint256"
        },
        {
          "internalType": "uint256",
          "name": "timestamp",
          "type": "uint256"
        },
        {
          "internalType": "address",
          "name": "buyer",
          "type": "address"
        }
      ],
      "name": "TimeOutToBuyToken",
      "type": "error"
    },
    {
      "inputs": [],
      "name": "TimeOutToSetPoolStatus",
      "type": "error"
    },
    {
      "inputs": [],
      "name": "ZeroAddress",
      "type": "error"
    },
    {
      "inputs": [],
      "name": "ZeroAmount",
      "type": "error"
    },
    {
      "anonymous": false,
      "inputs": [
        {
          "indexed": true,
          "internalType": "address",
          "name": "buyer",
          "type": "address"
        },
        {
          "indexed": true,
          "internalType": "address",
          "name": "pool",
          "type": "address"
        },
        {
          "indexed": true,
          "internalType": "address",
          "name": "IDOToken",
          "type": "address"
        },
        {
          "indexed": false,
          "internalType": "uint256",
          "name": "purchaseAmount",
          "type": "uint256"
        }
      ],
      "name": "BuyToken",
      "type": "event"
    },
    {
      "anonymous": false,
      "inputs": [
        {
          "indexed": false,
          "internalType": "address",
          "name": "buyer",
          "type": "address"
        },
        {
          "indexed": false,
          "internalType": "uint256",
          "name": "claimAmount",
          "type": "uint256"
        }
      ],
      "name": "ClaimTGEAmount",
      "type": "event"
    },
    {
      "anonymous": false,
      "inputs": [
        {
          "indexed": false,
          "internalType": "uint64",
          "name": "_durationDelta",
          "type": "uint64"
        }
      ],
      "name": "ExtendCommunityTime",
      "type": "event"
    },
    {
      "anonymous": false,
      "inputs": [
        {
          "indexed": false,
          "internalType": "uint64",
          "name": "_durationDelta",
          "type": "uint64"
        }
      ],
      "name": "ExtendWhaleTime",
      "type": "event"
    },
    {
      "anonymous": false,
      "inputs": [
        {
          "indexed": false,
          "internalType": "uint8",
          "name": "version",
          "type": "uint8"
        }
      ],
      "name": "Initialized",
      "type": "event"
    },
    {
      "anonymous": false,
      "inputs": [
        {
          "indexed": false,
          "internalType": "address",
          "name": "account",
          "type": "address"
        }
      ],
      "name": "Paused",
      "type": "event"
    },
    {
      "anonymous": false,
      "inputs": [
        {
          "indexed": false,
          "internalType": "address",
          "name": "IDOToken",
          "type": "address"
        },
        {
          "indexed": false,
          "internalType": "address",
          "name": "purchaseToken",
          "type": "address"
        },
        {
          "indexed": false,
          "internalType": "uint256",
          "name": "rate",
          "type": "uint256"
        },
        {
          "indexed": false,
          "internalType": "uint256",
          "name": "decimal",
          "type": "uint256"
        },
        {
          "indexed": false,
          "internalType": "uint256",
          "name": "maxPurchaseAmountForKYCUser",
          "type": "uint256"
        },
        {
          "indexed": false,
          "internalType": "uint256",
          "name": "maxPurchaseAmountForNotKYCUser",
          "type": "uint256"
        },
        {
          "indexed": false,
          "internalType": "uint16",
          "name": "participationFeePercentage",
          "type": "uint16"
        },
        {
          "indexed": false,
          "internalType": "uint16",
          "name": "galaxyPoolProportion",
          "type": "uint16"
        },
        {
          "indexed": false,
          "internalType": "uint16",
          "name": "earlyAccessProportion",
          "type": "uint16"
        },
        {
          "indexed": false,
          "internalType": "uint256",
          "name": "totalRaiseAmount",
          "type": "uint256"
        },
        {
          "indexed": false,
          "internalType": "uint64",
          "name": "whaleOpenTime",
          "type": "uint64"
        },
        {
          "indexed": false,
          "internalType": "uint64",
          "name": "whaleDuration",
          "type": "uint64"
        },
        {
          "indexed": false,
          "internalType": "uint64",
          "name": "communityDuration",
          "type": "uint64"
        }
      ],
      "name": "PoolCreated",
      "type": "event"
    },
    {
      "anonymous": false,
      "inputs": [
        {
          "indexed": false,
          "internalType": "address",
          "name": "redeemIDOTokenRecipient",
          "type": "address"
        },
        {
          "indexed": false,
          "internalType": "address",
          "name": "IDOToken",
          "type": "address"
        },
        {
          "indexed": false,
          "internalType": "uint256",
          "name": "remainAmount",
          "type": "uint256"
        }
      ],
      "name": "RedeemIDOToken",
      "type": "event"
    },
    {
      "anonymous": false,
      "inputs": [
        {
          "indexed": false,
          "internalType": "address",
          "name": "redeemPurchaseTokenRecipient",
          "type": "address"
        },
        {
          "indexed": false,
          "internalType": "address",
          "name": "purchaseToken",
          "type": "address"
        },
        {
          "indexed": false,
          "internalType": "uint256",
          "name": "purchaseAmount",
          "type": "uint256"
        }
      ],
      "name": "RedeemPurchaseToken",
      "type": "event"
    },
    {
      "anonymous": false,
      "inputs": [
        {
          "indexed": true,
          "internalType": "bytes32",
          "name": "role",
          "type": "bytes32"
        },
        {
          "indexed": true,
          "internalType": "bytes32",
          "name": "previousAdminRole",
          "type": "bytes32"
        },
        {
          "indexed": true,
          "internalType": "bytes32",
          "name": "newAdminRole",
          "type": "bytes32"
        }
      ],
      "name": "RoleAdminChanged",
      "type": "event"
    },
    {
      "anonymous": false,
      "inputs": [
        {
          "indexed": true,
          "internalType": "bytes32",
          "name": "role",
          "type": "bytes32"
        },
        {
          "indexed": true,
          "internalType": "address",
          "name": "account",
          "type": "address"
        },
        {
          "indexed": true,
          "internalType": "address",
          "name": "sender",
          "type": "address"
        }
      ],
      "name": "RoleGranted",
      "type": "event"
    },
    {
      "anonymous": false,
      "inputs": [
        {
          "indexed": true,
          "internalType": "bytes32",
          "name": "role",
          "type": "bytes32"
        },
        {
          "indexed": true,
          "internalType": "address",
          "name": "account",
          "type": "address"
        },
        {
          "indexed": true,
          "internalType": "address",
          "name": "sender",
          "type": "address"
        }
      ],
      "name": "RoleRevoked",
      "type": "event"
    },
    {
      "anonymous": false,
      "inputs": [
        {
          "indexed": false,
          "internalType": "address",
          "name": "IDOToken",
          "type": "address"
        }
      ],
      "name": "SetIDOTokenAddress",
      "type": "event"
    },
    {
      "anonymous": false,
      "inputs": [
        {
          "indexed": false,
          "internalType": "bool",
          "name": "claimable",
          "type": "bool"
        }
      ],
      "name": "SetTGEClaimable",
      "type": "event"
    },
    {
      "anonymous": false,
      "inputs": [
        {
          "indexed": false,
          "internalType": "address",
          "name": "account",
          "type": "address"
        }
      ],
      "name": "Unpaused",
      "type": "event"
    },
    {
      "anonymous": false,
      "inputs": [
        {
          "indexed": true,
          "internalType": "address",
          "name": "feeRecipient",
          "type": "address"
        }
      ],
      "name": "UpdateFeeRecipient",
      "type": "event"
    },
    {
      "anonymous": false,
      "inputs": [
        {
          "indexed": false,
          "internalType": "uint256",
          "name": "_rate",
          "type": "uint256"
        },
        {
          "indexed": false,
          "internalType": "uint256",
          "name": "_decimal",
          "type": "uint256"
        }
      ],
      "name": "UpdateOfferedCurrencyRateAndDecimal",
      "type": "event"
    },
    {
      "anonymous": false,
      "inputs": [
        {
          "indexed": true,
          "internalType": "address",
          "name": "pool",
          "type": "address"
        },
        {
          "indexed": false,
          "internalType": "bool",
          "name": "status",
          "type": "bool"
        }
      ],
      "name": "UpdateOpenPoolStatus",
      "type": "event"
    },
    {
      "anonymous": false,
      "inputs": [
        {
          "indexed": false,
          "internalType": "bytes32",
          "name": "root",
          "type": "bytes32"
        }
      ],
      "name": "UpdateRoot",
      "type": "event"
    },
    {
      "inputs": [],
      "name": "DEFAULT_ADMIN_ROLE",
      "outputs": [
        {
          "internalType": "bytes32",
          "name": "",
          "type": "bytes32"
        }
      ],
      "stateMutability": "view",
      "type": "function"
    },
    {
      "inputs": [],
      "name": "IDOToken",
      "outputs": [
        {
          "internalType": "contract IERC20",
          "name": "",
          "type": "address"
        }
      ],
      "stateMutability": "view",
      "type": "function"
    },
    {
      "inputs": [],
      "name": "NORMAL_USER",
      "outputs": [
        {
          "internalType": "bytes32",
          "name": "",
          "type": "bytes32"
        }
      ],
      "stateMutability": "view",
      "type": "function"
    },
    {
      "inputs": [],
      "name": "PERCENTAGE_DENOMINATOR",
      "outputs": [
        {
          "internalType": "uint16",
          "name": "",
          "type": "uint16"
        }
      ],
      "stateMutability": "view",
      "type": "function"
    },
    {
      "inputs": [],
      "name": "TGEClaimable",
      "outputs": [
        {
          "internalType": "bool",
          "name": "",
          "type": "bool"
        }
      ],
      "stateMutability": "view",
      "type": "function"
    },
    {
      "inputs": [],
      "name": "TGEDate",
      "outputs": [
        {
          "internalType": "uint64",
          "name": "",
          "type": "uint64"
        }
      ],
      "stateMutability": "view",
      "type": "function"
    },
    {
      "inputs": [],
      "name": "TGEPercentage",
      "outputs": [
        {
          "internalType": "uint16",
          "name": "",
          "type": "uint16"
        }
      ],
      "stateMutability": "view",
      "type": "function"
    },
    {
      "inputs": [],
      "name": "WHALE",
      "outputs": [
        {
          "internalType": "bytes32",
          "name": "",
          "type": "bytes32"
        }
      ],
      "stateMutability": "view",
      "type": "function"
    },
    {
      "inputs": [
        {
          "internalType": "bytes32[]",
          "name": "proof",
          "type": "bytes32[]"
        },
        {
          "internalType": "uint256",
          "name": "_purchaseAmount",
          "type": "uint256"
        }
      ],
      "name": "buyTokenInCrowdfundingPool",
      "outputs": [],
      "stateMutability": "nonpayable",
      "type": "function"
    },
    {
      "inputs": [
        {
          "internalType": "bytes32[]",
          "name": "proof",
          "type": "bytes32[]"
        },
        {
          "internalType": "uint256",
          "name": "_purchaseAmount",
          "type": "uint256"
        },
        {
          "internalType": "uint256",
          "name": "_allowance",
          "type": "uint256"
        },
        {
          "internalType": "uint256",
          "name": "_deadline",
          "type": "uint256"
        },
        {
          "internalType": "bytes",
          "name": "_signature",
          "type": "bytes"
        }
      ],
      "name": "buyTokenInCrowdfundingPoolWithPermit",
      "outputs": [],
      "stateMutability": "nonpayable",
      "type": "function"
    },
    {
      "inputs": [
        {
          "internalType": "bytes32[]",
          "name": "proof",
          "type": "bytes32[]"
        },
        {
          "internalType": "uint256",
          "name": "_purchaseAmount",
          "type": "uint256"
        },
        {
          "internalType": "uint256",
          "name": "_maxPurchaseBaseOnAllocations",
          "type": "uint256"
        }
      ],
      "name": "buyTokenInGalaxyPool",
      "outputs": [],
      "stateMutability": "nonpayable",
      "type": "function"
    },
    {
      "inputs": [
        {
          "internalType": "bytes32[]",
          "name": "proof",
          "type": "bytes32[]"
        },
        {
          "internalType": "uint256",
          "name": "_purchaseAmount",
          "type": "uint256"
        },
        {
          "internalType": "uint256",
          "name": "_maxPurchaseBaseOnAllocations",
          "type": "uint256"
        },
        {
          "internalType": "uint256",
          "name": "_deadline",
          "type": "uint256"
        },
        {
          "internalType": "bytes",
          "name": "_signature",
          "type": "bytes"
        }
      ],
      "name": "buyTokenInGalaxyPoolWithPermit",
      "outputs": [],
      "stateMutability": "nonpayable",
      "type": "function"
    },
    {
      "inputs": [
        {
          "internalType": "uint256",
          "name": "_IDOClaimAmount",
          "type": "uint256"
        }
      ],
      "name": "claimTGEIDOToken",
      "outputs": [],
      "stateMutability": "nonpayable",
      "type": "function"
    },
    {
      "inputs": [],
      "name": "closePool",
      "outputs": [],
      "stateMutability": "nonpayable",
      "type": "function"
    },
    {
      "inputs": [],
      "name": "communityDuration",
      "outputs": [
        {
          "internalType": "uint64",
          "name": "",
          "type": "uint64"
        }
      ],
      "stateMutability": "view",
      "type": "function"
    },
    {
      "inputs": [],
      "name": "communityOpenTime",
      "outputs": [
        {
          "internalType": "uint64",
          "name": "",
          "type": "uint64"
        }
      ],
      "stateMutability": "view",
      "type": "function"
    },
    {
      "inputs": [],
      "name": "earlyAccessProportion",
      "outputs": [
        {
          "internalType": "uint16",
          "name": "",
          "type": "uint16"
        }
      ],
      "stateMutability": "view",
      "type": "function"
    },
    {
      "inputs": [
        {
          "internalType": "uint64",
          "name": "_durationDelta",
          "type": "uint64"
        }
      ],
      "name": "extendCommunityTime",
      "outputs": [],
      "stateMutability": "nonpayable",
      "type": "function"
    },
    {
      "inputs": [
        {
          "internalType": "uint64",
          "name": "_durationDelta",
          "type": "uint64"
        }
      ],
      "name": "extendWhaleTime",
      "outputs": [],
      "stateMutability": "nonpayable",
      "type": "function"
    },
    {
      "inputs": [],
      "name": "galaxyPoolProportion",
      "outputs": [
        {
          "internalType": "uint16",
          "name": "",
          "type": "uint16"
        }
      ],
      "stateMutability": "view",
      "type": "function"
    },
    {
      "inputs": [
        {
          "internalType": "bytes32",
          "name": "role",
          "type": "bytes32"
        }
      ],
      "name": "getRoleAdmin",
      "outputs": [
        {
          "internalType": "bytes32",
          "name": "",
          "type": "bytes32"
        }
      ],
      "stateMutability": "view",
      "type": "function"
    },
    {
      "inputs": [
        {
          "internalType": "bytes32",
          "name": "role",
          "type": "bytes32"
        },
        {
          "internalType": "address",
          "name": "account",
          "type": "address"
        }
      ],
      "name": "grantRole",
      "outputs": [],
      "stateMutability": "nonpayable",
      "type": "function"
    },
    {
      "inputs": [
        {
          "internalType": "bytes32",
          "name": "role",
          "type": "bytes32"
        },
        {
          "internalType": "address",
          "name": "account",
          "type": "address"
        }
      ],
      "name": "hasRole",
      "outputs": [
        {
          "internalType": "bool",
          "name": "",
          "type": "bool"
        }
      ],
      "stateMutability": "view",
      "type": "function"
    },
    {
      "inputs": [
        {
          "internalType": "address[2]",
          "name": "addrs",
          "type": "address[2]"
        },
        {
          "internalType": "uint256[13]",
          "name": "uints",
          "type": "uint256[13]"
        }
      ],
      "name": "initialize",
      "outputs": [],
      "stateMutability": "nonpayable",
      "type": "function"
    },
    {
      "inputs": [],
      "name": "maxPurchaseAmountForEarlyAccess",
      "outputs": [
        {
          "internalType": "uint256",
          "name": "",
          "type": "uint256"
        }
      ],
      "stateMutability": "view",
      "type": "function"
    },
    {
      "inputs": [],
      "name": "maxPurchaseAmountForGalaxyPool",
      "outputs": [
        {
          "internalType": "uint256",
          "name": "",
          "type": "uint256"
        }
      ],
      "stateMutability": "view",
      "type": "function"
    },
    {
      "inputs": [],
      "name": "maxPurchaseAmountForKYCUser",
      "outputs": [
        {
          "internalType": "uint256",
          "name": "",
          "type": "uint256"
        }
      ],
      "stateMutability": "view",
      "type": "function"
    },
    {
      "inputs": [],
      "name": "maxPurchaseAmountForNotKYCUser",
      "outputs": [
        {
          "internalType": "uint256",
          "name": "",
          "type": "uint256"
        }
      ],
      "stateMutability": "view",
      "type": "function"
    },
    {
      "inputs": [],
      "name": "offeredCurrency",
      "outputs": [
        {
          "internalType": "uint256",
          "name": "rate",
          "type": "uint256"
        },
        {
          "internalType": "uint256",
          "name": "decimal",
          "type": "uint256"
        }
      ],
      "stateMutability": "view",
      "type": "function"
    },
    {
      "inputs": [],
      "name": "participationFeePercentage",
      "outputs": [
        {
          "internalType": "uint16",
          "name": "",
          "type": "uint16"
        }
      ],
      "stateMutability": "view",
      "type": "function"
    },
    {
      "inputs": [],
      "name": "paused",
      "outputs": [
        {
          "internalType": "bool",
          "name": "",
          "type": "bool"
        }
      ],
      "stateMutability": "view",
      "type": "function"
    },
    {
      "inputs": [],
      "name": "poolFactory",
      "outputs": [
        {
          "internalType": "contract IPoolFactory",
          "name": "",
          "type": "address"
        }
      ],
      "stateMutability": "view",
      "type": "function"
    },
    {
      "inputs": [],
      "name": "purchaseToken",
      "outputs": [
        {
          "internalType": "contract IERC20",
          "name": "",
          "type": "address"
        }
      ],
      "stateMutability": "view",
      "type": "function"
    },
    {
      "inputs": [],
      "name": "purchasedAmount",
      "outputs": [
        {
          "internalType": "uint256",
          "name": "",
          "type": "uint256"
        }
      ],
      "stateMutability": "view",
      "type": "function"
    },
    {
      "inputs": [],
      "name": "purchasedAmountInEarlyAccess",
      "outputs": [
        {
          "internalType": "uint256",
          "name": "",
          "type": "uint256"
        }
      ],
      "stateMutability": "view",
      "type": "function"
    },
    {
      "inputs": [],
      "name": "purchasedAmountInGalaxyPool",
      "outputs": [
        {
          "internalType": "uint256",
          "name": "",
          "type": "uint256"
        }
      ],
      "stateMutability": "view",
      "type": "function"
    },
    {
      "inputs": [
        {
          "internalType": "address",
          "name": "_redeemIDOTokenRecipient",
          "type": "address"
        }
      ],
      "name": "redeemIDOToken",
      "outputs": [],
      "stateMutability": "nonpayable",
      "type": "function"
    },
    {
      "inputs": [
        {
          "internalType": "address",
          "name": "_redeemPurchaseTokenRecipient",
          "type": "address"
        }
      ],
      "name": "redeemPurchaseToken",
      "outputs": [],
      "stateMutability": "nonpayable",
      "type": "function"
    },
    {
      "inputs": [
        {
          "internalType": "bytes32",
          "name": "role",
          "type": "bytes32"
        },
        {
          "internalType": "address",
          "name": "account",
          "type": "address"
        }
      ],
      "name": "renounceRole",
      "outputs": [],
      "stateMutability": "nonpayable",
      "type": "function"
    },
    {
      "inputs": [
        {
          "internalType": "bytes32",
          "name": "role",
          "type": "bytes32"
        },
        {
          "internalType": "address",
          "name": "account",
          "type": "address"
        }
      ],
      "name": "revokeRole",
      "outputs": [],
      "stateMutability": "nonpayable",
      "type": "function"
    },
    {
      "inputs": [],
      "name": "root",
      "outputs": [
        {
          "internalType": "bytes32",
          "name": "",
          "type": "bytes32"
        }
      ],
      "stateMutability": "view",
      "type": "function"
    },
    {
      "inputs": [
        {
          "internalType": "bool",
          "name": "_TGEClaimableStatus",
          "type": "bool"
        }
      ],
      "name": "setClaimableTGEIDOToken",
      "outputs": [],
      "stateMutability": "nonpayable",
      "type": "function"
    },
    {
      "inputs": [
        {
          "internalType": "bytes32",
          "name": "_root",
          "type": "bytes32"
        }
      ],
      "name": "setRoot",
      "outputs": [],
      "stateMutability": "nonpayable",
      "type": "function"
    },
    {
      "inputs": [
        {
          "internalType": "bytes4",
          "name": "interfaceId",
          "type": "bytes4"
        }
      ],
      "name": "supportsInterface",
      "outputs": [
        {
          "internalType": "bool",
          "name": "",
          "type": "bool"
        }
      ],
      "stateMutability": "view",
      "type": "function"
    },
    {
      "inputs": [],
      "name": "totalRaiseAmount",
      "outputs": [
        {
          "internalType": "uint256",
          "name": "",
          "type": "uint256"
        }
      ],
      "stateMutability": "view",
      "type": "function"
    },
    {
      "inputs": [
        {
          "internalType": "address",
          "name": "",
          "type": "address"
        }
      ],
      "name": "userIDOAirdropAmount",
      "outputs": [
        {
          "internalType": "uint256",
          "name": "",
          "type": "uint256"
        }
      ],
      "stateMutability": "view",
      "type": "function"
    },
    {
      "inputs": [
        {
          "internalType": "address",
          "name": "",
          "type": "address"
        }
      ],
      "name": "userIDOTGEAmount",
      "outputs": [
        {
          "internalType": "uint256",
          "name": "",
          "type": "uint256"
        }
      ],
      "stateMutability": "view",
      "type": "function"
    },
    {
      "inputs": [
        {
          "internalType": "address",
          "name": "",
          "type": "address"
        }
      ],
      "name": "userPurchasedAmount",
      "outputs": [
        {
          "internalType": "uint256",
          "name": "",
          "type": "uint256"
        }
      ],
      "stateMutability": "view",
      "type": "function"
    },
    {
      "inputs": [],
      "name": "whaleDuration",
      "outputs": [
        {
          "internalType": "uint64",
          "name": "",
          "type": "uint64"
        }
      ],
      "stateMutability": "view",
      "type": "function"
    },
    {
      "inputs": [],
      "name": "whaleOpenTime",
      "outputs": [
        {
          "internalType": "uint64",
          "name": "",
          "type": "uint64"
        }
      ],
      "stateMutability": "view",
      "type": "function"
    }
  ],
  "transactionHash": "0x72098bfa80454ea704f04a5e91e1eb83e9873591b9f5634b537b353dfd0b18fc",
  "args": [],
  "numDeployments": 1,
  "solcInputHash": "c4e101c15775fb318b64cb38bf65be7c",
  "bytecode": "0x608060405234801561001057600080fd5b506000805460ff19169055600180556131398061002e6000396000f3fe608060405234801561001057600080fd5b50600436106102b65760003560e01c806385f8f4be11610172578063b4582276116100d9578063dab5f34011610092578063dab5f34014610647578063e40ff5251461065a578063e5fa15fa1461066d578063e995914914610681578063ebf0c717146106a8578063efaad0ec146106b1578063f1379939146106c457600080fd5b8063b4582276146105cf578063c09d6fb9146105e4578063cb128728146105f9578063cdc5598e1461060c578063d38ae12b14610621578063d547741f1461063457600080fd5b8063a4f276c71161012b578063a4f276c71461055d578063a555b8e91461057d578063a558b65c14610590578063a95c4d62146105aa578063b3679bda146105bd578063b3cd4254146105c657600080fd5b806385f8f4be146104fe57806387e449351461050757806391d148541461051a57806397ff2f221461052d578063a09e06a114610542578063a217fddf1461055557600080fd5b80633da1d412116102215780635c975abb116101da5780635c975abb1461049957806363add7e8146104a457806366805de5146104be5780637656cb83146104c657806377292d5b146104d95780637b1a0838146104e257806381e2403b146104eb57600080fd5b80633da1d412146103e35780634219dc40146104035780634327a903146104295780634f93d1ad1461043c5780635958e7871461045f5780635c5b1f831461047957600080fd5b80632f2ff15d116102735780632f2ff15d1461034e57806330bba6c41461036157806332aff4d31461036a57806334fa224b1461037d57806336568abe146103a55780633baa6fca146103b857600080fd5b806301ffc9a7146102bb578063086425bc146102e35780631353ff75146102f85780631649da6e1461030f5780631acbc82314610322578063248a9ca31461032b575b600080fd5b6102ce6102c93660046128f7565b6106cd565b60405190151581526020015b60405180910390f35b6102f66102f1366004612a26565b610704565b005b61030160095481565b6040519081526020016102da565b6102f661031d366004612a8f565b6107fe565b61030160125481565b610301610339366004612b46565b60009081526003602052604090206001015490565b6102f661035c366004612b5f565b610c85565b610301600c5481565b6102f6610378366004612b8b565b610caa565b600d5461039290600160601b900461ffff1681565b60405161ffff90911681526020016102da565b6102f66103b3366004612b5f565b610e9b565b600f546103cb906001600160401b031681565b6040516001600160401b0390911681526020016102da565b6103016103f1366004612b8b565b60146020526000908152604090205481565b60045461041c906201000090046001600160a01b031681565b6040516102da9190612ba6565b6102f6610437366004612bc8565b610f15565b60075460085461044a919082565b604080519283526020830191909152016102da565b600f546103cb90600160c01b90046001600160401b031681565b610301610487366004612b8b565b60156020526000908152604090205481565b60005460ff166102ce565b600f546103cb90600160401b90046001600160401b031681565b6102f661104a565b6102f66104d4366004612b46565b61111c565b61030160105481565b61030160115481565b6102f66104f9366004612be5565b611218565b610301600b5481565b60055461041c906001600160a01b031681565b6102ce610528366004612b5f565b611335565b600d5461039290600160501b900461ffff1681565b6102f6610550366004612be5565b611360565b610301600081565b61030161056b366004612b8b565b60136020526000908152604090205481565b6102f661058b366004612cb8565b6114b5565b600f546103cb90600160801b90046001600160401b031681565b60065461041c906001600160a01b031681565b610301600e5481565b61039261271081565b600d5461039290600160401b900461ffff1681565b6103016000805160206130e483398151915281565b600d546103cb906001600160401b031681565b600d5461039290600160701b900461ffff1681565b6102f661062f366004612b8b565b611615565b6102f6610642366004612b5f565b6117e1565b6102f6610655366004612b46565b611806565b6102f6610668366004612cb8565b6118cd565b600d546102ce90600160801b900460ff1681565b6103017f13e31188d81b941f4c541528790db4031bef078b78d364bde6fc2d4e5ad79e0181565b61030160025481565b6102f66106bf366004612ce1565b6119e5565b610301600a5481565b60006001600160e01b03198216637965db0b60e01b14806106fe57506301ffc9a760e01b6001600160e01b03198316145b92915050565b61070c611a89565b600260015414156107385760405162461bcd60e51b815260040161072f90612d25565b60405180910390fd5b6002600155610745611ad1565b6107cb57600f546001600160401b0380821691600160401b8104821691600160801b8204811691600160c01b90041642335b6040516364daa85360e11b81526001600160401b039687166004820152948616602486015292851660448501529316606483015260848201929092526001600160a01b0390911660a482015260c40161072f565b6107d53383611b1a565b6107df8282611bd7565b6107ec8383836000611c01565b6107f582611c87565b50506001805550565b600454610100900460ff161580801561081e5750600454600160ff909116105b806108385750303b158015610838575060045460ff166001145b61089b5760405162461bcd60e51b815260206004820152602e60248201527f496e697469616c697a61626c653a20636f6e747261637420697320616c72656160448201526d191e481a5b9a5d1a585b1a5e995960921b606482015260840161072f565b6004805460ff1916600117905580156108be576004805461ff0019166101001790555b6004805462010000330262010000600160b01b03199091161790558251602080850151600580546001600160a01b039485166001600160a01b0319918216179091556006805492909416911617909155825190830151600b91909155600c556040820151606083015161093082611ca1565b600d805467ffffffffffffffff19166001600160401b039290921691909117905561095a81611d0d565b600d805461ffff92909216600160401b0261ffff60401b199092169190911790555050608082015161098b81611d0d565b600d805461ffff92909216600160501b0261ffff60501b199092169190911790555060a082015160c083015160e08401516109c583611d0d565b600d600c6101000a81548161ffff021916908361ffff1602179055506109ea82611d0d565b600d805461ffff92909216600160701b0261ffff60701b19909216919091179055600e819055612710610a1d8483612d88565b610a279190612da7565b6009556127108083610a398683612dc9565b610a439085612d88565b610a4d9190612d88565b610a579190612da7565b610a619190612da7565b600a55505050610100820151610120830151610140840151610a8283611ca1565b600f805467ffffffffffffffff19166001600160401b0392909216919091179055610aac82611ca1565b600f60086101000a8154816001600160401b0302191690836001600160401b03160217905550610adb81611ca1565b600f80546001600160401b0392909216600160c01b026001600160c01b03909216919091179055610b14610b0f8385612de0565b611ca1565b600f805467ffffffffffffffff60801b198116600160801b6001600160401b03948516029081179283905561016089810151610180808c015160078390556008819055600554600654600b54600c54600d54600e54604080516001600160a01b039788168152969095166020870152938501979097526060840194909452608083015260a0820192909252600160501b840461ffff90811660c0830152600160601b8504811660e0830152600160701b90940490931661010084015261012083015292861693861693909317610140840152600160401b8404851690830152600160c01b909204909216908201527fff88ccb1dfbd918de09a2534be0afa5c86dde65c8c50d601b6d8e6a4de4bf60893506101a0019150610c329050565b60405180910390a18015610c80576004805461ff0019169055604051600181527f7f26b83ff96e1f2b6a682f133852f6798a09c465da95921460cefb38474024989060200160405180910390a15b505050565b600082815260036020526040902060010154610ca081611d70565b610c808383611d7a565b6004546201000090046001600160a01b031663c395fcb3336040518263ffffffff1660e01b8152600401610cde9190612ba6565b602060405180830381865afa158015610cfb573d6000803e3d6000fd5b505050506040513d601f19601f82011682018060405250810190610d1f9190612df8565b610d3c57604051637bfa4b9f60e01b815260040160405180910390fd5b600554610d51906001600160a01b0316611e00565b610d5a81611e00565b60005460ff16151560011480610d9d5750600f54610d91906001600160401b03600160c01b8204811691600160801b900416612e15565b6001600160401b031642115b15610e7f576005546040516370a0823160e01b81526000916001600160a01b0316906370a0823190610dd3903090600401612ba6565b602060405180830381865afa158015610df0573d6000803e3d6000fd5b505050506040513d601f19601f82011682018060405250810190610e149190612e40565b90508015610e7b57600554610e33906001600160a01b03168383611e27565b6005546040517fb475b33e23c517ab04a59359c4593620c1fafb083636f450b501cfdc5fa7c1d191610e729185916001600160a01b0316908590612e59565b60405180910390a15b5050565b6040516320f0ba3d60e21b815260040160405180910390fd5b50565b6001600160a01b0381163314610f0b5760405162461bcd60e51b815260206004820152602f60248201527f416363657373436f6e74726f6c3a2063616e206f6e6c792072656e6f756e636560448201526e103937b632b9903337b91039b2b63360891b606482015260840161072f565b610e7b8282611e7d565b6004546201000090046001600160a01b031663c395fcb3336040518263ffffffff1660e01b8152600401610f499190612ba6565b602060405180830381865afa158015610f66573d6000803e3d6000fd5b505050506040513d601f19601f82011682018060405250810190610f8a9190612df8565b610fa757604051637bfa4b9f60e01b815260040160405180910390fd5b600554610fbc906001600160a01b0316611e00565b600d5460ff600160801b9091041615158115151415610ff2576040516338a6518f60e01b8152811515600482015260240161072f565b600d8054821515600160801b0260ff60801b199091161790556040517fccb5bfd8e614719f5c62e9ee750481317991fd8133670aa1079f1c51d255c6de9061103f90831515815260200190565b60405180910390a150565b6004546201000090046001600160a01b031663c395fcb3336040518263ffffffff1660e01b815260040161107e9190612ba6565b602060405180830381865afa15801561109b573d6000803e3d6000fd5b505050506040513d601f19601f820116820180604052508101906110bf9190612df8565b6110dc57604051637bfa4b9f60e01b815260040160405180910390fd5b6110e4611ee4565b6040516000815230907ff0d6825187080fb76e877d6e8990b1e2a60ed4f2d8ccf610e889659854577e749060200160405180910390a2565b600554611131906001600160a01b0316611e00565b600d54600160801b900460ff1661115b57604051637e5634e560e11b815260040160405180910390fd5b600d546001600160401b031642101561118757604051634f10668960e01b815260040160405180910390fd5b33600090815260156020526040902054808211156111b857604051631ee1609d60e11b815260040160405180910390fd5b33600090815260156020526040812080548492906111d7908490612dc9565b909155506111e790503383611f38565b7f5db24f7604bd2c572f0b463cd8df4de756789f84ced94dafd7f83a4bcb6716403383604051610e72929190612e7d565b611220611a89565b600260015414156112435760405162461bcd60e51b815260040161072f90612d25565b60026001556000808061125584611f4f565b60065460405163d505accf60e01b815293965091945092506001600160a01b03169063d505accf9061129790339030908c908b9088908b908b90600401612e96565b600060405180830381600087803b1580156112b157600080fd5b505af11580156112c5573d6000803e3d6000fd5b505050506112d1611ad1565b61130757600f546001600160401b0380821691600160401b8104821691600160801b8204811691600160c01b9004164233610777565b6113118787611bd7565b61131e8888886000611c01565b61132787611c87565b505060018055505050505050565b60009182526003602090815260408084206001600160a01b0393909316845291905290205460ff1690565b611368611a89565b6002600154141561138b5760405162461bcd60e51b815260040161072f90612d25565b60026001556000808061139d84611f4f565b60065460405163d505accf60e01b815293965091945092506001600160a01b03169063d505accf906113df90339030908b908b9088908b908b90600401612e96565b600060405180830381600087803b1580156113f957600080fd5b505af115801561140d573d6000803e3d6000fd5b5050505061142161141b3390565b88611b1a565b611429611ad1565b156114635761143787611f7b565b600d546114559089908990600090600160501b900461ffff16611c01565b61145e87611fb8565b611327565b61146b611fca565b15611483576114798761200f565b61145e888861204c565b600f546001600160401b0380821691600160401b8104821691600160801b8204811691600160c01b9004164233610777565b6004546201000090046001600160a01b031663c395fcb3336040518263ffffffff1660e01b81526004016114e99190612ba6565b602060405180830381865afa158015611506573d6000803e3d6000fd5b505050506040513d601f19601f8201168201806040525081019061152a9190612df8565b61154757604051637bfa4b9f60e01b815260040160405180910390fd5b80600f60088282829054906101000a90046001600160401b031661156b9190612e15565b92506101000a8154816001600160401b0302191690836001600160401b0316021790555080600f60108282829054906101000a90046001600160401b03166115b39190612e15565b92506101000a8154816001600160401b0302191690836001600160401b031602179055507f5d1c42744341ee9dde0998caff302af94454e4fb6d90457168371fb32d10da628160405161103f91906001600160401b0391909116815260200190565b6004546201000090046001600160a01b031663c395fcb3336040518263ffffffff1660e01b81526004016116499190612ba6565b602060405180830381865afa158015611666573d6000803e3d6000fd5b505050506040513d601f19601f8201168201806040525081019061168a9190612df8565b6116a757604051637bfa4b9f60e01b815260040160405180910390fd5b6116b081611e00565b60005460ff161515600114806116f35750600f546116e7906001600160401b03600160c01b8204811691600160801b900416612e15565b6001600160401b031642115b156117c8576006546040516370a0823160e01b81526000916001600160a01b0316906370a0823190611729903090600401612ba6565b602060405180830381865afa158015611746573d6000803e3d6000fd5b505050506040513d601f19601f8201168201806040525081019061176a9190612e40565b90508015610e7b57600654611789906001600160a01b03168383611e27565b6006546040517fd7be39376e98ef778d32829f2b7f11d5108fcefb6b518dcecf6b21859865fd4f91610e729185916001600160a01b0316908590612e59565b604051633586a6e960e11b815260040160405180910390fd5b6000828152600360205260409020600101546117fc81611d70565b610c808383611e7d565b6004546201000090046001600160a01b031663c395fcb3336040518263ffffffff1660e01b815260040161183a9190612ba6565b602060405180830381865afa158015611857573d6000803e3d6000fd5b505050506040513d601f19601f8201168201806040525081019061187b9190612df8565b61189857604051637bfa4b9f60e01b815260040160405180910390fd5b60028190556040518181527fc8d52687b85ab11e6859cb0b390a9e926e1b348d9796e084f88f88420c176fc69060200161103f565b6004546201000090046001600160a01b031663c395fcb3336040518263ffffffff1660e01b81526004016119019190612ba6565b602060405180830381865afa15801561191e573d6000803e3d6000fd5b505050506040513d601f19601f820116820180604052508101906119429190612df8565b61195f57604051637bfa4b9f60e01b815260040160405180910390fd5b80600f60188282829054906101000a90046001600160401b03166119839190612e15565b92506101000a8154816001600160401b0302191690836001600160401b031602179055507ff269ea75173d9ceb1fec9996700ff90147e351a413c525ee719184c7799917f38160405161103f91906001600160401b0391909116815260200190565b6119ed611a89565b60026001541415611a105760405162461bcd60e51b815260040161072f90612d25565b6002600155611a1f3382611b1a565b611a27611ad1565b15611a6157611a3581611f7b565b600d54611a539083908390600090600160501b900461ffff16611c01565b611a5c81611fb8565b611a81565b611a69611fca565b1561148357611a778161200f565b611a5c828261204c565b505060018055565b60005460ff1615611acf5760405162461bcd60e51b815260206004820152601060248201526f14185d5cd8589b194e881c185d5cd95960821b604482015260640161072f565b565b600f546000906001600160401b031642118015611b155750600f54611b08906001600160401b03600160401b820481169116612e15565b6001600160401b03164211155b905090565b600654604051636eb1769f60e11b81526001600160a01b038481166004830152306024830152600092169063dd62ed3e90604401602060405180830381865afa158015611b6b573d6000803e3d6000fd5b505050506040513d601f19601f82011682018060405250810190611b8f9190612e40565b905081811015610c80576006546040516304fee01560e31b81526001600160a01b0380861660048301529091166024820152604481018290526064810183905260840161072f565b611be0826120b8565b80821115610e7b57604051632b37c00360e11b815260040160405180910390fd5b611c1f33600b546000805160206130e48339815191529085886120d6565b15611c3657611c31338483600161213f565b611c81565b611c5433600c546000805160206130e48339815191529085886120d6565b15611c6657611c31338483600061213f565b33604051632e4f414f60e01b815260040161072f9190612ba6565b50505050565b8060106000828254611c999190612de0565b909155505050565b60006001600160401b03821115611d095760405162461bcd60e51b815260206004820152602660248201527f53616665436173743a2076616c756520646f65736e27742066697420696e203660448201526534206269747360d01b606482015260840161072f565b5090565b600061ffff821115611d095760405162461bcd60e51b815260206004820152602660248201527f53616665436173743a2076616c756520646f65736e27742066697420696e203160448201526536206269747360d01b606482015260840161072f565b610e9881336122eb565b611d848282611335565b610e7b5760008281526003602090815260408083206001600160a01b03851684529091529020805460ff19166001179055611dbc3390565b6001600160a01b0316816001600160a01b0316837f2f8788117e7eff1d82e926ec794901d17c78024a50270940304540a733656f0d60405160405180910390a45050565b6001600160a01b038116610e985760405163d92e233d60e01b815260040160405180910390fd5b610c808363a9059cbb60e01b8484604051602401611e46929190612e7d565b60408051601f198184030181529190526020810180516001600160e01b03166001600160e01b03199093169290921790915261234f565b611e878282611335565b15610e7b5760008281526003602090815260408083206001600160a01b0385168085529252808320805460ff1916905551339285917ff6391f5c32d9c69d2a47ea670b442974b53935d1edc7fd64eb21e047a839171b9190a45050565b611eec611a89565b6000805460ff191660011790557f62e78cea01bee320cd4e420270b5ea74000d11b0c9f74754ebdbfc544b05a258611f213390565b604051611f2e9190612ba6565b60405180910390a1565b600554610e7b906001600160a01b03168383611e27565b6000806000611f5d84612421565b50505060208101516040820151606090920151909260009190911a90565b611f84816120b8565b600a5481601154611f959190612de0565b1115610e985733816040516330b052c360e01b815260040161072f929190612e7d565b8060116000828254611c999190612de0565b600f54600090600160801b90046001600160401b031642118015611b155750600f54611b08906001600160401b03600160c01b8204811691600160801b900416612e15565b612018816120b8565b600e54816012546120299190612de0565b1115610e9857338160405163b17009d360e01b815260040161072f929190612e7d565b61207d33600b547f13e31188d81b941f4c541528790db4031bef078b78d364bde6fc2d4e5ad79e01906000866120d6565b1561209d57610e7b33600d548390600160501b900461ffff16600161213f565b610e7b33600d548390600160501b900461ffff16600061213f565b80610e9857604051631f2a200560e01b815260040160405180910390fd5b6040516bffffffffffffffffffffffff19606087901b16602082015260348101859052605481018490526074810183905260009081906094016040516020818303038152906040528051906020012090506121348360025483612443565b979650505050505050565b600181151514801561216c5750600b543360009081526013602052604090205461216a908590612de0565b115b1561218e573383604051631087b52160e01b815260040161072f929190612e7d565b801580156121b75750600c54336000908152601360205260409020546121b5908590612de0565b115b156121d95733836040516384e66cd160e01b815260040161072f929190612e7d565b60006121e5848461245b565b9050801561220557600654612205906001600160a01b0316863084612481565b61220f85856124a2565b6005546001600160a01b0316151580612229575060075415155b15612288576000612239856124ba565b600d549091506000906127109061225b90600160401b900461ffff1684612d88565b6122659190612da7565b905060006122738284612dc9565b90506122808782846124e2565b505050612294565b612294846000806124e2565b6005546001600160a01b031630336001600160a01b03167fb56e31baf5ee91fd07834187784fb1cbdae3cb94b95610e2a8da75a624e71eaf876040516122dc91815260200190565b60405180910390a45050505050565b6122f58282611335565b610e7b5761230d816001600160a01b0316601461256a565b61231883602061256a565b604051602001612329929190612f03565b60408051601f198184030181529082905262461bcd60e51b825261072f91600401612f72565b60006123a4826040518060400160405280602081526020017f5361666545524332303a206c6f772d6c6576656c2063616c6c206661696c6564815250856001600160a01b03166127059092919063ffffffff16565b805190915015610c8057808060200190518101906123c29190612df8565b610c805760405162461bcd60e51b815260206004820152602a60248201527f5361666545524332303a204552433230206f7065726174696f6e20646964206e6044820152691bdd081cdd58d8d9595960b21b606482015260840161072f565b8051604114610e9857604051637141605d60e11b815260040160405180910390fd5b600082612450858461271c565b1490505b9392505050565b60008161246a575060006106fe565b6127106124778385612d88565b6124549190612da7565b611c81846323b872dd60e01b858585604051602401611e4693929190612e59565b600654610e7b906001600160a01b0316833084612481565b6008546000906124cb90600a613089565b6007546124d89084612d88565b6106fe9190612da7565b82601260008282546124f49190612de0565b90915550503360009081526013602052604081208054859290612518908490612de0565b9091555050336000908152601460205260408120805484929061253c908490612de0565b90915550503360009081526015602052604081208054839290612560908490612de0565b9091555050505050565b60606000612579836002612d88565b612584906002612de0565b6001600160401b0381111561259b5761259b612921565b6040519080825280601f01601f1916602001820160405280156125c5576020820181803683370190505b509050600360fc1b816000815181106125e0576125e0612d5c565b60200101906001600160f81b031916908160001a905350600f60fb1b8160018151811061260f5761260f612d5c565b60200101906001600160f81b031916908160001a9053506000612633846002612d88565b61263e906001612de0565b90505b60018111156126b6576f181899199a1a9b1b9c1cb0b131b232b360811b85600f166010811061267257612672612d5c565b1a60f81b82828151811061268857612688612d5c565b60200101906001600160f81b031916908160001a90535060049490941c936126af81613095565b9050612641565b5083156124545760405162461bcd60e51b815260206004820181905260248201527f537472696e67733a20686578206c656e67746820696e73756666696369656e74604482015260640161072f565b60606127148484600085612769565b949350505050565b600081815b84518110156127615761274d8286838151811061274057612740612d5c565b602002602001015161288f565b915080612759816130ac565b915050612721565b509392505050565b6060824710156127ca5760405162461bcd60e51b815260206004820152602660248201527f416464726573733a20696e73756666696369656e742062616c616e636520666f6044820152651c8818d85b1b60d21b606482015260840161072f565b6001600160a01b0385163b6128215760405162461bcd60e51b815260206004820152601d60248201527f416464726573733a2063616c6c20746f206e6f6e2d636f6e7472616374000000604482015260640161072f565b600080866001600160a01b0316858760405161283d91906130c7565b60006040518083038185875af1925050503d806000811461287a576040519150601f19603f3d011682016040523d82523d6000602084013e61287f565b606091505b50915091506121348282866128be565b60008183106128ab576000828152602084905260409020612454565b6000838152602083905260409020612454565b606083156128cd575081612454565b8251156128dd5782518084602001fd5b8160405162461bcd60e51b815260040161072f9190612f72565b60006020828403121561290957600080fd5b81356001600160e01b03198116811461245457600080fd5b634e487b7160e01b600052604160045260246000fd5b604080519081016001600160401b038111828210171561295957612959612921565b60405290565b6040516101a081016001600160401b038111828210171561295957612959612921565b604051601f8201601f191681016001600160401b03811182821017156129aa576129aa612921565b604052919050565b600082601f8301126129c357600080fd5b813560206001600160401b038211156129de576129de612921565b8160051b6129ed828201612982565b9283528481018201928281019087851115612a0757600080fd5b83870192505b8483101561213457823582529183019190830190612a0d565b600080600060608486031215612a3b57600080fd5b83356001600160401b03811115612a5157600080fd5b612a5d868287016129b2565b9660208601359650604090950135949350505050565b80356001600160a01b0381168114612a8a57600080fd5b919050565b6000806101e0808486031215612aa457600080fd5b84601f850112612ab357600080fd5b612abb612937565b806040860187811115612acd57600080fd5b865b81811015612aee57612ae081612a73565b845260209384019301612acf565b5081955087605f880112612b0157600080fd5b612b0961295f565b93870193925082915087841115612b1f57600080fd5b5b83811015612b38578035835260209283019201612b20565b508093505050509250929050565b600060208284031215612b5857600080fd5b5035919050565b60008060408385031215612b7257600080fd5b82359150612b8260208401612a73565b90509250929050565b600060208284031215612b9d57600080fd5b61245482612a73565b6001600160a01b0391909116815260200190565b8015158114610e9857600080fd5b600060208284031215612bda57600080fd5b813561245481612bba565b600080600080600060a08688031215612bfd57600080fd5b85356001600160401b0380821115612c1457600080fd5b612c2089838a016129b2565b9650602091508188013595506040880135945060608801359350608088013581811115612c4c57600080fd5b8801601f81018a13612c5d57600080fd5b803582811115612c6f57612c6f612921565b612c81601f8201601f19168501612982565b92508083528a84828401011115612c9757600080fd5b80848301858501376000848285010152505080925050509295509295909350565b600060208284031215612cca57600080fd5b81356001600160401b038116811461245457600080fd5b60008060408385031215612cf457600080fd5b82356001600160401b03811115612d0a57600080fd5b612d16858286016129b2565b95602094909401359450505050565b6020808252601f908201527f5265656e7472616e637947756172643a207265656e7472616e742063616c6c00604082015260600190565b634e487b7160e01b600052603260045260246000fd5b634e487b7160e01b600052601160045260246000fd5b6000816000190483118215151615612da257612da2612d72565b500290565b600082612dc457634e487b7160e01b600052601260045260246000fd5b500490565b600082821015612ddb57612ddb612d72565b500390565b60008219821115612df357612df3612d72565b500190565b600060208284031215612e0a57600080fd5b815161245481612bba565b60006001600160401b03808316818516808303821115612e3757612e37612d72565b01949350505050565b600060208284031215612e5257600080fd5b5051919050565b6001600160a01b039384168152919092166020820152604081019190915260600190565b6001600160a01b03929092168252602082015260400190565b6001600160a01b0397881681529590961660208601526040850193909352606084019190915260ff16608083015260a082015260c081019190915260e00190565b60005b83811015612ef2578181015183820152602001612eda565b83811115611c815750506000910152565b76020b1b1b2b9b9a1b7b73a3937b61d1030b1b1b7bab73a1604d1b815260008351612f35816017850160208801612ed7565b7001034b99036b4b9b9b4b733903937b6329607d1b6017918401918201528351612f66816028840160208801612ed7565b01602801949350505050565b6020815260008251806020840152612f91816040850160208701612ed7565b601f01601f19169190910160400192915050565b600181815b80851115612fe0578160001904821115612fc657612fc6612d72565b80851615612fd357918102915b93841c9390800290612faa565b509250929050565b600082612ff7575060016106fe565b81613004575060006106fe565b816001811461301a576002811461302457613040565b60019150506106fe565b60ff84111561303557613035612d72565b50506001821b6106fe565b5060208310610133831016604e8410600b8410161715613063575081810a6106fe565b61306d8383612fa5565b806000190482111561308157613081612d72565b029392505050565b60006124548383612fe8565b6000816130a4576130a4612d72565b506000190190565b60006000198214156130c0576130c0612d72565b5060010190565b600082516130d9818460208701612ed7565b919091019291505056feed4b80c86c7954bdbf516c492acb4a2899eb0ee85b7c74e26d85e55a07562c95a26469706673582212206e51d3e26152ceff142e94100cd8d6b388f311219024f3d2f2c0c7ad3bdaa06664736f6c634300080a0033",
  "devdoc": {
    "kind": "dev",
    "methods": {
      "getRoleAdmin(bytes32)": {
        "details": "Returns the admin role that controls `role`. See {grantRole} and {revokeRole}. To change a role's admin, use {_setRoleAdmin}."
      },
      "grantRole(bytes32,address)": {
        "details": "Grants `role` to `account`. If `account` had not been already granted `role`, emits a {RoleGranted} event. Requirements: - the caller must have ``role``'s admin role. May emit a {RoleGranted} event."
      },
      "hasRole(bytes32,address)": {
        "details": "Returns `true` if `account` has been granted `role`."
      },
      "paused()": {
        "details": "Returns true if the contract is paused, and false otherwise."
      },
      "renounceRole(bytes32,address)": {
        "details": "Revokes `role` from the calling account. Roles are often managed via {grantRole} and {revokeRole}: this function's purpose is to provide a mechanism for accounts to lose their privileges if they are compromised (such as when a trusted device is misplaced). If the calling account had been revoked `role`, emits a {RoleRevoked} event. Requirements: - the caller must be `account`. May emit a {RoleRevoked} event."
      },
      "revokeRole(bytes32,address)": {
        "details": "Revokes `role` from `account`. If `account` had been granted `role`, emits a {RoleRevoked} event. Requirements: - the caller must have ``role``'s admin role. May emit a {RoleRevoked} event."
      },
      "supportsInterface(bytes4)": {
        "details": "See {IERC165-supportsInterface}."
      }
    },
    "version": 1
  },
  "userdoc": {
    "kind": "user",
    "methods": {},
    "version": 1
  },
  "storageLayout": {
    "storage": [
      {
        "astId": 8558,
        "contract": "contracts/IDOpool/Pool.sol:Pool",
        "label": "_paused",
        "offset": 0,
        "slot": "0",
        "type": "t_bool"
      },
      {
        "astId": 8659,
        "contract": "contracts/IDOpool/Pool.sol:Pool",
        "label": "_status",
        "offset": 0,
        "slot": "1",
        "type": "t_uint256"
      },
      {
        "astId": 4449,
        "contract": "contracts/IDOpool/Pool.sol:Pool",
        "label": "root",
        "offset": 0,
        "slot": "2",
        "type": "t_bytes32"
      },
      {
        "astId": 8047,
        "contract": "contracts/IDOpool/Pool.sol:Pool",
        "label": "_roles",
        "offset": 0,
        "slot": "3",
        "type": "t_mapping(t_bytes32,t_struct(RoleData)8042_storage)"
      },
      {
        "astId": 8394,
        "contract": "contracts/IDOpool/Pool.sol:Pool",
        "label": "_initialized",
        "offset": 0,
        "slot": "4",
        "type": "t_uint8"
      },
      {
        "astId": 8397,
        "contract": "contracts/IDOpool/Pool.sol:Pool",
        "label": "_initializing",
        "offset": 1,
        "slot": "4",
        "type": "t_bool"
      },
      {
        "astId": 2377,
        "contract": "contracts/IDOpool/Pool.sol:Pool",
        "label": "poolFactory",
        "offset": 2,
        "slot": "4",
        "type": "t_contract(IPoolFactory)4709"
      },
      {
        "astId": 2383,
        "contract": "contracts/IDOpool/Pool.sol:Pool",
        "label": "IDOToken",
        "offset": 0,
        "slot": "5",
        "type": "t_contract(IERC20)663"
      },
      {
        "astId": 2386,
        "contract": "contracts/IDOpool/Pool.sol:Pool",
        "label": "purchaseToken",
        "offset": 0,
        "slot": "6",
        "type": "t_contract(IERC20)663"
      },
      {
        "astId": 2389,
        "contract": "contracts/IDOpool/Pool.sol:Pool",
        "label": "offeredCurrency",
        "offset": 0,
        "slot": "7",
        "type": "t_struct(OfferedCurrency)2368_storage"
      },
      {
        "astId": 2391,
        "contract": "contracts/IDOpool/Pool.sol:Pool",
        "label": "maxPurchaseAmountForGalaxyPool",
        "offset": 0,
        "slot": "9",
        "type": "t_uint256"
      },
      {
        "astId": 2393,
        "contract": "contracts/IDOpool/Pool.sol:Pool",
        "label": "maxPurchaseAmountForEarlyAccess",
        "offset": 0,
        "slot": "10",
        "type": "t_uint256"
      },
      {
        "astId": 2395,
        "contract": "contracts/IDOpool/Pool.sol:Pool",
        "label": "maxPurchaseAmountForKYCUser",
        "offset": 0,
        "slot": "11",
        "type": "t_uint256"
      },
      {
        "astId": 2397,
        "contract": "contracts/IDOpool/Pool.sol:Pool",
        "label": "maxPurchaseAmountForNotKYCUser",
        "offset": 0,
        "slot": "12",
        "type": "t_uint256"
      },
      {
        "astId": 2399,
        "contract": "contracts/IDOpool/Pool.sol:Pool",
        "label": "TGEDate",
        "offset": 0,
        "slot": "13",
        "type": "t_uint64"
      },
      {
        "astId": 2401,
        "contract": "contracts/IDOpool/Pool.sol:Pool",
        "label": "TGEPercentage",
        "offset": 8,
        "slot": "13",
        "type": "t_uint16"
      },
      {
        "astId": 2403,
        "contract": "contracts/IDOpool/Pool.sol:Pool",
        "label": "participationFeePercentage",
        "offset": 10,
        "slot": "13",
        "type": "t_uint16"
      },
      {
        "astId": 2405,
        "contract": "contracts/IDOpool/Pool.sol:Pool",
        "label": "galaxyPoolProportion",
        "offset": 12,
        "slot": "13",
        "type": "t_uint16"
      },
      {
        "astId": 2407,
        "contract": "contracts/IDOpool/Pool.sol:Pool",
        "label": "earlyAccessProportion",
        "offset": 14,
        "slot": "13",
        "type": "t_uint16"
      },
      {
        "astId": 2409,
        "contract": "contracts/IDOpool/Pool.sol:Pool",
        "label": "TGEClaimable",
        "offset": 16,
        "slot": "13",
        "type": "t_bool"
      },
      {
        "astId": 2411,
        "contract": "contracts/IDOpool/Pool.sol:Pool",
        "label": "totalRaiseAmount",
        "offset": 0,
        "slot": "14",
        "type": "t_uint256"
      },
      {
        "astId": 2413,
        "contract": "contracts/IDOpool/Pool.sol:Pool",
        "label": "whaleOpenTime",
        "offset": 0,
        "slot": "15",
        "type": "t_uint64"
      },
      {
        "astId": 2415,
        "contract": "contracts/IDOpool/Pool.sol:Pool",
        "label": "whaleDuration",
        "offset": 8,
        "slot": "15",
        "type": "t_uint64"
      },
      {
        "astId": 2417,
        "contract": "contracts/IDOpool/Pool.sol:Pool",
        "label": "communityOpenTime",
        "offset": 16,
        "slot": "15",
        "type": "t_uint64"
      },
      {
        "astId": 2419,
        "contract": "contracts/IDOpool/Pool.sol:Pool",
        "label": "communityDuration",
        "offset": 24,
        "slot": "15",
        "type": "t_uint64"
      },
      {
        "astId": 2421,
        "contract": "contracts/IDOpool/Pool.sol:Pool",
        "label": "purchasedAmountInGalaxyPool",
        "offset": 0,
        "slot": "16",
        "type": "t_uint256"
      },
      {
        "astId": 2423,
        "contract": "contracts/IDOpool/Pool.sol:Pool",
        "label": "purchasedAmountInEarlyAccess",
        "offset": 0,
        "slot": "17",
        "type": "t_uint256"
      },
      {
        "astId": 2425,
        "contract": "contracts/IDOpool/Pool.sol:Pool",
        "label": "purchasedAmount",
        "offset": 0,
        "slot": "18",
        "type": "t_uint256"
      },
      {
        "astId": 2429,
        "contract": "contracts/IDOpool/Pool.sol:Pool",
        "label": "userPurchasedAmount",
        "offset": 0,
        "slot": "19",
        "type": "t_mapping(t_address,t_uint256)"
      },
      {
        "astId": 2433,
        "contract": "contracts/IDOpool/Pool.sol:Pool",
        "label": "userIDOAirdropAmount",
        "offset": 0,
        "slot": "20",
        "type": "t_mapping(t_address,t_uint256)"
      },
      {
        "astId": 2437,
        "contract": "contracts/IDOpool/Pool.sol:Pool",
        "label": "userIDOTGEAmount",
        "offset": 0,
        "slot": "21",
        "type": "t_mapping(t_address,t_uint256)"
      }
    ],
    "types": {
      "t_address": {
        "encoding": "inplace",
        "label": "address",
        "numberOfBytes": "20"
      },
      "t_bool": {
        "encoding": "inplace",
        "label": "bool",
        "numberOfBytes": "1"
      },
      "t_bytes32": {
        "encoding": "inplace",
        "label": "bytes32",
        "numberOfBytes": "32"
      },
      "t_contract(IERC20)663": {
        "encoding": "inplace",
        "label": "contract IERC20",
        "numberOfBytes": "20"
      },
      "t_contract(IPoolFactory)4709": {
        "encoding": "inplace",
        "label": "contract IPoolFactory",
        "numberOfBytes": "20"
      },
      "t_mapping(t_address,t_bool)": {
        "encoding": "mapping",
        "key": "t_address",
        "label": "mapping(address => bool)",
        "numberOfBytes": "32",
        "value": "t_bool"
      },
      "t_mapping(t_address,t_uint256)": {
        "encoding": "mapping",
        "key": "t_address",
        "label": "mapping(address => uint256)",
        "numberOfBytes": "32",
        "value": "t_uint256"
      },
      "t_mapping(t_bytes32,t_struct(RoleData)8042_storage)": {
        "encoding": "mapping",
        "key": "t_bytes32",
        "label": "mapping(bytes32 => struct AccessControl.RoleData)",
        "numberOfBytes": "32",
        "value": "t_struct(RoleData)8042_storage"
      },
      "t_struct(OfferedCurrency)2368_storage": {
        "encoding": "inplace",
        "label": "struct Pool.OfferedCurrency",
        "members": [
          {
            "astId": 2365,
            "contract": "contracts/IDOpool/Pool.sol:Pool",
            "label": "rate",
            "offset": 0,
            "slot": "0",
            "type": "t_uint256"
          },
          {
            "astId": 2367,
            "contract": "contracts/IDOpool/Pool.sol:Pool",
            "label": "decimal",
            "offset": 0,
            "slot": "1",
            "type": "t_uint256"
          }
        ],
        "numberOfBytes": "64"
      },
      "t_struct(RoleData)8042_storage": {
        "encoding": "inplace",
        "label": "struct AccessControl.RoleData",
        "members": [
          {
            "astId": 8039,
            "contract": "contracts/IDOpool/Pool.sol:Pool",
            "label": "members",
            "offset": 0,
            "slot": "0",
            "type": "t_mapping(t_address,t_bool)"
          },
          {
            "astId": 8041,
            "contract": "contracts/IDOpool/Pool.sol:Pool",
            "label": "adminRole",
            "offset": 0,
            "slot": "1",
            "type": "t_bytes32"
          }
        ],
        "numberOfBytes": "64"
      },
      "t_uint16": {
        "encoding": "inplace",
        "label": "uint16",
        "numberOfBytes": "2"
      },
      "t_uint256": {
        "encoding": "inplace",
        "label": "uint256",
        "numberOfBytes": "32"
      },
      "t_uint64": {
        "encoding": "inplace",
        "label": "uint64",
        "numberOfBytes": "8"
      },
      "t_uint8": {
        "encoding": "inplace",
        "label": "uint8",
        "numberOfBytes": "1"
      }
    }
  }
}