{
  "address": "0x52Ff4f16ac60a622dFc5C9167484644bAAa738ea",
  "abi": [
    {
      "inputs": [],
      "name": "AlreadyAdmin",
      "type": "error"
    },
    {
      "inputs": [],
      "name": "AlreadyNotAdmin",
      "type": "error"
    },
    {
      "inputs": [],
      "name": "NotValidEarlyAccessProportion",
      "type": "error"
    },
    {
      "inputs": [],
      "name": "NotValidGalaxyPoolProportion",
      "type": "error"
    },
    {
      "inputs": [],
      "name": "ZeroAddress",
      "type": "error"
    },
    {
      "inputs": [],
      "name": "ZeroAmount",
      "type": "error"
    },
    {
      "inputs": [],
      "name": "ZeroOfferedRate",
      "type": "error"
    },
    {
      "anonymous": false,
      "inputs": [
        {
          "indexed": false,
          "internalType": "uint8",
          "name": "version",
          "type": "uint8"
        }
      ],
      "name": "Initialized",
      "type": "event"
    },
    {
      "anonymous": false,
      "inputs": [
        {
          "indexed": false,
          "internalType": "address",
          "name": "createdBy",
          "type": "address"
        },
        {
          "indexed": true,
          "internalType": "address",
          "name": "token",
          "type": "address"
        },
        {
          "indexed": true,
          "internalType": "address",
          "name": "pool",
          "type": "address"
        },
        {
          "indexed": false,
          "internalType": "uint256",
          "name": "poolId",
          "type": "uint256"
        },
        {
          "indexed": false,
          "internalType": "uint256",
          "name": "dbPoolId",
          "type": "uint256"
        }
      ],
      "name": "PoolCreated",
      "type": "event"
    },
    {
      "anonymous": false,
      "inputs": [
        {
          "indexed": true,
          "internalType": "bytes32",
          "name": "role",
          "type": "bytes32"
        },
        {
          "indexed": true,
          "internalType": "bytes32",
          "name": "previousAdminRole",
          "type": "bytes32"
        },
        {
          "indexed": true,
          "internalType": "bytes32",
          "name": "newAdminRole",
          "type": "bytes32"
        }
      ],
      "name": "RoleAdminChanged",
      "type": "event"
    },
    {
      "anonymous": false,
      "inputs": [
        {
          "indexed": true,
          "internalType": "bytes32",
          "name": "role",
          "type": "bytes32"
        },
        {
          "indexed": true,
          "internalType": "address",
          "name": "account",
          "type": "address"
        },
        {
          "indexed": true,
          "internalType": "address",
          "name": "sender",
          "type": "address"
        }
      ],
      "name": "RoleGranted",
      "type": "event"
    },
    {
      "anonymous": false,
      "inputs": [
        {
          "indexed": true,
          "internalType": "bytes32",
          "name": "role",
          "type": "bytes32"
        },
        {
          "indexed": true,
          "internalType": "address",
          "name": "account",
          "type": "address"
        },
        {
          "indexed": true,
          "internalType": "address",
          "name": "sender",
          "type": "address"
        }
      ],
      "name": "RoleRevoked",
      "type": "event"
    },
    {
      "anonymous": false,
      "inputs": [
        {
          "indexed": true,
          "internalType": "address",
          "name": "oldPoolImplementation",
          "type": "address"
        },
        {
          "indexed": true,
          "internalType": "address",
          "name": "newPoolImplementation",
          "type": "address"
        }
      ],
      "name": "UpdatePoolImplementation",
      "type": "event"
    },
    {
      "inputs": [],
      "name": "ADMIN",
      "outputs": [
        {
          "internalType": "bytes32",
          "name": "",
          "type": "bytes32"
        }
      ],
      "stateMutability": "view",
      "type": "function"
    },
    {
      "inputs": [],
      "name": "DEFAULT_ADMIN_ROLE",
      "outputs": [
        {
          "internalType": "bytes32",
          "name": "",
          "type": "bytes32"
        }
      ],
      "stateMutability": "view",
      "type": "function"
    },
    {
      "inputs": [],
      "name": "PERCENTAGE_DENOMINATOR",
      "outputs": [
        {
          "internalType": "uint16",
          "name": "",
          "type": "uint16"
        }
      ],
      "stateMutability": "view",
      "type": "function"
    },
    {
      "inputs": [
        {
          "internalType": "uint256",
          "name": "",
          "type": "uint256"
        }
      ],
      "name": "allPools",
      "outputs": [
        {
          "internalType": "address",
          "name": "",
          "type": "address"
        }
      ],
      "stateMutability": "view",
      "type": "function"
    },
    {
      "inputs": [],
      "name": "allPoolsLength",
      "outputs": [
        {
          "internalType": "uint256",
          "name": "",
          "type": "uint256"
        }
      ],
      "stateMutability": "view",
      "type": "function"
    },
    {
      "inputs": [
        {
          "internalType": "address[2]",
          "name": "addrs",
          "type": "address[2]"
        },
        {
          "internalType": "uint256[13]",
          "name": "uints",
          "type": "uint256[13]"
        },
        {
          "internalType": "uint256",
          "name": "dbPoolId",
          "type": "uint256"
        }
      ],
      "name": "createPool",
      "outputs": [
        {
          "internalType": "address",
          "name": "pool",
          "type": "address"
        }
      ],
      "stateMutability": "nonpayable",
      "type": "function"
    },
    {
      "inputs": [
        {
          "internalType": "address",
          "name": "",
          "type": "address"
        },
        {
          "internalType": "address",
          "name": "",
          "type": "address"
        },
        {
          "internalType": "uint256",
          "name": "",
          "type": "uint256"
        }
      ],
      "name": "getCreatedPools",
      "outputs": [
        {
          "internalType": "address",
          "name": "",
          "type": "address"
        }
      ],
      "stateMutability": "view",
      "type": "function"
    },
    {
      "inputs": [
        {
          "internalType": "address",
          "name": "_creator",
          "type": "address"
        },
        {
          "internalType": "address",
          "name": "_token",
          "type": "address"
        }
      ],
      "name": "getCreatedPoolsByToken",
      "outputs": [
        {
          "internalType": "address[]",
          "name": "",
          "type": "address[]"
        }
      ],
      "stateMutability": "view",
      "type": "function"
    },
    {
      "inputs": [
        {
          "internalType": "address",
          "name": "_creator",
          "type": "address"
        },
        {
          "internalType": "address",
          "name": "_token",
          "type": "address"
        }
      ],
      "name": "getCreatedPoolsLengthByToken",
      "outputs": [
        {
          "internalType": "uint256",
          "name": "",
          "type": "uint256"
        }
      ],
      "stateMutability": "view",
      "type": "function"
    },
    {
      "inputs": [
        {
          "internalType": "bytes32",
          "name": "role",
          "type": "bytes32"
        }
      ],
      "name": "getRoleAdmin",
      "outputs": [
        {
          "internalType": "bytes32",
          "name": "",
          "type": "bytes32"
        }
      ],
      "stateMutability": "view",
      "type": "function"
    },
    {
      "inputs": [
        {
          "internalType": "address",
          "name": "_admin",
          "type": "address"
        }
      ],
      "name": "grantAdminRole",
      "outputs": [],
      "stateMutability": "nonpayable",
      "type": "function"
    },
    {
      "inputs": [
        {
          "internalType": "bytes32",
          "name": "role",
          "type": "bytes32"
        },
        {
          "internalType": "address",
          "name": "account",
          "type": "address"
        }
      ],
      "name": "grantRole",
      "outputs": [],
      "stateMutability": "nonpayable",
      "type": "function"
    },
    {
      "inputs": [
        {
          "internalType": "address",
          "name": "_admin",
          "type": "address"
        }
      ],
      "name": "hasAdminRole",
      "outputs": [
        {
          "internalType": "bool",
          "name": "",
          "type": "bool"
        }
      ],
      "stateMutability": "view",
      "type": "function"
    },
    {
      "inputs": [
        {
          "internalType": "bytes32",
          "name": "role",
          "type": "bytes32"
        },
        {
          "internalType": "address",
          "name": "account",
          "type": "address"
        }
      ],
      "name": "hasRole",
      "outputs": [
        {
          "internalType": "bool",
          "name": "",
          "type": "bool"
        }
      ],
      "stateMutability": "view",
      "type": "function"
    },
    {
      "inputs": [
        {
          "internalType": "address",
          "name": "_poolImplementationAddress",
          "type": "address"
        }
      ],
      "name": "initialize",
      "outputs": [],
      "stateMutability": "nonpayable",
      "type": "function"
    },
    {
      "inputs": [],
      "name": "poolImplementationAddress",
      "outputs": [
        {
          "internalType": "address",
          "name": "",
          "type": "address"
        }
      ],
      "stateMutability": "view",
      "type": "function"
    },
    {
      "inputs": [
        {
          "internalType": "bytes32",
          "name": "role",
          "type": "bytes32"
        },
        {
          "internalType": "address",
          "name": "account",
          "type": "address"
        }
      ],
      "name": "renounceRole",
      "outputs": [],
      "stateMutability": "nonpayable",
      "type": "function"
    },
    {
      "inputs": [
        {
          "internalType": "address",
          "name": "_admin",
          "type": "address"
        }
      ],
      "name": "revokeAdminRole",
      "outputs": [],
      "stateMutability": "nonpayable",
      "type": "function"
    },
    {
      "inputs": [
        {
          "internalType": "bytes32",
          "name": "role",
          "type": "bytes32"
        },
        {
          "internalType": "address",
          "name": "account",
          "type": "address"
        }
      ],
      "name": "revokeRole",
      "outputs": [],
      "stateMutability": "nonpayable",
      "type": "function"
    },
    {
      "inputs": [
        {
          "internalType": "address",
          "name": "_poolImplementationAddress",
          "type": "address"
        }
      ],
      "name": "setPoolImplementation",
      "outputs": [],
      "stateMutability": "nonpayable",
      "type": "function"
    },
    {
      "inputs": [
        {
          "internalType": "bytes4",
          "name": "interfaceId",
          "type": "bytes4"
        }
      ],
      "name": "supportsInterface",
      "outputs": [
        {
          "internalType": "bool",
          "name": "",
          "type": "bool"
        }
      ],
      "stateMutability": "view",
      "type": "function"
    }
  ],
  "transactionHash": "0x3deafb6adf2aae4dab8769d0fc3ebc0348eb675b8410eec6485fd92bf4329a9a",
  "args": [],
  "numDeployments": 1,
  "solcInputHash": "cebe337386183936dd2ce3f0e6fcccd1",
  "bytecode": "0x608060405234801561001057600080fd5b506112fa806100206000396000f3fe608060405234801561001057600080fd5b50600436106101375760003560e01c806393ea9c3e116100b8578063c395fcb31161007c578063c395fcb3146102da578063c4d66de8146102ed578063c634b78e14610300578063d547741f14610313578063d6f7489814610326578063efde4e641461033957600080fd5b806393ea9c3e146102705780639a19c7b014610283578063a217fddf14610296578063ae7a774b1461029e578063b3cd4254146102be57600080fd5b8063343fb63a116100ff578063343fb63a146101eb57806336568abe146101fe57806341d1de97146102115780637fd376091461022457806391d148541461025d57600080fd5b806301ffc9a71461013c57806315ef4ddc14610164578063248a9ca31461018f5780632a0acc6a146101c15780632f2ff15d146101d6575b600080fd5b61014f61014a366004610e06565b610341565b60405190151581526020015b60405180910390f35b600254610177906001600160a01b031681565b6040516001600160a01b03909116815260200161015b565b6101b361019d366004610e30565b6000908152600160208190526040909120015490565b60405190815260200161015b565b6101b36000805160206112a583398151915281565b6101e96101e4366004610e65565b610378565b005b6101776101f9366004610e91565b6103a3565b6101e961020c366004610e65565b6103e8565b61017761021f366004610e30565b61046b565b6101b3610232366004610ecd565b6001600160a01b03918216600090815260046020908152604080832093909416825291909152205490565b61014f61026b366004610e65565b610495565b61017761027e366004610f76565b6104c0565b6101e9610291366004611033565b61067c565b6101b3600081565b6102b16102ac366004610ecd565b6106e1565b60405161015b919061104e565b6102c761271081565b60405161ffff909116815260200161015b565b61014f6102e8366004611033565b610764565b6101e96102fb366004611033565b61077e565b6101e961030e366004611033565b6108ba565b6101e9610321366004610e65565b610929565b6101e9610334366004611033565b61094f565b6003546101b3565b60006001600160e01b03198216637965db0b60e01b148061037257506301ffc9a760e01b6001600160e01b03198316145b92915050565b60008281526001602081905260409091200154610394816109c3565b61039e83836109d0565b505050565b600460205282600052604060002060205281600052604060002081815481106103cb57600080fd5b6000918252602090912001546001600160a01b0316925083915050565b6001600160a01b038116331461045d5760405162461bcd60e51b815260206004820152602f60248201527f416363657373436f6e74726f6c3a2063616e206f6e6c792072656e6f756e636560448201526e103937b632b9903337b91039b2b63360891b60648201526084015b60405180910390fd5b6104678282610a3b565b5050565b6003818154811061047b57600080fd5b6000918252602090912001546001600160a01b0316905081565b60009182526001602090815260408084206001600160a01b0393909316845291905290205460ff1690565b60006104cc8484610aa2565b83516000858533866040516020016104e79493929190611106565b60408051601f198184030181529190528051602090910120600254909150610518906001600160a01b031682610b16565b604051630b24ed3760e11b81529093506001600160a01b03841690631649da6e90610549908990899060040161113f565b600060405180830381600087803b15801561056357600080fd5b505af1158015610577573d6000803e3d6000fd5b50505050600460006105863390565b6001600160a01b0390811682526020808301939093526040918201600090812086831680835290855292812080546001818101835591835294822090940180549288166001600160a01b031993841681179091556003805495860181559091527fc2575a0e9e593c00f959f8c92f12db2869c3395a3b0502d05e2516446f71f85b9093018054909116831790557f7b5c292074d28589558035864cd03ab61b59880d01a5b6228edb5adf73656e1361063b3390565b60035461064a90600190611171565b604080516001600160a01b0390931683526020830191909152810188905260600160405180910390a350509392505050565b6000805160206112a5833981519152610694816109c3565b6106ac6000805160206112a583398151915283610495565b6106c95760405163e901e0f560e01b815260040160405180910390fd5b6104676000805160206112a583398151915283610a3b565b6001600160a01b03808316600090815260046020908152604080832093851683529281529082902080548351818402810184019094528084526060939283018282801561075757602002820191906000526020600020905b81546001600160a01b03168152600190910190602001808311610739575b5050505050905092915050565b60006103726000805160206112a583398151915283610495565b600054610100900460ff161580801561079e5750600054600160ff909116105b806107b85750303b1580156107b8575060005460ff166001145b61081b5760405162461bcd60e51b815260206004820152602e60248201527f496e697469616c697a61626c653a20636f6e747261637420697320616c72656160448201526d191e481a5b9a5d1a585b1a5e995960921b6064820152608401610454565b6000805460ff19166001179055801561083e576000805461ff0019166101001790555b600280546001600160a01b0319166001600160a01b0384161790556108716000805160206112a583398151915233610bb0565b8015610467576000805461ff0019169055604051600181527f7f26b83ff96e1f2b6a682f133852f6798a09c465da95921460cefb38474024989060200160405180910390a15050565b6000805160206112a58339815191526108d2816109c3565b6108db82610bba565b6108f36000805160206112a583398151915283610495565b1561091157604051631c3681a560e11b815260040160405180910390fd5b6104676000805160206112a5833981519152836109d0565b60008281526001602081905260409091200154610945816109c3565b61039e8383610a3b565b6000805160206112a5833981519152610967816109c3565b61097082610bba565b600280546001600160a01b038481166001600160a01b0319831681179093556040519116919082907f0617fd31aa5ab95ec80eefc1eb61a2c477aa419d1d761b4e46f5f077e47852aa90600090a3505050565b6109cd8133610be1565b50565b6109da8282610495565b6104675760008281526001602081815260408084206001600160a01b0386168086529252808420805460ff19169093179092559051339285917f2f8788117e7eff1d82e926ec794901d17c78024a50270940304540a733656f0d9190a45050565b610a458282610495565b156104675760008281526001602090815260408083206001600160a01b0385168085529252808320805460ff1916905551339285917ff6391f5c32d9c69d2a47ea670b442974b53935d1edc7fd64eb21e047a839171b9190a45050565b6020820151610ab081610bba565b5060a0810151612710811115610ad95760405163f8967ebd60e01b815260040160405180910390fd5b60c0820151612710811115610b01576040516343edeabb60e11b815260040160405180910390fd5b60e0830151610b0f81610c45565b5050505050565b6000604051733d602d80600a3d3981f3363d3d373d3d3d363d7360601b81528360601b60148201526e5af43d82803e903d91602b57fd5bf360881b6028820152826037826000f59150506001600160a01b0381166103725760405162461bcd60e51b8152602060048201526017602482015276115490cc4c4d8dce8818dc99585d194c8819985a5b1959604a1b6044820152606401610454565b61046782826109d0565b6001600160a01b0381166109cd5760405163d92e233d60e01b815260040160405180910390fd5b610beb8282610495565b61046757610c03816001600160a01b03166014610c63565b610c0e836020610c63565b604051602001610c1f9291906111b4565b60408051601f198184030181529082905262461bcd60e51b825261045491600401611223565b806109cd57604051631f2a200560e01b815260040160405180910390fd5b60606000610c72836002611256565b610c7d906002611275565b67ffffffffffffffff811115610c9557610c95610ef7565b6040519080825280601f01601f191660200182016040528015610cbf576020820181803683370190505b509050600360fc1b81600081518110610cda57610cda61109b565b60200101906001600160f81b031916908160001a905350600f60fb1b81600181518110610d0957610d0961109b565b60200101906001600160f81b031916908160001a9053506000610d2d846002611256565b610d38906001611275565b90505b6001811115610db0576f181899199a1a9b1b9c1cb0b131b232b360811b85600f1660108110610d6c57610d6c61109b565b1a60f81b828281518110610d8257610d8261109b565b60200101906001600160f81b031916908160001a90535060049490941c93610da98161128d565b9050610d3b565b508315610dff5760405162461bcd60e51b815260206004820181905260248201527f537472696e67733a20686578206c656e67746820696e73756666696369656e746044820152606401610454565b9392505050565b600060208284031215610e1857600080fd5b81356001600160e01b031981168114610dff57600080fd5b600060208284031215610e4257600080fd5b5035919050565b80356001600160a01b0381168114610e6057600080fd5b919050565b60008060408385031215610e7857600080fd5b82359150610e8860208401610e49565b90509250929050565b600080600060608486031215610ea657600080fd5b610eaf84610e49565b9250610ebd60208501610e49565b9150604084013590509250925092565b60008060408385031215610ee057600080fd5b610ee983610e49565b9150610e8860208401610e49565b634e487b7160e01b600052604160045260246000fd5b6040805190810167ffffffffffffffff81118282101715610f3e57634e487b7160e01b600052604160045260246000fd5b60405290565b6040516101a0810167ffffffffffffffff81118282101715610f3e57634e487b7160e01b600052604160045260246000fd5b60008060006102008486031215610f8c57600080fd5b84601f850112610f9b57600080fd5b610fa3610f0d565b806040860187811115610fb557600080fd5b865b81811015610fd657610fc881610e49565b845260209384019301610fb7565b5081955087605f880112610fe957600080fd5b610ff1610f44565b92508291506101e087018881111561100857600080fd5b5b80821015611024578135845260209384019390910190611009565b95989197505093359450505050565b60006020828403121561104557600080fd5b610dff82610e49565b6020808252825182820181905260009190848201906040850190845b8181101561108f5783516001600160a01b03168352928401929184019160010161106a565b50909695505050505050565b634e487b7160e01b600052603260045260246000fd5b8060005b60028110156110dd5781516001600160a01b03168452602093840193909101906001016110b5565b50505050565b8060005b600d8110156110dd5781518452602093840193909101906001016110e7565b610220810161111582876110b1565b61112260408301866110e3565b6001600160a01b03939093166101e0820152610200015292915050565b6101e0810161114e82856110b1565b610dff60408301846110e3565b634e487b7160e01b600052601160045260246000fd5b6000828210156111835761118361115b565b500390565b60005b838110156111a357818101518382015260200161118b565b838111156110dd5750506000910152565b76020b1b1b2b9b9a1b7b73a3937b61d1030b1b1b7bab73a1604d1b8152600083516111e6816017850160208801611188565b7001034b99036b4b9b9b4b733903937b6329607d1b6017918401918201528351611217816028840160208801611188565b01602801949350505050565b6020815260008251806020840152611242816040850160208701611188565b601f01601f19169190910160400192915050565b60008160001904831182151516156112705761127061115b565b500290565b600082198211156112885761128861115b565b500190565b60008161129c5761129c61115b565b50600019019056fedf8b4c520ffe197c5343c6f5aec59570151ef9a492f2c624fd45ddde6135ec42a26469706673582212202d9ff03c02cd700a225f2d372574c639fca88a9d2a2491a571891a24cbcae8c164736f6c634300080a0033",
  "devdoc": {
    "kind": "dev",
    "methods": {
      "allPoolsLength()": {
        "returns": {
          "_0": "Return number of created pools"
        }
      },
      "getCreatedPoolsByToken(address,address)": {
        "details": "User can retrieve their created pool by address of tokens",
        "params": {
          "_creator": "Address of created pool user",
          "_token": "Address of token want to query"
        },
        "returns": {
          "_0": "Created Pool Address"
        }
      },
      "getCreatedPoolsLengthByToken(address,address)": {
        "params": {
          "_creator": "Address of created pool user",
          "_token": "Address of token want to query"
        },
        "returns": {
          "_0": "Return number of created pool"
        }
      },
      "getRoleAdmin(bytes32)": {
        "details": "Returns the admin role that controls `role`. See {grantRole} and {revokeRole}. To change a role's admin, use {_setRoleAdmin}."
      },
      "grantRole(bytes32,address)": {
        "details": "Grants `role` to `account`. If `account` had not been already granted `role`, emits a {RoleGranted} event. Requirements: - the caller must have ``role``'s admin role. May emit a {RoleGranted} event."
      },
      "hasRole(bytes32,address)": {
        "details": "Returns `true` if `account` has been granted `role`."
      },
      "renounceRole(bytes32,address)": {
        "details": "Revokes `role` from the calling account. Roles are often managed via {grantRole} and {revokeRole}: this function's purpose is to provide a mechanism for accounts to lose their privileges if they are compromised (such as when a trusted device is misplaced). If the calling account had been revoked `role`, emits a {RoleRevoked} event. Requirements: - the caller must be `account`. May emit a {RoleRevoked} event."
      },
      "revokeRole(bytes32,address)": {
        "details": "Revokes `role` from `account`. If `account` had been granted `role`, emits a {RoleRevoked} event. Requirements: - the caller must have ``role``'s admin role. May emit a {RoleRevoked} event."
      },
      "supportsInterface(bytes4)": {
        "details": "See {IERC165-supportsInterface}."
      }
    },
    "version": 1
  },
  "userdoc": {
    "kind": "user",
    "methods": {
      "allPoolsLength()": {
        "notice": "Get the number of all created pools"
      },
      "getCreatedPoolsByToken(address,address)": {
        "notice": "Get the created pools by token address"
      },
      "getCreatedPoolsLengthByToken(address,address)": {
        "notice": "Retrieve number of pools created for specific token"
      }
    },
    "version": 1
  },
  "storageLayout": {
    "storage": [
      {
        "astId": 1168,
        "contract": "contracts/IDOpool/PoolFactory.sol:PoolFactory",
        "label": "_initialized",
        "offset": 0,
        "slot": "0",
        "type": "t_uint8"
      },
      {
        "astId": 1171,
        "contract": "contracts/IDOpool/PoolFactory.sol:PoolFactory",
        "label": "_initializing",
        "offset": 1,
        "slot": "0",
        "type": "t_bool"
      },
      {
        "astId": 821,
        "contract": "contracts/IDOpool/PoolFactory.sol:PoolFactory",
        "label": "_roles",
        "offset": 0,
        "slot": "1",
        "type": "t_mapping(t_bytes32,t_struct(RoleData)816_storage)"
      },
      {
        "astId": 17,
        "contract": "contracts/IDOpool/PoolFactory.sol:PoolFactory",
        "label": "poolImplementationAddress",
        "offset": 0,
        "slot": "2",
        "type": "t_address"
      },
      {
        "astId": 20,
        "contract": "contracts/IDOpool/PoolFactory.sol:PoolFactory",
        "label": "allPools",
        "offset": 0,
        "slot": "3",
        "type": "t_array(t_address)dyn_storage"
      },
      {
        "astId": 27,
        "contract": "contracts/IDOpool/PoolFactory.sol:PoolFactory",
        "label": "getCreatedPools",
        "offset": 0,
        "slot": "4",
        "type": "t_mapping(t_address,t_mapping(t_address,t_array(t_address)dyn_storage))"
      }
    ],
    "types": {
      "t_address": {
        "encoding": "inplace",
        "label": "address",
        "numberOfBytes": "20"
      },
      "t_array(t_address)dyn_storage": {
        "base": "t_address",
        "encoding": "dynamic_array",
        "label": "address[]",
        "numberOfBytes": "32"
      },
      "t_bool": {
        "encoding": "inplace",
        "label": "bool",
        "numberOfBytes": "1"
      },
      "t_bytes32": {
        "encoding": "inplace",
        "label": "bytes32",
        "numberOfBytes": "32"
      },
      "t_mapping(t_address,t_array(t_address)dyn_storage)": {
        "encoding": "mapping",
        "key": "t_address",
        "label": "mapping(address => address[])",
        "numberOfBytes": "32",
        "value": "t_array(t_address)dyn_storage"
      },
      "t_mapping(t_address,t_bool)": {
        "encoding": "mapping",
        "key": "t_address",
        "label": "mapping(address => bool)",
        "numberOfBytes": "32",
        "value": "t_bool"
      },
      "t_mapping(t_address,t_mapping(t_address,t_array(t_address)dyn_storage))": {
        "encoding": "mapping",
        "key": "t_address",
        "label": "mapping(address => mapping(address => address[]))",
        "numberOfBytes": "32",
        "value": "t_mapping(t_address,t_array(t_address)dyn_storage)"
      },
      "t_mapping(t_bytes32,t_struct(RoleData)816_storage)": {
        "encoding": "mapping",
        "key": "t_bytes32",
        "label": "mapping(bytes32 => struct AccessControl.RoleData)",
        "numberOfBytes": "32",
        "value": "t_struct(RoleData)816_storage"
      },
      "t_struct(RoleData)816_storage": {
        "encoding": "inplace",
        "label": "struct AccessControl.RoleData",
        "members": [
          {
            "astId": 813,
            "contract": "contracts/IDOpool/PoolFactory.sol:PoolFactory",
            "label": "members",
            "offset": 0,
            "slot": "0",
            "type": "t_mapping(t_address,t_bool)"
          },
          {
            "astId": 815,
            "contract": "contracts/IDOpool/PoolFactory.sol:PoolFactory",
            "label": "adminRole",
            "offset": 0,
            "slot": "1",
            "type": "t_bytes32"
          }
        ],
        "numberOfBytes": "64"
      },
      "t_uint8": {
        "encoding": "inplace",
        "label": "uint8",
        "numberOfBytes": "1"
      }
    }
  }
}