{
  "address": "0xCa0d68901cD420A3fc5582aE31B82062D366939C",
  "abi": [
    {
      "inputs": [],
      "name": "AlreadyDisableClaimTGE",
      "type": "error"
    },
    {
      "inputs": [],
      "name": "AlreadyEnableClaimTGE",
      "type": "error"
    },
    {
      "inputs": [],
      "name": "ClaimExceedMaxTGEAmount",
      "type": "error"
    },
    {
      "inputs": [
        {
          "internalType": "address",
          "name": "buyer",
          "type": "address"
        },
        {
          "internalType": "uint256",
          "name": "purchaseAmount",
          "type": "uint256"
        }
      ],
      "name": "ExceedMaxPurchaseAmountForEarlyAccess",
      "type": "error"
    },
    {
      "inputs": [
        {
          "internalType": "address",
          "name": "buyer",
          "type": "address"
        },
        {
          "internalType": "uint256",
          "name": "purchaseAmount",
          "type": "uint256"
        }
      ],
      "name": "ExceedMaxPurchaseAmountForGalaxyPool",
      "type": "error"
    },
    {
      "inputs": [
        {
          "internalType": "address",
          "name": "buyer",
          "type": "address"
        },
        {
          "internalType": "uint256",
          "name": "purchaseAmount",
          "type": "uint256"
        }
      ],
      "name": "ExceedMaxPurchaseAmountForKYCUser",
      "type": "error"
    },
    {
      "inputs": [
        {
          "internalType": "address",
          "name": "buyer",
          "type": "address"
        },
        {
          "internalType": "uint256",
          "name": "purchaseAmount",
          "type": "uint256"
        }
      ],
      "name": "ExceedMaxPurchaseAmountForNotKYCUser",
      "type": "error"
    },
    {
      "inputs": [],
      "name": "ExceedMaxPurchaseAmountForUser",
      "type": "error"
    },
    {
      "inputs": [
        {
          "internalType": "address",
          "name": "buyer",
          "type": "address"
        },
        {
          "internalType": "uint256",
          "name": "purchaseAmount",
          "type": "uint256"
        }
      ],
      "name": "ExceedTotalRaiseAmount",
      "type": "error"
    },
    {
      "inputs": [],
      "name": "NotAdmin",
      "type": "error"
    },
    {
      "inputs": [],
      "name": "NotAllowedToClaimTGEIDOAmount",
      "type": "error"
    },
    {
      "inputs": [
        {
          "internalType": "address",
          "name": "buyer",
          "type": "address"
        },
        {
          "internalType": "address",
          "name": "purchaseToken",
          "type": "address"
        },
        {
          "internalType": "uint256",
          "name": "allowance",
          "type": "uint256"
        },
        {
          "internalType": "uint256",
          "name": "amount",
          "type": "uint256"
        }
      ],
      "name": "NotEnoughAllowance",
      "type": "error"
    },
    {
      "inputs": [],
      "name": "NotEnoughConditionToRedeemIDOToken",
      "type": "error"
    },
    {
      "inputs": [],
      "name": "NotEnoughConditionToRedeemPurchaseToken",
      "type": "error"
    },
    {
      "inputs": [
        {
          "internalType": "address",
          "name": "buyer",
          "type": "address"
        }
      ],
      "name": "NotInWhaleList",
      "type": "error"
    },
    {
      "inputs": [],
      "name": "NotValidSignature",
      "type": "error"
    },
    {
      "inputs": [],
      "name": "NotYetTimeToClaimTGE",
      "type": "error"
    },
    {
      "inputs": [
        {
          "internalType": "uint256",
          "name": "whaleOpenTime",
          "type": "uint256"
        },
        {
          "internalType": "uint256",
          "name": "whaleDuration",
          "type": "uint256"
        },
        {
          "internalType": "uint256",
          "name": "communityOpenTime",
          "type": "uint256"
        },
        {
          "internalType": "uint256",
          "name": "communityDuration",
          "type": "uint256"
        },
        {
          "internalType": "uint256",
          "name": "timestamp",
          "type": "uint256"
        },
        {
          "internalType": "address",
          "name": "buyer",
          "type": "address"
        }
      ],
      "name": "OutOfTime",
      "type": "error"
    },
    {
      "inputs": [],
      "name": "ZeroAddress",
      "type": "error"
    },
    {
      "inputs": [],
      "name": "ZeroAmount",
      "type": "error"
    },
    {
      "anonymous": false,
      "inputs": [
        {
          "indexed": true,
          "internalType": "address",
          "name": "buyer",
          "type": "address"
        },
        {
          "indexed": true,
          "internalType": "address",
          "name": "pool",
          "type": "address"
        },
        {
          "indexed": true,
          "internalType": "address",
          "name": "IDOToken",
          "type": "address"
        },
        {
          "indexed": false,
          "internalType": "uint256",
          "name": "purchaseAmount",
          "type": "uint256"
        }
      ],
      "name": "BuyToken",
      "type": "event"
    },
    {
      "anonymous": false,
      "inputs": [
        {
          "indexed": false,
          "internalType": "address",
          "name": "buyer",
          "type": "address"
        },
        {
          "indexed": false,
          "internalType": "uint256",
          "name": "claimAmount",
          "type": "uint256"
        }
      ],
      "name": "ClaimTGEAmount",
      "type": "event"
    },
    {
      "anonymous": false,
      "inputs": [
        {
          "indexed": false,
          "internalType": "uint64",
          "name": "_durationDelta",
          "type": "uint64"
        }
      ],
      "name": "ExtendCommunityTime",
      "type": "event"
    },
    {
      "anonymous": false,
      "inputs": [
        {
          "indexed": false,
          "internalType": "address",
          "name": "account",
          "type": "address"
        }
      ],
      "name": "Paused",
      "type": "event"
    },
    {
      "anonymous": false,
      "inputs": [
        {
          "indexed": false,
          "internalType": "address",
          "name": "IDOToken",
          "type": "address"
        },
        {
          "indexed": false,
          "internalType": "address",
          "name": "purchaseToken",
          "type": "address"
        },
        {
          "indexed": false,
          "internalType": "uint256",
          "name": "rate",
          "type": "uint256"
        },
        {
          "indexed": false,
          "internalType": "uint256",
          "name": "decimal",
          "type": "uint256"
        },
        {
          "indexed": false,
          "internalType": "uint256",
          "name": "maxPurchaseAmountForKYCUser",
          "type": "uint256"
        },
        {
          "indexed": false,
          "internalType": "uint256",
          "name": "maxPurchaseAmountForNotKYCUser",
          "type": "uint256"
        },
        {
          "indexed": false,
          "internalType": "uint16",
          "name": "participationFeePercentage",
          "type": "uint16"
        },
        {
          "indexed": false,
          "internalType": "uint16",
          "name": "galaxyPoolProportion",
          "type": "uint16"
        },
        {
          "indexed": false,
          "internalType": "uint16",
          "name": "earlyAccessProportion",
          "type": "uint16"
        },
        {
          "indexed": false,
          "internalType": "uint256",
          "name": "totalRaiseAmount",
          "type": "uint256"
        },
        {
          "indexed": false,
          "internalType": "uint64",
          "name": "whaleOpenTime",
          "type": "uint64"
        },
        {
          "indexed": false,
          "internalType": "uint64",
          "name": "whaleDuration",
          "type": "uint64"
        },
        {
          "indexed": false,
          "internalType": "uint64",
          "name": "communityDuration",
          "type": "uint64"
        }
      ],
      "name": "PoolCreated",
      "type": "event"
    },
    {
      "anonymous": false,
      "inputs": [
        {
          "indexed": false,
          "internalType": "address",
          "name": "redeemIDOTokenRecipient",
          "type": "address"
        },
        {
          "indexed": false,
          "internalType": "address",
          "name": "IDOToken",
          "type": "address"
        },
        {
          "indexed": false,
          "internalType": "uint256",
          "name": "remainAmount",
          "type": "uint256"
        }
      ],
      "name": "RedeemIDOToken",
      "type": "event"
    },
    {
      "anonymous": false,
      "inputs": [
        {
          "indexed": false,
          "internalType": "address",
          "name": "redeemPurchaseTokenRecipient",
          "type": "address"
        },
        {
          "indexed": false,
          "internalType": "address",
          "name": "purchaseToken",
          "type": "address"
        },
        {
          "indexed": false,
          "internalType": "uint256",
          "name": "purchaseAmount",
          "type": "uint256"
        }
      ],
      "name": "RedeemPurchaseToken",
      "type": "event"
    },
    {
      "anonymous": false,
      "inputs": [
        {
          "indexed": true,
          "internalType": "bytes32",
          "name": "role",
          "type": "bytes32"
        },
        {
          "indexed": true,
          "internalType": "bytes32",
          "name": "previousAdminRole",
          "type": "bytes32"
        },
        {
          "indexed": true,
          "internalType": "bytes32",
          "name": "newAdminRole",
          "type": "bytes32"
        }
      ],
      "name": "RoleAdminChanged",
      "type": "event"
    },
    {
      "anonymous": false,
      "inputs": [
        {
          "indexed": true,
          "internalType": "bytes32",
          "name": "role",
          "type": "bytes32"
        },
        {
          "indexed": true,
          "internalType": "address",
          "name": "account",
          "type": "address"
        },
        {
          "indexed": true,
          "internalType": "address",
          "name": "sender",
          "type": "address"
        }
      ],
      "name": "RoleGranted",
      "type": "event"
    },
    {
      "anonymous": false,
      "inputs": [
        {
          "indexed": true,
          "internalType": "bytes32",
          "name": "role",
          "type": "bytes32"
        },
        {
          "indexed": true,
          "internalType": "address",
          "name": "account",
          "type": "address"
        },
        {
          "indexed": true,
          "internalType": "address",
          "name": "sender",
          "type": "address"
        }
      ],
      "name": "RoleRevoked",
      "type": "event"
    },
    {
      "anonymous": false,
      "inputs": [
        {
          "indexed": false,
          "internalType": "bool",
          "name": "claimable",
          "type": "bool"
        }
      ],
      "name": "SetTGEClaimable",
      "type": "event"
    },
    {
      "anonymous": false,
      "inputs": [
        {
          "indexed": false,
          "internalType": "address",
          "name": "account",
          "type": "address"
        }
      ],
      "name": "Unpaused",
      "type": "event"
    },
    {
      "anonymous": false,
      "inputs": [
        {
          "indexed": true,
          "internalType": "address",
          "name": "feeRecipient",
          "type": "address"
        }
      ],
      "name": "UpdateFeeRecipient",
      "type": "event"
    },
    {
      "anonymous": false,
      "inputs": [
        {
          "indexed": true,
          "internalType": "address",
          "name": "pool",
          "type": "address"
        },
        {
          "indexed": false,
          "internalType": "bool",
          "name": "status",
          "type": "bool"
        }
      ],
      "name": "UpdateOpenPoolStatus",
      "type": "event"
    },
    {
      "anonymous": false,
      "inputs": [
        {
          "indexed": false,
          "internalType": "bytes32",
          "name": "root",
          "type": "bytes32"
        }
      ],
      "name": "UpdateRoot",
      "type": "event"
    },
    {
      "inputs": [],
      "name": "DEFAULT_ADMIN_ROLE",
      "outputs": [
        {
          "internalType": "bytes32",
          "name": "",
          "type": "bytes32"
        }
      ],
      "stateMutability": "view",
      "type": "function"
    },
    {
      "inputs": [],
      "name": "IDOToken",
      "outputs": [
        {
          "internalType": "contract IERC20",
          "name": "",
          "type": "address"
        }
      ],
      "stateMutability": "view",
      "type": "function"
    },
    {
      "inputs": [],
      "name": "NORMAL_USER",
      "outputs": [
        {
          "internalType": "bytes32",
          "name": "",
          "type": "bytes32"
        }
      ],
      "stateMutability": "view",
      "type": "function"
    },
    {
      "inputs": [],
      "name": "PERCENTAGE_DENOMINATOR",
      "outputs": [
        {
          "internalType": "uint16",
          "name": "",
          "type": "uint16"
        }
      ],
      "stateMutability": "view",
      "type": "function"
    },
    {
      "inputs": [],
      "name": "TGEClaimable",
      "outputs": [
        {
          "internalType": "bool",
          "name": "",
          "type": "bool"
        }
      ],
      "stateMutability": "view",
      "type": "function"
    },
    {
      "inputs": [],
      "name": "TGEDate",
      "outputs": [
        {
          "internalType": "uint64",
          "name": "",
          "type": "uint64"
        }
      ],
      "stateMutability": "view",
      "type": "function"
    },
    {
      "inputs": [],
      "name": "TGEPercentage",
      "outputs": [
        {
          "internalType": "uint16",
          "name": "",
          "type": "uint16"
        }
      ],
      "stateMutability": "view",
      "type": "function"
    },
    {
      "inputs": [],
      "name": "WHALE",
      "outputs": [
        {
          "internalType": "bytes32",
          "name": "",
          "type": "bytes32"
        }
      ],
      "stateMutability": "view",
      "type": "function"
    },
    {
      "inputs": [
        {
          "internalType": "bytes32[]",
          "name": "proof",
          "type": "bytes32[]"
        },
        {
          "internalType": "uint256",
          "name": "_purchaseAmount",
          "type": "uint256"
        }
      ],
      "name": "buyTokenInCrowdfundingPool",
      "outputs": [],
      "stateMutability": "nonpayable",
      "type": "function"
    },
    {
      "inputs": [
        {
          "internalType": "bytes32[]",
          "name": "proof",
          "type": "bytes32[]"
        },
        {
          "internalType": "uint256",
          "name": "_purchaseAmount",
          "type": "uint256"
        },
        {
          "internalType": "uint256",
          "name": "_allowance",
          "type": "uint256"
        },
        {
          "internalType": "uint256",
          "name": "_deadline",
          "type": "uint256"
        },
        {
          "internalType": "bytes",
          "name": "_signature",
          "type": "bytes"
        }
      ],
      "name": "buyTokenInCrowdfundingPoolWithPermit",
      "outputs": [],
      "stateMutability": "nonpayable",
      "type": "function"
    },
    {
      "inputs": [
        {
          "internalType": "bytes32[]",
          "name": "proof",
          "type": "bytes32[]"
        },
        {
          "internalType": "uint256",
          "name": "_purchaseAmount",
          "type": "uint256"
        },
        {
          "internalType": "uint256",
          "name": "_maxPurchaseBaseOnAllocations",
          "type": "uint256"
        }
      ],
      "name": "buyTokenInGalaxyPool",
      "outputs": [],
      "stateMutability": "nonpayable",
      "type": "function"
    },
    {
      "inputs": [
        {
          "internalType": "bytes32[]",
          "name": "proof",
          "type": "bytes32[]"
        },
        {
          "internalType": "uint256",
          "name": "_purchaseAmount",
          "type": "uint256"
        },
        {
          "internalType": "uint256",
          "name": "_maxPurchaseBaseOnAllocations",
          "type": "uint256"
        },
        {
          "internalType": "uint256",
          "name": "_deadline",
          "type": "uint256"
        },
        {
          "internalType": "bytes",
          "name": "_signature",
          "type": "bytes"
        }
      ],
      "name": "buyTokenInGalaxyPoolWithPermit",
      "outputs": [],
      "stateMutability": "nonpayable",
      "type": "function"
    },
    {
      "inputs": [
        {
          "internalType": "uint256",
          "name": "_IDOClaimAmount",
          "type": "uint256"
        }
      ],
      "name": "claimTGEIDOToken",
      "outputs": [],
      "stateMutability": "nonpayable",
      "type": "function"
    },
    {
      "inputs": [],
      "name": "communityDuration",
      "outputs": [
        {
          "internalType": "uint64",
          "name": "",
          "type": "uint64"
        }
      ],
      "stateMutability": "view",
      "type": "function"
    },
    {
      "inputs": [],
      "name": "communityOpenTime",
      "outputs": [
        {
          "internalType": "uint64",
          "name": "",
          "type": "uint64"
        }
      ],
      "stateMutability": "view",
      "type": "function"
    },
    {
      "inputs": [],
      "name": "disableClaimTGEIDOToken",
      "outputs": [],
      "stateMutability": "nonpayable",
      "type": "function"
    },
    {
      "inputs": [],
      "name": "earlyAccessProportion",
      "outputs": [
        {
          "internalType": "uint16",
          "name": "",
          "type": "uint16"
        }
      ],
      "stateMutability": "view",
      "type": "function"
    },
    {
      "inputs": [],
      "name": "enableClaimTGEIDOToken",
      "outputs": [],
      "stateMutability": "nonpayable",
      "type": "function"
    },
    {
      "inputs": [
        {
          "internalType": "uint64",
          "name": "_durationDelta",
          "type": "uint64"
        }
      ],
      "name": "extendCommunityTime",
      "outputs": [],
      "stateMutability": "nonpayable",
      "type": "function"
    },
    {
      "inputs": [],
      "name": "galaxyPoolProportion",
      "outputs": [
        {
          "internalType": "uint16",
          "name": "",
          "type": "uint16"
        }
      ],
      "stateMutability": "view",
      "type": "function"
    },
    {
      "inputs": [
        {
          "internalType": "bytes32",
          "name": "role",
          "type": "bytes32"
        }
      ],
      "name": "getRoleAdmin",
      "outputs": [
        {
          "internalType": "bytes32",
          "name": "",
          "type": "bytes32"
        }
      ],
      "stateMutability": "view",
      "type": "function"
    },
    {
      "inputs": [
        {
          "internalType": "bytes32",
          "name": "role",
          "type": "bytes32"
        },
        {
          "internalType": "address",
          "name": "account",
          "type": "address"
        }
      ],
      "name": "grantRole",
      "outputs": [],
      "stateMutability": "nonpayable",
      "type": "function"
    },
    {
      "inputs": [
        {
          "internalType": "bytes32",
          "name": "role",
          "type": "bytes32"
        },
        {
          "internalType": "address",
          "name": "account",
          "type": "address"
        }
      ],
      "name": "hasRole",
      "outputs": [
        {
          "internalType": "bool",
          "name": "",
          "type": "bool"
        }
      ],
      "stateMutability": "view",
      "type": "function"
    },
    {
      "inputs": [
        {
          "internalType": "address[2]",
          "name": "addrs",
          "type": "address[2]"
        },
        {
          "internalType": "uint256[13]",
          "name": "uints",
          "type": "uint256[13]"
        }
      ],
      "name": "initialize",
      "outputs": [],
      "stateMutability": "nonpayable",
      "type": "function"
    },
    {
      "inputs": [],
      "name": "maxPurchaseAmountForEarlyAccess",
      "outputs": [
        {
          "internalType": "uint256",
          "name": "",
          "type": "uint256"
        }
      ],
      "stateMutability": "view",
      "type": "function"
    },
    {
      "inputs": [],
      "name": "maxPurchaseAmountForGalaxyPool",
      "outputs": [
        {
          "internalType": "uint256",
          "name": "",
          "type": "uint256"
        }
      ],
      "stateMutability": "view",
      "type": "function"
    },
    {
      "inputs": [],
      "name": "maxPurchaseAmountForKYCUser",
      "outputs": [
        {
          "internalType": "uint256",
          "name": "",
          "type": "uint256"
        }
      ],
      "stateMutability": "view",
      "type": "function"
    },
    {
      "inputs": [],
      "name": "maxPurchaseAmountForNotKYCUser",
      "outputs": [
        {
          "internalType": "uint256",
          "name": "",
          "type": "uint256"
        }
      ],
      "stateMutability": "view",
      "type": "function"
    },
    {
      "inputs": [],
      "name": "offeredCurrency",
      "outputs": [
        {
          "internalType": "uint256",
          "name": "rate",
          "type": "uint256"
        },
        {
          "internalType": "uint256",
          "name": "decimal",
          "type": "uint256"
        }
      ],
      "stateMutability": "view",
      "type": "function"
    },
    {
      "inputs": [],
      "name": "participationFeePercentage",
      "outputs": [
        {
          "internalType": "uint16",
          "name": "",
          "type": "uint16"
        }
      ],
      "stateMutability": "view",
      "type": "function"
    },
    {
      "inputs": [],
      "name": "pausePool",
      "outputs": [],
      "stateMutability": "nonpayable",
      "type": "function"
    },
    {
      "inputs": [],
      "name": "paused",
      "outputs": [
        {
          "internalType": "bool",
          "name": "",
          "type": "bool"
        }
      ],
      "stateMutability": "view",
      "type": "function"
    },
    {
      "inputs": [],
      "name": "poolFactory",
      "outputs": [
        {
          "internalType": "contract IPoolFactory",
          "name": "",
          "type": "address"
        }
      ],
      "stateMutability": "view",
      "type": "function"
    },
    {
      "inputs": [],
      "name": "purchaseToken",
      "outputs": [
        {
          "internalType": "contract IERC20",
          "name": "",
          "type": "address"
        }
      ],
      "stateMutability": "view",
      "type": "function"
    },
    {
      "inputs": [],
      "name": "purchasedAmount",
      "outputs": [
        {
          "internalType": "uint256",
          "name": "",
          "type": "uint256"
        }
      ],
      "stateMutability": "view",
      "type": "function"
    },
    {
      "inputs": [],
      "name": "purchasedAmountInEarlyAccess",
      "outputs": [
        {
          "internalType": "uint256",
          "name": "",
          "type": "uint256"
        }
      ],
      "stateMutability": "view",
      "type": "function"
    },
    {
      "inputs": [],
      "name": "purchasedAmountInGalaxyPool",
      "outputs": [
        {
          "internalType": "uint256",
          "name": "",
          "type": "uint256"
        }
      ],
      "stateMutability": "view",
      "type": "function"
    },
    {
      "inputs": [
        {
          "internalType": "address",
          "name": "_redeemIDOTokenRecipient",
          "type": "address"
        }
      ],
      "name": "redeemIDOToken",
      "outputs": [],
      "stateMutability": "nonpayable",
      "type": "function"
    },
    {
      "inputs": [
        {
          "internalType": "address",
          "name": "_redeemPurchaseTokenRecipient",
          "type": "address"
        }
      ],
      "name": "redeemPurchaseToken",
      "outputs": [],
      "stateMutability": "nonpayable",
      "type": "function"
    },
    {
      "inputs": [
        {
          "internalType": "bytes32",
          "name": "role",
          "type": "bytes32"
        },
        {
          "internalType": "address",
          "name": "account",
          "type": "address"
        }
      ],
      "name": "renounceRole",
      "outputs": [],
      "stateMutability": "nonpayable",
      "type": "function"
    },
    {
      "inputs": [
        {
          "internalType": "bytes32",
          "name": "role",
          "type": "bytes32"
        },
        {
          "internalType": "address",
          "name": "account",
          "type": "address"
        }
      ],
      "name": "revokeRole",
      "outputs": [],
      "stateMutability": "nonpayable",
      "type": "function"
    },
    {
      "inputs": [],
      "name": "root",
      "outputs": [
        {
          "internalType": "bytes32",
          "name": "",
          "type": "bytes32"
        }
      ],
      "stateMutability": "view",
      "type": "function"
    },
    {
      "inputs": [
        {
          "internalType": "bytes32",
          "name": "_root",
          "type": "bytes32"
        }
      ],
      "name": "setRoot",
      "outputs": [],
      "stateMutability": "nonpayable",
      "type": "function"
    },
    {
      "inputs": [
        {
          "internalType": "bytes4",
          "name": "interfaceId",
          "type": "bytes4"
        }
      ],
      "name": "supportsInterface",
      "outputs": [
        {
          "internalType": "bool",
          "name": "",
          "type": "bool"
        }
      ],
      "stateMutability": "view",
      "type": "function"
    },
    {
      "inputs": [],
      "name": "totalRaiseAmount",
      "outputs": [
        {
          "internalType": "uint256",
          "name": "",
          "type": "uint256"
        }
      ],
      "stateMutability": "view",
      "type": "function"
    },
    {
      "inputs": [],
      "name": "unpausePool",
      "outputs": [],
      "stateMutability": "nonpayable",
      "type": "function"
    },
    {
      "inputs": [
        {
          "internalType": "address",
          "name": "",
          "type": "address"
        }
      ],
      "name": "userIDOAirdropAmount",
      "outputs": [
        {
          "internalType": "uint256",
          "name": "",
          "type": "uint256"
        }
      ],
      "stateMutability": "view",
      "type": "function"
    },
    {
      "inputs": [
        {
          "internalType": "address",
          "name": "",
          "type": "address"
        }
      ],
      "name": "userIDOTGEAmount",
      "outputs": [
        {
          "internalType": "uint256",
          "name": "",
          "type": "uint256"
        }
      ],
      "stateMutability": "view",
      "type": "function"
    },
    {
      "inputs": [
        {
          "internalType": "address",
          "name": "",
          "type": "address"
        }
      ],
      "name": "userPurchasedAmount",
      "outputs": [
        {
          "internalType": "uint256",
          "name": "",
          "type": "uint256"
        }
      ],
      "stateMutability": "view",
      "type": "function"
    },
    {
      "inputs": [],
      "name": "whaleDuration",
      "outputs": [
        {
          "internalType": "uint64",
          "name": "",
          "type": "uint64"
        }
      ],
      "stateMutability": "view",
      "type": "function"
    },
    {
      "inputs": [],
      "name": "whaleOpenTime",
      "outputs": [
        {
          "internalType": "uint64",
          "name": "",
          "type": "uint64"
        }
      ],
      "stateMutability": "view",
      "type": "function"
    }
  ],
  "transactionHash": "0xda51727e6839061d6c34ec541e58d076bd2d09c030b4a5c6efa39d23642f327e",
  "args": [],
  "numDeployments": 1,
  "solcInputHash": "3c59b9d3555cba71595f2de2653b088f",
  "bytecode": "0x608060405234801561001057600080fd5b506000805460ff19169055600180556130c58061002e6000396000f3fe608060405234801561001057600080fd5b50600436106102c15760003560e01c806385f8f4be1161017d578063c09d6fb9116100d9578063e40ff52511610092578063e40ff52514610649578063e5fa15fa1461065c578063e995914914610670578063ebf0c71714610697578063efaad0ec146106a0578063f1379939146106b3578063ffb70181146106bc57600080fd5b8063c09d6fb9146105d3578063cb128728146105e8578063cdc5598e146105fb578063d38ae12b14610610578063d547741f14610623578063dab5f3401461063657600080fd5b8063a4f276c711610136578063a4f276c714610557578063a558b65c14610577578063a95c4d6214610591578063aa09d5b7146105a4578063b3679bda146105ac578063b3cd4254146105b5578063b4582276146105be57600080fd5b806385f8f4be146104f857806387e449351461050157806391d148541461051457806397ff2f2214610527578063a09e06a11461053c578063a217fddf1461054f57600080fd5b80633baa6fca1161022c5780635c5b1f83116101e55780635c5b1f831461047b5780635c975abb1461049b57806363add7e8146104a65780637656cb83146104c057806377292d5b146104d35780637b1a0838146104dc57806381e2403b146104e557600080fd5b80633baa6fca146103cb5780633da1d412146103f65780634219dc40146104165780634f93d1ad1461043657806353e6d4dc146104595780635958e7871461046157600080fd5b8063248a9ca31161027e578063248a9ca31461033e5780632f2ff15d1461036157806330bba6c41461037457806332aff4d31461037d57806334fa224b1461039057806336568abe146103b857600080fd5b806301ffc9a7146102c6578063068cc514146102ee578063086425bc146102f85780631353ff751461030b5780631649da6e146103225780631acbc82314610335575b600080fd5b6102d96102d43660046128a9565b6106c4565b60405190151581526020015b60405180910390f35b6102f66106fb565b005b6102f66103063660046129d8565b6107d7565b61031460095481565b6040519081526020016102e5565b6102f6610330366004612a41565b6108d1565b61031460125481565b61031461034c366004612af8565b60009081526003602052604090206001015490565b6102f661036f366004612b11565b610c42565b610314600c5481565b6102f661038b366004612b3d565b610c6c565b600d546103a590600160601b900461ffff1681565b60405161ffff90911681526020016102e5565b6102f66103c6366004612b11565b610e57565b600f546103de906001600160401b031681565b6040516001600160401b0390911681526020016102e5565b610314610404366004612b3d565b60146020526000908152604090205481565b600454610429906001600160a01b031681565b6040516102e59190612b58565b600754600854610444919082565b604080519283526020830191909152016102e5565b6102f6610ed1565b600f546103de90600160c01b90046001600160401b031681565b610314610489366004612b3d565b60156020526000908152604090205481565b60005460ff166102d9565b600f546103de90600160401b90046001600160401b031681565b6102f66104ce366004612af8565b610fe6565b61031460105481565b61031460115481565b6102f66104f3366004612b6c565b6110cd565b610314600b5481565b600554610429906001600160a01b031681565b6102d9610522366004612b11565b6111ea565b600d546103a590600160501b900461ffff1681565b6102f661054a366004612b6c565b611215565b610314600081565b610314610565366004612b3d565b60136020526000908152604090205481565b600f546103de90600160801b90046001600160401b031681565b600654610429906001600160a01b031681565b6102f661136a565b610314600e5481565b6103a561271081565b600d546103a590600160401b900461ffff1681565b61031460008051602061307083398151915281565b600d546103de906001600160401b031681565b600d546103a590600160701b900461ffff1681565b6102f661061e366004612b3d565b611440565b6102f6610631366004612b11565b611624565b6102f6610644366004612af8565b611649565b6102f6610657366004612c3f565b611720565b600d546102d990600160801b900460ff1681565b6103147f13e31188d81b941f4c541528790db4031bef078b78d364bde6fc2d4e5ad79e0181565b61031460025481565b6102f66106ae366004612c68565b611841565b610314600a5481565b6102f66118e5565b60006001600160e01b03198216637965db0b60e01b14806106f557506301ffc9a760e01b6001600160e01b03198316145b92915050565b6004546001600160a01b031663c395fcb3336040518263ffffffff1660e01b81526004016107299190612b58565b60206040518083038186803b15801561074157600080fd5b505afa158015610755573d6000803e3d6000fd5b505050506040513d601f19601f820116820180604052508101906107799190612cac565b61079657604051637bfa4b9f60e01b815260040160405180910390fd5b61079e6119e8565b6040516001815230907ff0d6825187080fb76e877d6e8990b1e2a60ed4f2d8ccf610e889659854577e74906020015b60405180910390a2565b6107df611a2a565b6002600154141561080b5760405162461bcd60e51b815260040161080290612cce565b60405180910390fd5b6002600155610818611a72565b61089e57600f546001600160401b0380821691600160401b8104821691600160801b8204811691600160c01b90041642335b6040516375f83f4760e01b81526001600160401b039687166004820152948616602486015292851660448501529316606483015260848201929092526001600160a01b0390911660a482015260c401610802565b6108a83383611abb565b6108b28282611b87565b6108bf8383836000611bb1565b6108c882611c37565b50506001805550565b60048054336001600160a01b03199182161790915582516020808501516005805485166001600160a01b0394851617905560068054909416921691909117909155815190820151600b91909155600c556040810151606082015161093482611c51565b600d805467ffffffffffffffff19166001600160401b039290921691909117905561095e81611cbd565b600d805461ffff92909216600160401b0261ffff60401b199092169190911790555050608081015161098f81611cbd565b600d805461ffff92909216600160501b0261ffff60501b199092169190911790555060a081015160c082015160e08301516109c983611cbd565b600d600c6101000a81548161ffff021916908361ffff1602179055506109ee82611cbd565b600d805461ffff92909216600160701b0261ffff60701b19909216919091179055600e819055612710610a218483612d31565b610a2b9190612d50565b6009556127108083610a3d8683612d72565b610a479085612d31565b610a519190612d31565b610a5b9190612d50565b610a659190612d50565b600a55505050610100810151610120820151610140830151610a8683611c51565b600f805467ffffffffffffffff19166001600160401b0392909216919091179055610ab082611c51565b600f60086101000a8154816001600160401b0302191690836001600160401b03160217905550610adf81611c51565b600f80546001600160401b0392909216600160c01b026001600160c01b03909216919091179055610b18610b138385612d89565b611c51565b600f805467ffffffffffffffff60801b198116600160801b6001600160401b03948516029081179283905561016088810151610180808b015160078390556008819055600554600654600b54600c54600d54600e54604080516001600160a01b039788168152969095166020870152938501979097526060840194909452608083015260a0820192909252600160501b840461ffff90811660c0830152600160601b8504811660e0830152600160701b90940490931661010084015261012083015292861693861693909317610140840152600160401b8404851690830152600160c01b909204909216908201527fff88ccb1dfbd918de09a2534be0afa5c86dde65c8c50d601b6d8e6a4de4bf60893506101a0019150610c369050565b60405180910390a15050565b600082815260036020526040902060010154610c5d81611d20565b610c678383611d2a565b505050565b6004546001600160a01b031663c395fcb3336040518263ffffffff1660e01b8152600401610c9a9190612b58565b60206040518083038186803b158015610cb257600080fd5b505afa158015610cc6573d6000803e3d6000fd5b505050506040513d601f19601f82011682018060405250810190610cea9190612cac565b610d0757604051637bfa4b9f60e01b815260040160405180910390fd5b610d1081611db0565b60005460ff16151560011480610d535750600f54610d47906001600160401b03600160c01b8204811691600160801b900416612da1565b6001600160401b031642115b15610e3b576005546040516370a0823160e01b81526000916001600160a01b0316906370a0823190610d89903090600401612b58565b60206040518083038186803b158015610da157600080fd5b505afa158015610db5573d6000803e3d6000fd5b505050506040513d601f19601f82011682018060405250810190610dd99190612dcc565b90508015610e3757600554610df8906001600160a01b03168383611dd7565b6005546040517fb475b33e23c517ab04a59359c4593620c1fafb083636f450b501cfdc5fa7c1d191610c369185916001600160a01b0316908590612de5565b5050565b6040516320f0ba3d60e21b815260040160405180910390fd5b50565b6001600160a01b0381163314610ec75760405162461bcd60e51b815260206004820152602f60248201527f416363657373436f6e74726f6c3a2063616e206f6e6c792072656e6f756e636560448201526e103937b632b9903337b91039b2b63360891b6064820152608401610802565b610e378282611e2d565b6004546001600160a01b031663c395fcb3336040518263ffffffff1660e01b8152600401610eff9190612b58565b60206040518083038186803b158015610f1757600080fd5b505afa158015610f2b573d6000803e3d6000fd5b505050506040513d601f19601f82011682018060405250810190610f4f9190612cac565b610f6c57604051637bfa4b9f60e01b815260040160405180910390fd5b600d54600160801b900460ff16151560011415610f9c57604051637136844d60e01b815260040160405180910390fd5b600d805460ff60801b1916600160801b179055604051600181527fccb5bfd8e614719f5c62e9ee750481317991fd8133670aa1079f1c51d255c6de906020015b60405180910390a1565b600d54600160801b900460ff1661101057604051637e5634e560e11b815260040160405180910390fd5b600d546001600160401b031642101561103c57604051634f10668960e01b815260040160405180910390fd5b336000908152601560205260409020548082111561106d57604051631ee1609d60e11b815260040160405180910390fd5b336000908152601560205260408120805484929061108c908490612d72565b9091555061109c90503383611e94565b7f5db24f7604bd2c572f0b463cd8df4de756789f84ced94dafd7f83a4bcb6716403383604051610c36929190612e09565b6110d5611a2a565b600260015414156110f85760405162461bcd60e51b815260040161080290612cce565b60026001556000808061110a84611eab565b60065460405163d505accf60e01b815293965091945092506001600160a01b03169063d505accf9061114c90339030908c908b9088908b908b90600401612e22565b600060405180830381600087803b15801561116657600080fd5b505af115801561117a573d6000803e3d6000fd5b50505050611186611a72565b6111bc57600f546001600160401b0380821691600160401b8104821691600160801b8204811691600160c01b900416423361084a565b6111c68787611b87565b6111d38888886000611bb1565b6111dc87611c37565b505060018055505050505050565b60009182526003602090815260408084206001600160a01b0393909316845291905290205460ff1690565b61121d611a2a565b600260015414156112405760405162461bcd60e51b815260040161080290612cce565b60026001556000808061125284611eab565b60065460405163d505accf60e01b815293965091945092506001600160a01b03169063d505accf9061129490339030908b908b9088908b908b90600401612e22565b600060405180830381600087803b1580156112ae57600080fd5b505af11580156112c2573d6000803e3d6000fd5b505050506112d66112d03390565b88611abb565b6112de611a72565b15611318576112ec87611ed7565b600d5461130a9089908990600090600160501b900461ffff16611bb1565b61131387611f14565b6111dc565b611320611f26565b156113385761132e87611f6b565b6113138888611fa8565b600f546001600160401b0380821691600160401b8104821691600160801b8204811691600160c01b900416423361084a565b6004546001600160a01b031663c395fcb3336040518263ffffffff1660e01b81526004016113989190612b58565b60206040518083038186803b1580156113b057600080fd5b505afa1580156113c4573d6000803e3d6000fd5b505050506040513d601f19601f820116820180604052508101906113e89190612cac565b61140557604051637bfa4b9f60e01b815260040160405180910390fd5b61140d612014565b6040516000815230907ff0d6825187080fb76e877d6e8990b1e2a60ed4f2d8ccf610e889659854577e74906020016107cd565b6004546001600160a01b031663c395fcb3336040518263ffffffff1660e01b815260040161146e9190612b58565b60206040518083038186803b15801561148657600080fd5b505afa15801561149a573d6000803e3d6000fd5b505050506040513d601f19601f820116820180604052508101906114be9190612cac565b6114db57604051637bfa4b9f60e01b815260040160405180910390fd5b6114e481611db0565b60005460ff161515600114806115275750600f5461151b906001600160401b03600160c01b8204811691600160801b900416612da1565b6001600160401b031642115b1561160b576006546040516370a0823160e01b81526000916001600160a01b0316906370a082319061155d903090600401612b58565b60206040518083038186803b15801561157557600080fd5b505afa158015611589573d6000803e3d6000fd5b505050506040513d601f19601f820116820180604052508101906115ad9190612dcc565b90508015610e37576006546115cc906001600160a01b03168383611dd7565b6006546040517fd7be39376e98ef778d32829f2b7f11d5108fcefb6b518dcecf6b21859865fd4f91610c369185916001600160a01b0316908590612de5565b604051633586a6e960e11b815260040160405180910390fd5b60008281526003602052604090206001015461163f81611d20565b610c678383611e2d565b6004546001600160a01b031663c395fcb3336040518263ffffffff1660e01b81526004016116779190612b58565b60206040518083038186803b15801561168f57600080fd5b505afa1580156116a3573d6000803e3d6000fd5b505050506040513d601f19601f820116820180604052508101906116c79190612cac565b6116e457604051637bfa4b9f60e01b815260040160405180910390fd5b60028190556040518181527fc8d52687b85ab11e6859cb0b390a9e926e1b348d9796e084f88f88420c176fc6906020015b60405180910390a150565b6004546001600160a01b031663c395fcb3336040518263ffffffff1660e01b815260040161174e9190612b58565b60206040518083038186803b15801561176657600080fd5b505afa15801561177a573d6000803e3d6000fd5b505050506040513d601f19601f8201168201806040525081019061179e9190612cac565b6117bb57604051637bfa4b9f60e01b815260040160405180910390fd5b80600f60188282829054906101000a90046001600160401b03166117df9190612da1565b92506101000a8154816001600160401b0302191690836001600160401b031602179055507ff269ea75173d9ceb1fec9996700ff90147e351a413c525ee719184c7799917f38160405161171591906001600160401b0391909116815260200190565b611849611a2a565b6002600154141561186c5760405162461bcd60e51b815260040161080290612cce565b600260015561187b3382611abb565b611883611a72565b156118bd5761189181611ed7565b600d546118af9083908390600090600160501b900461ffff16611bb1565b6118b881611f14565b6118dd565b6118c5611f26565b15611338576118d381611f6b565b6118b88282611fa8565b505060018055565b6004546001600160a01b031663c395fcb3336040518263ffffffff1660e01b81526004016119139190612b58565b60206040518083038186803b15801561192b57600080fd5b505afa15801561193f573d6000803e3d6000fd5b505050506040513d601f19601f820116820180604052508101906119639190612cac565b61198057604051637bfa4b9f60e01b815260040160405180910390fd5b600d54600160801b900460ff166119aa57604051631905442f60e31b815260040160405180910390fd5b600d805460ff60801b19169055604051600081527fccb5bfd8e614719f5c62e9ee750481317991fd8133670aa1079f1c51d255c6de90602001610fdc565b6119f0612051565b6000805460ff191690557f5db9ee0a495bf2e6ff9c91a7834c1ba4fdd244a5e8aa4e537bd38aeae4b073aa335b604051610fdc9190612b58565b60005460ff1615611a705760405162461bcd60e51b815260206004820152601060248201526f14185d5cd8589b194e881c185d5cd95960821b6044820152606401610802565b565b600f546000906001600160401b031642118015611ab65750600f54611aa9906001600160401b03600160401b820481169116612da1565b6001600160401b03164211155b905090565b600654604051636eb1769f60e11b81526001600160a01b038481166004830152306024830152600092169063dd62ed3e9060440160206040518083038186803b158015611b0757600080fd5b505afa158015611b1b573d6000803e3d6000fd5b505050506040513d601f19601f82011682018060405250810190611b3f9190612dcc565b905081811015610c67576006546040516304fee01560e31b81526001600160a01b03808616600483015290911660248201526044810182905260648101839052608401610802565b611b908261209a565b80821115610e3757604051632b37c00360e11b815260040160405180910390fd5b611bcf33600b546000805160206130708339815191529085886120b8565b15611be657611be13384836001612121565b611c31565b611c0433600c546000805160206130708339815191529085886120b8565b15611c1657611be13384836000612121565b33604051632e4f414f60e01b81526004016108029190612b58565b50505050565b8060106000828254611c499190612d89565b909155505050565b60006001600160401b03821115611cb95760405162461bcd60e51b815260206004820152602660248201527f53616665436173743a2076616c756520646f65736e27742066697420696e203660448201526534206269747360d01b6064820152608401610802565b5090565b600061ffff821115611cb95760405162461bcd60e51b815260206004820152602660248201527f53616665436173743a2076616c756520646f65736e27742066697420696e203160448201526536206269747360d01b6064820152608401610802565b610e54813361229d565b611d3482826111ea565b610e375760008281526003602090815260408083206001600160a01b03851684529091529020805460ff19166001179055611d6c3390565b6001600160a01b0316816001600160a01b0316837f2f8788117e7eff1d82e926ec794901d17c78024a50270940304540a733656f0d60405160405180910390a45050565b6001600160a01b038116610e545760405163d92e233d60e01b815260040160405180910390fd5b610c678363a9059cbb60e01b8484604051602401611df6929190612e09565b60408051601f198184030181529190526020810180516001600160e01b03166001600160e01b031990931692909217909152612301565b611e3782826111ea565b15610e375760008281526003602090815260408083206001600160a01b0385168085529252808320805460ff1916905551339285917ff6391f5c32d9c69d2a47ea670b442974b53935d1edc7fd64eb21e047a839171b9190a45050565b600554610e37906001600160a01b03168383611dd7565b6000806000611eb9846123d3565b50505060208101516040820151606090920151909260009190911a90565b611ee08161209a565b600a5481601154611ef19190612d89565b1115610e545733816040516330b052c360e01b8152600401610802929190612e09565b8060116000828254611c499190612d89565b600f54600090600160801b90046001600160401b031642118015611ab65750600f54611aa9906001600160401b03600160c01b8204811691600160801b900416612da1565b611f748161209a565b600e5481601254611f859190612d89565b1115610e5457338160405163b17009d360e01b8152600401610802929190612e09565b611fd933600b547f13e31188d81b941f4c541528790db4031bef078b78d364bde6fc2d4e5ad79e01906000866120b8565b15611ff957610e3733600d548390600160501b900461ffff166001612121565b610e3733600d548390600160501b900461ffff166000612121565b61201c611a2a565b6000805460ff191660011790557f62e78cea01bee320cd4e420270b5ea74000d11b0c9f74754ebdbfc544b05a258611a1d3390565b60005460ff16611a705760405162461bcd60e51b815260206004820152601460248201527314185d5cd8589b194e881b9bdd081c185d5cd95960621b6044820152606401610802565b80610e5457604051631f2a200560e01b815260040160405180910390fd5b6040516bffffffffffffffffffffffff19606087901b166020820152603481018590526054810184905260748101839052600090819060940160405160208183030381529060405280519060200120905061211683600254836123f5565b979650505050505050565b600181151514801561214e5750600b543360009081526013602052604090205461214c908590612d89565b115b15612170573383604051631087b52160e01b8152600401610802929190612e09565b801580156121995750600c5433600090815260136020526040902054612197908590612d89565b115b156121bb5733836040516384e66cd160e01b8152600401610802929190612e09565b60006121c7848461240d565b905080156121e7576006546121e7906001600160a01b0316863084612433565b6121f18585612454565b60006121fc8561246c565b600d549091506000906127109061221e90600160401b900461ffff1684612d31565b6122289190612d50565b905060006122368284612d72565b9050612243878284612494565b6005546001600160a01b031630336001600160a01b03167fb56e31baf5ee91fd07834187784fb1cbdae3cb94b95610e2a8da75a624e71eaf8a60405161228b91815260200190565b60405180910390a45050505050505050565b6122a782826111ea565b610e37576122bf816001600160a01b0316601461251c565b6122ca83602061251c565b6040516020016122db929190612e8f565b60408051601f198184030181529082905262461bcd60e51b825261080291600401612efe565b6000612356826040518060400160405280602081526020017f5361666545524332303a206c6f772d6c6576656c2063616c6c206661696c6564815250856001600160a01b03166126b79092919063ffffffff16565b805190915015610c6757808060200190518101906123749190612cac565b610c675760405162461bcd60e51b815260206004820152602a60248201527f5361666545524332303a204552433230206f7065726174696f6e20646964206e6044820152691bdd081cdd58d8d9595960b21b6064820152608401610802565b8051604114610e5457604051637141605d60e11b815260040160405180910390fd5b60008261240285846126ce565b1490505b9392505050565b60008161241c575060006106f5565b6127106124298385612d31565b6124069190612d50565b611c31846323b872dd60e01b858585604051602401611df693929190612de5565b600654610e37906001600160a01b0316833084612433565b60085460009061247d90600a613015565b60075461248a9084612d31565b6106f59190612d50565b82601260008282546124a69190612d89565b909155505033600090815260136020526040812080548592906124ca908490612d89565b909155505033600090815260146020526040812080548492906124ee908490612d89565b90915550503360009081526015602052604081208054839290612512908490612d89565b9091555050505050565b6060600061252b836002612d31565b612536906002612d89565b6001600160401b0381111561254d5761254d6128d3565b6040519080825280601f01601f191660200182016040528015612577576020820181803683370190505b509050600360fc1b8160008151811061259257612592612d05565b60200101906001600160f81b031916908160001a905350600f60fb1b816001815181106125c1576125c1612d05565b60200101906001600160f81b031916908160001a90535060006125e5846002612d31565b6125f0906001612d89565b90505b6001811115612668576f181899199a1a9b1b9c1cb0b131b232b360811b85600f166010811061262457612624612d05565b1a60f81b82828151811061263a5761263a612d05565b60200101906001600160f81b031916908160001a90535060049490941c9361266181613021565b90506125f3565b5083156124065760405162461bcd60e51b815260206004820181905260248201527f537472696e67733a20686578206c656e67746820696e73756666696369656e746044820152606401610802565b60606126c6848460008561271b565b949350505050565b600081815b8451811015612713576126ff828683815181106126f2576126f2612d05565b6020026020010151612841565b91508061270b81613038565b9150506126d3565b509392505050565b60608247101561277c5760405162461bcd60e51b815260206004820152602660248201527f416464726573733a20696e73756666696369656e742062616c616e636520666f6044820152651c8818d85b1b60d21b6064820152608401610802565b6001600160a01b0385163b6127d35760405162461bcd60e51b815260206004820152601d60248201527f416464726573733a2063616c6c20746f206e6f6e2d636f6e74726163740000006044820152606401610802565b600080866001600160a01b031685876040516127ef9190613053565b60006040518083038185875af1925050503d806000811461282c576040519150601f19603f3d011682016040523d82523d6000602084013e612831565b606091505b5091509150612116828286612870565b600081831061285d576000828152602084905260409020612406565b6000838152602083905260409020612406565b6060831561287f575081612406565b82511561288f5782518084602001fd5b8160405162461bcd60e51b81526004016108029190612efe565b6000602082840312156128bb57600080fd5b81356001600160e01b03198116811461240657600080fd5b634e487b7160e01b600052604160045260246000fd5b604080519081016001600160401b038111828210171561290b5761290b6128d3565b60405290565b6040516101a081016001600160401b038111828210171561290b5761290b6128d3565b604051601f8201601f191681016001600160401b038111828210171561295c5761295c6128d3565b604052919050565b600082601f83011261297557600080fd5b813560206001600160401b03821115612990576129906128d3565b8160051b61299f828201612934565b92835284810182019282810190878511156129b957600080fd5b83870192505b84831015612116578235825291830191908301906129bf565b6000806000606084860312156129ed57600080fd5b83356001600160401b03811115612a0357600080fd5b612a0f86828701612964565b9660208601359650604090950135949350505050565b80356001600160a01b0381168114612a3c57600080fd5b919050565b6000806101e0808486031215612a5657600080fd5b84601f850112612a6557600080fd5b612a6d6128e9565b806040860187811115612a7f57600080fd5b865b81811015612aa057612a9281612a25565b845260209384019301612a81565b5081955087605f880112612ab357600080fd5b612abb612911565b93870193925082915087841115612ad157600080fd5b5b83811015612aea578035835260209283019201612ad2565b508093505050509250929050565b600060208284031215612b0a57600080fd5b5035919050565b60008060408385031215612b2457600080fd5b82359150612b3460208401612a25565b90509250929050565b600060208284031215612b4f57600080fd5b61240682612a25565b6001600160a01b0391909116815260200190565b600080600080600060a08688031215612b8457600080fd5b85356001600160401b0380821115612b9b57600080fd5b612ba789838a01612964565b9650602091508188013595506040880135945060608801359350608088013581811115612bd357600080fd5b8801601f81018a13612be457600080fd5b803582811115612bf657612bf66128d3565b612c08601f8201601f19168501612934565b92508083528a84828401011115612c1e57600080fd5b80848301858501376000848285010152505080925050509295509295909350565b600060208284031215612c5157600080fd5b81356001600160401b038116811461240657600080fd5b60008060408385031215612c7b57600080fd5b82356001600160401b03811115612c9157600080fd5b612c9d85828601612964565b95602094909401359450505050565b600060208284031215612cbe57600080fd5b8151801515811461240657600080fd5b6020808252601f908201527f5265656e7472616e637947756172643a207265656e7472616e742063616c6c00604082015260600190565b634e487b7160e01b600052603260045260246000fd5b634e487b7160e01b600052601160045260246000fd5b6000816000190483118215151615612d4b57612d4b612d1b565b500290565b600082612d6d57634e487b7160e01b600052601260045260246000fd5b500490565b600082821015612d8457612d84612d1b565b500390565b60008219821115612d9c57612d9c612d1b565b500190565b60006001600160401b03808316818516808303821115612dc357612dc3612d1b565b01949350505050565b600060208284031215612dde57600080fd5b5051919050565b6001600160a01b039384168152919092166020820152604081019190915260600190565b6001600160a01b03929092168252602082015260400190565b6001600160a01b0397881681529590961660208601526040850193909352606084019190915260ff16608083015260a082015260c081019190915260e00190565b60005b83811015612e7e578181015183820152602001612e66565b83811115611c315750506000910152565b76020b1b1b2b9b9a1b7b73a3937b61d1030b1b1b7bab73a1604d1b815260008351612ec1816017850160208801612e63565b7001034b99036b4b9b9b4b733903937b6329607d1b6017918401918201528351612ef2816028840160208801612e63565b01602801949350505050565b6020815260008251806020840152612f1d816040850160208701612e63565b601f01601f19169190910160400192915050565b600181815b80851115612f6c578160001904821115612f5257612f52612d1b565b80851615612f5f57918102915b93841c9390800290612f36565b509250929050565b600082612f83575060016106f5565b81612f90575060006106f5565b8160018114612fa65760028114612fb057612fcc565b60019150506106f5565b60ff841115612fc157612fc1612d1b565b50506001821b6106f5565b5060208310610133831016604e8410600b8410161715612fef575081810a6106f5565b612ff98383612f31565b806000190482111561300d5761300d612d1b565b029392505050565b60006124068383612f74565b60008161303057613030612d1b565b506000190190565b600060001982141561304c5761304c612d1b565b5060010190565b60008251613065818460208701612e63565b919091019291505056feed4b80c86c7954bdbf516c492acb4a2899eb0ee85b7c74e26d85e55a07562c95a2646970667358221220a471f1ba89449506450c446b2991019bf9fb95c801ddb309e1b6d41763343a0a64736f6c63430008090033",
  "devdoc": {
    "kind": "dev",
    "methods": {
      "getRoleAdmin(bytes32)": {
        "details": "Returns the admin role that controls `role`. See {grantRole} and {revokeRole}. To change a role's admin, use {_setRoleAdmin}."
      },
      "grantRole(bytes32,address)": {
        "details": "Grants `role` to `account`. If `account` had not been already granted `role`, emits a {RoleGranted} event. Requirements: - the caller must have ``role``'s admin role. May emit a {RoleGranted} event."
      },
      "hasRole(bytes32,address)": {
        "details": "Returns `true` if `account` has been granted `role`."
      },
      "paused()": {
        "details": "Returns true if the contract is paused, and false otherwise."
      },
      "renounceRole(bytes32,address)": {
        "details": "Revokes `role` from the calling account. Roles are often managed via {grantRole} and {revokeRole}: this function's purpose is to provide a mechanism for accounts to lose their privileges if they are compromised (such as when a trusted device is misplaced). If the calling account had been revoked `role`, emits a {RoleRevoked} event. Requirements: - the caller must be `account`. May emit a {RoleRevoked} event."
      },
      "revokeRole(bytes32,address)": {
        "details": "Revokes `role` from `account`. If `account` had been granted `role`, emits a {RoleRevoked} event. Requirements: - the caller must have ``role``'s admin role. May emit a {RoleRevoked} event."
      },
      "supportsInterface(bytes4)": {
        "details": "See {IERC165-supportsInterface}."
      }
    },
    "version": 1
  },
  "userdoc": {
    "kind": "user",
    "methods": {},
    "version": 1
  },
  "storageLayout": {
    "storage": [
      {
        "astId": 8770,
        "contract": "contracts/IDOpool/Pool.sol:Pool",
        "label": "_paused",
        "offset": 0,
        "slot": "0",
        "type": "t_bool"
      },
      {
        "astId": 8871,
        "contract": "contracts/IDOpool/Pool.sol:Pool",
        "label": "_status",
        "offset": 0,
        "slot": "1",
        "type": "t_uint256"
      },
      {
        "astId": 4661,
        "contract": "contracts/IDOpool/Pool.sol:Pool",
        "label": "root",
        "offset": 0,
        "slot": "2",
        "type": "t_bytes32"
      },
      {
        "astId": 8259,
        "contract": "contracts/IDOpool/Pool.sol:Pool",
        "label": "_roles",
        "offset": 0,
        "slot": "3",
        "type": "t_mapping(t_bytes32,t_struct(RoleData)8254_storage)"
      },
      {
        "astId": 2374,
        "contract": "contracts/IDOpool/Pool.sol:Pool",
        "label": "poolFactory",
        "offset": 0,
        "slot": "4",
        "type": "t_contract(IPoolFactory)4921"
      },
      {
        "astId": 2380,
        "contract": "contracts/IDOpool/Pool.sol:Pool",
        "label": "IDOToken",
        "offset": 0,
        "slot": "5",
        "type": "t_contract(IERC20)663"
      },
      {
        "astId": 2383,
        "contract": "contracts/IDOpool/Pool.sol:Pool",
        "label": "purchaseToken",
        "offset": 0,
        "slot": "6",
        "type": "t_contract(IERC20)663"
      },
      {
        "astId": 2386,
        "contract": "contracts/IDOpool/Pool.sol:Pool",
        "label": "offeredCurrency",
        "offset": 0,
        "slot": "7",
        "type": "t_struct(OfferedCurrency)2365_storage"
      },
      {
        "astId": 2388,
        "contract": "contracts/IDOpool/Pool.sol:Pool",
        "label": "maxPurchaseAmountForGalaxyPool",
        "offset": 0,
        "slot": "9",
        "type": "t_uint256"
      },
      {
        "astId": 2390,
        "contract": "contracts/IDOpool/Pool.sol:Pool",
        "label": "maxPurchaseAmountForEarlyAccess",
        "offset": 0,
        "slot": "10",
        "type": "t_uint256"
      },
      {
        "astId": 2392,
        "contract": "contracts/IDOpool/Pool.sol:Pool",
        "label": "maxPurchaseAmountForKYCUser",
        "offset": 0,
        "slot": "11",
        "type": "t_uint256"
      },
      {
        "astId": 2394,
        "contract": "contracts/IDOpool/Pool.sol:Pool",
        "label": "maxPurchaseAmountForNotKYCUser",
        "offset": 0,
        "slot": "12",
        "type": "t_uint256"
      },
      {
        "astId": 2396,
        "contract": "contracts/IDOpool/Pool.sol:Pool",
        "label": "TGEDate",
        "offset": 0,
        "slot": "13",
        "type": "t_uint64"
      },
      {
        "astId": 2398,
        "contract": "contracts/IDOpool/Pool.sol:Pool",
        "label": "TGEPercentage",
        "offset": 8,
        "slot": "13",
        "type": "t_uint16"
      },
      {
        "astId": 2400,
        "contract": "contracts/IDOpool/Pool.sol:Pool",
        "label": "participationFeePercentage",
        "offset": 10,
        "slot": "13",
        "type": "t_uint16"
      },
      {
        "astId": 2402,
        "contract": "contracts/IDOpool/Pool.sol:Pool",
        "label": "galaxyPoolProportion",
        "offset": 12,
        "slot": "13",
        "type": "t_uint16"
      },
      {
        "astId": 2404,
        "contract": "contracts/IDOpool/Pool.sol:Pool",
        "label": "earlyAccessProportion",
        "offset": 14,
        "slot": "13",
        "type": "t_uint16"
      },
      {
        "astId": 2406,
        "contract": "contracts/IDOpool/Pool.sol:Pool",
        "label": "TGEClaimable",
        "offset": 16,
        "slot": "13",
        "type": "t_bool"
      },
      {
        "astId": 2408,
        "contract": "contracts/IDOpool/Pool.sol:Pool",
        "label": "totalRaiseAmount",
        "offset": 0,
        "slot": "14",
        "type": "t_uint256"
      },
      {
        "astId": 2410,
        "contract": "contracts/IDOpool/Pool.sol:Pool",
        "label": "whaleOpenTime",
        "offset": 0,
        "slot": "15",
        "type": "t_uint64"
      },
      {
        "astId": 2412,
        "contract": "contracts/IDOpool/Pool.sol:Pool",
        "label": "whaleDuration",
        "offset": 8,
        "slot": "15",
        "type": "t_uint64"
      },
      {
        "astId": 2414,
        "contract": "contracts/IDOpool/Pool.sol:Pool",
        "label": "communityOpenTime",
        "offset": 16,
        "slot": "15",
        "type": "t_uint64"
      },
      {
        "astId": 2416,
        "contract": "contracts/IDOpool/Pool.sol:Pool",
        "label": "communityDuration",
        "offset": 24,
        "slot": "15",
        "type": "t_uint64"
      },
      {
        "astId": 2418,
        "contract": "contracts/IDOpool/Pool.sol:Pool",
        "label": "purchasedAmountInGalaxyPool",
        "offset": 0,
        "slot": "16",
        "type": "t_uint256"
      },
      {
        "astId": 2420,
        "contract": "contracts/IDOpool/Pool.sol:Pool",
        "label": "purchasedAmountInEarlyAccess",
        "offset": 0,
        "slot": "17",
        "type": "t_uint256"
      },
      {
        "astId": 2422,
        "contract": "contracts/IDOpool/Pool.sol:Pool",
        "label": "purchasedAmount",
        "offset": 0,
        "slot": "18",
        "type": "t_uint256"
      },
      {
        "astId": 2426,
        "contract": "contracts/IDOpool/Pool.sol:Pool",
        "label": "userPurchasedAmount",
        "offset": 0,
        "slot": "19",
        "type": "t_mapping(t_address,t_uint256)"
      },
      {
        "astId": 2430,
        "contract": "contracts/IDOpool/Pool.sol:Pool",
        "label": "userIDOAirdropAmount",
        "offset": 0,
        "slot": "20",
        "type": "t_mapping(t_address,t_uint256)"
      },
      {
        "astId": 2434,
        "contract": "contracts/IDOpool/Pool.sol:Pool",
        "label": "userIDOTGEAmount",
        "offset": 0,
        "slot": "21",
        "type": "t_mapping(t_address,t_uint256)"
      }
    ],
    "types": {
      "t_address": {
        "encoding": "inplace",
        "label": "address",
        "numberOfBytes": "20"
      },
      "t_bool": {
        "encoding": "inplace",
        "label": "bool",
        "numberOfBytes": "1"
      },
      "t_bytes32": {
        "encoding": "inplace",
        "label": "bytes32",
        "numberOfBytes": "32"
      },
      "t_contract(IERC20)663": {
        "encoding": "inplace",
        "label": "contract IERC20",
        "numberOfBytes": "20"
      },
      "t_contract(IPoolFactory)4921": {
        "encoding": "inplace",
        "label": "contract IPoolFactory",
        "numberOfBytes": "20"
      },
      "t_mapping(t_address,t_bool)": {
        "encoding": "mapping",
        "key": "t_address",
        "label": "mapping(address => bool)",
        "numberOfBytes": "32",
        "value": "t_bool"
      },
      "t_mapping(t_address,t_uint256)": {
        "encoding": "mapping",
        "key": "t_address",
        "label": "mapping(address => uint256)",
        "numberOfBytes": "32",
        "value": "t_uint256"
      },
      "t_mapping(t_bytes32,t_struct(RoleData)8254_storage)": {
        "encoding": "mapping",
        "key": "t_bytes32",
        "label": "mapping(bytes32 => struct AccessControl.RoleData)",
        "numberOfBytes": "32",
        "value": "t_struct(RoleData)8254_storage"
      },
      "t_struct(OfferedCurrency)2365_storage": {
        "encoding": "inplace",
        "label": "struct Pool.OfferedCurrency",
        "members": [
          {
            "astId": 2362,
            "contract": "contracts/IDOpool/Pool.sol:Pool",
            "label": "rate",
            "offset": 0,
            "slot": "0",
            "type": "t_uint256"
          },
          {
            "astId": 2364,
            "contract": "contracts/IDOpool/Pool.sol:Pool",
            "label": "decimal",
            "offset": 0,
            "slot": "1",
            "type": "t_uint256"
          }
        ],
        "numberOfBytes": "64"
      },
      "t_struct(RoleData)8254_storage": {
        "encoding": "inplace",
        "label": "struct AccessControl.RoleData",
        "members": [
          {
            "astId": 8251,
            "contract": "contracts/IDOpool/Pool.sol:Pool",
            "label": "members",
            "offset": 0,
            "slot": "0",
            "type": "t_mapping(t_address,t_bool)"
          },
          {
            "astId": 8253,
            "contract": "contracts/IDOpool/Pool.sol:Pool",
            "label": "adminRole",
            "offset": 0,
            "slot": "1",
            "type": "t_bytes32"
          }
        ],
        "numberOfBytes": "64"
      },
      "t_uint16": {
        "encoding": "inplace",
        "label": "uint16",
        "numberOfBytes": "2"
      },
      "t_uint256": {
        "encoding": "inplace",
        "label": "uint256",
        "numberOfBytes": "32"
      },
      "t_uint64": {
        "encoding": "inplace",
        "label": "uint64",
        "numberOfBytes": "8"
      }
    }
  }
}