{
  "address": "0x27e9F3503e03e63a92EFD3f67F0C72b9b4455045",
  "abi": [
    {
      "inputs": [],
      "name": "AlreadyAdmin",
      "type": "error"
    },
    {
      "inputs": [],
      "name": "AlreadyNotAdmin",
      "type": "error"
    },
    {
      "inputs": [],
      "name": "NotRegisteredPool",
      "type": "error"
    },
    {
      "inputs": [],
      "name": "NotValidEarlyAccessProportion",
      "type": "error"
    },
    {
      "inputs": [],
      "name": "NotValidGalaxyPoolProportion",
      "type": "error"
    },
    {
      "inputs": [],
      "name": "ZeroAddress",
      "type": "error"
    },
    {
      "inputs": [],
      "name": "ZeroAmount",
      "type": "error"
    },
    {
      "inputs": [],
      "name": "ZeroOfferedRate",
      "type": "error"
    },
    {
      "anonymous": false,
      "inputs": [
        {
          "indexed": false,
          "internalType": "uint8",
          "name": "version",
          "type": "uint8"
        }
      ],
      "name": "Initialized",
      "type": "event"
    },
    {
      "anonymous": false,
      "inputs": [
        {
          "indexed": false,
          "internalType": "address",
          "name": "createdBy",
          "type": "address"
        },
        {
          "indexed": true,
          "internalType": "address",
          "name": "token",
          "type": "address"
        },
        {
          "indexed": true,
          "internalType": "address",
          "name": "pool",
          "type": "address"
        },
        {
          "indexed": false,
          "internalType": "uint256",
          "name": "poolId",
          "type": "uint256"
        }
      ],
      "name": "PoolCreated",
      "type": "event"
    },
    {
      "anonymous": false,
      "inputs": [
        {
          "indexed": false,
          "internalType": "address",
          "name": "registeredBy",
          "type": "address"
        },
        {
          "indexed": true,
          "internalType": "address",
          "name": "token",
          "type": "address"
        },
        {
          "indexed": true,
          "internalType": "address",
          "name": "pool",
          "type": "address"
        }
      ],
      "name": "PoolRegistered",
      "type": "event"
    },
    {
      "anonymous": false,
      "inputs": [
        {
          "indexed": true,
          "internalType": "bytes32",
          "name": "role",
          "type": "bytes32"
        },
        {
          "indexed": true,
          "internalType": "bytes32",
          "name": "previousAdminRole",
          "type": "bytes32"
        },
        {
          "indexed": true,
          "internalType": "bytes32",
          "name": "newAdminRole",
          "type": "bytes32"
        }
      ],
      "name": "RoleAdminChanged",
      "type": "event"
    },
    {
      "anonymous": false,
      "inputs": [
        {
          "indexed": true,
          "internalType": "bytes32",
          "name": "role",
          "type": "bytes32"
        },
        {
          "indexed": true,
          "internalType": "address",
          "name": "account",
          "type": "address"
        },
        {
          "indexed": true,
          "internalType": "address",
          "name": "sender",
          "type": "address"
        }
      ],
      "name": "RoleGranted",
      "type": "event"
    },
    {
      "anonymous": false,
      "inputs": [
        {
          "indexed": true,
          "internalType": "bytes32",
          "name": "role",
          "type": "bytes32"
        },
        {
          "indexed": true,
          "internalType": "address",
          "name": "account",
          "type": "address"
        },
        {
          "indexed": true,
          "internalType": "address",
          "name": "sender",
          "type": "address"
        }
      ],
      "name": "RoleRevoked",
      "type": "event"
    },
    {
      "anonymous": false,
      "inputs": [
        {
          "indexed": true,
          "internalType": "address",
          "name": "oldPoolImplementation",
          "type": "address"
        },
        {
          "indexed": true,
          "internalType": "address",
          "name": "newPoolImplementation",
          "type": "address"
        }
      ],
      "name": "UpdatePoolImplementation",
      "type": "event"
    },
    {
      "inputs": [],
      "name": "ADMIN",
      "outputs": [
        {
          "internalType": "bytes32",
          "name": "",
          "type": "bytes32"
        }
      ],
      "stateMutability": "view",
      "type": "function"
    },
    {
      "inputs": [],
      "name": "DEFAULT_ADMIN_ROLE",
      "outputs": [
        {
          "internalType": "bytes32",
          "name": "",
          "type": "bytes32"
        }
      ],
      "stateMutability": "view",
      "type": "function"
    },
    {
      "inputs": [],
      "name": "PERCENTAGE_DENOMINATOR",
      "outputs": [
        {
          "internalType": "uint16",
          "name": "",
          "type": "uint16"
        }
      ],
      "stateMutability": "view",
      "type": "function"
    },
    {
      "inputs": [
        {
          "internalType": "uint256",
          "name": "",
          "type": "uint256"
        }
      ],
      "name": "allPools",
      "outputs": [
        {
          "internalType": "address",
          "name": "",
          "type": "address"
        }
      ],
      "stateMutability": "view",
      "type": "function"
    },
    {
      "inputs": [],
      "name": "allPoolsLength",
      "outputs": [
        {
          "internalType": "uint256",
          "name": "",
          "type": "uint256"
        }
      ],
      "stateMutability": "view",
      "type": "function"
    },
    {
      "inputs": [
        {
          "internalType": "address[2]",
          "name": "addrs",
          "type": "address[2]"
        },
        {
          "internalType": "uint256[13]",
          "name": "uints",
          "type": "uint256[13]"
        }
      ],
      "name": "createPool",
      "outputs": [
        {
          "internalType": "address",
          "name": "pool",
          "type": "address"
        }
      ],
      "stateMutability": "nonpayable",
      "type": "function"
    },
    {
      "inputs": [
        {
          "internalType": "address",
          "name": "",
          "type": "address"
        },
        {
          "internalType": "address",
          "name": "",
          "type": "address"
        },
        {
          "internalType": "uint256",
          "name": "",
          "type": "uint256"
        }
      ],
      "name": "getCreatedPools",
      "outputs": [
        {
          "internalType": "address",
          "name": "",
          "type": "address"
        }
      ],
      "stateMutability": "view",
      "type": "function"
    },
    {
      "inputs": [
        {
          "internalType": "address",
          "name": "_creator",
          "type": "address"
        },
        {
          "internalType": "address",
          "name": "_token",
          "type": "address"
        }
      ],
      "name": "getCreatedPoolsByToken",
      "outputs": [
        {
          "internalType": "address[]",
          "name": "",
          "type": "address[]"
        }
      ],
      "stateMutability": "view",
      "type": "function"
    },
    {
      "inputs": [
        {
          "internalType": "address",
          "name": "_creator",
          "type": "address"
        },
        {
          "internalType": "address",
          "name": "_token",
          "type": "address"
        }
      ],
      "name": "getCreatedPoolsLengthByToken",
      "outputs": [
        {
          "internalType": "uint256",
          "name": "",
          "type": "uint256"
        }
      ],
      "stateMutability": "view",
      "type": "function"
    },
    {
      "inputs": [
        {
          "internalType": "address",
          "name": "",
          "type": "address"
        },
        {
          "internalType": "address",
          "name": "",
          "type": "address"
        },
        {
          "internalType": "uint256",
          "name": "",
          "type": "uint256"
        }
      ],
      "name": "getRegisteredPools",
      "outputs": [
        {
          "internalType": "address",
          "name": "",
          "type": "address"
        }
      ],
      "stateMutability": "view",
      "type": "function"
    },
    {
      "inputs": [
        {
          "internalType": "address",
          "name": "_collaborator",
          "type": "address"
        },
        {
          "internalType": "address",
          "name": "_token",
          "type": "address"
        }
      ],
      "name": "getRegisteredPoolsByToken",
      "outputs": [
        {
          "internalType": "address[]",
          "name": "",
          "type": "address[]"
        }
      ],
      "stateMutability": "view",
      "type": "function"
    },
    {
      "inputs": [
        {
          "internalType": "address",
          "name": "_collaborator",
          "type": "address"
        },
        {
          "internalType": "address",
          "name": "_token",
          "type": "address"
        }
      ],
      "name": "getRegisteredPoolsLengthByToken",
      "outputs": [
        {
          "internalType": "uint256",
          "name": "",
          "type": "uint256"
        }
      ],
      "stateMutability": "view",
      "type": "function"
    },
    {
      "inputs": [
        {
          "internalType": "bytes32",
          "name": "role",
          "type": "bytes32"
        }
      ],
      "name": "getRoleAdmin",
      "outputs": [
        {
          "internalType": "bytes32",
          "name": "",
          "type": "bytes32"
        }
      ],
      "stateMutability": "view",
      "type": "function"
    },
    {
      "inputs": [
        {
          "internalType": "address",
          "name": "_admin",
          "type": "address"
        }
      ],
      "name": "grantAdminRole",
      "outputs": [],
      "stateMutability": "nonpayable",
      "type": "function"
    },
    {
      "inputs": [
        {
          "internalType": "bytes32",
          "name": "role",
          "type": "bytes32"
        },
        {
          "internalType": "address",
          "name": "account",
          "type": "address"
        }
      ],
      "name": "grantRole",
      "outputs": [],
      "stateMutability": "nonpayable",
      "type": "function"
    },
    {
      "inputs": [
        {
          "internalType": "address",
          "name": "_admin",
          "type": "address"
        }
      ],
      "name": "hasAdminRole",
      "outputs": [
        {
          "internalType": "bool",
          "name": "",
          "type": "bool"
        }
      ],
      "stateMutability": "view",
      "type": "function"
    },
    {
      "inputs": [
        {
          "internalType": "bytes32",
          "name": "role",
          "type": "bytes32"
        },
        {
          "internalType": "address",
          "name": "account",
          "type": "address"
        }
      ],
      "name": "hasRole",
      "outputs": [
        {
          "internalType": "bool",
          "name": "",
          "type": "bool"
        }
      ],
      "stateMutability": "view",
      "type": "function"
    },
    {
      "inputs": [
        {
          "internalType": "address[2]",
          "name": "addrs",
          "type": "address[2]"
        },
        {
          "internalType": "uint256[13]",
          "name": "uints",
          "type": "uint256[13]"
        }
      ],
      "name": "hashPoolInfo",
      "outputs": [
        {
          "internalType": "uint256",
          "name": "",
          "type": "uint256"
        }
      ],
      "stateMutability": "pure",
      "type": "function"
    },
    {
      "inputs": [
        {
          "internalType": "address",
          "name": "_poolImplementationAddress",
          "type": "address"
        }
      ],
      "name": "initialize",
      "outputs": [],
      "stateMutability": "nonpayable",
      "type": "function"
    },
    {
      "inputs": [],
      "name": "poolImplementationAddress",
      "outputs": [
        {
          "internalType": "address",
          "name": "",
          "type": "address"
        }
      ],
      "stateMutability": "view",
      "type": "function"
    },
    {
      "inputs": [
        {
          "internalType": "address",
          "name": "collaborator",
          "type": "address"
        },
        {
          "internalType": "address[2]",
          "name": "addrs",
          "type": "address[2]"
        },
        {
          "internalType": "uint256[13]",
          "name": "uints",
          "type": "uint256[13]"
        }
      ],
      "name": "registerPoolAddress",
      "outputs": [
        {
          "internalType": "address",
          "name": "pool",
          "type": "address"
        }
      ],
      "stateMutability": "nonpayable",
      "type": "function"
    },
    {
      "inputs": [
        {
          "internalType": "address",
          "name": "",
          "type": "address"
        },
        {
          "internalType": "uint256",
          "name": "",
          "type": "uint256"
        },
        {
          "internalType": "uint256",
          "name": "",
          "type": "uint256"
        }
      ],
      "name": "registerPools",
      "outputs": [
        {
          "internalType": "address",
          "name": "",
          "type": "address"
        }
      ],
      "stateMutability": "view",
      "type": "function"
    },
    {
      "inputs": [
        {
          "internalType": "bytes32",
          "name": "role",
          "type": "bytes32"
        },
        {
          "internalType": "address",
          "name": "account",
          "type": "address"
        }
      ],
      "name": "renounceRole",
      "outputs": [],
      "stateMutability": "nonpayable",
      "type": "function"
    },
    {
      "inputs": [
        {
          "internalType": "address",
          "name": "_admin",
          "type": "address"
        }
      ],
      "name": "revokeAdminRole",
      "outputs": [],
      "stateMutability": "nonpayable",
      "type": "function"
    },
    {
      "inputs": [
        {
          "internalType": "bytes32",
          "name": "role",
          "type": "bytes32"
        },
        {
          "internalType": "address",
          "name": "account",
          "type": "address"
        }
      ],
      "name": "revokeRole",
      "outputs": [],
      "stateMutability": "nonpayable",
      "type": "function"
    },
    {
      "inputs": [
        {
          "internalType": "address",
          "name": "_poolImplementationAddress",
          "type": "address"
        }
      ],
      "name": "setPoolImplementation",
      "outputs": [],
      "stateMutability": "nonpayable",
      "type": "function"
    },
    {
      "inputs": [
        {
          "internalType": "bytes4",
          "name": "interfaceId",
          "type": "bytes4"
        }
      ],
      "name": "supportsInterface",
      "outputs": [
        {
          "internalType": "bool",
          "name": "",
          "type": "bool"
        }
      ],
      "stateMutability": "view",
      "type": "function"
    }
  ],
  "transactionHash": "0x34f0f16ab4cd547f37f83506ab7888c8697783ee5315cc13b9444651f107e812",
  "args": [],
  "numDeployments": 1,
  "solcInputHash": "3c59b9d3555cba71595f2de2653b088f",
  "bytecode": "0x608060405234801561001057600080fd5b50611769806100206000396000f3fe608060405234801561001057600080fd5b50600436106101795760003560e01c80639a19c7b0116100d9578063c395fcb311610087578063c395fcb31461037c578063c4d66de81461038f578063c634b78e146103a2578063d547741f146103b5578063d6f74898146103c8578063e1825d3f146103db578063efde4e641461041457600080fd5b80639a19c7b0146102ec5780639ad17223146102ff5780639ff96d2114610312578063a217fddf14610332578063ae7a774b1461033a578063b3cd42541461034d578063c0f40eb31461036957600080fd5b8063343fb63a11610136578063343fb63a1461024057806336568abe1461025357806341d1de97146102665780636fcb0b40146102795780637fd37609146102b357806391d14854146102c6578063983bf2bf146102d957600080fd5b806301ffc9a71461017e57806315ef4ddc146101a65780631b1dc5ee146101d1578063248a9ca3146101e45780632a0acc6a146102165780632f2ff15d1461022b575b600080fd5b61019161018c36600461123f565b61041c565b60405190151581526020015b60405180910390f35b6002546101b9906001600160a01b031681565b6040516001600160a01b03909116815260200161019d565b6101b96101df366004611391565b610453565b6102086101f23660046113c7565b6000908152600160208190526040909120015490565b60405190815260200161019d565b61020860008051602061171483398151915281565b61023e6102393660046113e0565b610649565b005b6101b961024e366004611403565b610674565b61023e6102613660046113e0565b6106b9565b6101b96102743660046113c7565b61073c565b6101b961028736600461143f565b60056020908152600093845260408085208252928452828420905282529020546001600160a01b031681565b6102086102c1366004611472565b610766565b6101916102d43660046113e0565b610791565b6101b96102e736600461149c565b6107bc565b61023e6102fa3660046114e2565b6108cb565b61020861030d366004611391565b610930565b610325610320366004611472565b610964565b60405161019d91906114fd565b610208600081565b610325610348366004611472565b6109e7565b61035661271081565b60405161ffff909116815260200161019d565b6101b9610377366004611403565b610a68565b61019161038a3660046114e2565b610a90565b61023e61039d3660046114e2565b610aaa565b61023e6103b03660046114e2565b610be6565b61023e6103c33660046113e0565b610c55565b61023e6103d63660046114e2565b610c7b565b6102086103e9366004611472565b6001600160a01b03918216600090815260066020908152604080832093909416825291909152205490565b600354610208565b60006001600160e01b03198216637965db0b60e01b148061044d57506301ffc9a760e01b6001600160e01b03198316145b92915050565b600080808080610464338888610cef565b3360009081526005602090815260408083208584528252808320868452909152902054939750919550935091506001600160a01b03166104b757604051634318e2a160e01b815260040160405180910390fd5b3360009081526005602090815260408083208584528252822091859052526002546104eb906001600160a01b031682610d6a565b604051630b24ed3760e11b81529095506001600160a01b03861690631649da6e9061051c908a908a9060040161154a565b600060405180830381600087803b15801561053657600080fd5b505af115801561054a573d6000803e3d6000fd5b50505050600460006105593390565b6001600160a01b039081168252602080830193909352604091820160009081208883168083529085529281208054600181810183559183529482209094018054928a166001600160a01b031993841681179091556003805495860181559091527fc2575a0e9e593c00f959f8c92f12db2869c3395a3b0502d05e2516446f71f85b9093018054909116831790557febbbe9dc3a19d2f959ac76ac0372b4983cdfb945f5d6aef4873c36fabb2ba8aa61060e3390565b60035461061d906001906115c6565b604080516001600160a01b03909316835260208301919091520160405180910390a35050505092915050565b6000828152600160208190526040909120015461066581610e04565b61066f8383610e11565b505050565b6004602052826000526040600020602052816000526040600020818154811061069c57600080fd5b6000918252602090912001546001600160a01b0316925083915050565b6001600160a01b038116331461072e5760405162461bcd60e51b815260206004820152602f60248201527f416363657373436f6e74726f6c3a2063616e206f6e6c792072656e6f756e636560448201526e103937b632b9903337b91039b2b63360891b60648201526084015b60405180910390fd5b6107388282610e7c565b5050565b6003818154811061074c57600080fd5b6000918252602090912001546001600160a01b0316905081565b6001600160a01b03918216600090815260046020908152604080832093909416825291909152205490565b60009182526001602090815260408084206001600160a01b0393909316845291905290205460ff1690565b60006000805160206117148339815191526107d681610e04565b6000806000806107e7898989610cef565b60025493975091955093509150610807906001600160a01b031682610ee3565b6001600160a01b03808b1660008181526005602090815260408083208884528252808320898452825280832080548688166001600160a01b0319918216811790925594845260068352818420958b1680855295835290832080546001810182559084529190922001805490921681179091559197507f61afef2e121f71511fab2583c5ac49a5dc1d7a8ad8ad91c44c8465f073a73ac46108a43390565b6040516001600160a01b03909116815260200160405180910390a350505050509392505050565b6000805160206117148339815191526108e381610e04565b6108fb60008051602061171483398151915283610791565b6109185760405163e901e0f560e01b815260040160405180910390fd5b61073860008051602061171483398151915283610e7c565b6000828260405160200161094592919061154a565b60408051601f1981840301815291905280516020909101209392505050565b6001600160a01b0380831660009081526006602090815260408083209385168352928152908290208054835181840281018401909452808452606093928301828280156109da57602002820191906000526020600020905b81546001600160a01b031681526001909101906020018083116109bc575b5050505050905092915050565b6001600160a01b0380831660009081526004602090815260408083209385168352928152908290208054835181840281018401909452808452606093928301828280156109da576020028201919060005260206000209081546001600160a01b031681526001909101906020018083116109bc575050505050905092915050565b6006602052826000526040600020602052816000526040600020818154811061069c57600080fd5b600061044d60008051602061171483398151915283610791565b600054610100900460ff1615808015610aca5750600054600160ff909116105b80610ae45750303b158015610ae4575060005460ff166001145b610b475760405162461bcd60e51b815260206004820152602e60248201527f496e697469616c697a61626c653a20636f6e747261637420697320616c72656160448201526d191e481a5b9a5d1a585b1a5e995960921b6064820152608401610725565b6000805460ff191660011790558015610b6a576000805461ff0019166101001790555b600280546001600160a01b0319166001600160a01b038416179055610b9d60008051602061171483398151915233610f50565b8015610738576000805461ff0019169055604051600181527f7f26b83ff96e1f2b6a682f133852f6798a09c465da95921460cefb38474024989060200160405180910390a15050565b600080516020611714833981519152610bfe81610e04565b610c0782610f5a565b610c1f60008051602061171483398151915283610791565b15610c3d57604051631c3681a560e11b815260040160405180910390fd5b61073860008051602061171483398151915283610e11565b60008281526001602081905260409091200154610c7181610e04565b61066f8383610e7c565b600080516020611714833981519152610c9381610e04565b610c9c82610f5a565b600280546001600160a01b038481166001600160a01b0319831681179093556040519116919082907f0617fd31aa5ab95ec80eefc1eb61a2c477aa419d1d761b4e46f5f077e47852aa90600090a3505050565b600080600080610cff8686610f81565b85519350610d0d3385610766565b9250610d198686610930565b6040516bffffffffffffffffffffffff1960608a901b166020820152603481018290526054810185905290925060740160405160208183030381529060405280519060200120905093509350935093565b6000604051733d602d80600a3d3981f3363d3d373d3d3d363d7360601b81528360601b60148201526e5af43d82803e903d91602b57fd5bf360881b6028820152826037826000f59150506001600160a01b03811661044d5760405162461bcd60e51b8152602060048201526017602482015276115490cc4c4d8dce8818dc99585d194c8819985a5b1959604a1b6044820152606401610725565b610e0e8133611021565b50565b610e1b8282610791565b6107385760008281526001602081815260408084206001600160a01b0386168086529252808420805460ff19169093179092559051339285917f2f8788117e7eff1d82e926ec794901d17c78024a50270940304540a733656f0d9190a45050565b610e868282610791565b156107385760008281526001602090815260408083206001600160a01b0385168085529252808320805460ff1916905551339285917ff6391f5c32d9c69d2a47ea670b442974b53935d1edc7fd64eb21e047a839171b9190a45050565b6000610f49838330604051733d602d80600a3d3981f3363d3d373d3d3d363d7360601b8152606093841b60148201526f5af43d82803e903d91602b57fd5bf3ff60801b6028820152921b6038830152604c8201526037808220606c830152605591012090565b9392505050565b6107388282610e11565b6001600160a01b038116610e0e5760405163d92e233d60e01b815260040160405180910390fd5b8151610f8c81610f5a565b6020830151610f9a81610f5a565b5060a0820151612710811115610fc35760405163f8967ebd60e01b815260040160405180910390fd5b60c0830151612710811115610feb576040516343edeabb60e11b815260040160405180910390fd5b60e0840151610ff981611085565b61014085015161100881611085565b61016086015161101781611085565b5050505050505050565b61102b8282610791565b61073857611043816001600160a01b031660146110a3565b61104e8360206110a3565b60405160200161105f929190611623565b60408051601f198184030181529082905262461bcd60e51b825261072591600401611692565b80610e0e57604051631f2a200560e01b815260040160405180910390fd5b606060006110b28360026116c5565b6110bd9060026116e4565b67ffffffffffffffff8111156110d5576110d5611269565b6040519080825280601f01601f1916602001820160405280156110ff576020820181803683370190505b509050600360fc1b8160008151811061111a5761111a6115dd565b60200101906001600160f81b031916908160001a905350600f60fb1b81600181518110611149576111496115dd565b60200101906001600160f81b031916908160001a905350600061116d8460026116c5565b6111789060016116e4565b90505b60018111156111f0576f181899199a1a9b1b9c1cb0b131b232b360811b85600f16601081106111ac576111ac6115dd565b1a60f81b8282815181106111c2576111c26115dd565b60200101906001600160f81b031916908160001a90535060049490941c936111e9816116fc565b905061117b565b508315610f495760405162461bcd60e51b815260206004820181905260248201527f537472696e67733a20686578206c656e67746820696e73756666696369656e746044820152606401610725565b60006020828403121561125157600080fd5b81356001600160e01b031981168114610f4957600080fd5b634e487b7160e01b600052604160045260246000fd5b80356001600160a01b038116811461129657600080fd5b919050565b600082601f8301126112ac57600080fd5b6040516040810181811067ffffffffffffffff821117156112dd57634e487b7160e01b600052604160045260246000fd5b80604052508060408401858111156112f457600080fd5b845b81811015611315576113078161127f565b8352602092830192016112f6565b509195945050505050565b600082601f83011261133157600080fd5b6040516101a080820182811067ffffffffffffffff8211171561136457634e487b7160e01b600052604160045260246000fd5b6040528301818582111561137757600080fd5b845b82811015611315578035825260209182019101611379565b6000806101e083850312156113a557600080fd5b6113af848461129b565b91506113be8460408501611320565b90509250929050565b6000602082840312156113d957600080fd5b5035919050565b600080604083850312156113f357600080fd5b823591506113be6020840161127f565b60008060006060848603121561141857600080fd5b6114218461127f565b925061142f6020850161127f565b9150604084013590509250925092565b60008060006060848603121561145457600080fd5b61145d8461127f565b95602085013595506040909401359392505050565b6000806040838503121561148557600080fd5b61148e8361127f565b91506113be6020840161127f565b600080600061020084860312156114b257600080fd5b6114bb8461127f565b92506114ca856020860161129b565b91506114d98560608601611320565b90509250925092565b6000602082840312156114f457600080fd5b610f498261127f565b6020808252825182820181905260009190848201906040850190845b8181101561153e5783516001600160a01b031683529284019291840191600101611519565b50909695505050505050565b6101e08101818460005b600281101561157c5781516001600160a01b0316835260209283019290910190600101611554565b505050604082018360005b600d8110156115a6578151835260209283019290910190600101611587565b5050509392505050565b634e487b7160e01b600052601160045260246000fd5b6000828210156115d8576115d86115b0565b500390565b634e487b7160e01b600052603260045260246000fd5b60005b8381101561160e5781810151838201526020016115f6565b8381111561161d576000848401525b50505050565b76020b1b1b2b9b9a1b7b73a3937b61d1030b1b1b7bab73a1604d1b8152600083516116558160178501602088016115f3565b7001034b99036b4b9b9b4b733903937b6329607d1b60179184019182015283516116868160288401602088016115f3565b01602801949350505050565b60208152600082518060208401526116b18160408501602087016115f3565b601f01601f19169190910160400192915050565b60008160001904831182151516156116df576116df6115b0565b500290565b600082198211156116f7576116f76115b0565b500190565b60008161170b5761170b6115b0565b50600019019056fedf8b4c520ffe197c5343c6f5aec59570151ef9a492f2c624fd45ddde6135ec42a2646970667358221220ce5f678e3d8fe86213ab5757a3982d291fe8610157772c7b7961f48769f8360a64736f6c63430008090033",
  "devdoc": {
    "kind": "dev",
    "methods": {
      "allPoolsLength()": {
        "returns": {
          "_0": "Return number of created pools"
        }
      },
      "getCreatedPoolsByToken(address,address)": {
        "details": "User can retrieve their created pool by address of tokens",
        "params": {
          "_creator": "Address of created pool user",
          "_token": "Address of token want to query"
        },
        "returns": {
          "_0": "Created Pool Address"
        }
      },
      "getCreatedPoolsLengthByToken(address,address)": {
        "params": {
          "_creator": "Address of created pool user",
          "_token": "Address of token want to query"
        },
        "returns": {
          "_0": "Return number of created pool"
        }
      },
      "getRoleAdmin(bytes32)": {
        "details": "Returns the admin role that controls `role`. See {grantRole} and {revokeRole}. To change a role's admin, use {_setRoleAdmin}."
      },
      "grantRole(bytes32,address)": {
        "details": "Grants `role` to `account`. If `account` had not been already granted `role`, emits a {RoleGranted} event. Requirements: - the caller must have ``role``'s admin role. May emit a {RoleGranted} event."
      },
      "hasRole(bytes32,address)": {
        "details": "Returns `true` if `account` has been granted `role`."
      },
      "renounceRole(bytes32,address)": {
        "details": "Revokes `role` from the calling account. Roles are often managed via {grantRole} and {revokeRole}: this function's purpose is to provide a mechanism for accounts to lose their privileges if they are compromised (such as when a trusted device is misplaced). If the calling account had been revoked `role`, emits a {RoleRevoked} event. Requirements: - the caller must be `account`. May emit a {RoleRevoked} event."
      },
      "revokeRole(bytes32,address)": {
        "details": "Revokes `role` from `account`. If `account` had been granted `role`, emits a {RoleRevoked} event. Requirements: - the caller must have ``role``'s admin role. May emit a {RoleRevoked} event."
      },
      "supportsInterface(bytes4)": {
        "details": "See {IERC165-supportsInterface}."
      }
    },
    "version": 1
  },
  "userdoc": {
    "kind": "user",
    "methods": {
      "allPoolsLength()": {
        "notice": "Get the number of all created pools"
      },
      "getCreatedPoolsByToken(address,address)": {
        "notice": "Get the created pools by token address"
      },
      "getCreatedPoolsLengthByToken(address,address)": {
        "notice": "Retrieve number of pools created for specific token"
      }
    },
    "version": 1
  },
  "storageLayout": {
    "storage": [
      {
        "astId": 8606,
        "contract": "contracts/IDOpool/PoolFactory.sol:PoolFactory",
        "label": "_initialized",
        "offset": 0,
        "slot": "0",
        "type": "t_uint8"
      },
      {
        "astId": 8609,
        "contract": "contracts/IDOpool/PoolFactory.sol:PoolFactory",
        "label": "_initializing",
        "offset": 1,
        "slot": "0",
        "type": "t_bool"
      },
      {
        "astId": 8259,
        "contract": "contracts/IDOpool/PoolFactory.sol:PoolFactory",
        "label": "_roles",
        "offset": 0,
        "slot": "1",
        "type": "t_mapping(t_bytes32,t_struct(RoleData)8254_storage)"
      },
      {
        "astId": 4019,
        "contract": "contracts/IDOpool/PoolFactory.sol:PoolFactory",
        "label": "poolImplementationAddress",
        "offset": 0,
        "slot": "2",
        "type": "t_address"
      },
      {
        "astId": 4027,
        "contract": "contracts/IDOpool/PoolFactory.sol:PoolFactory",
        "label": "allPools",
        "offset": 0,
        "slot": "3",
        "type": "t_array(t_address)dyn_storage"
      },
      {
        "astId": 4034,
        "contract": "contracts/IDOpool/PoolFactory.sol:PoolFactory",
        "label": "getCreatedPools",
        "offset": 0,
        "slot": "4",
        "type": "t_mapping(t_address,t_mapping(t_address,t_array(t_address)dyn_storage))"
      },
      {
        "astId": 4042,
        "contract": "contracts/IDOpool/PoolFactory.sol:PoolFactory",
        "label": "registerPools",
        "offset": 0,
        "slot": "5",
        "type": "t_mapping(t_address,t_mapping(t_uint256,t_mapping(t_uint256,t_address)))"
      },
      {
        "astId": 4049,
        "contract": "contracts/IDOpool/PoolFactory.sol:PoolFactory",
        "label": "getRegisteredPools",
        "offset": 0,
        "slot": "6",
        "type": "t_mapping(t_address,t_mapping(t_address,t_array(t_address)dyn_storage))"
      }
    ],
    "types": {
      "t_address": {
        "encoding": "inplace",
        "label": "address",
        "numberOfBytes": "20"
      },
      "t_array(t_address)dyn_storage": {
        "base": "t_address",
        "encoding": "dynamic_array",
        "label": "address[]",
        "numberOfBytes": "32"
      },
      "t_bool": {
        "encoding": "inplace",
        "label": "bool",
        "numberOfBytes": "1"
      },
      "t_bytes32": {
        "encoding": "inplace",
        "label": "bytes32",
        "numberOfBytes": "32"
      },
      "t_mapping(t_address,t_array(t_address)dyn_storage)": {
        "encoding": "mapping",
        "key": "t_address",
        "label": "mapping(address => address[])",
        "numberOfBytes": "32",
        "value": "t_array(t_address)dyn_storage"
      },
      "t_mapping(t_address,t_bool)": {
        "encoding": "mapping",
        "key": "t_address",
        "label": "mapping(address => bool)",
        "numberOfBytes": "32",
        "value": "t_bool"
      },
      "t_mapping(t_address,t_mapping(t_address,t_array(t_address)dyn_storage))": {
        "encoding": "mapping",
        "key": "t_address",
        "label": "mapping(address => mapping(address => address[]))",
        "numberOfBytes": "32",
        "value": "t_mapping(t_address,t_array(t_address)dyn_storage)"
      },
      "t_mapping(t_address,t_mapping(t_uint256,t_mapping(t_uint256,t_address)))": {
        "encoding": "mapping",
        "key": "t_address",
        "label": "mapping(address => mapping(uint256 => mapping(uint256 => address)))",
        "numberOfBytes": "32",
        "value": "t_mapping(t_uint256,t_mapping(t_uint256,t_address))"
      },
      "t_mapping(t_bytes32,t_struct(RoleData)8254_storage)": {
        "encoding": "mapping",
        "key": "t_bytes32",
        "label": "mapping(bytes32 => struct AccessControl.RoleData)",
        "numberOfBytes": "32",
        "value": "t_struct(RoleData)8254_storage"
      },
      "t_mapping(t_uint256,t_address)": {
        "encoding": "mapping",
        "key": "t_uint256",
        "label": "mapping(uint256 => address)",
        "numberOfBytes": "32",
        "value": "t_address"
      },
      "t_mapping(t_uint256,t_mapping(t_uint256,t_address))": {
        "encoding": "mapping",
        "key": "t_uint256",
        "label": "mapping(uint256 => mapping(uint256 => address))",
        "numberOfBytes": "32",
        "value": "t_mapping(t_uint256,t_address)"
      },
      "t_struct(RoleData)8254_storage": {
        "encoding": "inplace",
        "label": "struct AccessControl.RoleData",
        "members": [
          {
            "astId": 8251,
            "contract": "contracts/IDOpool/PoolFactory.sol:PoolFactory",
            "label": "members",
            "offset": 0,
            "slot": "0",
            "type": "t_mapping(t_address,t_bool)"
          },
          {
            "astId": 8253,
            "contract": "contracts/IDOpool/PoolFactory.sol:PoolFactory",
            "label": "adminRole",
            "offset": 0,
            "slot": "1",
            "type": "t_bytes32"
          }
        ],
        "numberOfBytes": "64"
      },
      "t_uint256": {
        "encoding": "inplace",
        "label": "uint256",
        "numberOfBytes": "32"
      },
      "t_uint8": {
        "encoding": "inplace",
        "label": "uint8",
        "numberOfBytes": "1"
      }
    }
  }
}