{
  "address": "0xEC110FbCAd8311fbB06BAD7970De252133F0281a",
  "abi": [
    {
      "inputs": [],
      "name": "PERCENTAGE_DENOMINATOR",
      "outputs": [
        {
          "internalType": "uint16",
          "name": "",
          "type": "uint16"
        }
      ],
      "stateMutability": "view",
      "type": "function"
    },
    {
      "inputs": [
        {
          "internalType": "uint256",
          "name": "_purchaseAmount",
          "type": "uint256"
        },
        {
          "internalType": "uint256",
          "name": "_participationFeePercentage",
          "type": "uint256"
        }
      ],
      "name": "calculateParticipantFee",
      "outputs": [
        {
          "internalType": "uint256",
          "name": "",
          "type": "uint256"
        }
      ],
      "stateMutability": "pure",
      "type": "function"
    },
    {
      "inputs": [
        {
          "internalType": "address",
          "name": "_address",
          "type": "address"
        }
      ],
      "name": "validAddress",
      "outputs": [],
      "stateMutability": "pure",
      "type": "function"
    },
    {
      "inputs": [
        {
          "internalType": "uint256",
          "name": "_amount",
          "type": "uint256"
        }
      ],
      "name": "validAmount",
      "outputs": [],
      "stateMutability": "pure",
      "type": "function"
    },
    {
      "inputs": [
        {
          "internalType": "address[2]",
          "name": "addrs",
          "type": "address[2]"
        },
        {
          "internalType": "uint256[18]",
          "name": "uints",
          "type": "uint256[18]"
        }
      ],
      "name": "verifyPoolInfo",
      "outputs": [],
      "stateMutability": "pure",
      "type": "function"
    }
  ],
  "transactionHash": "0xb158984598110cdc79e73eb65ccec1c1131dfac834d22707ffb4253a6e449a2f",
  "args": [],
  "numDeployments": 1,
  "solcInputHash": "72ace9f111c0addbb4e8e9092b8526b7",
  "bytecode": "0x61057061003a600b82828239805160001a60731461002d57634e487b7160e01b600052600060045260246000fd5b30600052607381538281f3fe73000000000000000000000000000000000000000030146080604052600436106100615760003560e01c80635c1c862114610066578063749a979a1461007b578063a77559421461008e578063b3cd4254146100b4578063b95f0a63146100d0575b600080fd5b610079610074366004610300565b6100e3565b005b61007961008936600461031b565b61012f565b6100a161009c366004610334565b610165565b6040519081526020015b60405180910390f35b6100bd61271081565b60405161ffff90911681526020016100ab565b6100796100de3660046103bf565b610194565b6040805180820190915260018152600d60fa1b60208201526001600160a01b03821661012b5760405162461bcd60e51b81526004016101229190610476565b60405180910390fd5b5050565b6040805180820190915260018152603360f81b60208201528161012b5760405162461bcd60e51b81526004016101229190610476565b6000816101745750600061018e565b61271061018183856104e1565b61018b9190610500565b90505b92915050565b60208201516101a2906100e3565b604080820151815180830190925260018252603560f81b602083015261271010156101e05760405162461bcd60e51b81526004016101229190610476565b506101f28160055b602002015161012f565b60a08101516040805180820190915260018152603760f81b602082015290612710116102315760405162461bcd60e51b81526004016101229190610476565b5060c08101516040805180820190915260018152600760fb1b602082015290612710116102715760405162461bcd60e51b81526004016101229190610476565b506101a08101516101408201516101208301516101008401516102949190610522565b61029e9190610522565b1115604051806040016040528060018152602001603960f81b815250906102d85760405162461bcd60e51b81526004016101229190610476565b5061012b8160076101e8565b80356001600160a01b03811681146102fb57600080fd5b919050565b60006020828403121561031257600080fd5b61018b826102e4565b60006020828403121561032d57600080fd5b5035919050565b6000806040838503121561034757600080fd5b50508035926020909101359150565b6040805190810167ffffffffffffffff8111828210171561038757634e487b7160e01b600052604160045260246000fd5b60405290565b604051610240810167ffffffffffffffff8111828210171561038757634e487b7160e01b600052604160045260246000fd5b6000806102808084860312156103d457600080fd5b84601f8501126103e357600080fd5b6103eb610356565b8060408601878111156103fd57600080fd5b865b8181101561041e57610410816102e4565b8452602093840193016103ff565b5081955087605f88011261043157600080fd5b61043961038d565b9387019392508291508784111561044f57600080fd5b5b83811015610468578035835260209283019201610450565b508093505050509250929050565b600060208083528351808285015260005b818110156104a357858101830151858201604001528201610487565b818111156104b5576000604083870101525b50601f01601f1916929092016040019392505050565b634e487b7160e01b600052601160045260246000fd5b60008160001904831182151516156104fb576104fb6104cb565b500290565b60008261051d57634e487b7160e01b600052601260045260246000fd5b500490565b60008219821115610535576105356104cb565b50019056fea2646970667358221220484949f5367b312fb93b309c6c730a75010dacd34de52fcc72269cf401ba740864736f6c634300080a0033",
  "devdoc": {
    "kind": "dev",
    "methods": {
      "calculateParticipantFee(uint256,uint256)": {
        "details": "Calculate fee when investor buy token",
        "params": {
          "_participationFeePercentage": "Fee percentage when buying token",
          "_purchaseAmount": "Purchase amount of investor"
        },
        "returns": {
          "_0": "Return amount of fee when investor buy token"
        }
      },
      "validAddress(address)": {
        "details": "Check whether or not an address is zero address",
        "params": {
          "_address": "An address"
        }
      },
      "validAmount(uint256)": {
        "details": "Check whether or not an amount greater than 0",
        "params": {
          "_amount": "An amount"
        }
      },
      "verifyPoolInfo(address[2],uint256[18])": {
        "details": "verify information of pool",
        "params": {
          "addrs": "Array of address includes: - address of IDO token, - address of purchase token",
          "uints": "Array of pool information includes: - max purchase amount for KYC user, - max purchase amount for Not KYC user, - token fee percentage, - galaxy participation fee percentage, - crowdfunding participation fee percentage, - galaxy pool proportion, - early access proportion, - total raise amount, - whale open time, - whale duration, - community duration, - rate of IDO token (based on README formula), - decimal of IDO token (based on README formula, is different from decimals in contract of IDO token), - TGE date, - TGE percentage, - vesting cliff, - vesting frequency, - number of vesting release"
        }
      }
    },
    "stateVariables": {
      "PERCENTAGE_DENOMINATOR": {
        "details": "Percentage denominator"
      }
    },
    "version": 1
  },
  "userdoc": {
    "kind": "user",
    "methods": {},
    "version": 1
  },
  "storageLayout": {
    "storage": [],
    "types": null
  }
}