{
  "address": "0x377298bee37ddeAab8ac5944708b6A3e2c5c81bB",
  "abi": [
    {
      "anonymous": false,
      "inputs": [
        {
          "indexed": true,
          "internalType": "address",
          "name": "buyer",
          "type": "address"
        },
        {
          "indexed": true,
          "internalType": "address",
          "name": "pool",
          "type": "address"
        },
        {
          "indexed": false,
          "internalType": "uint256",
          "name": "purchaseAmount",
          "type": "uint256"
        },
        {
          "indexed": false,
          "internalType": "uint256",
          "name": "IDOTokenAmount",
          "type": "uint256"
        },
        {
          "indexed": false,
          "internalType": "uint8",
          "name": "poolType",
          "type": "uint8"
        }
      ],
      "name": "BuyToken",
      "type": "event"
    },
    {
      "anonymous": false,
      "inputs": [
        {
          "indexed": true,
          "internalType": "address",
          "name": "pool",
          "type": "address"
        },
        {
          "indexed": false,
          "internalType": "bool",
          "name": "permanentDeleteStatus",
          "type": "bool"
        }
      ],
      "name": "CancelPool",
      "type": "event"
    },
    {
      "anonymous": false,
      "inputs": [
        {
          "indexed": false,
          "internalType": "address",
          "name": "beneficiary",
          "type": "address"
        },
        {
          "indexed": false,
          "internalType": "uint256",
          "name": "claimableAmount",
          "type": "uint256"
        }
      ],
      "name": "ClaimFund",
      "type": "event"
    },
    {
      "anonymous": false,
      "inputs": [
        {
          "indexed": false,
          "internalType": "address",
          "name": "beneficiary",
          "type": "address"
        },
        {
          "indexed": false,
          "internalType": "uint256",
          "name": "participationFeeAmount",
          "type": "uint256"
        }
      ],
      "name": "ClaimParticipationFee",
      "type": "event"
    },
    {
      "anonymous": false,
      "inputs": [
        {
          "indexed": false,
          "internalType": "address",
          "name": "beneficiary",
          "type": "address"
        },
        {
          "indexed": false,
          "internalType": "uint256",
          "name": "tokenFee",
          "type": "uint256"
        }
      ],
      "name": "ClaimTokenFee",
      "type": "event"
    },
    {
      "anonymous": false,
      "inputs": [
        {
          "indexed": false,
          "internalType": "contract IERC20withDec",
          "name": "IDOToken",
          "type": "address"
        },
        {
          "indexed": false,
          "internalType": "uint256",
          "name": "fundAmount",
          "type": "uint256"
        }
      ],
      "name": "FundIDOToken",
      "type": "event"
    },
    {
      "anonymous": false,
      "inputs": [
        {
          "indexed": false,
          "internalType": "uint8",
          "name": "version",
          "type": "uint8"
        }
      ],
      "name": "Initialized",
      "type": "event"
    },
    {
      "anonymous": false,
      "inputs": [
        {
          "indexed": false,
          "internalType": "address",
          "name": "account",
          "type": "address"
        }
      ],
      "name": "Paused",
      "type": "event"
    },
    {
      "anonymous": false,
      "inputs": [
        {
          "indexed": true,
          "internalType": "bytes32",
          "name": "role",
          "type": "bytes32"
        },
        {
          "indexed": true,
          "internalType": "bytes32",
          "name": "previousAdminRole",
          "type": "bytes32"
        },
        {
          "indexed": true,
          "internalType": "bytes32",
          "name": "newAdminRole",
          "type": "bytes32"
        }
      ],
      "name": "RoleAdminChanged",
      "type": "event"
    },
    {
      "anonymous": false,
      "inputs": [
        {
          "indexed": true,
          "internalType": "bytes32",
          "name": "role",
          "type": "bytes32"
        },
        {
          "indexed": true,
          "internalType": "address",
          "name": "account",
          "type": "address"
        },
        {
          "indexed": true,
          "internalType": "address",
          "name": "sender",
          "type": "address"
        }
      ],
      "name": "RoleGranted",
      "type": "event"
    },
    {
      "anonymous": false,
      "inputs": [
        {
          "indexed": true,
          "internalType": "bytes32",
          "name": "role",
          "type": "bytes32"
        },
        {
          "indexed": true,
          "internalType": "address",
          "name": "account",
          "type": "address"
        },
        {
          "indexed": true,
          "internalType": "address",
          "name": "sender",
          "type": "address"
        }
      ],
      "name": "RoleRevoked",
      "type": "event"
    },
    {
      "anonymous": false,
      "inputs": [
        {
          "indexed": false,
          "internalType": "address",
          "name": "account",
          "type": "address"
        }
      ],
      "name": "Unpaused",
      "type": "event"
    },
    {
      "anonymous": false,
      "inputs": [
        {
          "indexed": false,
          "internalType": "bytes32",
          "name": "root",
          "type": "bytes32"
        }
      ],
      "name": "UpdateRoot",
      "type": "event"
    },
    {
      "anonymous": false,
      "inputs": [
        {
          "indexed": false,
          "internalType": "uint64",
          "name": "whaleOpenTime",
          "type": "uint64"
        },
        {
          "indexed": false,
          "internalType": "uint64",
          "name": "whaleCloseTime",
          "type": "uint64"
        },
        {
          "indexed": false,
          "internalType": "uint64",
          "name": "communityOpenTime",
          "type": "uint64"
        },
        {
          "indexed": false,
          "internalType": "uint64",
          "name": "communityCloseTime",
          "type": "uint64"
        }
      ],
      "name": "UpdateTime",
      "type": "event"
    },
    {
      "anonymous": false,
      "inputs": [
        {
          "indexed": false,
          "internalType": "address",
          "name": "sender",
          "type": "address"
        },
        {
          "indexed": false,
          "internalType": "address",
          "name": "beneficiary",
          "type": "address"
        },
        {
          "indexed": false,
          "internalType": "uint256",
          "name": "principalAmount",
          "type": "uint256"
        }
      ],
      "name": "WithdrawPurchasedAmount",
      "type": "event"
    },
    {
      "inputs": [],
      "name": "DEFAULT_ADMIN_ROLE",
      "outputs": [
        {
          "internalType": "bytes32",
          "name": "",
          "type": "bytes32"
        }
      ],
      "stateMutability": "view",
      "type": "function"
    },
    {
      "inputs": [],
      "name": "DOMAIN_SEPARATOR",
      "outputs": [
        {
          "internalType": "bytes32",
          "name": "",
          "type": "bytes32"
        }
      ],
      "stateMutability": "view",
      "type": "function"
    },
    {
      "inputs": [],
      "name": "FUND_TYPEHASH",
      "outputs": [
        {
          "internalType": "bytes32",
          "name": "",
          "type": "bytes32"
        }
      ],
      "stateMutability": "view",
      "type": "function"
    },
    {
      "inputs": [],
      "name": "NORMAL_USER",
      "outputs": [
        {
          "internalType": "bytes32",
          "name": "",
          "type": "bytes32"
        }
      ],
      "stateMutability": "view",
      "type": "function"
    },
    {
      "inputs": [],
      "name": "OWNER_ROLE",
      "outputs": [
        {
          "internalType": "bytes32",
          "name": "",
          "type": "bytes32"
        }
      ],
      "stateMutability": "view",
      "type": "function"
    },
    {
      "inputs": [],
      "name": "PERCENTAGE_DENOMINATOR",
      "outputs": [
        {
          "internalType": "uint16",
          "name": "",
          "type": "uint16"
        }
      ],
      "stateMutability": "view",
      "type": "function"
    },
    {
      "inputs": [],
      "name": "WHALE",
      "outputs": [
        {
          "internalType": "bytes32",
          "name": "",
          "type": "bytes32"
        }
      ],
      "stateMutability": "view",
      "type": "function"
    },
    {
      "inputs": [
        {
          "internalType": "address",
          "name": "owner",
          "type": "address"
        }
      ],
      "name": "__BasePausable__init",
      "outputs": [],
      "stateMutability": "nonpayable",
      "type": "function"
    },
    {
      "inputs": [
        {
          "internalType": "bytes32[]",
          "name": "proof",
          "type": "bytes32[]"
        },
        {
          "internalType": "uint256",
          "name": "_purchaseAmount",
          "type": "uint256"
        }
      ],
      "name": "buyTokenInCrowdfundingPool",
      "outputs": [],
      "stateMutability": "nonpayable",
      "type": "function"
    },
    {
      "inputs": [
        {
          "internalType": "bytes32[]",
          "name": "proof",
          "type": "bytes32[]"
        },
        {
          "internalType": "uint256",
          "name": "_purchaseAmount",
          "type": "uint256"
        },
        {
          "internalType": "uint256",
          "name": "_maxPurchaseBaseOnAllocations",
          "type": "uint256"
        }
      ],
      "name": "buyTokenInGalaxyPool",
      "outputs": [],
      "stateMutability": "nonpayable",
      "type": "function"
    },
    {
      "inputs": [
        {
          "internalType": "bool",
          "name": "_permanentDelete",
          "type": "bool"
        }
      ],
      "name": "cancelPool",
      "outputs": [],
      "stateMutability": "nonpayable",
      "type": "function"
    },
    {
      "inputs": [
        {
          "internalType": "address",
          "name": "_beneficiary",
          "type": "address"
        }
      ],
      "name": "claimFund",
      "outputs": [],
      "stateMutability": "nonpayable",
      "type": "function"
    },
    {
      "inputs": [
        {
          "internalType": "address",
          "name": "_beneficiary",
          "type": "address"
        }
      ],
      "name": "claimParticipationFee",
      "outputs": [],
      "stateMutability": "nonpayable",
      "type": "function"
    },
    {
      "inputs": [
        {
          "internalType": "address",
          "name": "_beneficiary",
          "type": "address"
        }
      ],
      "name": "claimTokenFee",
      "outputs": [],
      "stateMutability": "nonpayable",
      "type": "function"
    },
    {
      "inputs": [],
      "name": "communityCloseTime",
      "outputs": [
        {
          "internalType": "uint64",
          "name": "",
          "type": "uint64"
        }
      ],
      "stateMutability": "view",
      "type": "function"
    },
    {
      "inputs": [],
      "name": "communityOpenTime",
      "outputs": [
        {
          "internalType": "uint64",
          "name": "",
          "type": "uint64"
        }
      ],
      "stateMutability": "view",
      "type": "function"
    },
    {
      "inputs": [],
      "name": "crowdfundingParticipationFeePercentage",
      "outputs": [
        {
          "internalType": "uint16",
          "name": "",
          "type": "uint16"
        }
      ],
      "stateMutability": "view",
      "type": "function"
    },
    {
      "inputs": [],
      "name": "earlyAccessProportion",
      "outputs": [
        {
          "internalType": "uint16",
          "name": "",
          "type": "uint16"
        }
      ],
      "stateMutability": "view",
      "type": "function"
    },
    {
      "inputs": [],
      "name": "fundClaimedAmount",
      "outputs": [
        {
          "internalType": "uint256",
          "name": "",
          "type": "uint256"
        }
      ],
      "stateMutability": "view",
      "type": "function"
    },
    {
      "inputs": [
        {
          "internalType": "contract IERC20withDec",
          "name": "_IDOToken",
          "type": "address"
        },
        {
          "internalType": "bytes",
          "name": "signature",
          "type": "bytes"
        }
      ],
      "name": "fundIDOToken",
      "outputs": [],
      "stateMutability": "nonpayable",
      "type": "function"
    },
    {
      "inputs": [],
      "name": "galaxyParticipationFeePercentage",
      "outputs": [
        {
          "internalType": "uint16",
          "name": "",
          "type": "uint16"
        }
      ],
      "stateMutability": "view",
      "type": "function"
    },
    {
      "inputs": [],
      "name": "galaxyPoolProportion",
      "outputs": [
        {
          "internalType": "uint16",
          "name": "",
          "type": "uint16"
        }
      ],
      "stateMutability": "view",
      "type": "function"
    },
    {
      "inputs": [],
      "name": "getClaimableFundAmount",
      "outputs": [
        {
          "internalType": "uint256",
          "name": "",
          "type": "uint256"
        }
      ],
      "stateMutability": "view",
      "type": "function"
    },
    {
      "inputs": [
        {
          "internalType": "uint256",
          "name": "_amount",
          "type": "uint256"
        }
      ],
      "name": "getIDOTokenAmountByOfferedCurrency",
      "outputs": [
        {
          "internalType": "uint256",
          "name": "",
          "type": "uint256"
        }
      ],
      "stateMutability": "view",
      "type": "function"
    },
    {
      "inputs": [
        {
          "internalType": "bytes32",
          "name": "role",
          "type": "bytes32"
        }
      ],
      "name": "getRoleAdmin",
      "outputs": [
        {
          "internalType": "bytes32",
          "name": "",
          "type": "bytes32"
        }
      ],
      "stateMutability": "view",
      "type": "function"
    },
    {
      "inputs": [
        {
          "internalType": "bytes32",
          "name": "role",
          "type": "bytes32"
        },
        {
          "internalType": "address",
          "name": "account",
          "type": "address"
        }
      ],
      "name": "grantRole",
      "outputs": [],
      "stateMutability": "nonpayable",
      "type": "function"
    },
    {
      "inputs": [
        {
          "internalType": "bytes32",
          "name": "role",
          "type": "bytes32"
        },
        {
          "internalType": "address",
          "name": "account",
          "type": "address"
        }
      ],
      "name": "hasRole",
      "outputs": [
        {
          "internalType": "bool",
          "name": "",
          "type": "bool"
        }
      ],
      "stateMutability": "view",
      "type": "function"
    },
    {
      "inputs": [],
      "name": "ignitionFactory",
      "outputs": [
        {
          "internalType": "contract IIgnitionFactory",
          "name": "",
          "type": "address"
        }
      ],
      "stateMutability": "view",
      "type": "function"
    },
    {
      "inputs": [
        {
          "internalType": "address[2]",
          "name": "addrs",
          "type": "address[2]"
        },
        {
          "internalType": "uint256[18]",
          "name": "uints",
          "type": "uint256[18]"
        },
        {
          "internalType": "address",
          "name": "owner",
          "type": "address"
        }
      ],
      "name": "initialize",
      "outputs": [],
      "stateMutability": "nonpayable",
      "type": "function"
    },
    {
      "inputs": [],
      "name": "isFailBeforeTGEDate",
      "outputs": [
        {
          "internalType": "bool",
          "name": "",
          "type": "bool"
        }
      ],
      "stateMutability": "view",
      "type": "function"
    },
    {
      "inputs": [
        {
          "internalType": "address",
          "name": "sender",
          "type": "address"
        }
      ],
      "name": "isOwner",
      "outputs": [
        {
          "internalType": "bool",
          "name": "",
          "type": "bool"
        }
      ],
      "stateMutability": "view",
      "type": "function"
    },
    {
      "inputs": [],
      "name": "maxPurchaseAmountForEarlyAccess",
      "outputs": [
        {
          "internalType": "uint256",
          "name": "",
          "type": "uint256"
        }
      ],
      "stateMutability": "view",
      "type": "function"
    },
    {
      "inputs": [],
      "name": "maxPurchaseAmountForGalaxyPool",
      "outputs": [
        {
          "internalType": "uint256",
          "name": "",
          "type": "uint256"
        }
      ],
      "stateMutability": "view",
      "type": "function"
    },
    {
      "inputs": [],
      "name": "maxPurchaseAmountForKYCUser",
      "outputs": [
        {
          "internalType": "uint256",
          "name": "",
          "type": "uint256"
        }
      ],
      "stateMutability": "view",
      "type": "function"
    },
    {
      "inputs": [],
      "name": "maxPurchaseAmountForNotKYCUser",
      "outputs": [
        {
          "internalType": "uint256",
          "name": "",
          "type": "uint256"
        }
      ],
      "stateMutability": "view",
      "type": "function"
    },
    {
      "inputs": [],
      "name": "name",
      "outputs": [
        {
          "internalType": "string",
          "name": "",
          "type": "string"
        }
      ],
      "stateMutability": "view",
      "type": "function"
    },
    {
      "inputs": [],
      "name": "offeredCurrency",
      "outputs": [
        {
          "internalType": "uint256",
          "name": "rate",
          "type": "uint256"
        },
        {
          "internalType": "uint256",
          "name": "decimal",
          "type": "uint256"
        }
      ],
      "stateMutability": "view",
      "type": "function"
    },
    {
      "inputs": [],
      "name": "participationFeeAmount",
      "outputs": [
        {
          "internalType": "uint256",
          "name": "",
          "type": "uint256"
        }
      ],
      "stateMutability": "view",
      "type": "function"
    },
    {
      "inputs": [],
      "name": "participationFeeClaimedStatus",
      "outputs": [
        {
          "internalType": "bool",
          "name": "",
          "type": "bool"
        }
      ],
      "stateMutability": "view",
      "type": "function"
    },
    {
      "inputs": [],
      "name": "paused",
      "outputs": [
        {
          "internalType": "bool",
          "name": "",
          "type": "bool"
        }
      ],
      "stateMutability": "view",
      "type": "function"
    },
    {
      "inputs": [],
      "name": "purchaseToken",
      "outputs": [
        {
          "internalType": "contract IERC20",
          "name": "",
          "type": "address"
        }
      ],
      "stateMutability": "view",
      "type": "function"
    },
    {
      "inputs": [],
      "name": "purchasedAmount",
      "outputs": [
        {
          "internalType": "uint256",
          "name": "",
          "type": "uint256"
        }
      ],
      "stateMutability": "view",
      "type": "function"
    },
    {
      "inputs": [],
      "name": "purchasedAmountInEarlyAccess",
      "outputs": [
        {
          "internalType": "uint256",
          "name": "",
          "type": "uint256"
        }
      ],
      "stateMutability": "view",
      "type": "function"
    },
    {
      "inputs": [],
      "name": "purchasedAmountInGalaxyPool",
      "outputs": [
        {
          "internalType": "uint256",
          "name": "",
          "type": "uint256"
        }
      ],
      "stateMutability": "view",
      "type": "function"
    },
    {
      "inputs": [
        {
          "internalType": "bytes32",
          "name": "role",
          "type": "bytes32"
        },
        {
          "internalType": "address",
          "name": "account",
          "type": "address"
        }
      ],
      "name": "renounceRole",
      "outputs": [],
      "stateMutability": "nonpayable",
      "type": "function"
    },
    {
      "inputs": [
        {
          "internalType": "bytes32",
          "name": "role",
          "type": "bytes32"
        },
        {
          "internalType": "address",
          "name": "account",
          "type": "address"
        }
      ],
      "name": "revokeRole",
      "outputs": [],
      "stateMutability": "nonpayable",
      "type": "function"
    },
    {
      "inputs": [],
      "name": "root",
      "outputs": [
        {
          "internalType": "bytes32",
          "name": "",
          "type": "bytes32"
        }
      ],
      "stateMutability": "view",
      "type": "function"
    },
    {
      "inputs": [
        {
          "internalType": "bool",
          "name": "_status",
          "type": "bool"
        }
      ],
      "name": "setClaimableStatus",
      "outputs": [],
      "stateMutability": "nonpayable",
      "type": "function"
    },
    {
      "inputs": [
        {
          "internalType": "bytes32",
          "name": "_root",
          "type": "bytes32"
        }
      ],
      "name": "setRoot",
      "outputs": [],
      "stateMutability": "nonpayable",
      "type": "function"
    },
    {
      "inputs": [
        {
          "internalType": "bytes4",
          "name": "interfaceId",
          "type": "bytes4"
        }
      ],
      "name": "supportsInterface",
      "outputs": [
        {
          "internalType": "bool",
          "name": "",
          "type": "bool"
        }
      ],
      "stateMutability": "view",
      "type": "function"
    },
    {
      "inputs": [],
      "name": "tokenFeeClaimedStatus",
      "outputs": [
        {
          "internalType": "bool",
          "name": "",
          "type": "bool"
        }
      ],
      "stateMutability": "view",
      "type": "function"
    },
    {
      "inputs": [],
      "name": "tokenFeePercentage",
      "outputs": [
        {
          "internalType": "uint16",
          "name": "",
          "type": "uint16"
        }
      ],
      "stateMutability": "view",
      "type": "function"
    },
    {
      "inputs": [],
      "name": "totalRaiseAmount",
      "outputs": [
        {
          "internalType": "uint256",
          "name": "",
          "type": "uint256"
        }
      ],
      "stateMutability": "view",
      "type": "function"
    },
    {
      "inputs": [
        {
          "internalType": "uint64",
          "name": "_newTGEDate",
          "type": "uint64"
        }
      ],
      "name": "updateTGEDate",
      "outputs": [],
      "stateMutability": "nonpayable",
      "type": "function"
    },
    {
      "inputs": [
        {
          "internalType": "uint64",
          "name": "_newWhaleCloseTime",
          "type": "uint64"
        },
        {
          "internalType": "uint64",
          "name": "_newCommunityCloseTime",
          "type": "uint64"
        }
      ],
      "name": "updateTime",
      "outputs": [],
      "stateMutability": "nonpayable",
      "type": "function"
    },
    {
      "inputs": [
        {
          "internalType": "address",
          "name": "",
          "type": "address"
        }
      ],
      "name": "userPurchasedAmount",
      "outputs": [
        {
          "internalType": "uint256",
          "name": "principal",
          "type": "uint256"
        },
        {
          "internalType": "uint256",
          "name": "fee",
          "type": "uint256"
        },
        {
          "internalType": "uint256",
          "name": "withdrawn",
          "type": "uint256"
        }
      ],
      "stateMutability": "view",
      "type": "function"
    },
    {
      "inputs": [],
      "name": "version",
      "outputs": [
        {
          "internalType": "string",
          "name": "",
          "type": "string"
        }
      ],
      "stateMutability": "view",
      "type": "function"
    },
    {
      "inputs": [],
      "name": "vesting",
      "outputs": [
        {
          "internalType": "contract IVesting",
          "name": "",
          "type": "address"
        }
      ],
      "stateMutability": "view",
      "type": "function"
    },
    {
      "inputs": [],
      "name": "whaleCloseTime",
      "outputs": [
        {
          "internalType": "uint64",
          "name": "",
          "type": "uint64"
        }
      ],
      "stateMutability": "view",
      "type": "function"
    },
    {
      "inputs": [],
      "name": "whaleOpenTime",
      "outputs": [
        {
          "internalType": "uint64",
          "name": "",
          "type": "uint64"
        }
      ],
      "stateMutability": "view",
      "type": "function"
    },
    {
      "inputs": [
        {
          "internalType": "address",
          "name": "",
          "type": "address"
        }
      ],
      "name": "whalePurchasedAmount",
      "outputs": [
        {
          "internalType": "uint256",
          "name": "",
          "type": "uint256"
        }
      ],
      "stateMutability": "view",
      "type": "function"
    },
    {
      "inputs": [
        {
          "internalType": "address",
          "name": "_beneficiary",
          "type": "address"
        }
      ],
      "name": "withdrawPurchasedAmount",
      "outputs": [],
      "stateMutability": "nonpayable",
      "type": "function"
    },
    {
      "inputs": [
        {
          "internalType": "address",
          "name": "_beneficiary",
          "type": "address"
        }
      ],
      "name": "withdrawRedundantIDOToken",
      "outputs": [],
      "stateMutability": "nonpayable",
      "type": "function"
    }
  ],
  "transactionHash": "0x388e63ba79c9b9cee0b80082937a3bbbe11f818847a8827f664371202a49ea52",
  "args": [],
  "numDeployments": 1,
  "solcInputHash": "b3f02ead79515d4df3cfefaba7d06c24",
  "bytecode": "0x608060405234801561001057600080fd5b50615bf280620000216000396000f3fe608060405234801561001057600080fd5b50600436106103455760003560e01c806377292d5b116101bf578063c09d6fb9116100fa578063e3b37f301161009d578063e3b37f30146107c6578063e58378bb146107d9578063e7a00232146107ee578063e995914914610815578063ebf0c7171461082a578063efaad0ec14610833578063f137993914610846578063f1f8044a1461084f57600080fd5b8063c09d6fb914610714578063c313607414610729578063c6b3665c1461073c578063cdc5598e14610751578063ce7c641014610766578063cf4186ec14610780578063d547741f146107a0578063dab5f340146107b357600080fd5b8063a217fddf11610162578063a217fddf14610667578063a4f276c71461066f578063a558b65c146106b9578063a95c4d62146106d3578063adaa039c146106e6578063b3679bda146106ef578063b3cd4254146106f8578063bb8e3f441461070157600080fd5b806377292d5b146105fc5780637837734f146106055780637b1a08381461061a57806385f8f4be146106235780638a39face1461062c57806391d148541461063f5780639ac8d38b14610652578063a0918c4f1461065f57600080fd5b80633644e5151161028f57806350a729281161023257806350a729281461056a57806354fd4d501461057d5780635671e8c91461059d5780635c975abb146105b05780636db6e031146105bb5780636e3b466d146105ce5780636e44a6c9146105e15780636e516bbe146105e957600080fd5b80633644e515146104c057806336568abe146104c85780633baa6fca146104db5780633bc270db146104ee5780633d3e3763146105015780633d4527b71461051457806344c63eec146105275780634f93d1ad1461054757600080fd5b80632013b4c4116102f75780632013b4c4146104015780632186b36814610433578063226d232a14610446578063248a9ca3146104595780632f2ff15d1461047c5780632f54bf6e1461048f57806330bba6c4146104a257806334fa224b146104ab57600080fd5b806301ffc9a71461034a57806302bb34c814610372578063068350b91461038957806306fdde03146103aa578063086425bc146103da5780631353ff75146103ef5780631acbc823146103f8575b600080fd5b61035d6103583660046152a8565b610862565b60405190151581526020015b60405180910390f35b61037b60115481565b604051908152602001610369565b6009546103979061ffff1681565b60405161ffff9091168152602001610369565b6103cd60405180604001604052806004815260200163141bdbdb60e21b81525081565b60405161036991906152fe565b6103ed6103e8366004615375565b610899565b005b61037b60055481565b61037b60105481565b600b5461041b90600160c01b90046001600160401b031681565b6040516001600160401b039091168152602001610369565b6103ed6104413660046153da565b610967565b6103ed6104543660046153da565b610d8b565b61037b6104673660046153f7565b60009081526079602052604090206001015490565b6103ed61048a366004615410565b6112f9565b61035d61049d3660046153da565b611323565b61037b60085481565b60095461039790600160381b900461ffff1681565b61037b61133d565b6103ed6104d6366004615410565b61134c565b600b5461041b906001600160401b031681565b6103ed6104fc366004615440565b6113ca565b6103ed61050f3660046154d9565b6117f0565b6103ed610522366004615515565b611b08565b60145461053a906001600160a01b031681565b6040516103699190615532565b600354600454610555919082565b60408051928352602083019190915201610369565b60015461053a906001600160a01b031681565b6103cd604051806040016040528060018152602001603160f81b81525081565b6103ed6105ab366004615515565b611df0565b60ab5460ff1661035d565b6103ed6105c9366004615546565b611f4a565b60095461035d9062010000900460ff1681565b61037b6127d2565b6103ed6105f73660046153da565b612956565b61037b600e5481565b600954610397906301000000900461ffff1681565b61037b600f5481565b61037b60075481565b61037b61063a3660046153f7565b612b14565b61035d61064d366004615410565b612b3c565b600d5461035d9060ff1681565b61035d612b67565b61037b600081565b61069e61067d3660046153da565b60126020526000908152604090208054600182015460029092015490919083565b60408051938452602084019290925290820152606001610369565b600b5461041b90600160801b90046001600160401b031681565b60025461053a906001600160a01b031681565b61037b600c5481565b61037b600a5481565b61039761271081565b6103ed61070f3660046153da565b612c8c565b61037b600080516020615b5d83398151915281565b6103ed6107373660046153da565b612d3d565b60095461039790600160281b900461ffff1681565b60095461039790600160481b900461ffff1681565b600b5461041b90600160401b90046001600160401b031681565b61037b61078e3660046153da565b60136020526000908152604090205481565b6103ed6107ae366004615410565b61317a565b6103ed6107c13660046153f7565b61319f565b6103ed6107d436600461559a565b613282565b61037b600080516020615b7d83398151915281565b61037b7f52d52760e40624a39bea36339850f64206470d82f714f11095b454fbff6de95281565b61037b600080516020615b9d83398151915281565b61037b60005481565b6103ed6108413660046155b7565b6135d7565b61037b60065481565b6103ed61085d3660046153da565b6136b7565b60006001600160e01b03198216637965db0b60e01b148061089357506301ffc9a760e01b6001600160e01b03198316145b92915050565b6108a16138f6565b600260dd5414156108cd5760405162461bcd60e51b81526004016108c490615602565b60405180910390fd5b600260dd556108da61393e565b60405180604001604052806002815260200161313760f01b815250906109135760405162461bcd60e51b81526004016108c491906152fe565b5061091e3383613970565b610929338383613a24565b61093282613ae8565b6009546109539085908590859085906301000000900461ffff166000613b97565b61095c82613cd8565b5050600160dd555050565b6001546001600160a01b0316632f54bf6e336040518263ffffffff1660e01b81526004016109959190615532565b602060405180830381865afa1580156109b2573d6000803e3d6000fd5b505050506040513d601f19601f820116820180604052508101906109d6919061564f565b604051806040016040528060018152602001603160f81b81525090610a0e5760405162461bcd60e51b81526004016108c491906152fe565b50610a176138f6565b601460009054906101000a90046001600160a01b03166001600160a01b0316637c6543036040518163ffffffff1660e01b8152600401602060405180830381865afa158015610a6a573d6000803e3d6000fd5b505050506040513d601f19601f82011682018060405250810190610a8e919061564f565b60405180604001604052806002815260200161313560f01b81525090610ac75760405162461bcd60e51b81526004016108c491906152fe565b50600260dd541415610aeb5760405162461bcd60e51b81526004016108c490615602565b600260dd556014546040805162dc25a360e81b815290516000926001600160a01b03169163dc25a3009160048083019260a09291908290030181865afa158015610b39573d6000803e3d6000fd5b505050506040513d601f19601f82011682018060405250810190610b5d9190615683565b505050509050806001600160401b0316600160009054906101000a90046001600160a01b03166001600160a01b031663bc87783f6040518163ffffffff1660e01b8152600401602060405180830381865afa158015610bc0573d6000803e3d6000fd5b505050506040513d601f19601f82011682018060405250810190610be491906156ea565b610bee9190615719565b42101560405180604001604052806002815260200161199960f11b81525090610c2a5760405162461bcd60e51b81526004016108c491906152fe565b50601460009054906101000a90046001600160a01b03166001600160a01b0316639aa74a8c6040518163ffffffff1660e01b8152600401602060405180830381865afa158015610c7e573d6000803e3d6000fd5b505050506040513d601f19601f82011682018060405250810190610ca2919061564f565b1560405180604001604052806002815260200161333360f01b81525090610cdc5760405162461bcd60e51b81526004016108c491906152fe565b50600d54604080518082019091526002815261191b60f11b60208201529060ff1615610d1b5760405162461bcd60e51b81526004016108c491906152fe565b50600c54600254610d39916001600160a01b03909116908490613cf2565b600d805460ff19166001179055600c546040517f271b8a9c81b4d02d8aca6c2a2e341a4e3e125356c586780413e857a0fadd766a91610d7a91859190615731565b60405180910390a15050600160dd55565b610d9433611323565b604051806040016040528060018152602001601960f91b81525090610dcc5760405162461bcd60e51b81526004016108c491906152fe565b50610dd56138f6565b601460009054906101000a90046001600160a01b03166001600160a01b0316637c6543036040518163ffffffff1660e01b8152600401602060405180830381865afa158015610e28573d6000803e3d6000fd5b505050506040513d601f19601f82011682018060405250810190610e4c919061564f565b60405180604001604052806002815260200161313560f01b81525090610e855760405162461bcd60e51b81526004016108c491906152fe565b50600260dd541415610ea95760405162461bcd60e51b81526004016108c490615602565b600260dd556014546040805162dc25a360e81b815290516000926001600160a01b03169163dc25a3009160048083019260a09291908290030181865afa158015610ef7573d6000803e3d6000fd5b505050506040513d601f19601f82011682018060405250810190610f1b9190615683565b505050509050806001600160401b0316600160009054906101000a90046001600160a01b03166001600160a01b031663bc87783f6040518163ffffffff1660e01b8152600401602060405180830381865afa158015610f7e573d6000803e3d6000fd5b505050506040513d601f19601f82011682018060405250810190610fa291906156ea565b610fac9190615719565b42101560405180604001604052806002815260200161199960f11b81525090610fe85760405162461bcd60e51b81526004016108c491906152fe565b50601460009054906101000a90046001600160a01b03166001600160a01b0316639aa74a8c6040518163ffffffff1660e01b8152600401602060405180830381865afa15801561103c573d6000803e3d6000fd5b505050506040513d601f19601f82011682018060405250810190611060919061564f565b1560405180604001604052806002815260200161333360f01b8152509061109a5760405162461bcd60e51b81526004016108c491906152fe565b50601460009054906101000a90046001600160a01b03166001600160a01b03166374478bb36040518163ffffffff1660e01b8152600401602060405180830381865afa1580156110ee573d6000803e3d6000fd5b505050506040513d601f19601f82011682018060405250810190611112919061564f565b60405180604001604052806002815260200161033360f41b8152509061114b5760405162461bcd60e51b81526004016108c491906152fe565b5060006111566127d2565b90506000811160405180604001604052806002815260200161313160f01b815250906111955760405162461bcd60e51b81526004016108c491906152fe565b506002546040516370a0823160e01b81526001600160a01b03909116906370a08231906111c6903090600401615532565b602060405180830381865afa1580156111e3573d6000803e3d6000fd5b505050506040513d601f19601f8201168201806040525081019061120791906156ea565b811115611284576002546040516370a0823160e01b81526001600160a01b03909116906370a082319061123e903090600401615532565b602060405180830381865afa15801561125b573d6000803e3d6000fd5b505050506040513d601f19601f8201168201806040525081019061127f91906156ea565b611286565b805b9050806011600082825461129a9190615719565b90915550506002546112b6906001600160a01b03168483613cf2565b7f0f8819b8888ebff61f219df3a7380d5329e5c298966c09de72e7a1449149b47483826040516112e7929190615731565b60405180910390a15050600160dd5550565b60008281526079602052604090206001015461131481613d48565b61131e8383613d52565b505050565b6000610893600080516020615b7d83398151915283612b3c565b6000611347613dd8565b905090565b6001600160a01b03811633146113bc5760405162461bcd60e51b815260206004820152602f60248201527f416363657373436f6e74726f6c3a2063616e206f6e6c792072656e6f756e636560448201526e103937b632b9903337b91039b2b63360891b60648201526084016108c4565b6113c68282613e55565b5050565b6113d333611323565b604051806040016040528060018152602001601960f91b8152509061140b5760405162461bcd60e51b81526004016108c491906152fe565b506114146138f6565b600260dd5414156114375760405162461bcd60e51b81526004016108c490615602565b600260dd556014546040805162dc25a360e81b815290516000926001600160a01b03169163dc25a3009160048083019260a09291908290030181865afa158015611485573d6000803e3d6000fd5b505050506040513d601f19601f820116820180604052508101906114a99190615683565b505050509050806001600160401b0316421060405180604001604052806002815260200161323560f01b815250906114f45760405162461bcd60e51b81526004016108c491906152fe565b50601460009054906101000a90046001600160a01b03166001600160a01b0316637c6543036040518163ffffffff1660e01b8152600401602060405180830381865afa158015611548573d6000803e3d6000fd5b505050506040513d601f19601f8201168201806040525081019061156c919061564f565b1560405180604001604052806002815260200161343160f01b815250906115a65760405162461bcd60e51b81526004016108c491906152fe565b5060145460408051630edaf7f360e11b815290516000926001600160a01b031691631db5efe69160048083019260209291908290030181865afa1580156115f1573d6000803e3d6000fd5b505050506040513d601f19601f82011682018060405250810190611615919061574a565b90506000611624600a54612b14565b90506001600160a01b03821661173557600b54604080518082019091526002815261199b60f11b602082015290600160c01b90046001600160401b031642116116805760405162461bcd60e51b81526004016108c491906152fe565b5061168c868686613ebc565b60405180604001604052806002815260200161031360f41b815250906116c55760405162461bcd60e51b81526004016108c491906152fe565b50601454604051620c8f6d60e81b81526001600160a01b0390911690630c8f6d00906116f5908990600401615532565b600060405180830381600087803b15801561170f57600080fd5b505af1158015611723573d6000803e3d6000fd5b50505050611732601054612b14565b90505b61174c86336014546001600160a01b031684614120565b60145460405163b61a40c760e01b8152600160048201526001600160a01b039091169063b61a40c790602401600060405180830381600087803b15801561179257600080fd5b505af11580156117a6573d6000803e3d6000fd5b505050507ffd1c6e1b2189d312d7360ee69c2e59b038f3f1e637e102efc2c3a833b617958e86826040516117db929190615731565b60405180910390a15050600160dd5550505050565b6001546001600160a01b0316632f54bf6e336040518263ffffffff1660e01b815260040161181e9190615532565b602060405180830381865afa15801561183b573d6000803e3d6000fd5b505050506040513d601f19601f8201168201806040525081019061185f919061564f565b604051806040016040528060018152602001603160f81b815250906118975760405162461bcd60e51b81526004016108c491906152fe565b506014546040805162dc25a360e81b815290516000926001600160a01b03169163dc25a3009160048083019260a09291908290030181865afa1580156118e1573d6000803e3d6000fd5b505050506040513d601f19601f820116820180604052508101906119059190615683565b505050509050806001600160401b0316421060405180604001604052806002815260200161323560f01b815250906119505760405162461bcd60e51b81526004016108c491906152fe565b506014546040805162dc25a360e81b815290516000926001600160a01b03169163dc25a3009160048083019260a09291908290030181865afa15801561199a573d6000803e3d6000fd5b505050506040513d601f19601f820116820180604052508101906119be9190615683565b5050600b5492935050506001600160401b0380861691161080156119f35750826001600160401b0316846001600160401b0316105b8015611a115750806001600160401b0316836001600160401b031611155b604051806040016040528060018152602001603960f81b81525090611a495760405162461bcd60e51b81526004016108c491906152fe565b50600b8054600160401b600160c01b031916600160401b6001600160401b0387811682810267ffffffffffffffff60801b191693909317600160801b938402176001600160c01b038116600160c01b8984168102918217968790556040805193851692851692909217835293860483166020830152938504821693810193909352920490911660608201527feedf049ba2a9e400be9e2a2d93b7e6023411a5c4fd77fe703bc75c2fea691fc3906080015b60405180910390a150505050565b6001546001600160a01b0316632f54bf6e336040518263ffffffff1660e01b8152600401611b369190615532565b602060405180830381865afa158015611b53573d6000803e3d6000fd5b505050506040513d601f19601f82011682018060405250810190611b77919061564f565b604051806040016040528060018152602001603160f81b81525090611baf5760405162461bcd60e51b81526004016108c491906152fe565b506014546040805162dc25a360e81b815290516000926001600160a01b03169163dc25a3009160048083019260a09291908290030181865afa158015611bf9573d6000803e3d6000fd5b505050506040513d601f19601f82011682018060405250810190611c1d9190615683565b505050509050806001600160401b03164210611d4f576001546040805163bc87783f60e01b815290516001600160401b038416926001600160a01b03169163bc87783f9160048083019260209291908290030181865afa158015611c85573d6000803e3d6000fd5b505050506040513d601f19601f82011682018060405250810190611ca991906156ea565b611cb39190615719565b421115604051806040016040528060028152602001610ccd60f21b81525090611cef5760405162461bcd60e51b81526004016108c491906152fe565b506014546040516358e0fb5560e01b8152600160048201526001600160a01b03909116906358e0fb5590602401600060405180830381600087803b158015611d3657600080fd5b505af1158015611d4a573d6000803e3d6000fd5b505050505b611d57614135565b601454604051635671e8c960e01b8152600060048201526001600160a01b0390911690635671e8c990602401600060405180830381600087803b158015611d9d57600080fd5b505af1158015611db1573d6000803e3d6000fd5b505060405184151581523092507fcf113a21b92df7813071b3bb491583c8469cf02f9b1c0280d4500d339570a17f915060200160405180910390a25050565b6001546001600160a01b0316632f54bf6e336040518263ffffffff1660e01b8152600401611e1e9190615532565b602060405180830381865afa158015611e3b573d6000803e3d6000fd5b505050506040513d601f19601f82011682018060405250810190611e5f919061564f565b604051806040016040528060018152602001603160f81b81525090611e975760405162461bcd60e51b81526004016108c491906152fe565b5060018115151415611ee757611eab612b67565b1560405180604001604052806002815260200161323960f01b81525090611ee55760405162461bcd60e51b81526004016108c491906152fe565b505b601454604051635671e8c960e01b815282151560048201526001600160a01b0390911690635671e8c990602401600060405180830381600087803b158015611f2e57600080fd5b505af1158015611f42573d6000803e3d6000fd5b505050505b50565b601454600160a81b900460ff1615808015611f7257506014546001600160a01b90910460ff16105b80611f935750303b158015611f935750601454600160a01b900460ff166001145b611ff65760405162461bcd60e51b815260206004820152602e60248201527f496e697469616c697a61626c653a20636f6e747261637420697320616c72656160448201526d191e481a5b9a5d1a585b1a5e995960921b60648201526084016108c4565b6014805460ff60a01b1916600160a01b1790558015612023576014805460ff60a81b1916600160a81b1790555b604051635c1c862160e01b815273EC110FbCAd8311fbB06BAD7970De252133F0281a90635c1c86219061205a908590600401615532565b60006040518083038186803b15801561207257600080fd5b505af4158015612086573d6000803e3d6000fd5b505050506120c960405180604001604052806004815260200163141bdbdb60e21b815250604051806040016040528060018152602001603160f81b815250614189565b6120d282612c8c565b60405163b95f0a6360e01b815273EC110FbCAd8311fbB06BAD7970De252133F0281a9063b95f0a639061210b9087908790600401615767565b60006040518083038186803b15801561212357600080fd5b505af4158015612137573d6000803e3d6000fd5b505050506121423390565b600180546001600160a01b0319166001600160a01b039290921691909117905561219561217260208601866153da565b6101a08501356101c08601356101e08701356102008801356102208901356141bc565b73EC110FbCAd8311fbB06BAD7970De252133F0281a635c1c86216121bf60408701602088016153da565b6040518263ffffffff1660e01b81526004016121db9190615532565b60006040518083038186803b1580156121f357600080fd5b505af4158015612207573d6000803e3d6000fd5b505050508360016002811061221e5761221e6157ba565b60200201602081019061223191906153da565b600280546001600160a01b0319166001600160a01b03929092169190911781558335600781905560208086013560088190556040805180820190915293845261034360f41b918401919091521061229b5760405162461bcd60e51b81526004016108c491906152fe565b506122ad8360025b60200201356142cf565b6009805461ffff191661ffff929092169190911790556122ce8360036122a3565b6009805461ffff9290921663010000000264ffff000000199092169190911790556122fa8360046122a3565b600960056101000a81548161ffff021916908361ffff160217905550600160009054906101000a90046001600160a01b03166001600160a01b031663d8c128226040518163ffffffff1660e01b8152600401602060405180830381865afa158015612369573d6000803e3d6000fd5b505050506040513d601f19601f8201168201806040525081019061238d91906157d0565b60095461ffff9182166301000000909104909116108015906124385750600160009054906101000a90046001600160a01b03166001600160a01b031663884c45096040518163ffffffff1660e01b8152600401602060405180830381865afa1580156123fd573d6000803e3d6000fd5b505050506040513d601f19601f8201168201806040525081019061242191906157d0565b60095461ffff918216630100000090910490911611155b60405180604001604052806002815260200161333760f01b815250906124715760405162461bcd60e51b81526004016108c491906152fe565b50600160009054906101000a90046001600160a01b03166001600160a01b031663397a1cb36040518163ffffffff1660e01b8152600401602060405180830381865afa1580156124c5573d6000803e3d6000fd5b505050506040513d601f19601f820116820180604052508101906124e991906157d0565b60095461ffff918216600160281b909104909116108015906125945750600160009054906101000a90046001600160a01b03166001600160a01b031663d6de71fd6040518163ffffffff1660e01b8152600401602060405180830381865afa158015612559573d6000803e3d6000fd5b505050506040513d601f19601f8201168201806040525081019061257d91906157d0565b60095461ffff918216600160281b90910490911611155b60405180604001604052806002815260200161066760f31b815250906125cd5760405162461bcd60e51b81526004016108c491906152fe565b506125d98360056122a3565b6009805461ffff92909216600160381b0261ffff60381b199092169190911790556126058360066122a3565b6009805461ffff60481b1916600160481b61ffff93841602179081905560e0850135600a8190556127109261264292600160381b900416906157eb565b61264c919061580a565b60055560095461271090819061ffff600160481b820481169161267891600160381b909104168361582c565b61ffff16600a5461268991906157eb565b61269391906157eb565b61269d919061580a565b6126a7919061580a565b6006556126b8610100840135614336565b600b805467ffffffffffffffff19166001600160401b03929092169190911790556126f56126f0610120850135610100860135615719565b614336565b600b8054600160401b600160c01b031916600160401b6001600160401b0393841690810267ffffffffffffffff60801b191691909117600160801b918202179182905561274f926126f09261014088013592900416615719565b600b80546001600160401b0392909216600160c01b026001600160c01b0390921691909117905561016083013560035561018083013560045580156127cc576014805460ff60a81b19169055604051600181527f7f26b83ff96e1f2b6a682f133852f6798a09c465da95921460cefb384740249890602001611afa565b50505050565b6009546010546000918291612710916127f19161ffff909116906157eb565b6127fb919061580a565b905060008160105461280d919061584f565b90506000806000806000601460009054906101000a90046001600160a01b03166001600160a01b031663dc25a3006040518163ffffffff1660e01b815260040160a060405180830381865afa15801561286a573d6000803e3d6000fd5b505050506040513d601f19601f8201168201806040525081019061288e9190615683565b601154604051633954a8c760e01b8152600481018d9052602481019190915261ffff851660448201526001600160401b0380871660648301528085166084830152831660a482015260c4810182905294995092975090955093509150734018dfa69C71AAE148AaF29Fd07b48aEc4C3B61e90633954a8c79060e401602060405180830381865af4158015612926573d6000803e3d6000fd5b505050506040513d601f19601f8201168201806040525081019061294a91906156ea565b97505050505050505090565b600260dd5414156129795760405162461bcd60e51b81526004016108c490615602565b600260dd553360009081526012602052604081208054600182015491929091906129a38284615719565b905060008111604051806040016040528060018152602001603360f81b815250906129e15760405162461bcd60e51b81526004016108c491906152fe565b506129ea612b67565b80612a675750601460009054906101000a90046001600160a01b03166001600160a01b0316639aa74a8c6040518163ffffffff1660e01b8152600401602060405180830381865afa158015612a43573d6000803e3d6000fd5b505050506040513d601f19601f82011682018060405250810190612a67919061564f565b8015612a7557506002840154155b60405180604001604052806002815260200161323760f01b81525090612aae5760405162461bcd60e51b81526004016108c491906152fe565b50600254612ac6906001600160a01b03168683613cf2565b600284018190557f06ef36b707e3dba03834e3b12d116525831e552283719e0bb25d309006322a61338683604051612b0093929190615866565b60405180910390a15050600160dd55505050565b600454600090612b2590600a61596e565b600354612b3290846157eb565b610893919061580a565b60009182526079602090815260408084206001600160a01b0393909316845291905290205460ff1690565b600080601460009054906101000a90046001600160a01b03166001600160a01b031663dc25a3006040518163ffffffff1660e01b815260040160a060405180830381865afa158015612bbd573d6000803e3d6000fd5b505050506040513d601f19601f82011682018060405250810190612be19190615683565b505050509050612bf360ab5460ff1690565b80612c865750601460009054906101000a90046001600160a01b03166001600160a01b0316637c6543036040518163ffffffff1660e01b8152600401602060405180830381865afa158015612c4c573d6000803e3d6000fd5b505050506040513d601f19601f82011682018060405250810190612c70919061564f565b158015612c865750806001600160401b03164210155b91505090565b601454600160a81b900460ff16612cb55760405162461bcd60e51b81526004016108c49061597a565b6040805180820190915260018152600d60fa1b60208201526001600160a01b038216612cf45760405162461bcd60e51b81526004016108c491906152fe565b50612cfd61439e565b612d056143c7565b612d0d6143f8565b612d25600080516020615b7d83398151915282613d52565b611f47600080516020615b7d83398151915280614429565b6001546001600160a01b0316632f54bf6e336040518263ffffffff1660e01b8152600401612d6b9190615532565b602060405180830381865afa158015612d88573d6000803e3d6000fd5b505050506040513d601f19601f82011682018060405250810190612dac919061564f565b604051806040016040528060018152602001603160f81b81525090612de45760405162461bcd60e51b81526004016108c491906152fe565b50612ded6138f6565b601460009054906101000a90046001600160a01b03166001600160a01b0316637c6543036040518163ffffffff1660e01b8152600401602060405180830381865afa158015612e40573d6000803e3d6000fd5b505050506040513d601f19601f82011682018060405250810190612e64919061564f565b60405180604001604052806002815260200161313560f01b81525090612e9d5760405162461bcd60e51b81526004016108c491906152fe565b50600260dd541415612ec15760405162461bcd60e51b81526004016108c490615602565b600260dd556014546040805162dc25a360e81b815290516000926001600160a01b03169163dc25a3009160048083019260a09291908290030181865afa158015612f0f573d6000803e3d6000fd5b505050506040513d601f19601f82011682018060405250810190612f339190615683565b505050509050806001600160401b0316600160009054906101000a90046001600160a01b03166001600160a01b031663bc87783f6040518163ffffffff1660e01b8152600401602060405180830381865afa158015612f96573d6000803e3d6000fd5b505050506040513d601f19601f82011682018060405250810190612fba91906156ea565b612fc49190615719565b42101560405180604001604052806002815260200161199960f11b815250906130005760405162461bcd60e51b81526004016108c491906152fe565b50601460009054906101000a90046001600160a01b03166001600160a01b0316639aa74a8c6040518163ffffffff1660e01b8152600401602060405180830381865afa158015613054573d6000803e3d6000fd5b505050506040513d601f19601f82011682018060405250810190613078919061564f565b1560405180604001604052806002815260200161333360f01b815250906130b25760405162461bcd60e51b81526004016108c491906152fe565b506009546040805180820190915260028152610c8d60f21b60208201529062010000900460ff16156130f75760405162461bcd60e51b81526004016108c491906152fe565b50600954601054600091612710916131139161ffff16906157eb565b61311d919061580a565b600254909150613137906001600160a01b03168483613cf2565b6009805462ff00001916620100001790556040517fcb4040dca59670b070ce40b47eb84aff39fa7db8cd83ad903380534add01dffa906112e79085908490615731565b60008281526079602052604090206001015461319581613d48565b61131e8383613e55565b6001546001600160a01b0316632f54bf6e336040518263ffffffff1660e01b81526004016131cd9190615532565b602060405180830381865afa1580156131ea573d6000803e3d6000fd5b505050506040513d601f19601f8201168201806040525081019061320e919061564f565b604051806040016040528060018152602001603160f81b815250906132465760405162461bcd60e51b81526004016108c491906152fe565b5060008190556040518181527fc8d52687b85ab11e6859cb0b390a9e926e1b348d9796e084f88f88420c176fc69060200160405180910390a150565b6001546001600160a01b0316632f54bf6e336040518263ffffffff1660e01b81526004016132b09190615532565b602060405180830381865afa1580156132cd573d6000803e3d6000fd5b505050506040513d601f19601f820116820180604052508101906132f1919061564f565b604051806040016040528060018152602001603160f81b815250906133295760405162461bcd60e51b81526004016108c491906152fe565b506014546040805162dc25a360e81b815290516000926001600160a01b03169163dc25a3009160048083019260a09291908290030181865afa158015613373573d6000803e3d6000fd5b505050506040513d601f19601f820116820180604052508101906133979190615683565b505050509050806001600160401b0316421060405180604001604052806002815260200161323560f01b815250906133e25760405162461bcd60e51b81526004016108c491906152fe565b506014546040805162dc25a360e81b815290516000926001600160a01b03169163dc25a3009160048083019260a09291908290030181865afa15801561342c573d6000803e3d6000fd5b505050506040513d601f19601f820116820180604052508101906134509190615683565b505060015460408051633160d6e160e11b815290519495506001600160a01b03909116936362c1adc29350600480830193506020928290030181865afa15801561349e573d6000803e3d6000fd5b505050506040513d601f19601f820116820180604052508101906134c291906156ea565b6134d5906001600160401b038316615719565b836001600160401b0316111560405180604001604052806002815260200161333960f01b8152509061351a5760405162461bcd60e51b81526004016108c491906152fe565b50600b546040805180820190915260018152603960f81b6020820152906001600160401b03808616600160c01b90920416111561356a5760405162461bcd60e51b81526004016108c491906152fe565b50601454604051630e3b37f360e41b81526001600160401b03851660048201526001600160a01b039091169063e3b37f30906024015b600060405180830381600087803b1580156135ba57600080fd5b505af11580156135ce573d6000803e3d6000fd5b50505050505050565b6135df6138f6565b600260dd5414156136025760405162461bcd60e51b81526004016108c490615602565b600260dd556136113382613970565b61361a81613ae8565b61362261393e565b156136605761363081614474565b60095461365290849084908490600090600160281b900461ffff166001613b97565b61365b81614523565b6136ad565b613668614535565b60405180604001604052806002815260200161313760f01b815250906136a15760405162461bcd60e51b81526004016108c491906152fe565b506136ad83838361456e565b5050600160dd5550565b6136c033611323565b604051806040016040528060018152602001601960f91b815250906136f85760405162461bcd60e51b81526004016108c491906152fe565b5060145460408051630edaf7f360e11b815290516000926001600160a01b031691631db5efe69160048083019260209291908290030181865afa158015613743573d6000803e3d6000fd5b505050506040513d601f19601f82011682018060405250810190613767919061574a565b6014546040516370a0823160e01b81526001600160a01b03928316926370a082319261379892911690600401615532565b602060405180830381865afa1580156137b5573d6000803e3d6000fd5b505050506040513d601f19601f820116820180604052508101906137d991906156ea565b905060006137e5612b67565b156137f15750806138c4565b6014546040805162dc25a360e81b815290516000926001600160a01b03169163dc25a3009160048083019260a09291908290030181865afa15801561383a573d6000803e3d6000fd5b505050506040513d601f19601f8201168201806040525081019061385e9190615683565b505050509050806001600160401b031642101560405180604001604052806002815260200161333160f01b815250906138aa5760405162461bcd60e51b81526004016108c491906152fe565b506138b6601054612b14565b6138c0908461584f565b9150505b601454604051631773307960e21b81526001600160a01b0390911690635dccc1e4906135a09086908590600401615731565b60ab5460ff161561393c5760405162461bcd60e51b815260206004820152601060248201526f14185d5cd8589b194e881c185d5cd95960821b60448201526064016108c4565b565b600b546000906001600160401b031642118015611347575050600b54600160401b90046001600160401b031642111590565b600254604051636eb1769f60e11b81526001600160a01b038481166004830152306024830152600092169063dd62ed3e90604401602060405180830381865afa1580156139c1573d6000803e3d6000fd5b505050506040513d601f19601f820116820180604052508101906139e591906156ea565b905081811015604051806040016040528060028152602001610c4d60f21b815250906127cc5760405162461bcd60e51b81526004016108c491906152fe565b604051633a4d4bcd60e11b81526004810183905273EC110FbCAd8311fbB06BAD7970De252133F0281a9063749a979a9060240160006040518083038186803b158015613a6f57600080fd5b505af4158015613a83573d6000803e3d6000fd5b5050506001600160a01b038416600090815260136020526040902054829150613aad908490615719565b111560405180604001604052806002815260200161062760f31b815250906127cc5760405162461bcd60e51b81526004016108c491906152fe565b604051633a4d4bcd60e11b81526004810182905273EC110FbCAd8311fbB06BAD7970De252133F0281a9063749a979a9060240160006040518083038186803b158015613b3357600080fd5b505af4158015613b47573d6000803e3d6000fd5b50505050600a5481601054613b5c9190615719565b111560405180604001604052806002815260200161313960f01b815250906113c65760405162461bcd60e51b81526004016108c491906152fe565b3360009081526013602052604081208054869290613bb6908490615719565b9091555060009050613c1133600080516020615b5d83398151915260001b600754878b8b8080602002602001604051908101604052809392919081815260200183836020028082843760009201919091525061469992505050565b90508015613c2d57613c27338685600186614702565b50613cd0565b6000613c8233600080516020615b5d83398151915260001b600854888c8c8080602002602001604051908101604052809392919081815260200183836020028082843760009201919091525061469992505050565b90508060405180604001604052806002815260200161189960f11b81525090613cbe5760405162461bcd60e51b81526004016108c491906152fe565b50613ccd338786600087614702565b50505b505050505050565b80600e6000828254613cea9190615719565b909155505050565b61131e8363a9059cbb60e01b8484604051602401613d11929190615731565b60408051601f198184030181529190526020810180516001600160e01b03166001600160e01b031990931692909217909152614935565b611f478133614a07565b613d5c8282612b3c565b6113c65760008281526079602090815260408083206001600160a01b03851684529091529020805460ff19166001179055613d943390565b6001600160a01b0316816001600160a01b0316837f2f8788117e7eff1d82e926ec794901d17c78024a50270940304540a733656f0d60405160405180910390a45050565b60006113477f8b73c3c69bb8fe3d512ecc4cf759cc79239f7b179b0ffacaa9a75d522b39400f613e0861010f5490565b610110546040805160208101859052908101839052606081018290524660808201523060a082015260009060c0016040516020818303038152906040528051906020012090509392505050565b613e5f8282612b3c565b156113c65760008281526079602090815260408083206001600160a01b0385168085529252808320805460ff1916905551339285917ff6391f5c32d9c69d2a47ea670b442974b53935d1edc7fd64eb21e047a839171b9190a45050565b600080846001600160a01b03166395d89b416040518163ffffffff1660e01b8152600401600060405180830381865afa158015613efd573d6000803e3d6000fd5b505050506040513d6000823e601f3d908101601f19168201604052613f2591908101906159db565b604051602001613f359190615a7c565b6040516020818303038152906040528051906020012090506000856001600160a01b031663313ce5676040518163ffffffff1660e01b8152600401602060405180830381865afa158015613f8d573d6000803e3d6000fd5b505050506040513d601f19601f82011682018060405250810190613fb19190615a98565b90506000613fbd61133d565b604080517f52d52760e40624a39bea36339850f64206470d82f714f11095b454fbff6de95260208201526001600160a01b038a16918101919091523060608201526080810185905260ff841660a082015260c0016040516020818303038152906040528051906020012060405160200161404e92919061190160f01b81526002810192909252602282015260420190565b60408051601f198184030181528282528051602091820120600154601f8a0183900483028501830190935288845293506001600160a01b0390911691632f54bf6e916140b69185918b908b9081908401838280828437600092019190915250614a6b92505050565b6040518263ffffffff1660e01b81526004016140d29190615532565b602060405180830381865afa1580156140ef573d6000803e3d6000fd5b505050506040513d601f19601f82011682018060405250810190614113919061564f565b93505050505b9392505050565b6127cc6001600160a01b038516848484614a8f565b61413d6138f6565b60ab805460ff191660011790557f62e78cea01bee320cd4e420270b5ea74000d11b0c9f74754ebdbfc544b05a2586141723390565b60405161417f9190615532565b60405180910390a1565b601454600160a81b900460ff166141b25760405162461bcd60e51b81526004016108c49061597a565b6113c68282614ab0565b6001546040805163cc6f033360e01b815290516000926001600160a01b03169163cc6f0333916004808301926020929190829003018187875af1158015614207573d6000803e3d6000fd5b505050506040513d601f19601f8201168201806040525081019061422b919061574a565b601480546001600160a01b0319166001600160a01b038381169182179092556040516376dfa56160e11b8152306004820152918a16602483015260448201899052606482018890526084820187905260a4820186905260c4820185905291925063edbf4ac29060e401600060405180830381600087803b1580156142ae57600080fd5b505af11580156142c2573d6000803e3d6000fd5b5050505050505050505050565b600061ffff8211156143325760405162461bcd60e51b815260206004820152602660248201527f53616665436173743a2076616c756520646f65736e27742066697420696e203160448201526536206269747360d01b60648201526084016108c4565b5090565b60006001600160401b038211156143325760405162461bcd60e51b815260206004820152602660248201527f53616665436173743a2076616c756520646f65736e27742066697420696e203660448201526534206269747360d01b60648201526084016108c4565b601454600160a81b900460ff1661393c5760405162461bcd60e51b81526004016108c49061597a565b601454600160a81b900460ff166143f05760405162461bcd60e51b81526004016108c49061597a565b61393c614af5565b601454600160a81b900460ff166144215760405162461bcd60e51b81526004016108c49061597a565b61393c614b2a565b600082815260796020526040808220600101805490849055905190918391839186917fbd79b86ffe0ab8e8776151514217cd7cacd52c909f66475c3af44e129f0b00ff9190a4505050565b604051633a4d4bcd60e11b81526004810182905273EC110FbCAd8311fbB06BAD7970De252133F0281a9063749a979a9060240160006040518083038186803b1580156144bf57600080fd5b505af41580156144d3573d6000803e3d6000fd5b5050505060065481600f546144e89190615719565b111560405180604001604052806002815260200161191960f11b815250906113c65760405162461bcd60e51b81526004016108c491906152fe565b80600f6000828254613cea9190615719565b600b54600090600160801b90046001600160401b031642118015611347575050600b54600160c01b90046001600160401b031642111590565b600260006145c633600080516020615b9d83398151915260001b600754600089898080602002602001604051908101604052809392919081815260200183836020028082843760009201919091525061469992505050565b905080156145ea57611f42336009548590600160281b900461ffff16600186614702565b600061464033600080516020615b9d83398151915260001b60085460008a8a8080602002602001604051908101604052809392919081815260200183836020028082843760009201919091525061469992505050565b90508060405180604001604052806002815260200161313360f01b8152509061467c5760405162461bcd60e51b81526004016108c491906152fe565b50613cd0336009548690600160281b900461ffff16600087614702565b6040516bffffffffffffffffffffffff19606087901b16602082015260348101859052605481018490526074810183905260009081906094016040516020818303038152906040528051906020012090506146f78360005483614b5a565b979650505050505050565b60018215151415614775576007546001600160a01b038616600090815260126020526040902054614734908690615719565b111560405180604001604052806002815260200161032360f41b8152509061476f5760405162461bcd60e51b81526004016108c491906152fe565b506147d9565b6008546001600160a01b03861660009081526012602052604090205461479c908690615719565b111560405180604001604052806002815260200161323160f01b815250906147d75760405162461bcd60e51b81526004016108c491906152fe565b505b6040516353baaca160e11b8152600481018590526024810184905260009073EC110FbCAd8311fbB06BAD7970De252133F0281a9063a775594290604401602060405180830381865af4158015614833573d6000803e3d6000fd5b505050506040513d601f19601f8201168201806040525081019061485791906156ea565b90506148638682614b70565b61486d8686614b8a565b600061487886612b14565b60145460405163020caa2560e51b81529192506001600160a01b03169063419544a0906148ab908a908590600401615731565b600060405180830381600087803b1580156148c557600080fd5b505af11580156148d9573d6000803e3d6000fd5b5050604080518981526020810185905260ff87168183015290513093506001600160a01b038b1692507f6666857ade20eaaed88e2671721b22c45635cc01006796336554a69f926be2f99181900360600190a350505050505050565b600061498a826040518060400160405280602081526020017f5361666545524332303a206c6f772d6c6576656c2063616c6c206661696c6564815250856001600160a01b0316614b9e9092919063ffffffff16565b80519091501561131e57808060200190518101906149a8919061564f565b61131e5760405162461bcd60e51b815260206004820152602a60248201527f5361666545524332303a204552433230206f7065726174696f6e20646964206e6044820152691bdd081cdd58d8d9595960b21b60648201526084016108c4565b614a118282612b3c565b6113c657614a29816001600160a01b03166014614bb5565b614a34836020614bb5565b604051602001614a45929190615abb565b60408051601f198184030181529082905262461bcd60e51b82526108c4916004016152fe565b6000806000614a7a8585614d50565b91509150614a8781614d96565b509392505050565b6127cc846323b872dd60e01b858585604051602401613d1193929190615866565b601454600160a81b900460ff16614ad95760405162461bcd60e51b81526004016108c49061597a565b81516020928301208151919092012061010f9190915561011055565b601454600160a81b900460ff16614b1e5760405162461bcd60e51b81526004016108c49061597a565b60ab805460ff19169055565b601454600160a81b900460ff16614b535760405162461bcd60e51b81526004016108c49061597a565b600160dd55565b600082614b678584614f4c565b14949350505050565b80156113c657614b808282614f91565b6113c68282614fa9565b614b948282614f91565b6113c68282614ff6565b6060614bad8484600085615037565b949350505050565b60606000614bc48360026157eb565b614bcf906002615719565b6001600160401b03811115614be657614be66159c5565b6040519080825280601f01601f191660200182016040528015614c10576020820181803683370190505b509050600360fc1b81600081518110614c2b57614c2b6157ba565b60200101906001600160f81b031916908160001a905350600f60fb1b81600181518110614c5a57614c5a6157ba565b60200101906001600160f81b031916908160001a9053506000614c7e8460026157eb565b614c89906001615719565b90505b6001811115614d01576f181899199a1a9b1b9c1cb0b131b232b360811b85600f1660108110614cbd57614cbd6157ba565b1a60f81b828281518110614cd357614cd36157ba565b60200101906001600160f81b031916908160001a90535060049490941c93614cfa81615b2a565b9050614c8c565b5083156141195760405162461bcd60e51b815260206004820181905260248201527f537472696e67733a20686578206c656e67746820696e73756666696369656e7460448201526064016108c4565b600080825160411415614d875760208301516040840151606085015160001a614d7b8782858561515d565b94509450505050614d8f565b506000905060025b9250929050565b6000816004811115614daa57614daa615639565b1415614db35750565b6001816004811115614dc757614dc7615639565b1415614e105760405162461bcd60e51b815260206004820152601860248201527745434453413a20696e76616c6964207369676e617475726560401b60448201526064016108c4565b6002816004811115614e2457614e24615639565b1415614e725760405162461bcd60e51b815260206004820152601f60248201527f45434453413a20696e76616c6964207369676e6174757265206c656e6774680060448201526064016108c4565b6003816004811115614e8657614e86615639565b1415614edf5760405162461bcd60e51b815260206004820152602260248201527f45434453413a20696e76616c6964207369676e6174757265202773272076616c604482015261756560f01b60648201526084016108c4565b6004816004811115614ef357614ef3615639565b1415611f475760405162461bcd60e51b815260206004820152602260248201527f45434453413a20696e76616c6964207369676e6174757265202776272076616c604482015261756560f01b60648201526084016108c4565b600081815b8451811015614a8757614f7d82868381518110614f7057614f706157ba565b6020026020010151615240565b915080614f8981615b41565b915050614f51565b6002546113c6906001600160a01b0316833084614a8f565b6001600160a01b03821660009081526012602052604081206001018054839290614fd4908490615719565b9250508190555080600c6000828254614fed9190615719565b90915550505050565b6001600160a01b0382166000908152601260205260408120805483929061501e908490615719565b925050819055508060106000828254614fed9190615719565b6060824710156150985760405162461bcd60e51b815260206004820152602660248201527f416464726573733a20696e73756666696369656e742062616c616e636520666f6044820152651c8818d85b1b60d21b60648201526084016108c4565b6001600160a01b0385163b6150ef5760405162461bcd60e51b815260206004820152601d60248201527f416464726573733a2063616c6c20746f206e6f6e2d636f6e747261637400000060448201526064016108c4565b600080866001600160a01b0316858760405161510b9190615a7c565b60006040518083038185875af1925050503d8060008114615148576040519150601f19603f3d011682016040523d82523d6000602084013e61514d565b606091505b50915091506146f782828661526f565b6000806fa2a8918ca85bafe22016d0b997e4df60600160ff1b0383111561518a5750600090506003615237565b8460ff16601b141580156151a257508460ff16601c14155b156151b35750600090506004615237565b6040805160008082526020820180845289905260ff881692820192909252606081018690526080810185905260019060a0016020604051602081039080840390855afa158015615207573d6000803e3d6000fd5b5050604051601f1901519150506001600160a01b03811661523057600060019250925050615237565b9150600090505b94509492505050565b600081831061525c576000828152602084905260409020614119565b6000838152602083905260409020614119565b6060831561527e575081614119565b82511561528e5782518084602001fd5b8160405162461bcd60e51b81526004016108c491906152fe565b6000602082840312156152ba57600080fd5b81356001600160e01b03198116811461411957600080fd5b60005b838110156152ed5781810151838201526020016152d5565b838111156127cc5750506000910152565b602081526000825180602084015261531d8160408501602087016152d2565b601f01601f19169190910160400192915050565b60008083601f84011261534357600080fd5b5081356001600160401b0381111561535a57600080fd5b6020830191508360208260051b8501011115614d8f57600080fd5b6000806000806060858703121561538b57600080fd5b84356001600160401b038111156153a157600080fd5b6153ad87828801615331565b90989097506020870135966040013595509350505050565b6001600160a01b0381168114611f4757600080fd5b6000602082840312156153ec57600080fd5b8135614119816153c5565b60006020828403121561540957600080fd5b5035919050565b6000806040838503121561542357600080fd5b823591506020830135615435816153c5565b809150509250929050565b60008060006040848603121561545557600080fd5b8335615460816153c5565b925060208401356001600160401b038082111561547c57600080fd5b818601915086601f83011261549057600080fd5b81358181111561549f57600080fd5b8760208285010111156154b157600080fd5b6020830194508093505050509250925092565b6001600160401b0381168114611f4757600080fd5b600080604083850312156154ec57600080fd5b82356154f7816154c4565b91506020830135615435816154c4565b8015158114611f4757600080fd5b60006020828403121561552757600080fd5b813561411981615507565b6001600160a01b0391909116815260200190565b60008060006102a0848603121561555c57600080fd5b604084018581111561556d57600080fd5b84935061028085018681111561558257600080fd5b9092503561558f816153c5565b809150509250925092565b6000602082840312156155ac57600080fd5b8135614119816154c4565b6000806000604084860312156155cc57600080fd5b83356001600160401b038111156155e257600080fd5b6155ee86828701615331565b909790965060209590950135949350505050565b6020808252601f908201527f5265656e7472616e637947756172643a207265656e7472616e742063616c6c00604082015260600190565b634e487b7160e01b600052602160045260246000fd5b60006020828403121561566157600080fd5b815161411981615507565b805161ffff8116811461567e57600080fd5b919050565b600080600080600060a0868803121561569b57600080fd5b85516156a6816154c4565b94506156b46020870161566c565b935060408601516156c4816154c4565b60608701519093506156d5816154c4565b80925050608086015190509295509295909350565b6000602082840312156156fc57600080fd5b5051919050565b634e487b7160e01b600052601160045260246000fd5b6000821982111561572c5761572c615703565b500190565b6001600160a01b03929092168252602082015260400190565b60006020828403121561575c57600080fd5b8151614119816153c5565b6102808101818460005b60028110156157a3578135615785816153c5565b6001600160a01b031683526020928301929190910190600101615771565b505050610240836040840137600081529392505050565b634e487b7160e01b600052603260045260246000fd5b6000602082840312156157e257600080fd5b6141198261566c565b600081600019048311821515161561580557615805615703565b500290565b60008261582757634e487b7160e01b600052601260045260246000fd5b500490565b600061ffff8381169083168181101561584757615847615703565b039392505050565b60008282101561586157615861615703565b500390565b6001600160a01b039384168152919092166020820152604081019190915260600190565b600181815b808511156158c55781600019048211156158ab576158ab615703565b808516156158b857918102915b93841c939080029061588f565b509250929050565b6000826158dc57506001610893565b816158e957506000610893565b81600181146158ff576002811461590957615925565b6001915050610893565b60ff84111561591a5761591a615703565b50506001821b610893565b5060208310610133831016604e8410600b8410161715615948575081810a610893565b615952838361588a565b806000190482111561596657615966615703565b029392505050565b600061411983836158cd565b6020808252602b908201527f496e697469616c697a61626c653a20636f6e7472616374206973206e6f74206960408201526a6e697469616c697a696e6760a81b606082015260800190565b634e487b7160e01b600052604160045260246000fd5b6000602082840312156159ed57600080fd5b81516001600160401b0380821115615a0457600080fd5b818401915084601f830112615a1857600080fd5b815181811115615a2a57615a2a6159c5565b604051601f8201601f19908116603f01168101908382118183101715615a5257615a526159c5565b81604052828152876020848701011115615a6b57600080fd5b6146f78360208301602088016152d2565b60008251615a8e8184602087016152d2565b9190910192915050565b600060208284031215615aaa57600080fd5b815160ff8116811461411957600080fd5b76020b1b1b2b9b9a1b7b73a3937b61d1030b1b1b7bab73a1604d1b815260008351615aed8160178501602088016152d2565b7001034b99036b4b9b9b4b733903937b6329607d1b6017918401918201528351615b1e8160288401602088016152d2565b01602801949350505050565b600081615b3957615b39615703565b506000190190565b6000600019821415615b5557615b55615703565b506001019056feed4b80c86c7954bdbf516c492acb4a2899eb0ee85b7c74e26d85e55a07562c95b19546dff01e856fb3f010c267a7b1c60363cf8a4664e21cc89c26224620214e13e31188d81b941f4c541528790db4031bef078b78d364bde6fc2d4e5ad79e01a2646970667358221220f493e4f9803dcb8d7d2c1e8b3ad046174c9b8589222a8353cf9cf8bcca194ff664736f6c634300080a0033",
  "deployedBytecode": "0x608060405234801561001057600080fd5b50600436106103455760003560e01c806377292d5b116101bf578063c09d6fb9116100fa578063e3b37f301161009d578063e3b37f30146107c6578063e58378bb146107d9578063e7a00232146107ee578063e995914914610815578063ebf0c7171461082a578063efaad0ec14610833578063f137993914610846578063f1f8044a1461084f57600080fd5b8063c09d6fb914610714578063c313607414610729578063c6b3665c1461073c578063cdc5598e14610751578063ce7c641014610766578063cf4186ec14610780578063d547741f146107a0578063dab5f340146107b357600080fd5b8063a217fddf11610162578063a217fddf14610667578063a4f276c71461066f578063a558b65c146106b9578063a95c4d62146106d3578063adaa039c146106e6578063b3679bda146106ef578063b3cd4254146106f8578063bb8e3f441461070157600080fd5b806377292d5b146105fc5780637837734f146106055780637b1a08381461061a57806385f8f4be146106235780638a39face1461062c57806391d148541461063f5780639ac8d38b14610652578063a0918c4f1461065f57600080fd5b80633644e5151161028f57806350a729281161023257806350a729281461056a57806354fd4d501461057d5780635671e8c91461059d5780635c975abb146105b05780636db6e031146105bb5780636e3b466d146105ce5780636e44a6c9146105e15780636e516bbe146105e957600080fd5b80633644e515146104c057806336568abe146104c85780633baa6fca146104db5780633bc270db146104ee5780633d3e3763146105015780633d4527b71461051457806344c63eec146105275780634f93d1ad1461054757600080fd5b80632013b4c4116102f75780632013b4c4146104015780632186b36814610433578063226d232a14610446578063248a9ca3146104595780632f2ff15d1461047c5780632f54bf6e1461048f57806330bba6c4146104a257806334fa224b146104ab57600080fd5b806301ffc9a71461034a57806302bb34c814610372578063068350b91461038957806306fdde03146103aa578063086425bc146103da5780631353ff75146103ef5780631acbc823146103f8575b600080fd5b61035d6103583660046152a8565b610862565b60405190151581526020015b60405180910390f35b61037b60115481565b604051908152602001610369565b6009546103979061ffff1681565b60405161ffff9091168152602001610369565b6103cd60405180604001604052806004815260200163141bdbdb60e21b81525081565b60405161036991906152fe565b6103ed6103e8366004615375565b610899565b005b61037b60055481565b61037b60105481565b600b5461041b90600160c01b90046001600160401b031681565b6040516001600160401b039091168152602001610369565b6103ed6104413660046153da565b610967565b6103ed6104543660046153da565b610d8b565b61037b6104673660046153f7565b60009081526079602052604090206001015490565b6103ed61048a366004615410565b6112f9565b61035d61049d3660046153da565b611323565b61037b60085481565b60095461039790600160381b900461ffff1681565b61037b61133d565b6103ed6104d6366004615410565b61134c565b600b5461041b906001600160401b031681565b6103ed6104fc366004615440565b6113ca565b6103ed61050f3660046154d9565b6117f0565b6103ed610522366004615515565b611b08565b60145461053a906001600160a01b031681565b6040516103699190615532565b600354600454610555919082565b60408051928352602083019190915201610369565b60015461053a906001600160a01b031681565b6103cd604051806040016040528060018152602001603160f81b81525081565b6103ed6105ab366004615515565b611df0565b60ab5460ff1661035d565b6103ed6105c9366004615546565b611f4a565b60095461035d9062010000900460ff1681565b61037b6127d2565b6103ed6105f73660046153da565b612956565b61037b600e5481565b600954610397906301000000900461ffff1681565b61037b600f5481565b61037b60075481565b61037b61063a3660046153f7565b612b14565b61035d61064d366004615410565b612b3c565b600d5461035d9060ff1681565b61035d612b67565b61037b600081565b61069e61067d3660046153da565b60126020526000908152604090208054600182015460029092015490919083565b60408051938452602084019290925290820152606001610369565b600b5461041b90600160801b90046001600160401b031681565b60025461053a906001600160a01b031681565b61037b600c5481565b61037b600a5481565b61039761271081565b6103ed61070f3660046153da565b612c8c565b61037b600080516020615b5d83398151915281565b6103ed6107373660046153da565b612d3d565b60095461039790600160281b900461ffff1681565b60095461039790600160481b900461ffff1681565b600b5461041b90600160401b90046001600160401b031681565b61037b61078e3660046153da565b60136020526000908152604090205481565b6103ed6107ae366004615410565b61317a565b6103ed6107c13660046153f7565b61319f565b6103ed6107d436600461559a565b613282565b61037b600080516020615b7d83398151915281565b61037b7f52d52760e40624a39bea36339850f64206470d82f714f11095b454fbff6de95281565b61037b600080516020615b9d83398151915281565b61037b60005481565b6103ed6108413660046155b7565b6135d7565b61037b60065481565b6103ed61085d3660046153da565b6136b7565b60006001600160e01b03198216637965db0b60e01b148061089357506301ffc9a760e01b6001600160e01b03198316145b92915050565b6108a16138f6565b600260dd5414156108cd5760405162461bcd60e51b81526004016108c490615602565b60405180910390fd5b600260dd556108da61393e565b60405180604001604052806002815260200161313760f01b815250906109135760405162461bcd60e51b81526004016108c491906152fe565b5061091e3383613970565b610929338383613a24565b61093282613ae8565b6009546109539085908590859085906301000000900461ffff166000613b97565b61095c82613cd8565b5050600160dd555050565b6001546001600160a01b0316632f54bf6e336040518263ffffffff1660e01b81526004016109959190615532565b602060405180830381865afa1580156109b2573d6000803e3d6000fd5b505050506040513d601f19601f820116820180604052508101906109d6919061564f565b604051806040016040528060018152602001603160f81b81525090610a0e5760405162461bcd60e51b81526004016108c491906152fe565b50610a176138f6565b601460009054906101000a90046001600160a01b03166001600160a01b0316637c6543036040518163ffffffff1660e01b8152600401602060405180830381865afa158015610a6a573d6000803e3d6000fd5b505050506040513d601f19601f82011682018060405250810190610a8e919061564f565b60405180604001604052806002815260200161313560f01b81525090610ac75760405162461bcd60e51b81526004016108c491906152fe565b50600260dd541415610aeb5760405162461bcd60e51b81526004016108c490615602565b600260dd556014546040805162dc25a360e81b815290516000926001600160a01b03169163dc25a3009160048083019260a09291908290030181865afa158015610b39573d6000803e3d6000fd5b505050506040513d601f19601f82011682018060405250810190610b5d9190615683565b505050509050806001600160401b0316600160009054906101000a90046001600160a01b03166001600160a01b031663bc87783f6040518163ffffffff1660e01b8152600401602060405180830381865afa158015610bc0573d6000803e3d6000fd5b505050506040513d601f19601f82011682018060405250810190610be491906156ea565b610bee9190615719565b42101560405180604001604052806002815260200161199960f11b81525090610c2a5760405162461bcd60e51b81526004016108c491906152fe565b50601460009054906101000a90046001600160a01b03166001600160a01b0316639aa74a8c6040518163ffffffff1660e01b8152600401602060405180830381865afa158015610c7e573d6000803e3d6000fd5b505050506040513d601f19601f82011682018060405250810190610ca2919061564f565b1560405180604001604052806002815260200161333360f01b81525090610cdc5760405162461bcd60e51b81526004016108c491906152fe565b50600d54604080518082019091526002815261191b60f11b60208201529060ff1615610d1b5760405162461bcd60e51b81526004016108c491906152fe565b50600c54600254610d39916001600160a01b03909116908490613cf2565b600d805460ff19166001179055600c546040517f271b8a9c81b4d02d8aca6c2a2e341a4e3e125356c586780413e857a0fadd766a91610d7a91859190615731565b60405180910390a15050600160dd55565b610d9433611323565b604051806040016040528060018152602001601960f91b81525090610dcc5760405162461bcd60e51b81526004016108c491906152fe565b50610dd56138f6565b601460009054906101000a90046001600160a01b03166001600160a01b0316637c6543036040518163ffffffff1660e01b8152600401602060405180830381865afa158015610e28573d6000803e3d6000fd5b505050506040513d601f19601f82011682018060405250810190610e4c919061564f565b60405180604001604052806002815260200161313560f01b81525090610e855760405162461bcd60e51b81526004016108c491906152fe565b50600260dd541415610ea95760405162461bcd60e51b81526004016108c490615602565b600260dd556014546040805162dc25a360e81b815290516000926001600160a01b03169163dc25a3009160048083019260a09291908290030181865afa158015610ef7573d6000803e3d6000fd5b505050506040513d601f19601f82011682018060405250810190610f1b9190615683565b505050509050806001600160401b0316600160009054906101000a90046001600160a01b03166001600160a01b031663bc87783f6040518163ffffffff1660e01b8152600401602060405180830381865afa158015610f7e573d6000803e3d6000fd5b505050506040513d601f19601f82011682018060405250810190610fa291906156ea565b610fac9190615719565b42101560405180604001604052806002815260200161199960f11b81525090610fe85760405162461bcd60e51b81526004016108c491906152fe565b50601460009054906101000a90046001600160a01b03166001600160a01b0316639aa74a8c6040518163ffffffff1660e01b8152600401602060405180830381865afa15801561103c573d6000803e3d6000fd5b505050506040513d601f19601f82011682018060405250810190611060919061564f565b1560405180604001604052806002815260200161333360f01b8152509061109a5760405162461bcd60e51b81526004016108c491906152fe565b50601460009054906101000a90046001600160a01b03166001600160a01b03166374478bb36040518163ffffffff1660e01b8152600401602060405180830381865afa1580156110ee573d6000803e3d6000fd5b505050506040513d601f19601f82011682018060405250810190611112919061564f565b60405180604001604052806002815260200161033360f41b8152509061114b5760405162461bcd60e51b81526004016108c491906152fe565b5060006111566127d2565b90506000811160405180604001604052806002815260200161313160f01b815250906111955760405162461bcd60e51b81526004016108c491906152fe565b506002546040516370a0823160e01b81526001600160a01b03909116906370a08231906111c6903090600401615532565b602060405180830381865afa1580156111e3573d6000803e3d6000fd5b505050506040513d601f19601f8201168201806040525081019061120791906156ea565b811115611284576002546040516370a0823160e01b81526001600160a01b03909116906370a082319061123e903090600401615532565b602060405180830381865afa15801561125b573d6000803e3d6000fd5b505050506040513d601f19601f8201168201806040525081019061127f91906156ea565b611286565b805b9050806011600082825461129a9190615719565b90915550506002546112b6906001600160a01b03168483613cf2565b7f0f8819b8888ebff61f219df3a7380d5329e5c298966c09de72e7a1449149b47483826040516112e7929190615731565b60405180910390a15050600160dd5550565b60008281526079602052604090206001015461131481613d48565b61131e8383613d52565b505050565b6000610893600080516020615b7d83398151915283612b3c565b6000611347613dd8565b905090565b6001600160a01b03811633146113bc5760405162461bcd60e51b815260206004820152602f60248201527f416363657373436f6e74726f6c3a2063616e206f6e6c792072656e6f756e636560448201526e103937b632b9903337b91039b2b63360891b60648201526084016108c4565b6113c68282613e55565b5050565b6113d333611323565b604051806040016040528060018152602001601960f91b8152509061140b5760405162461bcd60e51b81526004016108c491906152fe565b506114146138f6565b600260dd5414156114375760405162461bcd60e51b81526004016108c490615602565b600260dd556014546040805162dc25a360e81b815290516000926001600160a01b03169163dc25a3009160048083019260a09291908290030181865afa158015611485573d6000803e3d6000fd5b505050506040513d601f19601f820116820180604052508101906114a99190615683565b505050509050806001600160401b0316421060405180604001604052806002815260200161323560f01b815250906114f45760405162461bcd60e51b81526004016108c491906152fe565b50601460009054906101000a90046001600160a01b03166001600160a01b0316637c6543036040518163ffffffff1660e01b8152600401602060405180830381865afa158015611548573d6000803e3d6000fd5b505050506040513d601f19601f8201168201806040525081019061156c919061564f565b1560405180604001604052806002815260200161343160f01b815250906115a65760405162461bcd60e51b81526004016108c491906152fe565b5060145460408051630edaf7f360e11b815290516000926001600160a01b031691631db5efe69160048083019260209291908290030181865afa1580156115f1573d6000803e3d6000fd5b505050506040513d601f19601f82011682018060405250810190611615919061574a565b90506000611624600a54612b14565b90506001600160a01b03821661173557600b54604080518082019091526002815261199b60f11b602082015290600160c01b90046001600160401b031642116116805760405162461bcd60e51b81526004016108c491906152fe565b5061168c868686613ebc565b60405180604001604052806002815260200161031360f41b815250906116c55760405162461bcd60e51b81526004016108c491906152fe565b50601454604051620c8f6d60e81b81526001600160a01b0390911690630c8f6d00906116f5908990600401615532565b600060405180830381600087803b15801561170f57600080fd5b505af1158015611723573d6000803e3d6000fd5b50505050611732601054612b14565b90505b61174c86336014546001600160a01b031684614120565b60145460405163b61a40c760e01b8152600160048201526001600160a01b039091169063b61a40c790602401600060405180830381600087803b15801561179257600080fd5b505af11580156117a6573d6000803e3d6000fd5b505050507ffd1c6e1b2189d312d7360ee69c2e59b038f3f1e637e102efc2c3a833b617958e86826040516117db929190615731565b60405180910390a15050600160dd5550505050565b6001546001600160a01b0316632f54bf6e336040518263ffffffff1660e01b815260040161181e9190615532565b602060405180830381865afa15801561183b573d6000803e3d6000fd5b505050506040513d601f19601f8201168201806040525081019061185f919061564f565b604051806040016040528060018152602001603160f81b815250906118975760405162461bcd60e51b81526004016108c491906152fe565b506014546040805162dc25a360e81b815290516000926001600160a01b03169163dc25a3009160048083019260a09291908290030181865afa1580156118e1573d6000803e3d6000fd5b505050506040513d601f19601f820116820180604052508101906119059190615683565b505050509050806001600160401b0316421060405180604001604052806002815260200161323560f01b815250906119505760405162461bcd60e51b81526004016108c491906152fe565b506014546040805162dc25a360e81b815290516000926001600160a01b03169163dc25a3009160048083019260a09291908290030181865afa15801561199a573d6000803e3d6000fd5b505050506040513d601f19601f820116820180604052508101906119be9190615683565b5050600b5492935050506001600160401b0380861691161080156119f35750826001600160401b0316846001600160401b0316105b8015611a115750806001600160401b0316836001600160401b031611155b604051806040016040528060018152602001603960f81b81525090611a495760405162461bcd60e51b81526004016108c491906152fe565b50600b8054600160401b600160c01b031916600160401b6001600160401b0387811682810267ffffffffffffffff60801b191693909317600160801b938402176001600160c01b038116600160c01b8984168102918217968790556040805193851692851692909217835293860483166020830152938504821693810193909352920490911660608201527feedf049ba2a9e400be9e2a2d93b7e6023411a5c4fd77fe703bc75c2fea691fc3906080015b60405180910390a150505050565b6001546001600160a01b0316632f54bf6e336040518263ffffffff1660e01b8152600401611b369190615532565b602060405180830381865afa158015611b53573d6000803e3d6000fd5b505050506040513d601f19601f82011682018060405250810190611b77919061564f565b604051806040016040528060018152602001603160f81b81525090611baf5760405162461bcd60e51b81526004016108c491906152fe565b506014546040805162dc25a360e81b815290516000926001600160a01b03169163dc25a3009160048083019260a09291908290030181865afa158015611bf9573d6000803e3d6000fd5b505050506040513d601f19601f82011682018060405250810190611c1d9190615683565b505050509050806001600160401b03164210611d4f576001546040805163bc87783f60e01b815290516001600160401b038416926001600160a01b03169163bc87783f9160048083019260209291908290030181865afa158015611c85573d6000803e3d6000fd5b505050506040513d601f19601f82011682018060405250810190611ca991906156ea565b611cb39190615719565b421115604051806040016040528060028152602001610ccd60f21b81525090611cef5760405162461bcd60e51b81526004016108c491906152fe565b506014546040516358e0fb5560e01b8152600160048201526001600160a01b03909116906358e0fb5590602401600060405180830381600087803b158015611d3657600080fd5b505af1158015611d4a573d6000803e3d6000fd5b505050505b611d57614135565b601454604051635671e8c960e01b8152600060048201526001600160a01b0390911690635671e8c990602401600060405180830381600087803b158015611d9d57600080fd5b505af1158015611db1573d6000803e3d6000fd5b505060405184151581523092507fcf113a21b92df7813071b3bb491583c8469cf02f9b1c0280d4500d339570a17f915060200160405180910390a25050565b6001546001600160a01b0316632f54bf6e336040518263ffffffff1660e01b8152600401611e1e9190615532565b602060405180830381865afa158015611e3b573d6000803e3d6000fd5b505050506040513d601f19601f82011682018060405250810190611e5f919061564f565b604051806040016040528060018152602001603160f81b81525090611e975760405162461bcd60e51b81526004016108c491906152fe565b5060018115151415611ee757611eab612b67565b1560405180604001604052806002815260200161323960f01b81525090611ee55760405162461bcd60e51b81526004016108c491906152fe565b505b601454604051635671e8c960e01b815282151560048201526001600160a01b0390911690635671e8c990602401600060405180830381600087803b158015611f2e57600080fd5b505af1158015611f42573d6000803e3d6000fd5b505050505b50565b601454600160a81b900460ff1615808015611f7257506014546001600160a01b90910460ff16105b80611f935750303b158015611f935750601454600160a01b900460ff166001145b611ff65760405162461bcd60e51b815260206004820152602e60248201527f496e697469616c697a61626c653a20636f6e747261637420697320616c72656160448201526d191e481a5b9a5d1a585b1a5e995960921b60648201526084016108c4565b6014805460ff60a01b1916600160a01b1790558015612023576014805460ff60a81b1916600160a81b1790555b604051635c1c862160e01b815273__$ad759d264299add65d0b3e8b0deb20d304$__90635c1c86219061205a908590600401615532565b60006040518083038186803b15801561207257600080fd5b505af4158015612086573d6000803e3d6000fd5b505050506120c960405180604001604052806004815260200163141bdbdb60e21b815250604051806040016040528060018152602001603160f81b815250614189565b6120d282612c8c565b60405163b95f0a6360e01b815273__$ad759d264299add65d0b3e8b0deb20d304$__9063b95f0a639061210b9087908790600401615767565b60006040518083038186803b15801561212357600080fd5b505af4158015612137573d6000803e3d6000fd5b505050506121423390565b600180546001600160a01b0319166001600160a01b039290921691909117905561219561217260208601866153da565b6101a08501356101c08601356101e08701356102008801356102208901356141bc565b73__$ad759d264299add65d0b3e8b0deb20d304$__635c1c86216121bf60408701602088016153da565b6040518263ffffffff1660e01b81526004016121db9190615532565b60006040518083038186803b1580156121f357600080fd5b505af4158015612207573d6000803e3d6000fd5b505050508360016002811061221e5761221e6157ba565b60200201602081019061223191906153da565b600280546001600160a01b0319166001600160a01b03929092169190911781558335600781905560208086013560088190556040805180820190915293845261034360f41b918401919091521061229b5760405162461bcd60e51b81526004016108c491906152fe565b506122ad8360025b60200201356142cf565b6009805461ffff191661ffff929092169190911790556122ce8360036122a3565b6009805461ffff9290921663010000000264ffff000000199092169190911790556122fa8360046122a3565b600960056101000a81548161ffff021916908361ffff160217905550600160009054906101000a90046001600160a01b03166001600160a01b031663d8c128226040518163ffffffff1660e01b8152600401602060405180830381865afa158015612369573d6000803e3d6000fd5b505050506040513d601f19601f8201168201806040525081019061238d91906157d0565b60095461ffff9182166301000000909104909116108015906124385750600160009054906101000a90046001600160a01b03166001600160a01b031663884c45096040518163ffffffff1660e01b8152600401602060405180830381865afa1580156123fd573d6000803e3d6000fd5b505050506040513d601f19601f8201168201806040525081019061242191906157d0565b60095461ffff918216630100000090910490911611155b60405180604001604052806002815260200161333760f01b815250906124715760405162461bcd60e51b81526004016108c491906152fe565b50600160009054906101000a90046001600160a01b03166001600160a01b031663397a1cb36040518163ffffffff1660e01b8152600401602060405180830381865afa1580156124c5573d6000803e3d6000fd5b505050506040513d601f19601f820116820180604052508101906124e991906157d0565b60095461ffff918216600160281b909104909116108015906125945750600160009054906101000a90046001600160a01b03166001600160a01b031663d6de71fd6040518163ffffffff1660e01b8152600401602060405180830381865afa158015612559573d6000803e3d6000fd5b505050506040513d601f19601f8201168201806040525081019061257d91906157d0565b60095461ffff918216600160281b90910490911611155b60405180604001604052806002815260200161066760f31b815250906125cd5760405162461bcd60e51b81526004016108c491906152fe565b506125d98360056122a3565b6009805461ffff92909216600160381b0261ffff60381b199092169190911790556126058360066122a3565b6009805461ffff60481b1916600160481b61ffff93841602179081905560e0850135600a8190556127109261264292600160381b900416906157eb565b61264c919061580a565b60055560095461271090819061ffff600160481b820481169161267891600160381b909104168361582c565b61ffff16600a5461268991906157eb565b61269391906157eb565b61269d919061580a565b6126a7919061580a565b6006556126b8610100840135614336565b600b805467ffffffffffffffff19166001600160401b03929092169190911790556126f56126f0610120850135610100860135615719565b614336565b600b8054600160401b600160c01b031916600160401b6001600160401b0393841690810267ffffffffffffffff60801b191691909117600160801b918202179182905561274f926126f09261014088013592900416615719565b600b80546001600160401b0392909216600160c01b026001600160c01b0390921691909117905561016083013560035561018083013560045580156127cc576014805460ff60a81b19169055604051600181527f7f26b83ff96e1f2b6a682f133852f6798a09c465da95921460cefb384740249890602001611afa565b50505050565b6009546010546000918291612710916127f19161ffff909116906157eb565b6127fb919061580a565b905060008160105461280d919061584f565b90506000806000806000601460009054906101000a90046001600160a01b03166001600160a01b031663dc25a3006040518163ffffffff1660e01b815260040160a060405180830381865afa15801561286a573d6000803e3d6000fd5b505050506040513d601f19601f8201168201806040525081019061288e9190615683565b601154604051633954a8c760e01b8152600481018d9052602481019190915261ffff851660448201526001600160401b0380871660648301528085166084830152831660a482015260c481018290529499509297509095509350915073__$9fb2edb4e987366f36b33ed733baa6b7a5$__90633954a8c79060e401602060405180830381865af4158015612926573d6000803e3d6000fd5b505050506040513d601f19601f8201168201806040525081019061294a91906156ea565b97505050505050505090565b600260dd5414156129795760405162461bcd60e51b81526004016108c490615602565b600260dd553360009081526012602052604081208054600182015491929091906129a38284615719565b905060008111604051806040016040528060018152602001603360f81b815250906129e15760405162461bcd60e51b81526004016108c491906152fe565b506129ea612b67565b80612a675750601460009054906101000a90046001600160a01b03166001600160a01b0316639aa74a8c6040518163ffffffff1660e01b8152600401602060405180830381865afa158015612a43573d6000803e3d6000fd5b505050506040513d601f19601f82011682018060405250810190612a67919061564f565b8015612a7557506002840154155b60405180604001604052806002815260200161323760f01b81525090612aae5760405162461bcd60e51b81526004016108c491906152fe565b50600254612ac6906001600160a01b03168683613cf2565b600284018190557f06ef36b707e3dba03834e3b12d116525831e552283719e0bb25d309006322a61338683604051612b0093929190615866565b60405180910390a15050600160dd55505050565b600454600090612b2590600a61596e565b600354612b3290846157eb565b610893919061580a565b60009182526079602090815260408084206001600160a01b0393909316845291905290205460ff1690565b600080601460009054906101000a90046001600160a01b03166001600160a01b031663dc25a3006040518163ffffffff1660e01b815260040160a060405180830381865afa158015612bbd573d6000803e3d6000fd5b505050506040513d601f19601f82011682018060405250810190612be19190615683565b505050509050612bf360ab5460ff1690565b80612c865750601460009054906101000a90046001600160a01b03166001600160a01b0316637c6543036040518163ffffffff1660e01b8152600401602060405180830381865afa158015612c4c573d6000803e3d6000fd5b505050506040513d601f19601f82011682018060405250810190612c70919061564f565b158015612c865750806001600160401b03164210155b91505090565b601454600160a81b900460ff16612cb55760405162461bcd60e51b81526004016108c49061597a565b6040805180820190915260018152600d60fa1b60208201526001600160a01b038216612cf45760405162461bcd60e51b81526004016108c491906152fe565b50612cfd61439e565b612d056143c7565b612d0d6143f8565b612d25600080516020615b7d83398151915282613d52565b611f47600080516020615b7d83398151915280614429565b6001546001600160a01b0316632f54bf6e336040518263ffffffff1660e01b8152600401612d6b9190615532565b602060405180830381865afa158015612d88573d6000803e3d6000fd5b505050506040513d601f19601f82011682018060405250810190612dac919061564f565b604051806040016040528060018152602001603160f81b81525090612de45760405162461bcd60e51b81526004016108c491906152fe565b50612ded6138f6565b601460009054906101000a90046001600160a01b03166001600160a01b0316637c6543036040518163ffffffff1660e01b8152600401602060405180830381865afa158015612e40573d6000803e3d6000fd5b505050506040513d601f19601f82011682018060405250810190612e64919061564f565b60405180604001604052806002815260200161313560f01b81525090612e9d5760405162461bcd60e51b81526004016108c491906152fe565b50600260dd541415612ec15760405162461bcd60e51b81526004016108c490615602565b600260dd556014546040805162dc25a360e81b815290516000926001600160a01b03169163dc25a3009160048083019260a09291908290030181865afa158015612f0f573d6000803e3d6000fd5b505050506040513d601f19601f82011682018060405250810190612f339190615683565b505050509050806001600160401b0316600160009054906101000a90046001600160a01b03166001600160a01b031663bc87783f6040518163ffffffff1660e01b8152600401602060405180830381865afa158015612f96573d6000803e3d6000fd5b505050506040513d601f19601f82011682018060405250810190612fba91906156ea565b612fc49190615719565b42101560405180604001604052806002815260200161199960f11b815250906130005760405162461bcd60e51b81526004016108c491906152fe565b50601460009054906101000a90046001600160a01b03166001600160a01b0316639aa74a8c6040518163ffffffff1660e01b8152600401602060405180830381865afa158015613054573d6000803e3d6000fd5b505050506040513d601f19601f82011682018060405250810190613078919061564f565b1560405180604001604052806002815260200161333360f01b815250906130b25760405162461bcd60e51b81526004016108c491906152fe565b506009546040805180820190915260028152610c8d60f21b60208201529062010000900460ff16156130f75760405162461bcd60e51b81526004016108c491906152fe565b50600954601054600091612710916131139161ffff16906157eb565b61311d919061580a565b600254909150613137906001600160a01b03168483613cf2565b6009805462ff00001916620100001790556040517fcb4040dca59670b070ce40b47eb84aff39fa7db8cd83ad903380534add01dffa906112e79085908490615731565b60008281526079602052604090206001015461319581613d48565b61131e8383613e55565b6001546001600160a01b0316632f54bf6e336040518263ffffffff1660e01b81526004016131cd9190615532565b602060405180830381865afa1580156131ea573d6000803e3d6000fd5b505050506040513d601f19601f8201168201806040525081019061320e919061564f565b604051806040016040528060018152602001603160f81b815250906132465760405162461bcd60e51b81526004016108c491906152fe565b5060008190556040518181527fc8d52687b85ab11e6859cb0b390a9e926e1b348d9796e084f88f88420c176fc69060200160405180910390a150565b6001546001600160a01b0316632f54bf6e336040518263ffffffff1660e01b81526004016132b09190615532565b602060405180830381865afa1580156132cd573d6000803e3d6000fd5b505050506040513d601f19601f820116820180604052508101906132f1919061564f565b604051806040016040528060018152602001603160f81b815250906133295760405162461bcd60e51b81526004016108c491906152fe565b506014546040805162dc25a360e81b815290516000926001600160a01b03169163dc25a3009160048083019260a09291908290030181865afa158015613373573d6000803e3d6000fd5b505050506040513d601f19601f820116820180604052508101906133979190615683565b505050509050806001600160401b0316421060405180604001604052806002815260200161323560f01b815250906133e25760405162461bcd60e51b81526004016108c491906152fe565b506014546040805162dc25a360e81b815290516000926001600160a01b03169163dc25a3009160048083019260a09291908290030181865afa15801561342c573d6000803e3d6000fd5b505050506040513d601f19601f820116820180604052508101906134509190615683565b505060015460408051633160d6e160e11b815290519495506001600160a01b03909116936362c1adc29350600480830193506020928290030181865afa15801561349e573d6000803e3d6000fd5b505050506040513d601f19601f820116820180604052508101906134c291906156ea565b6134d5906001600160401b038316615719565b836001600160401b0316111560405180604001604052806002815260200161333960f01b8152509061351a5760405162461bcd60e51b81526004016108c491906152fe565b50600b546040805180820190915260018152603960f81b6020820152906001600160401b03808616600160c01b90920416111561356a5760405162461bcd60e51b81526004016108c491906152fe565b50601454604051630e3b37f360e41b81526001600160401b03851660048201526001600160a01b039091169063e3b37f30906024015b600060405180830381600087803b1580156135ba57600080fd5b505af11580156135ce573d6000803e3d6000fd5b50505050505050565b6135df6138f6565b600260dd5414156136025760405162461bcd60e51b81526004016108c490615602565b600260dd556136113382613970565b61361a81613ae8565b61362261393e565b156136605761363081614474565b60095461365290849084908490600090600160281b900461ffff166001613b97565b61365b81614523565b6136ad565b613668614535565b60405180604001604052806002815260200161313760f01b815250906136a15760405162461bcd60e51b81526004016108c491906152fe565b506136ad83838361456e565b5050600160dd5550565b6136c033611323565b604051806040016040528060018152602001601960f91b815250906136f85760405162461bcd60e51b81526004016108c491906152fe565b5060145460408051630edaf7f360e11b815290516000926001600160a01b031691631db5efe69160048083019260209291908290030181865afa158015613743573d6000803e3d6000fd5b505050506040513d601f19601f82011682018060405250810190613767919061574a565b6014546040516370a0823160e01b81526001600160a01b03928316926370a082319261379892911690600401615532565b602060405180830381865afa1580156137b5573d6000803e3d6000fd5b505050506040513d601f19601f820116820180604052508101906137d991906156ea565b905060006137e5612b67565b156137f15750806138c4565b6014546040805162dc25a360e81b815290516000926001600160a01b03169163dc25a3009160048083019260a09291908290030181865afa15801561383a573d6000803e3d6000fd5b505050506040513d601f19601f8201168201806040525081019061385e9190615683565b505050509050806001600160401b031642101560405180604001604052806002815260200161333160f01b815250906138aa5760405162461bcd60e51b81526004016108c491906152fe565b506138b6601054612b14565b6138c0908461584f565b9150505b601454604051631773307960e21b81526001600160a01b0390911690635dccc1e4906135a09086908590600401615731565b60ab5460ff161561393c5760405162461bcd60e51b815260206004820152601060248201526f14185d5cd8589b194e881c185d5cd95960821b60448201526064016108c4565b565b600b546000906001600160401b031642118015611347575050600b54600160401b90046001600160401b031642111590565b600254604051636eb1769f60e11b81526001600160a01b038481166004830152306024830152600092169063dd62ed3e90604401602060405180830381865afa1580156139c1573d6000803e3d6000fd5b505050506040513d601f19601f820116820180604052508101906139e591906156ea565b905081811015604051806040016040528060028152602001610c4d60f21b815250906127cc5760405162461bcd60e51b81526004016108c491906152fe565b604051633a4d4bcd60e11b81526004810183905273__$ad759d264299add65d0b3e8b0deb20d304$__9063749a979a9060240160006040518083038186803b158015613a6f57600080fd5b505af4158015613a83573d6000803e3d6000fd5b5050506001600160a01b038416600090815260136020526040902054829150613aad908490615719565b111560405180604001604052806002815260200161062760f31b815250906127cc5760405162461bcd60e51b81526004016108c491906152fe565b604051633a4d4bcd60e11b81526004810182905273__$ad759d264299add65d0b3e8b0deb20d304$__9063749a979a9060240160006040518083038186803b158015613b3357600080fd5b505af4158015613b47573d6000803e3d6000fd5b50505050600a5481601054613b5c9190615719565b111560405180604001604052806002815260200161313960f01b815250906113c65760405162461bcd60e51b81526004016108c491906152fe565b3360009081526013602052604081208054869290613bb6908490615719565b9091555060009050613c1133600080516020615b5d83398151915260001b600754878b8b8080602002602001604051908101604052809392919081815260200183836020028082843760009201919091525061469992505050565b90508015613c2d57613c27338685600186614702565b50613cd0565b6000613c8233600080516020615b5d83398151915260001b600854888c8c8080602002602001604051908101604052809392919081815260200183836020028082843760009201919091525061469992505050565b90508060405180604001604052806002815260200161189960f11b81525090613cbe5760405162461bcd60e51b81526004016108c491906152fe565b50613ccd338786600087614702565b50505b505050505050565b80600e6000828254613cea9190615719565b909155505050565b61131e8363a9059cbb60e01b8484604051602401613d11929190615731565b60408051601f198184030181529190526020810180516001600160e01b03166001600160e01b031990931692909217909152614935565b611f478133614a07565b613d5c8282612b3c565b6113c65760008281526079602090815260408083206001600160a01b03851684529091529020805460ff19166001179055613d943390565b6001600160a01b0316816001600160a01b0316837f2f8788117e7eff1d82e926ec794901d17c78024a50270940304540a733656f0d60405160405180910390a45050565b60006113477f8b73c3c69bb8fe3d512ecc4cf759cc79239f7b179b0ffacaa9a75d522b39400f613e0861010f5490565b610110546040805160208101859052908101839052606081018290524660808201523060a082015260009060c0016040516020818303038152906040528051906020012090509392505050565b613e5f8282612b3c565b156113c65760008281526079602090815260408083206001600160a01b0385168085529252808320805460ff1916905551339285917ff6391f5c32d9c69d2a47ea670b442974b53935d1edc7fd64eb21e047a839171b9190a45050565b600080846001600160a01b03166395d89b416040518163ffffffff1660e01b8152600401600060405180830381865afa158015613efd573d6000803e3d6000fd5b505050506040513d6000823e601f3d908101601f19168201604052613f2591908101906159db565b604051602001613f359190615a7c565b6040516020818303038152906040528051906020012090506000856001600160a01b031663313ce5676040518163ffffffff1660e01b8152600401602060405180830381865afa158015613f8d573d6000803e3d6000fd5b505050506040513d601f19601f82011682018060405250810190613fb19190615a98565b90506000613fbd61133d565b604080517f52d52760e40624a39bea36339850f64206470d82f714f11095b454fbff6de95260208201526001600160a01b038a16918101919091523060608201526080810185905260ff841660a082015260c0016040516020818303038152906040528051906020012060405160200161404e92919061190160f01b81526002810192909252602282015260420190565b60408051601f198184030181528282528051602091820120600154601f8a0183900483028501830190935288845293506001600160a01b0390911691632f54bf6e916140b69185918b908b9081908401838280828437600092019190915250614a6b92505050565b6040518263ffffffff1660e01b81526004016140d29190615532565b602060405180830381865afa1580156140ef573d6000803e3d6000fd5b505050506040513d601f19601f82011682018060405250810190614113919061564f565b93505050505b9392505050565b6127cc6001600160a01b038516848484614a8f565b61413d6138f6565b60ab805460ff191660011790557f62e78cea01bee320cd4e420270b5ea74000d11b0c9f74754ebdbfc544b05a2586141723390565b60405161417f9190615532565b60405180910390a1565b601454600160a81b900460ff166141b25760405162461bcd60e51b81526004016108c49061597a565b6113c68282614ab0565b6001546040805163cc6f033360e01b815290516000926001600160a01b03169163cc6f0333916004808301926020929190829003018187875af1158015614207573d6000803e3d6000fd5b505050506040513d601f19601f8201168201806040525081019061422b919061574a565b601480546001600160a01b0319166001600160a01b038381169182179092556040516376dfa56160e11b8152306004820152918a16602483015260448201899052606482018890526084820187905260a4820186905260c4820185905291925063edbf4ac29060e401600060405180830381600087803b1580156142ae57600080fd5b505af11580156142c2573d6000803e3d6000fd5b5050505050505050505050565b600061ffff8211156143325760405162461bcd60e51b815260206004820152602660248201527f53616665436173743a2076616c756520646f65736e27742066697420696e203160448201526536206269747360d01b60648201526084016108c4565b5090565b60006001600160401b038211156143325760405162461bcd60e51b815260206004820152602660248201527f53616665436173743a2076616c756520646f65736e27742066697420696e203660448201526534206269747360d01b60648201526084016108c4565b601454600160a81b900460ff1661393c5760405162461bcd60e51b81526004016108c49061597a565b601454600160a81b900460ff166143f05760405162461bcd60e51b81526004016108c49061597a565b61393c614af5565b601454600160a81b900460ff166144215760405162461bcd60e51b81526004016108c49061597a565b61393c614b2a565b600082815260796020526040808220600101805490849055905190918391839186917fbd79b86ffe0ab8e8776151514217cd7cacd52c909f66475c3af44e129f0b00ff9190a4505050565b604051633a4d4bcd60e11b81526004810182905273__$ad759d264299add65d0b3e8b0deb20d304$__9063749a979a9060240160006040518083038186803b1580156144bf57600080fd5b505af41580156144d3573d6000803e3d6000fd5b5050505060065481600f546144e89190615719565b111560405180604001604052806002815260200161191960f11b815250906113c65760405162461bcd60e51b81526004016108c491906152fe565b80600f6000828254613cea9190615719565b600b54600090600160801b90046001600160401b031642118015611347575050600b54600160c01b90046001600160401b031642111590565b600260006145c633600080516020615b9d83398151915260001b600754600089898080602002602001604051908101604052809392919081815260200183836020028082843760009201919091525061469992505050565b905080156145ea57611f42336009548590600160281b900461ffff16600186614702565b600061464033600080516020615b9d83398151915260001b60085460008a8a8080602002602001604051908101604052809392919081815260200183836020028082843760009201919091525061469992505050565b90508060405180604001604052806002815260200161313360f01b8152509061467c5760405162461bcd60e51b81526004016108c491906152fe565b50613cd0336009548690600160281b900461ffff16600087614702565b6040516bffffffffffffffffffffffff19606087901b16602082015260348101859052605481018490526074810183905260009081906094016040516020818303038152906040528051906020012090506146f78360005483614b5a565b979650505050505050565b60018215151415614775576007546001600160a01b038616600090815260126020526040902054614734908690615719565b111560405180604001604052806002815260200161032360f41b8152509061476f5760405162461bcd60e51b81526004016108c491906152fe565b506147d9565b6008546001600160a01b03861660009081526012602052604090205461479c908690615719565b111560405180604001604052806002815260200161323160f01b815250906147d75760405162461bcd60e51b81526004016108c491906152fe565b505b6040516353baaca160e11b8152600481018590526024810184905260009073__$ad759d264299add65d0b3e8b0deb20d304$__9063a775594290604401602060405180830381865af4158015614833573d6000803e3d6000fd5b505050506040513d601f19601f8201168201806040525081019061485791906156ea565b90506148638682614b70565b61486d8686614b8a565b600061487886612b14565b60145460405163020caa2560e51b81529192506001600160a01b03169063419544a0906148ab908a908590600401615731565b600060405180830381600087803b1580156148c557600080fd5b505af11580156148d9573d6000803e3d6000fd5b5050604080518981526020810185905260ff87168183015290513093506001600160a01b038b1692507f6666857ade20eaaed88e2671721b22c45635cc01006796336554a69f926be2f99181900360600190a350505050505050565b600061498a826040518060400160405280602081526020017f5361666545524332303a206c6f772d6c6576656c2063616c6c206661696c6564815250856001600160a01b0316614b9e9092919063ffffffff16565b80519091501561131e57808060200190518101906149a8919061564f565b61131e5760405162461bcd60e51b815260206004820152602a60248201527f5361666545524332303a204552433230206f7065726174696f6e20646964206e6044820152691bdd081cdd58d8d9595960b21b60648201526084016108c4565b614a118282612b3c565b6113c657614a29816001600160a01b03166014614bb5565b614a34836020614bb5565b604051602001614a45929190615abb565b60408051601f198184030181529082905262461bcd60e51b82526108c4916004016152fe565b6000806000614a7a8585614d50565b91509150614a8781614d96565b509392505050565b6127cc846323b872dd60e01b858585604051602401613d1193929190615866565b601454600160a81b900460ff16614ad95760405162461bcd60e51b81526004016108c49061597a565b81516020928301208151919092012061010f9190915561011055565b601454600160a81b900460ff16614b1e5760405162461bcd60e51b81526004016108c49061597a565b60ab805460ff19169055565b601454600160a81b900460ff16614b535760405162461bcd60e51b81526004016108c49061597a565b600160dd55565b600082614b678584614f4c565b14949350505050565b80156113c657614b808282614f91565b6113c68282614fa9565b614b948282614f91565b6113c68282614ff6565b6060614bad8484600085615037565b949350505050565b60606000614bc48360026157eb565b614bcf906002615719565b6001600160401b03811115614be657614be66159c5565b6040519080825280601f01601f191660200182016040528015614c10576020820181803683370190505b509050600360fc1b81600081518110614c2b57614c2b6157ba565b60200101906001600160f81b031916908160001a905350600f60fb1b81600181518110614c5a57614c5a6157ba565b60200101906001600160f81b031916908160001a9053506000614c7e8460026157eb565b614c89906001615719565b90505b6001811115614d01576f181899199a1a9b1b9c1cb0b131b232b360811b85600f1660108110614cbd57614cbd6157ba565b1a60f81b828281518110614cd357614cd36157ba565b60200101906001600160f81b031916908160001a90535060049490941c93614cfa81615b2a565b9050614c8c565b5083156141195760405162461bcd60e51b815260206004820181905260248201527f537472696e67733a20686578206c656e67746820696e73756666696369656e7460448201526064016108c4565b600080825160411415614d875760208301516040840151606085015160001a614d7b8782858561515d565b94509450505050614d8f565b506000905060025b9250929050565b6000816004811115614daa57614daa615639565b1415614db35750565b6001816004811115614dc757614dc7615639565b1415614e105760405162461bcd60e51b815260206004820152601860248201527745434453413a20696e76616c6964207369676e617475726560401b60448201526064016108c4565b6002816004811115614e2457614e24615639565b1415614e725760405162461bcd60e51b815260206004820152601f60248201527f45434453413a20696e76616c6964207369676e6174757265206c656e6774680060448201526064016108c4565b6003816004811115614e8657614e86615639565b1415614edf5760405162461bcd60e51b815260206004820152602260248201527f45434453413a20696e76616c6964207369676e6174757265202773272076616c604482015261756560f01b60648201526084016108c4565b6004816004811115614ef357614ef3615639565b1415611f475760405162461bcd60e51b815260206004820152602260248201527f45434453413a20696e76616c6964207369676e6174757265202776272076616c604482015261756560f01b60648201526084016108c4565b600081815b8451811015614a8757614f7d82868381518110614f7057614f706157ba565b6020026020010151615240565b915080614f8981615b41565b915050614f51565b6002546113c6906001600160a01b0316833084614a8f565b6001600160a01b03821660009081526012602052604081206001018054839290614fd4908490615719565b9250508190555080600c6000828254614fed9190615719565b90915550505050565b6001600160a01b0382166000908152601260205260408120805483929061501e908490615719565b925050819055508060106000828254614fed9190615719565b6060824710156150985760405162461bcd60e51b815260206004820152602660248201527f416464726573733a20696e73756666696369656e742062616c616e636520666f6044820152651c8818d85b1b60d21b60648201526084016108c4565b6001600160a01b0385163b6150ef5760405162461bcd60e51b815260206004820152601d60248201527f416464726573733a2063616c6c20746f206e6f6e2d636f6e747261637400000060448201526064016108c4565b600080866001600160a01b0316858760405161510b9190615a7c565b60006040518083038185875af1925050503d8060008114615148576040519150601f19603f3d011682016040523d82523d6000602084013e61514d565b606091505b50915091506146f782828661526f565b6000806fa2a8918ca85bafe22016d0b997e4df60600160ff1b0383111561518a5750600090506003615237565b8460ff16601b141580156151a257508460ff16601c14155b156151b35750600090506004615237565b6040805160008082526020820180845289905260ff881692820192909252606081018690526080810185905260019060a0016020604051602081039080840390855afa158015615207573d6000803e3d6000fd5b5050604051601f1901519150506001600160a01b03811661523057600060019250925050615237565b9150600090505b94509492505050565b600081831061525c576000828152602084905260409020614119565b6000838152602083905260409020614119565b6060831561527e575081614119565b82511561528e5782518084602001fd5b8160405162461bcd60e51b81526004016108c491906152fe565b6000602082840312156152ba57600080fd5b81356001600160e01b03198116811461411957600080fd5b60005b838110156152ed5781810151838201526020016152d5565b838111156127cc5750506000910152565b602081526000825180602084015261531d8160408501602087016152d2565b601f01601f19169190910160400192915050565b60008083601f84011261534357600080fd5b5081356001600160401b0381111561535a57600080fd5b6020830191508360208260051b8501011115614d8f57600080fd5b6000806000806060858703121561538b57600080fd5b84356001600160401b038111156153a157600080fd5b6153ad87828801615331565b90989097506020870135966040013595509350505050565b6001600160a01b0381168114611f4757600080fd5b6000602082840312156153ec57600080fd5b8135614119816153c5565b60006020828403121561540957600080fd5b5035919050565b6000806040838503121561542357600080fd5b823591506020830135615435816153c5565b809150509250929050565b60008060006040848603121561545557600080fd5b8335615460816153c5565b925060208401356001600160401b038082111561547c57600080fd5b818601915086601f83011261549057600080fd5b81358181111561549f57600080fd5b8760208285010111156154b157600080fd5b6020830194508093505050509250925092565b6001600160401b0381168114611f4757600080fd5b600080604083850312156154ec57600080fd5b82356154f7816154c4565b91506020830135615435816154c4565b8015158114611f4757600080fd5b60006020828403121561552757600080fd5b813561411981615507565b6001600160a01b0391909116815260200190565b60008060006102a0848603121561555c57600080fd5b604084018581111561556d57600080fd5b84935061028085018681111561558257600080fd5b9092503561558f816153c5565b809150509250925092565b6000602082840312156155ac57600080fd5b8135614119816154c4565b6000806000604084860312156155cc57600080fd5b83356001600160401b038111156155e257600080fd5b6155ee86828701615331565b909790965060209590950135949350505050565b6020808252601f908201527f5265656e7472616e637947756172643a207265656e7472616e742063616c6c00604082015260600190565b634e487b7160e01b600052602160045260246000fd5b60006020828403121561566157600080fd5b815161411981615507565b805161ffff8116811461567e57600080fd5b919050565b600080600080600060a0868803121561569b57600080fd5b85516156a6816154c4565b94506156b46020870161566c565b935060408601516156c4816154c4565b60608701519093506156d5816154c4565b80925050608086015190509295509295909350565b6000602082840312156156fc57600080fd5b5051919050565b634e487b7160e01b600052601160045260246000fd5b6000821982111561572c5761572c615703565b500190565b6001600160a01b03929092168252602082015260400190565b60006020828403121561575c57600080fd5b8151614119816153c5565b6102808101818460005b60028110156157a3578135615785816153c5565b6001600160a01b031683526020928301929190910190600101615771565b505050610240836040840137600081529392505050565b634e487b7160e01b600052603260045260246000fd5b6000602082840312156157e257600080fd5b6141198261566c565b600081600019048311821515161561580557615805615703565b500290565b60008261582757634e487b7160e01b600052601260045260246000fd5b500490565b600061ffff8381169083168181101561584757615847615703565b039392505050565b60008282101561586157615861615703565b500390565b6001600160a01b039384168152919092166020820152604081019190915260600190565b600181815b808511156158c55781600019048211156158ab576158ab615703565b808516156158b857918102915b93841c939080029061588f565b509250929050565b6000826158dc57506001610893565b816158e957506000610893565b81600181146158ff576002811461590957615925565b6001915050610893565b60ff84111561591a5761591a615703565b50506001821b610893565b5060208310610133831016604e8410600b8410161715615948575081810a610893565b615952838361588a565b806000190482111561596657615966615703565b029392505050565b600061411983836158cd565b6020808252602b908201527f496e697469616c697a61626c653a20636f6e7472616374206973206e6f74206960408201526a6e697469616c697a696e6760a81b606082015260800190565b634e487b7160e01b600052604160045260246000fd5b6000602082840312156159ed57600080fd5b81516001600160401b0380821115615a0457600080fd5b818401915084601f830112615a1857600080fd5b815181811115615a2a57615a2a6159c5565b604051601f8201601f19908116603f01168101908382118183101715615a5257615a526159c5565b81604052828152876020848701011115615a6b57600080fd5b6146f78360208301602088016152d2565b60008251615a8e8184602087016152d2565b9190910192915050565b600060208284031215615aaa57600080fd5b815160ff8116811461411957600080fd5b76020b1b1b2b9b9a1b7b73a3937b61d1030b1b1b7bab73a1604d1b815260008351615aed8160178501602088016152d2565b7001034b99036b4b9b9b4b733903937b6329607d1b6017918401918201528351615b1e8160288401602088016152d2565b01602801949350505050565b600081615b3957615b39615703565b506000190190565b6000600019821415615b5557615b55615703565b506001019056feed4b80c86c7954bdbf516c492acb4a2899eb0ee85b7c74e26d85e55a07562c95b19546dff01e856fb3f010c267a7b1c60363cf8a4664e21cc89c26224620214e13e31188d81b941f4c541528790db4031bef078b78d364bde6fc2d4e5ad79e01a2646970667358221220f493e4f9803dcb8d7d2c1e8b3ad046174c9b8589222a8353cf9cf8bcca194ff664736f6c634300080a0033",
  "libraries": {
    "VestingLogic": "0x4018dfa69C71AAE148AaF29Fd07b48aEc4C3B61e",
    "PoolLogic": "0xEC110FbCAd8311fbB06BAD7970De252133F0281a"
  },
  "devdoc": {
    "kind": "dev",
    "methods": {
      "buyTokenInCrowdfundingPool(bytes32[],uint256)": {
        "details": "Must be in time for crowdfunding pool and pool is not closed",
        "params": {
          "_purchaseAmount": "Purchase amount of investor",
          "proof": "Respective proof for a leaf, which is respective for investor in merkle tree"
        }
      },
      "buyTokenInGalaxyPool(bytes32[],uint256,uint256)": {
        "details": "Must be in time for whale and pool is not closed",
        "params": {
          "_maxPurchaseBaseOnAllocations": "Max purchase amount base on allocation of whale",
          "_purchaseAmount": "Purchase amount of investor",
          "proof": "Respective proof for a leaf, which is respective for investor in merkle tree"
        }
      },
      "cancelPool(bool)": {
        "details": "Only admin can call it"
      },
      "claimParticipationFee(address)": {
        "params": {
          "_beneficiary": "Address to receive"
        }
      },
      "claimTokenFee(address)": {
        "params": {
          "_beneficiary": "Address to receive"
        }
      },
      "getIDOTokenAmountByOfferedCurrency(uint256)": {
        "details": "Get IDO token amount base on amount of purchase token",
        "params": {
          "_amount": "Amount of purchase token"
        },
        "returns": {
          "_0": "Return amount of respective IDO token"
        }
      },
      "getRoleAdmin(bytes32)": {
        "details": "Returns the admin role that controls `role`. See {grantRole} and {revokeRole}. To change a role's admin, use {_setRoleAdmin}."
      },
      "grantRole(bytes32,address)": {
        "details": "Grants `role` to `account`. If `account` had not been already granted `role`, emits a {RoleGranted} event. Requirements: - the caller must have ``role``'s admin role. May emit a {RoleGranted} event."
      },
      "hasRole(bytes32,address)": {
        "details": "Returns `true` if `account` has been granted `role`."
      },
      "initialize(address[2],uint256[18],address)": {
        "params": {
          "addrs": "Array of address includes: - address of IDO token - Can be zero address - address of purchase token ",
          "uints": "Array of pool information includes: - max purchase amount for KYC user, - max purchase amount for Not KYC user, - token fee percentage, - galaxy participation fee percentage, - crowdfunding participation fee percentage, - galaxy pool proportion, - early access proportion, - total raise amount, - whale open time, - whale duration, - community duration, - rate of IDO token (based on README formula), - decimal of IDO token (based on README formula, is different from decimals in contract of IDO token), - TGE date, - TGE percentage, - vesting cliff, - vesting frequency, - number of vesting release"
        }
      },
      "paused()": {
        "details": "Returns true if the contract is paused, and false otherwise."
      },
      "renounceRole(bytes32,address)": {
        "details": "Revokes `role` from the calling account. Roles are often managed via {grantRole} and {revokeRole}: this function's purpose is to provide a mechanism for accounts to lose their privileges if they are compromised (such as when a trusted device is misplaced). If the calling account had been revoked `role`, emits a {RoleRevoked} event. Requirements: - the caller must be `account`. May emit a {RoleRevoked} event."
      },
      "revokeRole(bytes32,address)": {
        "details": "Revokes `role` from `account`. If `account` had been granted `role`, emits a {RoleRevoked} event. Requirements: - the caller must have ``role``'s admin role. May emit a {RoleRevoked} event."
      },
      "setRoot(bytes32)": {
        "details": "Only admin can call it",
        "params": {
          "_root": "Root of merkle tree"
        }
      },
      "supportsInterface(bytes4)": {
        "details": "See {IERC165-supportsInterface}."
      },
      "updateTime(uint64,uint64)": {
        "details": "Only admin can call it, galaxy pool must be closed before crowdfunding pool",
        "params": {
          "_newCommunityCloseTime": "New close time of crowdfunding pool",
          "_newWhaleCloseTime": "New close time of galaxy pool"
        }
      },
      "withdrawPurchasedAmount(address)": {
        "params": {
          "_beneficiary": "Address of receiver"
        }
      }
    },
    "version": 1
  },
  "userdoc": {
    "kind": "user",
    "methods": {
      "OWNER_ROLE()": {
        "notice": "keccak256(\"OWNER_ROLE\")"
      },
      "buyTokenInCrowdfundingPool(bytes32[],uint256)": {
        "notice": "Investor buy token in crowdfunding pool"
      },
      "buyTokenInGalaxyPool(bytes32[],uint256,uint256)": {
        "notice": "Investor buy token in galaxy pool"
      },
      "cancelPool(bool)": {
        "notice": "Cancel pool: cancel project, nobody can buy token"
      },
      "claimParticipationFee(address)": {
        "notice": "System's admin participation token fee only when project is success after lockup time"
      },
      "claimTokenFee(address)": {
        "notice": "System's admin receive token fee only when project is success after lockup time"
      },
      "initialize(address[2],uint256[18],address)": {
        "notice": "Initialize a pool with its information"
      },
      "setRoot(bytes32)": {
        "notice": "Set merkle tree root after snapshoting information of investor"
      },
      "updateTime(uint64,uint64)": {
        "notice": "Update time for galaxy pool and crowdfunding pool"
      },
      "withdrawPurchasedAmount(address)": {
        "notice": "When project is fail (cancelled by admin or not be funded enough IDO token)"
      }
    },
    "version": 1
  },
  "storageLayout": {
    "storage": [
      {
        "astId": 7630,
        "contract": "contracts/core/Pool.sol:Pool",
        "label": "root",
        "offset": 0,
        "slot": "0",
        "type": "t_bytes32"
      },
      {
        "astId": 7538,
        "contract": "contracts/core/Pool.sol:Pool",
        "label": "ignitionFactory",
        "offset": 0,
        "slot": "1",
        "type": "t_contract(IIgnitionFactory)7858"
      },
      {
        "astId": 7542,
        "contract": "contracts/core/Pool.sol:Pool",
        "label": "purchaseToken",
        "offset": 0,
        "slot": "2",
        "type": "t_contract(IERC20)1932"
      },
      {
        "astId": 7546,
        "contract": "contracts/core/Pool.sol:Pool",
        "label": "offeredCurrency",
        "offset": 0,
        "slot": "3",
        "type": "t_struct(OfferedCurrency)7504_storage"
      },
      {
        "astId": 7549,
        "contract": "contracts/core/Pool.sol:Pool",
        "label": "maxPurchaseAmountForGalaxyPool",
        "offset": 0,
        "slot": "5",
        "type": "t_uint256"
      },
      {
        "astId": 7552,
        "contract": "contracts/core/Pool.sol:Pool",
        "label": "maxPurchaseAmountForEarlyAccess",
        "offset": 0,
        "slot": "6",
        "type": "t_uint256"
      },
      {
        "astId": 7555,
        "contract": "contracts/core/Pool.sol:Pool",
        "label": "maxPurchaseAmountForKYCUser",
        "offset": 0,
        "slot": "7",
        "type": "t_uint256"
      },
      {
        "astId": 7558,
        "contract": "contracts/core/Pool.sol:Pool",
        "label": "maxPurchaseAmountForNotKYCUser",
        "offset": 0,
        "slot": "8",
        "type": "t_uint256"
      },
      {
        "astId": 7561,
        "contract": "contracts/core/Pool.sol:Pool",
        "label": "tokenFeePercentage",
        "offset": 0,
        "slot": "9",
        "type": "t_uint16"
      },
      {
        "astId": 7564,
        "contract": "contracts/core/Pool.sol:Pool",
        "label": "tokenFeeClaimedStatus",
        "offset": 2,
        "slot": "9",
        "type": "t_bool"
      },
      {
        "astId": 7567,
        "contract": "contracts/core/Pool.sol:Pool",
        "label": "galaxyParticipationFeePercentage",
        "offset": 3,
        "slot": "9",
        "type": "t_uint16"
      },
      {
        "astId": 7570,
        "contract": "contracts/core/Pool.sol:Pool",
        "label": "crowdfundingParticipationFeePercentage",
        "offset": 5,
        "slot": "9",
        "type": "t_uint16"
      },
      {
        "astId": 7573,
        "contract": "contracts/core/Pool.sol:Pool",
        "label": "galaxyPoolProportion",
        "offset": 7,
        "slot": "9",
        "type": "t_uint16"
      },
      {
        "astId": 7576,
        "contract": "contracts/core/Pool.sol:Pool",
        "label": "earlyAccessProportion",
        "offset": 9,
        "slot": "9",
        "type": "t_uint16"
      },
      {
        "astId": 7579,
        "contract": "contracts/core/Pool.sol:Pool",
        "label": "totalRaiseAmount",
        "offset": 0,
        "slot": "10",
        "type": "t_uint256"
      },
      {
        "astId": 7582,
        "contract": "contracts/core/Pool.sol:Pool",
        "label": "whaleOpenTime",
        "offset": 0,
        "slot": "11",
        "type": "t_uint64"
      },
      {
        "astId": 7585,
        "contract": "contracts/core/Pool.sol:Pool",
        "label": "whaleCloseTime",
        "offset": 8,
        "slot": "11",
        "type": "t_uint64"
      },
      {
        "astId": 7588,
        "contract": "contracts/core/Pool.sol:Pool",
        "label": "communityOpenTime",
        "offset": 16,
        "slot": "11",
        "type": "t_uint64"
      },
      {
        "astId": 7591,
        "contract": "contracts/core/Pool.sol:Pool",
        "label": "communityCloseTime",
        "offset": 24,
        "slot": "11",
        "type": "t_uint64"
      },
      {
        "astId": 7594,
        "contract": "contracts/core/Pool.sol:Pool",
        "label": "participationFeeAmount",
        "offset": 0,
        "slot": "12",
        "type": "t_uint256"
      },
      {
        "astId": 7597,
        "contract": "contracts/core/Pool.sol:Pool",
        "label": "participationFeeClaimedStatus",
        "offset": 0,
        "slot": "13",
        "type": "t_bool"
      },
      {
        "astId": 7600,
        "contract": "contracts/core/Pool.sol:Pool",
        "label": "purchasedAmountInGalaxyPool",
        "offset": 0,
        "slot": "14",
        "type": "t_uint256"
      },
      {
        "astId": 7603,
        "contract": "contracts/core/Pool.sol:Pool",
        "label": "purchasedAmountInEarlyAccess",
        "offset": 0,
        "slot": "15",
        "type": "t_uint256"
      },
      {
        "astId": 7606,
        "contract": "contracts/core/Pool.sol:Pool",
        "label": "purchasedAmount",
        "offset": 0,
        "slot": "16",
        "type": "t_uint256"
      },
      {
        "astId": 7609,
        "contract": "contracts/core/Pool.sol:Pool",
        "label": "fundClaimedAmount",
        "offset": 0,
        "slot": "17",
        "type": "t_uint256"
      },
      {
        "astId": 7615,
        "contract": "contracts/core/Pool.sol:Pool",
        "label": "userPurchasedAmount",
        "offset": 0,
        "slot": "18",
        "type": "t_mapping(t_address,t_struct(PurchaseAmount)7511_storage)"
      },
      {
        "astId": 7620,
        "contract": "contracts/core/Pool.sol:Pool",
        "label": "whalePurchasedAmount",
        "offset": 0,
        "slot": "19",
        "type": "t_mapping(t_address,t_uint256)"
      },
      {
        "astId": 7624,
        "contract": "contracts/core/Pool.sol:Pool",
        "label": "vesting",
        "offset": 0,
        "slot": "20",
        "type": "t_contract(IVesting)7969"
      },
      {
        "astId": 419,
        "contract": "contracts/core/Pool.sol:Pool",
        "label": "_initialized",
        "offset": 20,
        "slot": "20",
        "type": "t_uint8"
      },
      {
        "astId": 422,
        "contract": "contracts/core/Pool.sol:Pool",
        "label": "_initializing",
        "offset": 21,
        "slot": "20",
        "type": "t_bool"
      },
      {
        "astId": 1033,
        "contract": "contracts/core/Pool.sol:Pool",
        "label": "__gap",
        "offset": 0,
        "slot": "21",
        "type": "t_array(t_uint256)50_storage"
      },
      {
        "astId": 1841,
        "contract": "contracts/core/Pool.sol:Pool",
        "label": "__gap",
        "offset": 0,
        "slot": "71",
        "type": "t_array(t_uint256)50_storage"
      },
      {
        "astId": 39,
        "contract": "contracts/core/Pool.sol:Pool",
        "label": "_roles",
        "offset": 0,
        "slot": "121",
        "type": "t_mapping(t_bytes32,t_struct(RoleData)34_storage)"
      },
      {
        "astId": 338,
        "contract": "contracts/core/Pool.sol:Pool",
        "label": "__gap",
        "offset": 0,
        "slot": "122",
        "type": "t_array(t_uint256)49_storage"
      },
      {
        "astId": 584,
        "contract": "contracts/core/Pool.sol:Pool",
        "label": "_paused",
        "offset": 0,
        "slot": "171",
        "type": "t_bool"
      },
      {
        "astId": 689,
        "contract": "contracts/core/Pool.sol:Pool",
        "label": "__gap",
        "offset": 0,
        "slot": "172",
        "type": "t_array(t_uint256)49_storage"
      },
      {
        "astId": 704,
        "contract": "contracts/core/Pool.sol:Pool",
        "label": "_status",
        "offset": 0,
        "slot": "221",
        "type": "t_uint256"
      },
      {
        "astId": 748,
        "contract": "contracts/core/Pool.sol:Pool",
        "label": "__gap",
        "offset": 0,
        "slot": "222",
        "type": "t_array(t_uint256)49_storage"
      },
      {
        "astId": 1657,
        "contract": "contracts/core/Pool.sol:Pool",
        "label": "_HASHED_NAME",
        "offset": 0,
        "slot": "271",
        "type": "t_bytes32"
      },
      {
        "astId": 1659,
        "contract": "contracts/core/Pool.sol:Pool",
        "label": "_HASHED_VERSION",
        "offset": 0,
        "slot": "272",
        "type": "t_bytes32"
      },
      {
        "astId": 1797,
        "contract": "contracts/core/Pool.sol:Pool",
        "label": "__gap",
        "offset": 0,
        "slot": "273",
        "type": "t_array(t_uint256)50_storage"
      }
    ],
    "types": {
      "t_address": {
        "encoding": "inplace",
        "label": "address",
        "numberOfBytes": "20"
      },
      "t_array(t_uint256)49_storage": {
        "base": "t_uint256",
        "encoding": "inplace",
        "label": "uint256[49]",
        "numberOfBytes": "1568"
      },
      "t_array(t_uint256)50_storage": {
        "base": "t_uint256",
        "encoding": "inplace",
        "label": "uint256[50]",
        "numberOfBytes": "1600"
      },
      "t_bool": {
        "encoding": "inplace",
        "label": "bool",
        "numberOfBytes": "1"
      },
      "t_bytes32": {
        "encoding": "inplace",
        "label": "bytes32",
        "numberOfBytes": "32"
      },
      "t_contract(IERC20)1932": {
        "encoding": "inplace",
        "label": "contract IERC20",
        "numberOfBytes": "20"
      },
      "t_contract(IIgnitionFactory)7858": {
        "encoding": "inplace",
        "label": "contract IIgnitionFactory",
        "numberOfBytes": "20"
      },
      "t_contract(IVesting)7969": {
        "encoding": "inplace",
        "label": "contract IVesting",
        "numberOfBytes": "20"
      },
      "t_mapping(t_address,t_bool)": {
        "encoding": "mapping",
        "key": "t_address",
        "label": "mapping(address => bool)",
        "numberOfBytes": "32",
        "value": "t_bool"
      },
      "t_mapping(t_address,t_struct(PurchaseAmount)7511_storage)": {
        "encoding": "mapping",
        "key": "t_address",
        "label": "mapping(address => struct PoolStorage.PurchaseAmount)",
        "numberOfBytes": "32",
        "value": "t_struct(PurchaseAmount)7511_storage"
      },
      "t_mapping(t_address,t_uint256)": {
        "encoding": "mapping",
        "key": "t_address",
        "label": "mapping(address => uint256)",
        "numberOfBytes": "32",
        "value": "t_uint256"
      },
      "t_mapping(t_bytes32,t_struct(RoleData)34_storage)": {
        "encoding": "mapping",
        "key": "t_bytes32",
        "label": "mapping(bytes32 => struct AccessControlUpgradeable.RoleData)",
        "numberOfBytes": "32",
        "value": "t_struct(RoleData)34_storage"
      },
      "t_struct(OfferedCurrency)7504_storage": {
        "encoding": "inplace",
        "label": "struct PoolStorage.OfferedCurrency",
        "members": [
          {
            "astId": 7501,
            "contract": "contracts/core/Pool.sol:Pool",
            "label": "rate",
            "offset": 0,
            "slot": "0",
            "type": "t_uint256"
          },
          {
            "astId": 7503,
            "contract": "contracts/core/Pool.sol:Pool",
            "label": "decimal",
            "offset": 0,
            "slot": "1",
            "type": "t_uint256"
          }
        ],
        "numberOfBytes": "64"
      },
      "t_struct(PurchaseAmount)7511_storage": {
        "encoding": "inplace",
        "label": "struct PoolStorage.PurchaseAmount",
        "members": [
          {
            "astId": 7506,
            "contract": "contracts/core/Pool.sol:Pool",
            "label": "principal",
            "offset": 0,
            "slot": "0",
            "type": "t_uint256"
          },
          {
            "astId": 7508,
            "contract": "contracts/core/Pool.sol:Pool",
            "label": "fee",
            "offset": 0,
            "slot": "1",
            "type": "t_uint256"
          },
          {
            "astId": 7510,
            "contract": "contracts/core/Pool.sol:Pool",
            "label": "withdrawn",
            "offset": 0,
            "slot": "2",
            "type": "t_uint256"
          }
        ],
        "numberOfBytes": "96"
      },
      "t_struct(RoleData)34_storage": {
        "encoding": "inplace",
        "label": "struct AccessControlUpgradeable.RoleData",
        "members": [
          {
            "astId": 31,
            "contract": "contracts/core/Pool.sol:Pool",
            "label": "members",
            "offset": 0,
            "slot": "0",
            "type": "t_mapping(t_address,t_bool)"
          },
          {
            "astId": 33,
            "contract": "contracts/core/Pool.sol:Pool",
            "label": "adminRole",
            "offset": 0,
            "slot": "1",
            "type": "t_bytes32"
          }
        ],
        "numberOfBytes": "64"
      },
      "t_uint16": {
        "encoding": "inplace",
        "label": "uint16",
        "numberOfBytes": "2"
      },
      "t_uint256": {
        "encoding": "inplace",
        "label": "uint256",
        "numberOfBytes": "32"
      },
      "t_uint64": {
        "encoding": "inplace",
        "label": "uint64",
        "numberOfBytes": "8"
      },
      "t_uint8": {
        "encoding": "inplace",
        "label": "uint8",
        "numberOfBytes": "1"
      }
    }
  }
}