{
  "address": "0xE037FaBF8eEccA64B82F2D854EA6986164459a75",
  "abi": [
    {
      "inputs": [
        {
          "internalType": "bool",
          "name": "presentStatus",
          "type": "bool"
        }
      ],
      "name": "AlreadySetClaimableTGE",
      "type": "error"
    },
    {
      "inputs": [],
      "name": "ClaimExceedMaxTGEAmount",
      "type": "error"
    },
    {
      "inputs": [
        {
          "internalType": "address",
          "name": "buyer",
          "type": "address"
        },
        {
          "internalType": "uint256",
          "name": "purchaseAmount",
          "type": "uint256"
        }
      ],
      "name": "ExceedMaxPurchaseAmountForEarlyAccess",
      "type": "error"
    },
    {
      "inputs": [
        {
          "internalType": "address",
          "name": "buyer",
          "type": "address"
        },
        {
          "internalType": "uint256",
          "name": "purchaseAmount",
          "type": "uint256"
        }
      ],
      "name": "ExceedMaxPurchaseAmountForGalaxyPool",
      "type": "error"
    },
    {
      "inputs": [
        {
          "internalType": "address",
          "name": "buyer",
          "type": "address"
        },
        {
          "internalType": "uint256",
          "name": "purchaseAmount",
          "type": "uint256"
        }
      ],
      "name": "ExceedMaxPurchaseAmountForKYCUser",
      "type": "error"
    },
    {
      "inputs": [
        {
          "internalType": "address",
          "name": "buyer",
          "type": "address"
        },
        {
          "internalType": "uint256",
          "name": "purchaseAmount",
          "type": "uint256"
        }
      ],
      "name": "ExceedMaxPurchaseAmountForNotKYCUser",
      "type": "error"
    },
    {
      "inputs": [],
      "name": "ExceedMaxPurchaseAmountForUser",
      "type": "error"
    },
    {
      "inputs": [
        {
          "internalType": "address",
          "name": "buyer",
          "type": "address"
        },
        {
          "internalType": "uint256",
          "name": "purchaseAmount",
          "type": "uint256"
        }
      ],
      "name": "ExceedTotalRaiseAmount",
      "type": "error"
    },
    {
      "inputs": [],
      "name": "NotAdmin",
      "type": "error"
    },
    {
      "inputs": [],
      "name": "NotAllowedToClaimTGEIDOAmount",
      "type": "error"
    },
    {
      "inputs": [
        {
          "internalType": "address",
          "name": "buyer",
          "type": "address"
        },
        {
          "internalType": "address",
          "name": "purchaseToken",
          "type": "address"
        },
        {
          "internalType": "uint256",
          "name": "allowance",
          "type": "uint256"
        },
        {
          "internalType": "uint256",
          "name": "amount",
          "type": "uint256"
        }
      ],
      "name": "NotEnoughAllowance",
      "type": "error"
    },
    {
      "inputs": [],
      "name": "NotEnoughConditionToRedeemIDOToken",
      "type": "error"
    },
    {
      "inputs": [],
      "name": "NotEnoughConditionToRedeemPurchaseToken",
      "type": "error"
    },
    {
      "inputs": [
        {
          "internalType": "address",
          "name": "buyer",
          "type": "address"
        }
      ],
      "name": "NotInWhaleList",
      "type": "error"
    },
    {
      "inputs": [],
      "name": "NotValidSignature",
      "type": "error"
    },
    {
      "inputs": [],
      "name": "NotYetTimeToClaimTGE",
      "type": "error"
    },
    {
      "inputs": [
        {
          "internalType": "uint256",
          "name": "whaleOpenTime",
          "type": "uint256"
        },
        {
          "internalType": "uint256",
          "name": "whaleDuration",
          "type": "uint256"
        },
        {
          "internalType": "uint256",
          "name": "communityOpenTime",
          "type": "uint256"
        },
        {
          "internalType": "uint256",
          "name": "communityDuration",
          "type": "uint256"
        },
        {
          "internalType": "uint256",
          "name": "timestamp",
          "type": "uint256"
        },
        {
          "internalType": "address",
          "name": "buyer",
          "type": "address"
        }
      ],
      "name": "TimeOutToBuyToken",
      "type": "error"
    },
    {
      "inputs": [],
      "name": "TimeOutToSetPoolStatus",
      "type": "error"
    },
    {
      "inputs": [],
      "name": "ZeroAddress",
      "type": "error"
    },
    {
      "inputs": [],
      "name": "ZeroAmount",
      "type": "error"
    },
    {
      "anonymous": false,
      "inputs": [
        {
          "indexed": true,
          "internalType": "address",
          "name": "buyer",
          "type": "address"
        },
        {
          "indexed": true,
          "internalType": "address",
          "name": "pool",
          "type": "address"
        },
        {
          "indexed": true,
          "internalType": "address",
          "name": "IDOToken",
          "type": "address"
        },
        {
          "indexed": false,
          "internalType": "uint256",
          "name": "purchaseAmount",
          "type": "uint256"
        }
      ],
      "name": "BuyToken",
      "type": "event"
    },
    {
      "anonymous": false,
      "inputs": [
        {
          "indexed": false,
          "internalType": "address",
          "name": "buyer",
          "type": "address"
        },
        {
          "indexed": false,
          "internalType": "uint256",
          "name": "claimAmount",
          "type": "uint256"
        }
      ],
      "name": "ClaimTGEAmount",
      "type": "event"
    },
    {
      "anonymous": false,
      "inputs": [
        {
          "indexed": false,
          "internalType": "uint64",
          "name": "_durationDelta",
          "type": "uint64"
        }
      ],
      "name": "ExtendCommunityTime",
      "type": "event"
    },
    {
      "anonymous": false,
      "inputs": [
        {
          "indexed": false,
          "internalType": "uint8",
          "name": "version",
          "type": "uint8"
        }
      ],
      "name": "Initialized",
      "type": "event"
    },
    {
      "anonymous": false,
      "inputs": [
        {
          "indexed": false,
          "internalType": "address",
          "name": "account",
          "type": "address"
        }
      ],
      "name": "Paused",
      "type": "event"
    },
    {
      "anonymous": false,
      "inputs": [
        {
          "indexed": false,
          "internalType": "address",
          "name": "IDOToken",
          "type": "address"
        },
        {
          "indexed": false,
          "internalType": "address",
          "name": "purchaseToken",
          "type": "address"
        },
        {
          "indexed": false,
          "internalType": "uint256",
          "name": "rate",
          "type": "uint256"
        },
        {
          "indexed": false,
          "internalType": "uint256",
          "name": "decimal",
          "type": "uint256"
        },
        {
          "indexed": false,
          "internalType": "uint256",
          "name": "maxPurchaseAmountForKYCUser",
          "type": "uint256"
        },
        {
          "indexed": false,
          "internalType": "uint256",
          "name": "maxPurchaseAmountForNotKYCUser",
          "type": "uint256"
        },
        {
          "indexed": false,
          "internalType": "uint16",
          "name": "participationFeePercentage",
          "type": "uint16"
        },
        {
          "indexed": false,
          "internalType": "uint16",
          "name": "galaxyPoolProportion",
          "type": "uint16"
        },
        {
          "indexed": false,
          "internalType": "uint16",
          "name": "earlyAccessProportion",
          "type": "uint16"
        },
        {
          "indexed": false,
          "internalType": "uint256",
          "name": "totalRaiseAmount",
          "type": "uint256"
        },
        {
          "indexed": false,
          "internalType": "uint64",
          "name": "whaleOpenTime",
          "type": "uint64"
        },
        {
          "indexed": false,
          "internalType": "uint64",
          "name": "whaleDuration",
          "type": "uint64"
        },
        {
          "indexed": false,
          "internalType": "uint64",
          "name": "communityDuration",
          "type": "uint64"
        }
      ],
      "name": "PoolCreated",
      "type": "event"
    },
    {
      "anonymous": false,
      "inputs": [
        {
          "indexed": false,
          "internalType": "address",
          "name": "redeemIDOTokenRecipient",
          "type": "address"
        },
        {
          "indexed": false,
          "internalType": "address",
          "name": "IDOToken",
          "type": "address"
        },
        {
          "indexed": false,
          "internalType": "uint256",
          "name": "remainAmount",
          "type": "uint256"
        }
      ],
      "name": "RedeemIDOToken",
      "type": "event"
    },
    {
      "anonymous": false,
      "inputs": [
        {
          "indexed": false,
          "internalType": "address",
          "name": "redeemPurchaseTokenRecipient",
          "type": "address"
        },
        {
          "indexed": false,
          "internalType": "address",
          "name": "purchaseToken",
          "type": "address"
        },
        {
          "indexed": false,
          "internalType": "uint256",
          "name": "purchaseAmount",
          "type": "uint256"
        }
      ],
      "name": "RedeemPurchaseToken",
      "type": "event"
    },
    {
      "anonymous": false,
      "inputs": [
        {
          "indexed": true,
          "internalType": "bytes32",
          "name": "role",
          "type": "bytes32"
        },
        {
          "indexed": true,
          "internalType": "bytes32",
          "name": "previousAdminRole",
          "type": "bytes32"
        },
        {
          "indexed": true,
          "internalType": "bytes32",
          "name": "newAdminRole",
          "type": "bytes32"
        }
      ],
      "name": "RoleAdminChanged",
      "type": "event"
    },
    {
      "anonymous": false,
      "inputs": [
        {
          "indexed": true,
          "internalType": "bytes32",
          "name": "role",
          "type": "bytes32"
        },
        {
          "indexed": true,
          "internalType": "address",
          "name": "account",
          "type": "address"
        },
        {
          "indexed": true,
          "internalType": "address",
          "name": "sender",
          "type": "address"
        }
      ],
      "name": "RoleGranted",
      "type": "event"
    },
    {
      "anonymous": false,
      "inputs": [
        {
          "indexed": true,
          "internalType": "bytes32",
          "name": "role",
          "type": "bytes32"
        },
        {
          "indexed": true,
          "internalType": "address",
          "name": "account",
          "type": "address"
        },
        {
          "indexed": true,
          "internalType": "address",
          "name": "sender",
          "type": "address"
        }
      ],
      "name": "RoleRevoked",
      "type": "event"
    },
    {
      "anonymous": false,
      "inputs": [
        {
          "indexed": false,
          "internalType": "address",
          "name": "IDOToken",
          "type": "address"
        }
      ],
      "name": "SetIDOTokenAddress",
      "type": "event"
    },
    {
      "anonymous": false,
      "inputs": [
        {
          "indexed": false,
          "internalType": "bool",
          "name": "claimable",
          "type": "bool"
        }
      ],
      "name": "SetTGEClaimable",
      "type": "event"
    },
    {
      "anonymous": false,
      "inputs": [
        {
          "indexed": false,
          "internalType": "address",
          "name": "account",
          "type": "address"
        }
      ],
      "name": "Unpaused",
      "type": "event"
    },
    {
      "anonymous": false,
      "inputs": [
        {
          "indexed": true,
          "internalType": "address",
          "name": "feeRecipient",
          "type": "address"
        }
      ],
      "name": "UpdateFeeRecipient",
      "type": "event"
    },
    {
      "anonymous": false,
      "inputs": [
        {
          "indexed": false,
          "internalType": "uint256",
          "name": "_rate",
          "type": "uint256"
        },
        {
          "indexed": false,
          "internalType": "uint256",
          "name": "_decimal",
          "type": "uint256"
        }
      ],
      "name": "UpdateOfferedCurrencyRateAndDecimal",
      "type": "event"
    },
    {
      "anonymous": false,
      "inputs": [
        {
          "indexed": true,
          "internalType": "address",
          "name": "pool",
          "type": "address"
        },
        {
          "indexed": false,
          "internalType": "bool",
          "name": "status",
          "type": "bool"
        }
      ],
      "name": "UpdateOpenPoolStatus",
      "type": "event"
    },
    {
      "anonymous": false,
      "inputs": [
        {
          "indexed": false,
          "internalType": "bytes32",
          "name": "root",
          "type": "bytes32"
        }
      ],
      "name": "UpdateRoot",
      "type": "event"
    },
    {
      "inputs": [],
      "name": "DEFAULT_ADMIN_ROLE",
      "outputs": [
        {
          "internalType": "bytes32",
          "name": "",
          "type": "bytes32"
        }
      ],
      "stateMutability": "view",
      "type": "function"
    },
    {
      "inputs": [],
      "name": "IDOToken",
      "outputs": [
        {
          "internalType": "contract IERC20",
          "name": "",
          "type": "address"
        }
      ],
      "stateMutability": "view",
      "type": "function"
    },
    {
      "inputs": [],
      "name": "NORMAL_USER",
      "outputs": [
        {
          "internalType": "bytes32",
          "name": "",
          "type": "bytes32"
        }
      ],
      "stateMutability": "view",
      "type": "function"
    },
    {
      "inputs": [],
      "name": "PERCENTAGE_DENOMINATOR",
      "outputs": [
        {
          "internalType": "uint16",
          "name": "",
          "type": "uint16"
        }
      ],
      "stateMutability": "view",
      "type": "function"
    },
    {
      "inputs": [],
      "name": "TGEClaimable",
      "outputs": [
        {
          "internalType": "bool",
          "name": "",
          "type": "bool"
        }
      ],
      "stateMutability": "view",
      "type": "function"
    },
    {
      "inputs": [],
      "name": "TGEDate",
      "outputs": [
        {
          "internalType": "uint64",
          "name": "",
          "type": "uint64"
        }
      ],
      "stateMutability": "view",
      "type": "function"
    },
    {
      "inputs": [],
      "name": "TGEPercentage",
      "outputs": [
        {
          "internalType": "uint16",
          "name": "",
          "type": "uint16"
        }
      ],
      "stateMutability": "view",
      "type": "function"
    },
    {
      "inputs": [],
      "name": "WHALE",
      "outputs": [
        {
          "internalType": "bytes32",
          "name": "",
          "type": "bytes32"
        }
      ],
      "stateMutability": "view",
      "type": "function"
    },
    {
      "inputs": [
        {
          "internalType": "bytes32[]",
          "name": "proof",
          "type": "bytes32[]"
        },
        {
          "internalType": "uint256",
          "name": "_purchaseAmount",
          "type": "uint256"
        }
      ],
      "name": "buyTokenInCrowdfundingPool",
      "outputs": [],
      "stateMutability": "nonpayable",
      "type": "function"
    },
    {
      "inputs": [
        {
          "internalType": "bytes32[]",
          "name": "proof",
          "type": "bytes32[]"
        },
        {
          "internalType": "uint256",
          "name": "_purchaseAmount",
          "type": "uint256"
        },
        {
          "internalType": "uint256",
          "name": "_allowance",
          "type": "uint256"
        },
        {
          "internalType": "uint256",
          "name": "_deadline",
          "type": "uint256"
        },
        {
          "internalType": "bytes",
          "name": "_signature",
          "type": "bytes"
        }
      ],
      "name": "buyTokenInCrowdfundingPoolWithPermit",
      "outputs": [],
      "stateMutability": "nonpayable",
      "type": "function"
    },
    {
      "inputs": [
        {
          "internalType": "bytes32[]",
          "name": "proof",
          "type": "bytes32[]"
        },
        {
          "internalType": "uint256",
          "name": "_purchaseAmount",
          "type": "uint256"
        },
        {
          "internalType": "uint256",
          "name": "_maxPurchaseBaseOnAllocations",
          "type": "uint256"
        }
      ],
      "name": "buyTokenInGalaxyPool",
      "outputs": [],
      "stateMutability": "nonpayable",
      "type": "function"
    },
    {
      "inputs": [
        {
          "internalType": "bytes32[]",
          "name": "proof",
          "type": "bytes32[]"
        },
        {
          "internalType": "uint256",
          "name": "_purchaseAmount",
          "type": "uint256"
        },
        {
          "internalType": "uint256",
          "name": "_maxPurchaseBaseOnAllocations",
          "type": "uint256"
        },
        {
          "internalType": "uint256",
          "name": "_deadline",
          "type": "uint256"
        },
        {
          "internalType": "bytes",
          "name": "_signature",
          "type": "bytes"
        }
      ],
      "name": "buyTokenInGalaxyPoolWithPermit",
      "outputs": [],
      "stateMutability": "nonpayable",
      "type": "function"
    },
    {
      "inputs": [
        {
          "internalType": "uint256",
          "name": "_IDOClaimAmount",
          "type": "uint256"
        }
      ],
      "name": "claimTGEIDOToken",
      "outputs": [],
      "stateMutability": "nonpayable",
      "type": "function"
    },
    {
      "inputs": [],
      "name": "communityDuration",
      "outputs": [
        {
          "internalType": "uint64",
          "name": "",
          "type": "uint64"
        }
      ],
      "stateMutability": "view",
      "type": "function"
    },
    {
      "inputs": [],
      "name": "communityOpenTime",
      "outputs": [
        {
          "internalType": "uint64",
          "name": "",
          "type": "uint64"
        }
      ],
      "stateMutability": "view",
      "type": "function"
    },
    {
      "inputs": [],
      "name": "earlyAccessProportion",
      "outputs": [
        {
          "internalType": "uint16",
          "name": "",
          "type": "uint16"
        }
      ],
      "stateMutability": "view",
      "type": "function"
    },
    {
      "inputs": [
        {
          "internalType": "uint64",
          "name": "_durationDelta",
          "type": "uint64"
        }
      ],
      "name": "extendCommunityTime",
      "outputs": [],
      "stateMutability": "nonpayable",
      "type": "function"
    },
    {
      "inputs": [],
      "name": "galaxyPoolProportion",
      "outputs": [
        {
          "internalType": "uint16",
          "name": "",
          "type": "uint16"
        }
      ],
      "stateMutability": "view",
      "type": "function"
    },
    {
      "inputs": [
        {
          "internalType": "bytes32",
          "name": "role",
          "type": "bytes32"
        }
      ],
      "name": "getRoleAdmin",
      "outputs": [
        {
          "internalType": "bytes32",
          "name": "",
          "type": "bytes32"
        }
      ],
      "stateMutability": "view",
      "type": "function"
    },
    {
      "inputs": [
        {
          "internalType": "bytes32",
          "name": "role",
          "type": "bytes32"
        },
        {
          "internalType": "address",
          "name": "account",
          "type": "address"
        }
      ],
      "name": "grantRole",
      "outputs": [],
      "stateMutability": "nonpayable",
      "type": "function"
    },
    {
      "inputs": [
        {
          "internalType": "bytes32",
          "name": "role",
          "type": "bytes32"
        },
        {
          "internalType": "address",
          "name": "account",
          "type": "address"
        }
      ],
      "name": "hasRole",
      "outputs": [
        {
          "internalType": "bool",
          "name": "",
          "type": "bool"
        }
      ],
      "stateMutability": "view",
      "type": "function"
    },
    {
      "inputs": [
        {
          "internalType": "address[2]",
          "name": "addrs",
          "type": "address[2]"
        },
        {
          "internalType": "uint256[13]",
          "name": "uints",
          "type": "uint256[13]"
        }
      ],
      "name": "initialize",
      "outputs": [],
      "stateMutability": "nonpayable",
      "type": "function"
    },
    {
      "inputs": [],
      "name": "maxPurchaseAmountForEarlyAccess",
      "outputs": [
        {
          "internalType": "uint256",
          "name": "",
          "type": "uint256"
        }
      ],
      "stateMutability": "view",
      "type": "function"
    },
    {
      "inputs": [],
      "name": "maxPurchaseAmountForGalaxyPool",
      "outputs": [
        {
          "internalType": "uint256",
          "name": "",
          "type": "uint256"
        }
      ],
      "stateMutability": "view",
      "type": "function"
    },
    {
      "inputs": [],
      "name": "maxPurchaseAmountForKYCUser",
      "outputs": [
        {
          "internalType": "uint256",
          "name": "",
          "type": "uint256"
        }
      ],
      "stateMutability": "view",
      "type": "function"
    },
    {
      "inputs": [],
      "name": "maxPurchaseAmountForNotKYCUser",
      "outputs": [
        {
          "internalType": "uint256",
          "name": "",
          "type": "uint256"
        }
      ],
      "stateMutability": "view",
      "type": "function"
    },
    {
      "inputs": [],
      "name": "offeredCurrency",
      "outputs": [
        {
          "internalType": "uint256",
          "name": "rate",
          "type": "uint256"
        },
        {
          "internalType": "uint256",
          "name": "decimal",
          "type": "uint256"
        }
      ],
      "stateMutability": "view",
      "type": "function"
    },
    {
      "inputs": [],
      "name": "participationFeePercentage",
      "outputs": [
        {
          "internalType": "uint16",
          "name": "",
          "type": "uint16"
        }
      ],
      "stateMutability": "view",
      "type": "function"
    },
    {
      "inputs": [],
      "name": "pausePool",
      "outputs": [],
      "stateMutability": "nonpayable",
      "type": "function"
    },
    {
      "inputs": [],
      "name": "paused",
      "outputs": [
        {
          "internalType": "bool",
          "name": "",
          "type": "bool"
        }
      ],
      "stateMutability": "view",
      "type": "function"
    },
    {
      "inputs": [],
      "name": "poolFactory",
      "outputs": [
        {
          "internalType": "contract IPoolFactory",
          "name": "",
          "type": "address"
        }
      ],
      "stateMutability": "view",
      "type": "function"
    },
    {
      "inputs": [],
      "name": "purchaseToken",
      "outputs": [
        {
          "internalType": "contract IERC20",
          "name": "",
          "type": "address"
        }
      ],
      "stateMutability": "view",
      "type": "function"
    },
    {
      "inputs": [],
      "name": "purchasedAmount",
      "outputs": [
        {
          "internalType": "uint256",
          "name": "",
          "type": "uint256"
        }
      ],
      "stateMutability": "view",
      "type": "function"
    },
    {
      "inputs": [],
      "name": "purchasedAmountInEarlyAccess",
      "outputs": [
        {
          "internalType": "uint256",
          "name": "",
          "type": "uint256"
        }
      ],
      "stateMutability": "view",
      "type": "function"
    },
    {
      "inputs": [],
      "name": "purchasedAmountInGalaxyPool",
      "outputs": [
        {
          "internalType": "uint256",
          "name": "",
          "type": "uint256"
        }
      ],
      "stateMutability": "view",
      "type": "function"
    },
    {
      "inputs": [
        {
          "internalType": "address",
          "name": "_redeemIDOTokenRecipient",
          "type": "address"
        }
      ],
      "name": "redeemIDOToken",
      "outputs": [],
      "stateMutability": "nonpayable",
      "type": "function"
    },
    {
      "inputs": [
        {
          "internalType": "address",
          "name": "_redeemPurchaseTokenRecipient",
          "type": "address"
        }
      ],
      "name": "redeemPurchaseToken",
      "outputs": [],
      "stateMutability": "nonpayable",
      "type": "function"
    },
    {
      "inputs": [
        {
          "internalType": "bytes32",
          "name": "role",
          "type": "bytes32"
        },
        {
          "internalType": "address",
          "name": "account",
          "type": "address"
        }
      ],
      "name": "renounceRole",
      "outputs": [],
      "stateMutability": "nonpayable",
      "type": "function"
    },
    {
      "inputs": [
        {
          "internalType": "bytes32",
          "name": "role",
          "type": "bytes32"
        },
        {
          "internalType": "address",
          "name": "account",
          "type": "address"
        }
      ],
      "name": "revokeRole",
      "outputs": [],
      "stateMutability": "nonpayable",
      "type": "function"
    },
    {
      "inputs": [],
      "name": "root",
      "outputs": [
        {
          "internalType": "bytes32",
          "name": "",
          "type": "bytes32"
        }
      ],
      "stateMutability": "view",
      "type": "function"
    },
    {
      "inputs": [
        {
          "internalType": "bool",
          "name": "_TGEClaimableStatus",
          "type": "bool"
        }
      ],
      "name": "setClaimableTGEIDOToken",
      "outputs": [],
      "stateMutability": "nonpayable",
      "type": "function"
    },
    {
      "inputs": [
        {
          "internalType": "address",
          "name": "_IDOToken",
          "type": "address"
        }
      ],
      "name": "setIDOTokenAddress",
      "outputs": [],
      "stateMutability": "nonpayable",
      "type": "function"
    },
    {
      "inputs": [
        {
          "internalType": "bytes32",
          "name": "_root",
          "type": "bytes32"
        }
      ],
      "name": "setRoot",
      "outputs": [],
      "stateMutability": "nonpayable",
      "type": "function"
    },
    {
      "inputs": [
        {
          "internalType": "uint256",
          "name": "_test",
          "type": "uint256"
        }
      ],
      "name": "setTest",
      "outputs": [],
      "stateMutability": "nonpayable",
      "type": "function"
    },
    {
      "inputs": [
        {
          "internalType": "bytes4",
          "name": "interfaceId",
          "type": "bytes4"
        }
      ],
      "name": "supportsInterface",
      "outputs": [
        {
          "internalType": "bool",
          "name": "",
          "type": "bool"
        }
      ],
      "stateMutability": "view",
      "type": "function"
    },
    {
      "inputs": [],
      "name": "test",
      "outputs": [
        {
          "internalType": "uint256",
          "name": "",
          "type": "uint256"
        }
      ],
      "stateMutability": "view",
      "type": "function"
    },
    {
      "inputs": [],
      "name": "totalRaiseAmount",
      "outputs": [
        {
          "internalType": "uint256",
          "name": "",
          "type": "uint256"
        }
      ],
      "stateMutability": "view",
      "type": "function"
    },
    {
      "inputs": [],
      "name": "unpausePool",
      "outputs": [],
      "stateMutability": "nonpayable",
      "type": "function"
    },
    {
      "inputs": [
        {
          "internalType": "uint256",
          "name": "_rate",
          "type": "uint256"
        },
        {
          "internalType": "uint256",
          "name": "_decimal",
          "type": "uint256"
        }
      ],
      "name": "updateOfferedCurrencyRateAndDecimal",
      "outputs": [],
      "stateMutability": "nonpayable",
      "type": "function"
    },
    {
      "inputs": [
        {
          "internalType": "address",
          "name": "",
          "type": "address"
        }
      ],
      "name": "userIDOAirdropAmount",
      "outputs": [
        {
          "internalType": "uint256",
          "name": "",
          "type": "uint256"
        }
      ],
      "stateMutability": "view",
      "type": "function"
    },
    {
      "inputs": [
        {
          "internalType": "address",
          "name": "",
          "type": "address"
        }
      ],
      "name": "userIDOTGEAmount",
      "outputs": [
        {
          "internalType": "uint256",
          "name": "",
          "type": "uint256"
        }
      ],
      "stateMutability": "view",
      "type": "function"
    },
    {
      "inputs": [
        {
          "internalType": "address",
          "name": "",
          "type": "address"
        }
      ],
      "name": "userPurchasedAmount",
      "outputs": [
        {
          "internalType": "uint256",
          "name": "",
          "type": "uint256"
        }
      ],
      "stateMutability": "view",
      "type": "function"
    },
    {
      "inputs": [],
      "name": "whaleDuration",
      "outputs": [
        {
          "internalType": "uint64",
          "name": "",
          "type": "uint64"
        }
      ],
      "stateMutability": "view",
      "type": "function"
    },
    {
      "inputs": [],
      "name": "whaleOpenTime",
      "outputs": [
        {
          "internalType": "uint64",
          "name": "",
          "type": "uint64"
        }
      ],
      "stateMutability": "view",
      "type": "function"
    }
  ],
  "transactionHash": "0xfc3a07b5112170bc591b052673f7ada0effeac465ec5cb0cc7ef2427b4c8022f",
  "args": [],
  "numDeployments": 1,
  "solcInputHash": "a3ef9553f61297c9a145e4e52335e76e",
  "bytecode": "0x608060405234801561001057600080fd5b506000805460ff19169055600180556133d28061002e6000396000f3fe608060405234801561001057600080fd5b50600436106102e25760003560e01c806385f8f4be11610188578063c09d6fb9116100e4578063e40ff52511610092578063e40ff525146106b4578063e5fa15fa146106c7578063e9959149146106db578063ebf0c71714610702578063efaad0ec1461070b578063f13799391461071e578063f8a8fd6d1461072757600080fd5b8063c09d6fb91461062b578063cb12872814610640578063cdc5598e14610653578063d38ae12b14610668578063d547741f1461067b578063dab5f3401461068e578063e0fda8a5146106a157600080fd5b8063a4f276c711610141578063a4f276c7146105af578063a558b65c146105cf578063a95c4d62146105e9578063aa09d5b7146105fc578063b3679bda14610604578063b3cd42541461060d578063b45822761461061657600080fd5b806385f8f4be1461055057806387e449351461055957806391d148541461056c57806397ff2f221461057f578063a09e06a114610594578063a217fddf146105a757600080fd5b80633da1d412116102425780635c975abb116101f05780635c975abb146104e057806363add7e8146104eb5780636ca1f933146105055780637656cb831461051857806377292d5b1461052b5780637b1a08381461053457806381e2403b1461053d57600080fd5b80633da1d412146104175780634007b53a146104375780634219dc401461044a5780634327a903146104705780634f93d1ad146104835780635958e787146104a65780635c5b1f83146104c057600080fd5b8063248a9ca31161029f578063248a9ca31461035f5780632f2ff15d1461038257806330bba6c41461039557806332aff4d31461039e57806334fa224b146103b157806336568abe146103d95780633baa6fca146103ec57600080fd5b806301ffc9a7146102e7578063068cc5141461030f578063086425bc146103195780631353ff751461032c5780631649da6e146103435780631acbc82314610356575b600080fd5b6102fa6102f5366004612b6e565b610730565b60405190151581526020015b60405180910390f35b610317610767565b005b610317610327366004612c9d565b610849565b61033560095481565b604051908152602001610306565b610317610351366004612d06565b610943565b61033560125481565b61033561036d366004612dbd565b60009081526003602052604090206001015490565b610317610390366004612dd6565b610dca565b610335600c5481565b6103176103ac366004612e02565b610def565b600d546103c690600160601b900461ffff1681565b60405161ffff9091168152602001610306565b6103176103e7366004612dd6565b610fe9565b600f546103ff906001600160401b031681565b6040516001600160401b039091168152602001610306565b610335610425366004612e02565b60146020526000908152604090205481565b610317610445366004612e02565b611063565b600454610463906201000090046001600160a01b031681565b6040516103069190612e1d565b61031761047e366004612e3f565b611163565b600754600854610491919082565b60408051928352602083019190915201610306565b600f546103ff90600160c01b90046001600160401b031681565b6103356104ce366004612e02565b60156020526000908152604090205481565b60005460ff166102fa565b600f546103ff90600160401b90046001600160401b031681565b610317610513366004612dbd565b601655565b610317610526366004612dbd565b611287565b61033560105481565b61033560115481565b61031761054b366004612e5c565b61136e565b610335600b5481565b600554610463906001600160a01b031681565b6102fa61057a366004612dd6565b61148b565b600d546103c690600160501b900461ffff1681565b6103176105a2366004612e5c565b6114b6565b610335600081565b6103356105bd366004612e02565b60136020526000908152604090205481565b600f546103ff90600160801b90046001600160401b031681565b600654610463906001600160a01b031681565b61031761160b565b610335600e5481565b6103c661271081565b600d546103c690600160401b900461ffff1681565b61033560008051602061337d83398151915281565b600d546103ff906001600160401b031681565b600d546103c690600160701b900461ffff1681565b610317610676366004612e02565b6116e7565b610317610689366004612dd6565b6118d1565b61031761069c366004612dbd565b6118f6565b6103176106af366004612f2f565b6119cc565b6103176106c2366004612f51565b611ad8565b600d546102fa90600160801b900460ff1681565b6103357f13e31188d81b941f4c541528790db4031bef078b78d364bde6fc2d4e5ad79e0181565b61033560025481565b610317610719366004612f7a565b611bff565b610335600a5481565b61033560165481565b60006001600160e01b03198216637965db0b60e01b148061076157506301ffc9a760e01b6001600160e01b03198316145b92915050565b6004546201000090046001600160a01b031663c395fcb3336040518263ffffffff1660e01b815260040161079b9190612e1d565b60206040518083038186803b1580156107b357600080fd5b505afa1580156107c7573d6000803e3d6000fd5b505050506040513d601f19601f820116820180604052508101906107eb9190612fbe565b61080857604051637bfa4b9f60e01b815260040160405180910390fd5b610810611ca3565b6040516001815230907ff0d6825187080fb76e877d6e8990b1e2a60ed4f2d8ccf610e889659854577e74906020015b60405180910390a2565b610851611cef565b6002600154141561087d5760405162461bcd60e51b815260040161087490612fdb565b60405180910390fd5b600260015561088a611d37565b61091057600f546001600160401b0380821691600160401b8104821691600160801b8204811691600160c01b90041642335b6040516364daa85360e11b81526001600160401b039687166004820152948616602486015292851660448501529316606483015260848201929092526001600160a01b0390911660a482015260c401610874565b61091a3383611d80565b6109248282611e4c565b6109318383836000611e76565b61093a82611efc565b50506001805550565b600454610100900460ff16158080156109635750600454600160ff909116105b8061097d5750303b15801561097d575060045460ff166001145b6109e05760405162461bcd60e51b815260206004820152602e60248201527f496e697469616c697a61626c653a20636f6e747261637420697320616c72656160448201526d191e481a5b9a5d1a585b1a5e995960921b6064820152608401610874565b6004805460ff191660011790558015610a03576004805461ff0019166101001790555b6004805462010000330262010000600160b01b03199091161790558251602080850151600580546001600160a01b039485166001600160a01b0319918216179091556006805492909416911617909155825190830151600b91909155600c5560408201516060830151610a7582611f16565b600d805467ffffffffffffffff19166001600160401b0392909216919091179055610a9f81611f82565b600d805461ffff92909216600160401b0261ffff60401b1990921691909117905550506080820151610ad081611f82565b600d805461ffff92909216600160501b0261ffff60501b199092169190911790555060a082015160c083015160e0840151610b0a83611f82565b600d600c6101000a81548161ffff021916908361ffff160217905550610b2f82611f82565b600d805461ffff92909216600160701b0261ffff60701b19909216919091179055600e819055612710610b62848361303e565b610b6c919061305d565b6009556127108083610b7e868361307f565b610b88908561303e565b610b92919061303e565b610b9c919061305d565b610ba6919061305d565b600a55505050610100820151610120830151610140840151610bc783611f16565b600f805467ffffffffffffffff19166001600160401b0392909216919091179055610bf182611f16565b600f60086101000a8154816001600160401b0302191690836001600160401b03160217905550610c2081611f16565b600f80546001600160401b0392909216600160c01b026001600160c01b03909216919091179055610c59610c548385613096565b611f16565b600f805467ffffffffffffffff60801b198116600160801b6001600160401b03948516029081179283905561016089810151610180808c015160078390556008819055600554600654600b54600c54600d54600e54604080516001600160a01b039788168152969095166020870152938501979097526060840194909452608083015260a0820192909252600160501b840461ffff90811660c0830152600160601b8504811660e0830152600160701b90940490931661010084015261012083015292861693861693909317610140840152600160401b8404851690830152600160c01b909204909216908201527fff88ccb1dfbd918de09a2534be0afa5c86dde65c8c50d601b6d8e6a4de4bf60893506101a0019150610d779050565b60405180910390a18015610dc5576004805461ff0019169055604051600181527f7f26b83ff96e1f2b6a682f133852f6798a09c465da95921460cefb38474024989060200160405180910390a15b505050565b600082815260036020526040902060010154610de581611fe5565b610dc58383611fef565b6004546201000090046001600160a01b031663c395fcb3336040518263ffffffff1660e01b8152600401610e239190612e1d565b60206040518083038186803b158015610e3b57600080fd5b505afa158015610e4f573d6000803e3d6000fd5b505050506040513d601f19601f82011682018060405250810190610e739190612fbe565b610e9057604051637bfa4b9f60e01b815260040160405180910390fd5b610e9981612075565b60005460ff16151560011480610edc5750600f54610ed0906001600160401b03600160c01b8204811691600160801b9004166130ae565b6001600160401b031642115b15610fcd576005546040516370a0823160e01b81526000916001600160a01b0316906370a0823190610f12903090600401612e1d565b60206040518083038186803b158015610f2a57600080fd5b505afa158015610f3e573d6000803e3d6000fd5b505050506040513d601f19601f82011682018060405250810190610f6291906130d9565b90508015610fc957600554610f81906001600160a01b0316838361209c565b6005546040517fb475b33e23c517ab04a59359c4593620c1fafb083636f450b501cfdc5fa7c1d191610fc09185916001600160a01b03169085906130f2565b60405180910390a15b5050565b6040516320f0ba3d60e21b815260040160405180910390fd5b50565b6001600160a01b03811633146110595760405162461bcd60e51b815260206004820152602f60248201527f416363657373436f6e74726f6c3a2063616e206f6e6c792072656e6f756e636560448201526e103937b632b9903337b91039b2b63360891b6064820152608401610874565b610fc982826120f2565b6004546201000090046001600160a01b031663c395fcb3336040518263ffffffff1660e01b81526004016110979190612e1d565b60206040518083038186803b1580156110af57600080fd5b505afa1580156110c3573d6000803e3d6000fd5b505050506040513d601f19601f820116820180604052508101906110e79190612fbe565b61110457604051637bfa4b9f60e01b815260040160405180910390fd5b61110d81612075565b600580546001600160a01b0319166001600160a01b0383161790556040517f222c4e474522c0d864730dd6d2e687696a9f3427100f333e3b8c55bef5dce3a190611158908390612e1d565b60405180910390a150565b6004546201000090046001600160a01b031663c395fcb3336040518263ffffffff1660e01b81526004016111979190612e1d565b60206040518083038186803b1580156111af57600080fd5b505afa1580156111c3573d6000803e3d6000fd5b505050506040513d601f19601f820116820180604052508101906111e79190612fbe565b61120457604051637bfa4b9f60e01b815260040160405180910390fd5b600d5460ff600160801b909104161515811515141561123a576040516338a6518f60e01b81528115156004820152602401610874565b600d8054821515600160801b0260ff60801b199091161790556040517fccb5bfd8e614719f5c62e9ee750481317991fd8133670aa1079f1c51d255c6de9061115890831515815260200190565b600d54600160801b900460ff166112b157604051637e5634e560e11b815260040160405180910390fd5b600d546001600160401b03164210156112dd57604051634f10668960e01b815260040160405180910390fd5b336000908152601560205260409020548082111561130e57604051631ee1609d60e11b815260040160405180910390fd5b336000908152601560205260408120805484929061132d90849061307f565b9091555061133d90503383612159565b7f5db24f7604bd2c572f0b463cd8df4de756789f84ced94dafd7f83a4bcb6716403383604051610fc0929190613116565b611376611cef565b600260015414156113995760405162461bcd60e51b815260040161087490612fdb565b6002600155600080806113ab84612170565b60065460405163d505accf60e01b815293965091945092506001600160a01b03169063d505accf906113ed90339030908c908b9088908b908b9060040161312f565b600060405180830381600087803b15801561140757600080fd5b505af115801561141b573d6000803e3d6000fd5b50505050611427611d37565b61145d57600f546001600160401b0380821691600160401b8104821691600160801b8204811691600160c01b90041642336108bc565b6114678787611e4c565b6114748888886000611e76565b61147d87611efc565b505060018055505050505050565b60009182526003602090815260408084206001600160a01b0393909316845291905290205460ff1690565b6114be611cef565b600260015414156114e15760405162461bcd60e51b815260040161087490612fdb565b6002600155600080806114f384612170565b60065460405163d505accf60e01b815293965091945092506001600160a01b03169063d505accf9061153590339030908b908b9088908b908b9060040161312f565b600060405180830381600087803b15801561154f57600080fd5b505af1158015611563573d6000803e3d6000fd5b505050506115776115713390565b88611d80565b61157f611d37565b156115b95761158d8761219c565b600d546115ab9089908990600090600160501b900461ffff16611e76565b6115b4876121d9565b61147d565b6115c16121eb565b156115d9576115cf87612230565b6115b4888861226d565b600f546001600160401b0380821691600160401b8104821691600160801b8204811691600160c01b90041642336108bc565b6004546201000090046001600160a01b031663c395fcb3336040518263ffffffff1660e01b815260040161163f9190612e1d565b60206040518083038186803b15801561165757600080fd5b505afa15801561166b573d6000803e3d6000fd5b505050506040513d601f19601f8201168201806040525081019061168f9190612fbe565b6116ac57604051637bfa4b9f60e01b815260040160405180910390fd5b6116b46122d9565b6040516000815230907ff0d6825187080fb76e877d6e8990b1e2a60ed4f2d8ccf610e889659854577e749060200161083f565b6004546201000090046001600160a01b031663c395fcb3336040518263ffffffff1660e01b815260040161171b9190612e1d565b60206040518083038186803b15801561173357600080fd5b505afa158015611747573d6000803e3d6000fd5b505050506040513d601f19601f8201168201806040525081019061176b9190612fbe565b61178857604051637bfa4b9f60e01b815260040160405180910390fd5b61179181612075565b60005460ff161515600114806117d45750600f546117c8906001600160401b03600160c01b8204811691600160801b9004166130ae565b6001600160401b031642115b156118b8576006546040516370a0823160e01b81526000916001600160a01b0316906370a082319061180a903090600401612e1d565b60206040518083038186803b15801561182257600080fd5b505afa158015611836573d6000803e3d6000fd5b505050506040513d601f19601f8201168201806040525081019061185a91906130d9565b90508015610fc957600654611879906001600160a01b0316838361209c565b6006546040517fd7be39376e98ef778d32829f2b7f11d5108fcefb6b518dcecf6b21859865fd4f91610fc09185916001600160a01b03169085906130f2565b604051633586a6e960e11b815260040160405180910390fd5b6000828152600360205260409020600101546118ec81611fe5565b610dc583836120f2565b6004546201000090046001600160a01b031663c395fcb3336040518263ffffffff1660e01b815260040161192a9190612e1d565b60206040518083038186803b15801561194257600080fd5b505afa158015611956573d6000803e3d6000fd5b505050506040513d601f19601f8201168201806040525081019061197a9190612fbe565b61199757604051637bfa4b9f60e01b815260040160405180910390fd5b60028190556040518181527fc8d52687b85ab11e6859cb0b390a9e926e1b348d9796e084f88f88420c176fc690602001611158565b6004546201000090046001600160a01b031663c395fcb3336040518263ffffffff1660e01b8152600401611a009190612e1d565b60206040518083038186803b158015611a1857600080fd5b505afa158015611a2c573d6000803e3d6000fd5b505050506040513d601f19601f82011682018060405250810190611a509190612fbe565b611a6d57604051637bfa4b9f60e01b815260040160405180910390fd5b600f546001600160401b0316421115611a98576040516217f9d960e11b815260040160405180910390fd5b6007829055600881905560408051838152602081018390527f42eebe52f005f81524c9f497e010c7a5ebbfc423bc2d64274251354fc3c2ffbb9101610fc0565b6004546201000090046001600160a01b031663c395fcb3336040518263ffffffff1660e01b8152600401611b0c9190612e1d565b60206040518083038186803b158015611b2457600080fd5b505afa158015611b38573d6000803e3d6000fd5b505050506040513d601f19601f82011682018060405250810190611b5c9190612fbe565b611b7957604051637bfa4b9f60e01b815260040160405180910390fd5b80600f60188282829054906101000a90046001600160401b0316611b9d91906130ae565b92506101000a8154816001600160401b0302191690836001600160401b031602179055507ff269ea75173d9ceb1fec9996700ff90147e351a413c525ee719184c7799917f38160405161115891906001600160401b0391909116815260200190565b611c07611cef565b60026001541415611c2a5760405162461bcd60e51b815260040161087490612fdb565b6002600155611c393382611d80565b611c41611d37565b15611c7b57611c4f8161219c565b600d54611c6d9083908390600090600160501b900461ffff16611e76565b611c76816121d9565b611c9b565b611c836121eb565b156115d957611c9181612230565b611c76828261226d565b505060018055565b611cab612316565b6000805460ff191690557f5db9ee0a495bf2e6ff9c91a7834c1ba4fdd244a5e8aa4e537bd38aeae4b073aa335b604051611ce59190612e1d565b60405180910390a1565b60005460ff1615611d355760405162461bcd60e51b815260206004820152601060248201526f14185d5cd8589b194e881c185d5cd95960821b6044820152606401610874565b565b600f546000906001600160401b031642118015611d7b5750600f54611d6e906001600160401b03600160401b8204811691166130ae565b6001600160401b03164211155b905090565b600654604051636eb1769f60e11b81526001600160a01b038481166004830152306024830152600092169063dd62ed3e9060440160206040518083038186803b158015611dcc57600080fd5b505afa158015611de0573d6000803e3d6000fd5b505050506040513d601f19601f82011682018060405250810190611e0491906130d9565b905081811015610dc5576006546040516304fee01560e31b81526001600160a01b03808616600483015290911660248201526044810182905260648101839052608401610874565b611e558261235f565b80821115610fc957604051632b37c00360e11b815260040160405180910390fd5b611e9433600b5460008051602061337d83398151915290858861237d565b15611eab57611ea633848360016123e6565b611ef6565b611ec933600c5460008051602061337d83398151915290858861237d565b15611edb57611ea633848360006123e6565b33604051632e4f414f60e01b81526004016108749190612e1d565b50505050565b8060106000828254611f0e9190613096565b909155505050565b60006001600160401b03821115611f7e5760405162461bcd60e51b815260206004820152602660248201527f53616665436173743a2076616c756520646f65736e27742066697420696e203660448201526534206269747360d01b6064820152608401610874565b5090565b600061ffff821115611f7e5760405162461bcd60e51b815260206004820152602660248201527f53616665436173743a2076616c756520646f65736e27742066697420696e203160448201526536206269747360d01b6064820152608401610874565b610fe68133612562565b611ff9828261148b565b610fc95760008281526003602090815260408083206001600160a01b03851684529091529020805460ff191660011790556120313390565b6001600160a01b0316816001600160a01b0316837f2f8788117e7eff1d82e926ec794901d17c78024a50270940304540a733656f0d60405160405180910390a45050565b6001600160a01b038116610fe65760405163d92e233d60e01b815260040160405180910390fd5b610dc58363a9059cbb60e01b84846040516024016120bb929190613116565b60408051601f198184030181529190526020810180516001600160e01b03166001600160e01b0319909316929092179091526125c6565b6120fc828261148b565b15610fc95760008281526003602090815260408083206001600160a01b0385168085529252808320805460ff1916905551339285917ff6391f5c32d9c69d2a47ea670b442974b53935d1edc7fd64eb21e047a839171b9190a45050565b600554610fc9906001600160a01b0316838361209c565b600080600061217e84612698565b50505060208101516040820151606090920151909260009190911a90565b6121a58161235f565b600a54816011546121b69190613096565b1115610fe65733816040516330b052c360e01b8152600401610874929190613116565b8060116000828254611f0e9190613096565b600f54600090600160801b90046001600160401b031642118015611d7b5750600f54611d6e906001600160401b03600160c01b8204811691600160801b9004166130ae565b6122398161235f565b600e548160125461224a9190613096565b1115610fe657338160405163b17009d360e01b8152600401610874929190613116565b61229e33600b547f13e31188d81b941f4c541528790db4031bef078b78d364bde6fc2d4e5ad79e019060008661237d565b156122be57610fc933600d548390600160501b900461ffff1660016123e6565b610fc933600d548390600160501b900461ffff1660006123e6565b6122e1611cef565b6000805460ff191660011790557f62e78cea01bee320cd4e420270b5ea74000d11b0c9f74754ebdbfc544b05a258611cd83390565b60005460ff16611d355760405162461bcd60e51b815260206004820152601460248201527314185d5cd8589b194e881b9bdd081c185d5cd95960621b6044820152606401610874565b80610fe657604051631f2a200560e01b815260040160405180910390fd5b6040516bffffffffffffffffffffffff19606087901b16602082015260348101859052605481018490526074810183905260009081906094016040516020818303038152906040528051906020012090506123db83600254836126ba565b979650505050505050565b60018115151480156124135750600b5433600090815260136020526040902054612411908590613096565b115b15612435573383604051631087b52160e01b8152600401610874929190613116565b8015801561245e5750600c543360009081526013602052604090205461245c908590613096565b115b156124805733836040516384e66cd160e01b8152600401610874929190613116565b600061248c84846126d2565b905080156124ac576006546124ac906001600160a01b03168630846126f8565b6124b68585612719565b60006124c185612731565b600d54909150600090612710906124e390600160401b900461ffff168461303e565b6124ed919061305d565b905060006124fb828461307f565b9050612508878284612759565b6005546001600160a01b031630336001600160a01b03167fb56e31baf5ee91fd07834187784fb1cbdae3cb94b95610e2a8da75a624e71eaf8a60405161255091815260200190565b60405180910390a45050505050505050565b61256c828261148b565b610fc957612584816001600160a01b031660146127e1565b61258f8360206127e1565b6040516020016125a092919061319c565b60408051601f198184030181529082905262461bcd60e51b82526108749160040161320b565b600061261b826040518060400160405280602081526020017f5361666545524332303a206c6f772d6c6576656c2063616c6c206661696c6564815250856001600160a01b031661297c9092919063ffffffff16565b805190915015610dc557808060200190518101906126399190612fbe565b610dc55760405162461bcd60e51b815260206004820152602a60248201527f5361666545524332303a204552433230206f7065726174696f6e20646964206e6044820152691bdd081cdd58d8d9595960b21b6064820152608401610874565b8051604114610fe657604051637141605d60e11b815260040160405180910390fd5b6000826126c78584612993565b1490505b9392505050565b6000816126e157506000610761565b6127106126ee838561303e565b6126cb919061305d565b611ef6846323b872dd60e01b8585856040516024016120bb939291906130f2565b600654610fc9906001600160a01b03168330846126f8565b60085460009061274290600a613322565b60075461274f908461303e565b610761919061305d565b826012600082825461276b9190613096565b9091555050336000908152601360205260408120805485929061278f908490613096565b909155505033600090815260146020526040812080548492906127b3908490613096565b909155505033600090815260156020526040812080548392906127d7908490613096565b9091555050505050565b606060006127f083600261303e565b6127fb906002613096565b6001600160401b0381111561281257612812612b98565b6040519080825280601f01601f19166020018201604052801561283c576020820181803683370190505b509050600360fc1b8160008151811061285757612857613012565b60200101906001600160f81b031916908160001a905350600f60fb1b8160018151811061288657612886613012565b60200101906001600160f81b031916908160001a90535060006128aa84600261303e565b6128b5906001613096565b90505b600181111561292d576f181899199a1a9b1b9c1cb0b131b232b360811b85600f16601081106128e9576128e9613012565b1a60f81b8282815181106128ff576128ff613012565b60200101906001600160f81b031916908160001a90535060049490941c936129268161332e565b90506128b8565b5083156126cb5760405162461bcd60e51b815260206004820181905260248201527f537472696e67733a20686578206c656e67746820696e73756666696369656e746044820152606401610874565b606061298b84846000856129e0565b949350505050565b600081815b84518110156129d8576129c4828683815181106129b7576129b7613012565b6020026020010151612b06565b9150806129d081613345565b915050612998565b509392505050565b606082471015612a415760405162461bcd60e51b815260206004820152602660248201527f416464726573733a20696e73756666696369656e742062616c616e636520666f6044820152651c8818d85b1b60d21b6064820152608401610874565b6001600160a01b0385163b612a985760405162461bcd60e51b815260206004820152601d60248201527f416464726573733a2063616c6c20746f206e6f6e2d636f6e74726163740000006044820152606401610874565b600080866001600160a01b03168587604051612ab49190613360565b60006040518083038185875af1925050503d8060008114612af1576040519150601f19603f3d011682016040523d82523d6000602084013e612af6565b606091505b50915091506123db828286612b35565b6000818310612b225760008281526020849052604090206126cb565b60008381526020839052604090206126cb565b60608315612b445750816126cb565b825115612b545782518084602001fd5b8160405162461bcd60e51b8152600401610874919061320b565b600060208284031215612b8057600080fd5b81356001600160e01b0319811681146126cb57600080fd5b634e487b7160e01b600052604160045260246000fd5b604080519081016001600160401b0381118282101715612bd057612bd0612b98565b60405290565b6040516101a081016001600160401b0381118282101715612bd057612bd0612b98565b604051601f8201601f191681016001600160401b0381118282101715612c2157612c21612b98565b604052919050565b600082601f830112612c3a57600080fd5b813560206001600160401b03821115612c5557612c55612b98565b8160051b612c64828201612bf9565b9283528481018201928281019087851115612c7e57600080fd5b83870192505b848310156123db57823582529183019190830190612c84565b600080600060608486031215612cb257600080fd5b83356001600160401b03811115612cc857600080fd5b612cd486828701612c29565b9660208601359650604090950135949350505050565b80356001600160a01b0381168114612d0157600080fd5b919050565b6000806101e0808486031215612d1b57600080fd5b84601f850112612d2a57600080fd5b612d32612bae565b806040860187811115612d4457600080fd5b865b81811015612d6557612d5781612cea565b845260209384019301612d46565b5081955087605f880112612d7857600080fd5b612d80612bd6565b93870193925082915087841115612d9657600080fd5b5b83811015612daf578035835260209283019201612d97565b508093505050509250929050565b600060208284031215612dcf57600080fd5b5035919050565b60008060408385031215612de957600080fd5b82359150612df960208401612cea565b90509250929050565b600060208284031215612e1457600080fd5b6126cb82612cea565b6001600160a01b0391909116815260200190565b8015158114610fe657600080fd5b600060208284031215612e5157600080fd5b81356126cb81612e31565b600080600080600060a08688031215612e7457600080fd5b85356001600160401b0380821115612e8b57600080fd5b612e9789838a01612c29565b9650602091508188013595506040880135945060608801359350608088013581811115612ec357600080fd5b8801601f81018a13612ed457600080fd5b803582811115612ee657612ee6612b98565b612ef8601f8201601f19168501612bf9565b92508083528a84828401011115612f0e57600080fd5b80848301858501376000848285010152505080925050509295509295909350565b60008060408385031215612f4257600080fd5b50508035926020909101359150565b600060208284031215612f6357600080fd5b81356001600160401b03811681146126cb57600080fd5b60008060408385031215612f8d57600080fd5b82356001600160401b03811115612fa357600080fd5b612faf85828601612c29565b95602094909401359450505050565b600060208284031215612fd057600080fd5b81516126cb81612e31565b6020808252601f908201527f5265656e7472616e637947756172643a207265656e7472616e742063616c6c00604082015260600190565b634e487b7160e01b600052603260045260246000fd5b634e487b7160e01b600052601160045260246000fd5b600081600019048311821515161561305857613058613028565b500290565b60008261307a57634e487b7160e01b600052601260045260246000fd5b500490565b60008282101561309157613091613028565b500390565b600082198211156130a9576130a9613028565b500190565b60006001600160401b038083168185168083038211156130d0576130d0613028565b01949350505050565b6000602082840312156130eb57600080fd5b5051919050565b6001600160a01b039384168152919092166020820152604081019190915260600190565b6001600160a01b03929092168252602082015260400190565b6001600160a01b0397881681529590961660208601526040850193909352606084019190915260ff16608083015260a082015260c081019190915260e00190565b60005b8381101561318b578181015183820152602001613173565b83811115611ef65750506000910152565b76020b1b1b2b9b9a1b7b73a3937b61d1030b1b1b7bab73a1604d1b8152600083516131ce816017850160208801613170565b7001034b99036b4b9b9b4b733903937b6329607d1b60179184019182015283516131ff816028840160208801613170565b01602801949350505050565b602081526000825180602084015261322a816040850160208701613170565b601f01601f19169190910160400192915050565b600181815b8085111561327957816000190482111561325f5761325f613028565b8085161561326c57918102915b93841c9390800290613243565b509250929050565b60008261329057506001610761565b8161329d57506000610761565b81600181146132b357600281146132bd576132d9565b6001915050610761565b60ff8411156132ce576132ce613028565b50506001821b610761565b5060208310610133831016604e8410600b84101617156132fc575081810a610761565b613306838361323e565b806000190482111561331a5761331a613028565b029392505050565b60006126cb8383613281565b60008161333d5761333d613028565b506000190190565b600060001982141561335957613359613028565b5060010190565b60008251613372818460208701613170565b919091019291505056feed4b80c86c7954bdbf516c492acb4a2899eb0ee85b7c74e26d85e55a07562c95a26469706673582212204cebe58b22e642093be4e54f7c8e9c580b071f92144ce9d3a00e42f62caa58b164736f6c63430008090033",
  "devdoc": {
    "kind": "dev",
    "methods": {
      "getRoleAdmin(bytes32)": {
        "details": "Returns the admin role that controls `role`. See {grantRole} and {revokeRole}. To change a role's admin, use {_setRoleAdmin}."
      },
      "grantRole(bytes32,address)": {
        "details": "Grants `role` to `account`. If `account` had not been already granted `role`, emits a {RoleGranted} event. Requirements: - the caller must have ``role``'s admin role. May emit a {RoleGranted} event."
      },
      "hasRole(bytes32,address)": {
        "details": "Returns `true` if `account` has been granted `role`."
      },
      "paused()": {
        "details": "Returns true if the contract is paused, and false otherwise."
      },
      "renounceRole(bytes32,address)": {
        "details": "Revokes `role` from the calling account. Roles are often managed via {grantRole} and {revokeRole}: this function's purpose is to provide a mechanism for accounts to lose their privileges if they are compromised (such as when a trusted device is misplaced). If the calling account had been revoked `role`, emits a {RoleRevoked} event. Requirements: - the caller must be `account`. May emit a {RoleRevoked} event."
      },
      "revokeRole(bytes32,address)": {
        "details": "Revokes `role` from `account`. If `account` had been granted `role`, emits a {RoleRevoked} event. Requirements: - the caller must have ``role``'s admin role. May emit a {RoleRevoked} event."
      },
      "supportsInterface(bytes4)": {
        "details": "See {IERC165-supportsInterface}."
      }
    },
    "version": 1
  },
  "userdoc": {
    "kind": "user",
    "methods": {},
    "version": 1
  },
  "storageLayout": {
    "storage": [
      {
        "astId": 8830,
        "contract": "contracts/IDOpool/Pool.sol:Pool",
        "label": "_paused",
        "offset": 0,
        "slot": "0",
        "type": "t_bool"
      },
      {
        "astId": 8931,
        "contract": "contracts/IDOpool/Pool.sol:Pool",
        "label": "_status",
        "offset": 0,
        "slot": "1",
        "type": "t_uint256"
      },
      {
        "astId": 4721,
        "contract": "contracts/IDOpool/Pool.sol:Pool",
        "label": "root",
        "offset": 0,
        "slot": "2",
        "type": "t_bytes32"
      },
      {
        "astId": 8319,
        "contract": "contracts/IDOpool/Pool.sol:Pool",
        "label": "_roles",
        "offset": 0,
        "slot": "3",
        "type": "t_mapping(t_bytes32,t_struct(RoleData)8314_storage)"
      },
      {
        "astId": 8666,
        "contract": "contracts/IDOpool/Pool.sol:Pool",
        "label": "_initialized",
        "offset": 0,
        "slot": "4",
        "type": "t_uint8"
      },
      {
        "astId": 8669,
        "contract": "contracts/IDOpool/Pool.sol:Pool",
        "label": "_initializing",
        "offset": 1,
        "slot": "4",
        "type": "t_bool"
      },
      {
        "astId": 2377,
        "contract": "contracts/IDOpool/Pool.sol:Pool",
        "label": "poolFactory",
        "offset": 2,
        "slot": "4",
        "type": "t_contract(IPoolFactory)4981"
      },
      {
        "astId": 2383,
        "contract": "contracts/IDOpool/Pool.sol:Pool",
        "label": "IDOToken",
        "offset": 0,
        "slot": "5",
        "type": "t_contract(IERC20)663"
      },
      {
        "astId": 2386,
        "contract": "contracts/IDOpool/Pool.sol:Pool",
        "label": "purchaseToken",
        "offset": 0,
        "slot": "6",
        "type": "t_contract(IERC20)663"
      },
      {
        "astId": 2389,
        "contract": "contracts/IDOpool/Pool.sol:Pool",
        "label": "offeredCurrency",
        "offset": 0,
        "slot": "7",
        "type": "t_struct(OfferedCurrency)2368_storage"
      },
      {
        "astId": 2391,
        "contract": "contracts/IDOpool/Pool.sol:Pool",
        "label": "maxPurchaseAmountForGalaxyPool",
        "offset": 0,
        "slot": "9",
        "type": "t_uint256"
      },
      {
        "astId": 2393,
        "contract": "contracts/IDOpool/Pool.sol:Pool",
        "label": "maxPurchaseAmountForEarlyAccess",
        "offset": 0,
        "slot": "10",
        "type": "t_uint256"
      },
      {
        "astId": 2395,
        "contract": "contracts/IDOpool/Pool.sol:Pool",
        "label": "maxPurchaseAmountForKYCUser",
        "offset": 0,
        "slot": "11",
        "type": "t_uint256"
      },
      {
        "astId": 2397,
        "contract": "contracts/IDOpool/Pool.sol:Pool",
        "label": "maxPurchaseAmountForNotKYCUser",
        "offset": 0,
        "slot": "12",
        "type": "t_uint256"
      },
      {
        "astId": 2399,
        "contract": "contracts/IDOpool/Pool.sol:Pool",
        "label": "TGEDate",
        "offset": 0,
        "slot": "13",
        "type": "t_uint64"
      },
      {
        "astId": 2401,
        "contract": "contracts/IDOpool/Pool.sol:Pool",
        "label": "TGEPercentage",
        "offset": 8,
        "slot": "13",
        "type": "t_uint16"
      },
      {
        "astId": 2403,
        "contract": "contracts/IDOpool/Pool.sol:Pool",
        "label": "participationFeePercentage",
        "offset": 10,
        "slot": "13",
        "type": "t_uint16"
      },
      {
        "astId": 2405,
        "contract": "contracts/IDOpool/Pool.sol:Pool",
        "label": "galaxyPoolProportion",
        "offset": 12,
        "slot": "13",
        "type": "t_uint16"
      },
      {
        "astId": 2407,
        "contract": "contracts/IDOpool/Pool.sol:Pool",
        "label": "earlyAccessProportion",
        "offset": 14,
        "slot": "13",
        "type": "t_uint16"
      },
      {
        "astId": 2409,
        "contract": "contracts/IDOpool/Pool.sol:Pool",
        "label": "TGEClaimable",
        "offset": 16,
        "slot": "13",
        "type": "t_bool"
      },
      {
        "astId": 2411,
        "contract": "contracts/IDOpool/Pool.sol:Pool",
        "label": "totalRaiseAmount",
        "offset": 0,
        "slot": "14",
        "type": "t_uint256"
      },
      {
        "astId": 2413,
        "contract": "contracts/IDOpool/Pool.sol:Pool",
        "label": "whaleOpenTime",
        "offset": 0,
        "slot": "15",
        "type": "t_uint64"
      },
      {
        "astId": 2415,
        "contract": "contracts/IDOpool/Pool.sol:Pool",
        "label": "whaleDuration",
        "offset": 8,
        "slot": "15",
        "type": "t_uint64"
      },
      {
        "astId": 2417,
        "contract": "contracts/IDOpool/Pool.sol:Pool",
        "label": "communityOpenTime",
        "offset": 16,
        "slot": "15",
        "type": "t_uint64"
      },
      {
        "astId": 2419,
        "contract": "contracts/IDOpool/Pool.sol:Pool",
        "label": "communityDuration",
        "offset": 24,
        "slot": "15",
        "type": "t_uint64"
      },
      {
        "astId": 2421,
        "contract": "contracts/IDOpool/Pool.sol:Pool",
        "label": "purchasedAmountInGalaxyPool",
        "offset": 0,
        "slot": "16",
        "type": "t_uint256"
      },
      {
        "astId": 2423,
        "contract": "contracts/IDOpool/Pool.sol:Pool",
        "label": "purchasedAmountInEarlyAccess",
        "offset": 0,
        "slot": "17",
        "type": "t_uint256"
      },
      {
        "astId": 2425,
        "contract": "contracts/IDOpool/Pool.sol:Pool",
        "label": "purchasedAmount",
        "offset": 0,
        "slot": "18",
        "type": "t_uint256"
      },
      {
        "astId": 2429,
        "contract": "contracts/IDOpool/Pool.sol:Pool",
        "label": "userPurchasedAmount",
        "offset": 0,
        "slot": "19",
        "type": "t_mapping(t_address,t_uint256)"
      },
      {
        "astId": 2433,
        "contract": "contracts/IDOpool/Pool.sol:Pool",
        "label": "userIDOAirdropAmount",
        "offset": 0,
        "slot": "20",
        "type": "t_mapping(t_address,t_uint256)"
      },
      {
        "astId": 2437,
        "contract": "contracts/IDOpool/Pool.sol:Pool",
        "label": "userIDOTGEAmount",
        "offset": 0,
        "slot": "21",
        "type": "t_mapping(t_address,t_uint256)"
      },
      {
        "astId": 4058,
        "contract": "contracts/IDOpool/Pool.sol:Pool",
        "label": "test",
        "offset": 0,
        "slot": "22",
        "type": "t_uint256"
      }
    ],
    "types": {
      "t_address": {
        "encoding": "inplace",
        "label": "address",
        "numberOfBytes": "20"
      },
      "t_bool": {
        "encoding": "inplace",
        "label": "bool",
        "numberOfBytes": "1"
      },
      "t_bytes32": {
        "encoding": "inplace",
        "label": "bytes32",
        "numberOfBytes": "32"
      },
      "t_contract(IERC20)663": {
        "encoding": "inplace",
        "label": "contract IERC20",
        "numberOfBytes": "20"
      },
      "t_contract(IPoolFactory)4981": {
        "encoding": "inplace",
        "label": "contract IPoolFactory",
        "numberOfBytes": "20"
      },
      "t_mapping(t_address,t_bool)": {
        "encoding": "mapping",
        "key": "t_address",
        "label": "mapping(address => bool)",
        "numberOfBytes": "32",
        "value": "t_bool"
      },
      "t_mapping(t_address,t_uint256)": {
        "encoding": "mapping",
        "key": "t_address",
        "label": "mapping(address => uint256)",
        "numberOfBytes": "32",
        "value": "t_uint256"
      },
      "t_mapping(t_bytes32,t_struct(RoleData)8314_storage)": {
        "encoding": "mapping",
        "key": "t_bytes32",
        "label": "mapping(bytes32 => struct AccessControl.RoleData)",
        "numberOfBytes": "32",
        "value": "t_struct(RoleData)8314_storage"
      },
      "t_struct(OfferedCurrency)2368_storage": {
        "encoding": "inplace",
        "label": "struct Pool.OfferedCurrency",
        "members": [
          {
            "astId": 2365,
            "contract": "contracts/IDOpool/Pool.sol:Pool",
            "label": "rate",
            "offset": 0,
            "slot": "0",
            "type": "t_uint256"
          },
          {
            "astId": 2367,
            "contract": "contracts/IDOpool/Pool.sol:Pool",
            "label": "decimal",
            "offset": 0,
            "slot": "1",
            "type": "t_uint256"
          }
        ],
        "numberOfBytes": "64"
      },
      "t_struct(RoleData)8314_storage": {
        "encoding": "inplace",
        "label": "struct AccessControl.RoleData",
        "members": [
          {
            "astId": 8311,
            "contract": "contracts/IDOpool/Pool.sol:Pool",
            "label": "members",
            "offset": 0,
            "slot": "0",
            "type": "t_mapping(t_address,t_bool)"
          },
          {
            "astId": 8313,
            "contract": "contracts/IDOpool/Pool.sol:Pool",
            "label": "adminRole",
            "offset": 0,
            "slot": "1",
            "type": "t_bytes32"
          }
        ],
        "numberOfBytes": "64"
      },
      "t_uint16": {
        "encoding": "inplace",
        "label": "uint16",
        "numberOfBytes": "2"
      },
      "t_uint256": {
        "encoding": "inplace",
        "label": "uint256",
        "numberOfBytes": "32"
      },
      "t_uint64": {
        "encoding": "inplace",
        "label": "uint64",
        "numberOfBytes": "8"
      },
      "t_uint8": {
        "encoding": "inplace",
        "label": "uint8",
        "numberOfBytes": "1"
      }
    }
  }
}