{
  "address": "0xc62D8d274Bf1542449F540f7D0aC03C4BdBb5FF5",
  "abi": [
    {
      "inputs": [],
      "name": "AlreadyAdmin",
      "type": "error"
    },
    {
      "inputs": [],
      "name": "AlreadyNotAdmin",
      "type": "error"
    },
    {
      "inputs": [],
      "name": "NotRegisteredPool",
      "type": "error"
    },
    {
      "inputs": [],
      "name": "NotValidEarlyAccessProportion",
      "type": "error"
    },
    {
      "inputs": [],
      "name": "NotValidGalaxyPoolProportion",
      "type": "error"
    },
    {
      "inputs": [],
      "name": "ZeroAddress",
      "type": "error"
    },
    {
      "inputs": [],
      "name": "ZeroAmount",
      "type": "error"
    },
    {
      "inputs": [],
      "name": "ZeroOfferedRate",
      "type": "error"
    },
    {
      "anonymous": false,
      "inputs": [
        {
          "indexed": false,
          "internalType": "uint8",
          "name": "version",
          "type": "uint8"
        }
      ],
      "name": "Initialized",
      "type": "event"
    },
    {
      "anonymous": false,
      "inputs": [
        {
          "indexed": false,
          "internalType": "address",
          "name": "createdBy",
          "type": "address"
        },
        {
          "indexed": true,
          "internalType": "address",
          "name": "token",
          "type": "address"
        },
        {
          "indexed": true,
          "internalType": "address",
          "name": "pool",
          "type": "address"
        },
        {
          "indexed": false,
          "internalType": "uint256",
          "name": "poolId",
          "type": "uint256"
        }
      ],
      "name": "PoolCreated",
      "type": "event"
    },
    {
      "anonymous": false,
      "inputs": [
        {
          "indexed": false,
          "internalType": "address",
          "name": "registeredBy",
          "type": "address"
        },
        {
          "indexed": true,
          "internalType": "address",
          "name": "token",
          "type": "address"
        },
        {
          "indexed": true,
          "internalType": "address",
          "name": "pool",
          "type": "address"
        }
      ],
      "name": "PoolRegistered",
      "type": "event"
    },
    {
      "anonymous": false,
      "inputs": [
        {
          "indexed": true,
          "internalType": "bytes32",
          "name": "role",
          "type": "bytes32"
        },
        {
          "indexed": true,
          "internalType": "bytes32",
          "name": "previousAdminRole",
          "type": "bytes32"
        },
        {
          "indexed": true,
          "internalType": "bytes32",
          "name": "newAdminRole",
          "type": "bytes32"
        }
      ],
      "name": "RoleAdminChanged",
      "type": "event"
    },
    {
      "anonymous": false,
      "inputs": [
        {
          "indexed": true,
          "internalType": "bytes32",
          "name": "role",
          "type": "bytes32"
        },
        {
          "indexed": true,
          "internalType": "address",
          "name": "account",
          "type": "address"
        },
        {
          "indexed": true,
          "internalType": "address",
          "name": "sender",
          "type": "address"
        }
      ],
      "name": "RoleGranted",
      "type": "event"
    },
    {
      "anonymous": false,
      "inputs": [
        {
          "indexed": true,
          "internalType": "bytes32",
          "name": "role",
          "type": "bytes32"
        },
        {
          "indexed": true,
          "internalType": "address",
          "name": "account",
          "type": "address"
        },
        {
          "indexed": true,
          "internalType": "address",
          "name": "sender",
          "type": "address"
        }
      ],
      "name": "RoleRevoked",
      "type": "event"
    },
    {
      "anonymous": false,
      "inputs": [
        {
          "indexed": true,
          "internalType": "address",
          "name": "oldPoolImplementation",
          "type": "address"
        },
        {
          "indexed": true,
          "internalType": "address",
          "name": "newPoolImplementation",
          "type": "address"
        }
      ],
      "name": "UpdatePoolImplementation",
      "type": "event"
    },
    {
      "inputs": [],
      "name": "ADMIN",
      "outputs": [
        {
          "internalType": "bytes32",
          "name": "",
          "type": "bytes32"
        }
      ],
      "stateMutability": "view",
      "type": "function"
    },
    {
      "inputs": [],
      "name": "DEFAULT_ADMIN_ROLE",
      "outputs": [
        {
          "internalType": "bytes32",
          "name": "",
          "type": "bytes32"
        }
      ],
      "stateMutability": "view",
      "type": "function"
    },
    {
      "inputs": [],
      "name": "PERCENTAGE_DENOMINATOR",
      "outputs": [
        {
          "internalType": "uint16",
          "name": "",
          "type": "uint16"
        }
      ],
      "stateMutability": "view",
      "type": "function"
    },
    {
      "inputs": [
        {
          "internalType": "uint256",
          "name": "",
          "type": "uint256"
        }
      ],
      "name": "allPools",
      "outputs": [
        {
          "internalType": "address",
          "name": "",
          "type": "address"
        }
      ],
      "stateMutability": "view",
      "type": "function"
    },
    {
      "inputs": [],
      "name": "allPoolsLength",
      "outputs": [
        {
          "internalType": "uint256",
          "name": "",
          "type": "uint256"
        }
      ],
      "stateMutability": "view",
      "type": "function"
    },
    {
      "inputs": [
        {
          "internalType": "address[2]",
          "name": "addrs",
          "type": "address[2]"
        },
        {
          "internalType": "uint256[13]",
          "name": "uints",
          "type": "uint256[13]"
        }
      ],
      "name": "createPool",
      "outputs": [
        {
          "internalType": "address",
          "name": "pool",
          "type": "address"
        }
      ],
      "stateMutability": "nonpayable",
      "type": "function"
    },
    {
      "inputs": [
        {
          "internalType": "address",
          "name": "",
          "type": "address"
        },
        {
          "internalType": "address",
          "name": "",
          "type": "address"
        },
        {
          "internalType": "uint256",
          "name": "",
          "type": "uint256"
        }
      ],
      "name": "getCreatedPools",
      "outputs": [
        {
          "internalType": "address",
          "name": "",
          "type": "address"
        }
      ],
      "stateMutability": "view",
      "type": "function"
    },
    {
      "inputs": [
        {
          "internalType": "address",
          "name": "_creator",
          "type": "address"
        },
        {
          "internalType": "address",
          "name": "_token",
          "type": "address"
        }
      ],
      "name": "getCreatedPoolsByToken",
      "outputs": [
        {
          "internalType": "address[]",
          "name": "",
          "type": "address[]"
        }
      ],
      "stateMutability": "view",
      "type": "function"
    },
    {
      "inputs": [
        {
          "internalType": "address",
          "name": "_creator",
          "type": "address"
        },
        {
          "internalType": "address",
          "name": "_token",
          "type": "address"
        }
      ],
      "name": "getCreatedPoolsLengthByToken",
      "outputs": [
        {
          "internalType": "uint256",
          "name": "",
          "type": "uint256"
        }
      ],
      "stateMutability": "view",
      "type": "function"
    },
    {
      "inputs": [
        {
          "internalType": "address",
          "name": "",
          "type": "address"
        },
        {
          "internalType": "address",
          "name": "",
          "type": "address"
        },
        {
          "internalType": "uint256",
          "name": "",
          "type": "uint256"
        }
      ],
      "name": "getRegisteredPools",
      "outputs": [
        {
          "internalType": "address",
          "name": "",
          "type": "address"
        }
      ],
      "stateMutability": "view",
      "type": "function"
    },
    {
      "inputs": [
        {
          "internalType": "address",
          "name": "_collaborator",
          "type": "address"
        },
        {
          "internalType": "address",
          "name": "_token",
          "type": "address"
        }
      ],
      "name": "getRegisteredPoolsByToken",
      "outputs": [
        {
          "internalType": "address[]",
          "name": "",
          "type": "address[]"
        }
      ],
      "stateMutability": "view",
      "type": "function"
    },
    {
      "inputs": [
        {
          "internalType": "address",
          "name": "_collaborator",
          "type": "address"
        },
        {
          "internalType": "address",
          "name": "_token",
          "type": "address"
        }
      ],
      "name": "getRegisteredPoolsLengthByToken",
      "outputs": [
        {
          "internalType": "uint256",
          "name": "",
          "type": "uint256"
        }
      ],
      "stateMutability": "view",
      "type": "function"
    },
    {
      "inputs": [
        {
          "internalType": "bytes32",
          "name": "role",
          "type": "bytes32"
        }
      ],
      "name": "getRoleAdmin",
      "outputs": [
        {
          "internalType": "bytes32",
          "name": "",
          "type": "bytes32"
        }
      ],
      "stateMutability": "view",
      "type": "function"
    },
    {
      "inputs": [
        {
          "internalType": "address",
          "name": "_admin",
          "type": "address"
        }
      ],
      "name": "grantAdminRole",
      "outputs": [],
      "stateMutability": "nonpayable",
      "type": "function"
    },
    {
      "inputs": [
        {
          "internalType": "bytes32",
          "name": "role",
          "type": "bytes32"
        },
        {
          "internalType": "address",
          "name": "account",
          "type": "address"
        }
      ],
      "name": "grantRole",
      "outputs": [],
      "stateMutability": "nonpayable",
      "type": "function"
    },
    {
      "inputs": [
        {
          "internalType": "address",
          "name": "_admin",
          "type": "address"
        }
      ],
      "name": "hasAdminRole",
      "outputs": [
        {
          "internalType": "bool",
          "name": "",
          "type": "bool"
        }
      ],
      "stateMutability": "view",
      "type": "function"
    },
    {
      "inputs": [
        {
          "internalType": "bytes32",
          "name": "role",
          "type": "bytes32"
        },
        {
          "internalType": "address",
          "name": "account",
          "type": "address"
        }
      ],
      "name": "hasRole",
      "outputs": [
        {
          "internalType": "bool",
          "name": "",
          "type": "bool"
        }
      ],
      "stateMutability": "view",
      "type": "function"
    },
    {
      "inputs": [
        {
          "internalType": "address[2]",
          "name": "addrs",
          "type": "address[2]"
        },
        {
          "internalType": "uint256[13]",
          "name": "uints",
          "type": "uint256[13]"
        }
      ],
      "name": "hashPoolInfo",
      "outputs": [
        {
          "internalType": "uint256",
          "name": "",
          "type": "uint256"
        }
      ],
      "stateMutability": "pure",
      "type": "function"
    },
    {
      "inputs": [
        {
          "internalType": "address",
          "name": "_poolImplementationAddress",
          "type": "address"
        }
      ],
      "name": "initialize",
      "outputs": [],
      "stateMutability": "nonpayable",
      "type": "function"
    },
    {
      "inputs": [],
      "name": "poolImplementationAddress",
      "outputs": [
        {
          "internalType": "address",
          "name": "",
          "type": "address"
        }
      ],
      "stateMutability": "view",
      "type": "function"
    },
    {
      "inputs": [
        {
          "internalType": "address",
          "name": "collaborator",
          "type": "address"
        },
        {
          "internalType": "address[2]",
          "name": "addrs",
          "type": "address[2]"
        },
        {
          "internalType": "uint256[13]",
          "name": "uints",
          "type": "uint256[13]"
        }
      ],
      "name": "registerPoolAddress",
      "outputs": [
        {
          "internalType": "address",
          "name": "pool",
          "type": "address"
        }
      ],
      "stateMutability": "nonpayable",
      "type": "function"
    },
    {
      "inputs": [
        {
          "internalType": "address",
          "name": "",
          "type": "address"
        },
        {
          "internalType": "uint256",
          "name": "",
          "type": "uint256"
        },
        {
          "internalType": "uint256",
          "name": "",
          "type": "uint256"
        }
      ],
      "name": "registerPools",
      "outputs": [
        {
          "internalType": "address",
          "name": "",
          "type": "address"
        }
      ],
      "stateMutability": "view",
      "type": "function"
    },
    {
      "inputs": [
        {
          "internalType": "bytes32",
          "name": "role",
          "type": "bytes32"
        },
        {
          "internalType": "address",
          "name": "account",
          "type": "address"
        }
      ],
      "name": "renounceRole",
      "outputs": [],
      "stateMutability": "nonpayable",
      "type": "function"
    },
    {
      "inputs": [
        {
          "internalType": "address",
          "name": "_admin",
          "type": "address"
        }
      ],
      "name": "revokeAdminRole",
      "outputs": [],
      "stateMutability": "nonpayable",
      "type": "function"
    },
    {
      "inputs": [
        {
          "internalType": "bytes32",
          "name": "role",
          "type": "bytes32"
        },
        {
          "internalType": "address",
          "name": "account",
          "type": "address"
        }
      ],
      "name": "revokeRole",
      "outputs": [],
      "stateMutability": "nonpayable",
      "type": "function"
    },
    {
      "inputs": [
        {
          "internalType": "address",
          "name": "_poolImplementationAddress",
          "type": "address"
        }
      ],
      "name": "setPoolImplementation",
      "outputs": [],
      "stateMutability": "nonpayable",
      "type": "function"
    },
    {
      "inputs": [
        {
          "internalType": "uint256",
          "name": "_testFactory",
          "type": "uint256"
        }
      ],
      "name": "setTestFactory",
      "outputs": [],
      "stateMutability": "nonpayable",
      "type": "function"
    },
    {
      "inputs": [
        {
          "internalType": "bytes4",
          "name": "interfaceId",
          "type": "bytes4"
        }
      ],
      "name": "supportsInterface",
      "outputs": [
        {
          "internalType": "bool",
          "name": "",
          "type": "bool"
        }
      ],
      "stateMutability": "view",
      "type": "function"
    },
    {
      "inputs": [],
      "name": "testFactory",
      "outputs": [
        {
          "internalType": "uint256",
          "name": "",
          "type": "uint256"
        }
      ],
      "stateMutability": "view",
      "type": "function"
    }
  ],
  "transactionHash": "0xc95707e0dabede66e55d35c6085c920aa785285cada9f61343891abda634a713",
  "args": [],
  "numDeployments": 1,
  "solcInputHash": "a3ef9553f61297c9a145e4e52335e76e",
  "bytecode": "0x608060405234801561001057600080fd5b5061177f806100206000396000f3fe608060405234801561001057600080fd5b506004361061018f5760003560e01c80639a19c7b0116100e4578063c395fcb311610092578063c395fcb31461039b578063c4d66de8146103ae578063c634b78e146103c1578063d547741f146103d4578063d6f74898146103e7578063e1825d3f146103fa578063efde4e6414610433578063fae5400e1461043b57600080fd5b80639a19c7b01461030b5780639ad172231461031e5780639ff96d2114610331578063a217fddf14610351578063ae7a774b14610359578063b3cd42541461036c578063c0f40eb31461038857600080fd5b8063343fb63a11610141578063343fb63a1461025f57806336568abe1461027257806341d1de97146102855780636fcb0b40146102985780637fd37609146102d257806391d14854146102e5578063983bf2bf146102f857600080fd5b806301ffc9a71461019457806315ef4ddc146101bc5780631b1dc5ee146101e7578063248a9ca3146101fa5780632a0acc6a1461022c5780632eb9110c146102415780632f2ff15d1461024a575b600080fd5b6101a76101a2366004611255565b61044e565b60405190151581526020015b60405180910390f35b6002546101cf906001600160a01b031681565b6040516001600160a01b0390911681526020016101b3565b6101cf6101f53660046113a7565b610485565b61021e6102083660046113dd565b6000908152600160208190526040909120015490565b6040519081526020016101b3565b61021e60008051602061172a83398151915281565b61021e60075481565b61025d6102583660046113f6565b61067b565b005b6101cf61026d366004611419565b6106a6565b61025d6102803660046113f6565b6106eb565b6101cf6102933660046113dd565b61076e565b6101cf6102a6366004611455565b60056020908152600093845260408085208252928452828420905282529020546001600160a01b031681565b61021e6102e0366004611488565b610798565b6101a76102f33660046113f6565b6107c3565b6101cf6103063660046114b2565b6107ee565b61025d6103193660046114f8565b6108fd565b61021e61032c3660046113a7565b610962565b61034461033f366004611488565b610996565b6040516101b39190611513565b61021e600081565b610344610367366004611488565b610a19565b61037561271081565b60405161ffff90911681526020016101b3565b6101cf610396366004611419565b610a9a565b6101a76103a93660046114f8565b610ac2565b61025d6103bc3660046114f8565b610adc565b61025d6103cf3660046114f8565b610c18565b61025d6103e23660046113f6565b610c87565b61025d6103f53660046114f8565b610cad565b61021e610408366004611488565b6001600160a01b03918216600090815260066020908152604080832093909416825291909152205490565b60035461021e565b61025d6104493660046113dd565b600755565b60006001600160e01b03198216637965db0b60e01b148061047f57506301ffc9a760e01b6001600160e01b03198316145b92915050565b600080808080610496338888610d21565b3360009081526005602090815260408083208584528252808320868452909152902054939750919550935091506001600160a01b03166104e957604051634318e2a160e01b815260040160405180910390fd5b33600090815260056020908152604080832085845282528220918590525260025461051d906001600160a01b031682610d9c565b604051630b24ed3760e11b81529095506001600160a01b03861690631649da6e9061054e908a908a90600401611560565b600060405180830381600087803b15801561056857600080fd5b505af115801561057c573d6000803e3d6000fd5b505050506004600061058b3390565b6001600160a01b039081168252602080830193909352604091820160009081208883168083529085529281208054600181810183559183529482209094018054928a166001600160a01b031993841681179091556003805495860181559091527fc2575a0e9e593c00f959f8c92f12db2869c3395a3b0502d05e2516446f71f85b9093018054909116831790557febbbe9dc3a19d2f959ac76ac0372b4983cdfb945f5d6aef4873c36fabb2ba8aa6106403390565b60035461064f906001906115dc565b604080516001600160a01b03909316835260208301919091520160405180910390a35050505092915050565b6000828152600160208190526040909120015461069781610e36565b6106a18383610e43565b505050565b600460205282600052604060002060205281600052604060002081815481106106ce57600080fd5b6000918252602090912001546001600160a01b0316925083915050565b6001600160a01b03811633146107605760405162461bcd60e51b815260206004820152602f60248201527f416363657373436f6e74726f6c3a2063616e206f6e6c792072656e6f756e636560448201526e103937b632b9903337b91039b2b63360891b60648201526084015b60405180910390fd5b61076a8282610eae565b5050565b6003818154811061077e57600080fd5b6000918252602090912001546001600160a01b0316905081565b6001600160a01b03918216600090815260046020908152604080832093909416825291909152205490565b60009182526001602090815260408084206001600160a01b0393909316845291905290205460ff1690565b600060008051602061172a83398151915261080881610e36565b600080600080610819898989610d21565b60025493975091955093509150610839906001600160a01b031682610f15565b6001600160a01b03808b1660008181526005602090815260408083208884528252808320898452825280832080548688166001600160a01b0319918216811790925594845260068352818420958b1680855295835290832080546001810182559084529190922001805490921681179091559197507f61afef2e121f71511fab2583c5ac49a5dc1d7a8ad8ad91c44c8465f073a73ac46108d63390565b6040516001600160a01b03909116815260200160405180910390a350505050509392505050565b60008051602061172a83398151915261091581610e36565b61092d60008051602061172a833981519152836107c3565b61094a5760405163e901e0f560e01b815260040160405180910390fd5b61076a60008051602061172a83398151915283610eae565b60008282604051602001610977929190611560565b60408051601f1981840301815291905280516020909101209392505050565b6001600160a01b038083166000908152600660209081526040808320938516835292815290829020805483518184028101840190945280845260609392830182828015610a0c57602002820191906000526020600020905b81546001600160a01b031681526001909101906020018083116109ee575b5050505050905092915050565b6001600160a01b038083166000908152600460209081526040808320938516835292815290829020805483518184028101840190945280845260609392830182828015610a0c576020028201919060005260206000209081546001600160a01b031681526001909101906020018083116109ee575050505050905092915050565b600660205282600052604060002060205281600052604060002081815481106106ce57600080fd5b600061047f60008051602061172a833981519152836107c3565b600054610100900460ff1615808015610afc5750600054600160ff909116105b80610b165750303b158015610b16575060005460ff166001145b610b795760405162461bcd60e51b815260206004820152602e60248201527f496e697469616c697a61626c653a20636f6e747261637420697320616c72656160448201526d191e481a5b9a5d1a585b1a5e995960921b6064820152608401610757565b6000805460ff191660011790558015610b9c576000805461ff0019166101001790555b600280546001600160a01b0319166001600160a01b038416179055610bcf60008051602061172a83398151915233610f82565b801561076a576000805461ff0019169055604051600181527f7f26b83ff96e1f2b6a682f133852f6798a09c465da95921460cefb38474024989060200160405180910390a15050565b60008051602061172a833981519152610c3081610e36565b610c3982610f8c565b610c5160008051602061172a833981519152836107c3565b15610c6f57604051631c3681a560e11b815260040160405180910390fd5b61076a60008051602061172a83398151915283610e43565b60008281526001602081905260409091200154610ca381610e36565b6106a18383610eae565b60008051602061172a833981519152610cc581610e36565b610cce82610f8c565b600280546001600160a01b038481166001600160a01b0319831681179093556040519116919082907f0617fd31aa5ab95ec80eefc1eb61a2c477aa419d1d761b4e46f5f077e47852aa90600090a3505050565b600080600080610d318686610fb3565b85519350610d3f3385610798565b9250610d4b8686610962565b6040516bffffffffffffffffffffffff1960608a901b166020820152603481018290526054810185905290925060740160405160208183030381529060405280519060200120905093509350935093565b6000604051733d602d80600a3d3981f3363d3d373d3d3d363d7360601b81528360601b60148201526e5af43d82803e903d91602b57fd5bf360881b6028820152826037826000f59150506001600160a01b03811661047f5760405162461bcd60e51b8152602060048201526017602482015276115490cc4c4d8dce8818dc99585d194c8819985a5b1959604a1b6044820152606401610757565b610e408133611037565b50565b610e4d82826107c3565b61076a5760008281526001602081815260408084206001600160a01b0386168086529252808420805460ff19169093179092559051339285917f2f8788117e7eff1d82e926ec794901d17c78024a50270940304540a733656f0d9190a45050565b610eb882826107c3565b1561076a5760008281526001602090815260408083206001600160a01b0385168085529252808320805460ff1916905551339285917ff6391f5c32d9c69d2a47ea670b442974b53935d1edc7fd64eb21e047a839171b9190a45050565b6000610f7b838330604051733d602d80600a3d3981f3363d3d373d3d3d363d7360601b8152606093841b60148201526f5af43d82803e903d91602b57fd5bf3ff60801b6028820152921b6038830152604c8201526037808220606c830152605591012090565b9392505050565b61076a8282610e43565b6001600160a01b038116610e405760405163d92e233d60e01b815260040160405180910390fd5b6020820151610fc181610f8c565b5060a0810151612710811115610fea5760405163f8967ebd60e01b815260040160405180910390fd5b60c0820151612710811115611012576040516343edeabb60e11b815260040160405180910390fd5b60e08301516110208161109b565b61014084015161102f8161109b565b505050505050565b61104182826107c3565b61076a57611059816001600160a01b031660146110b9565b6110648360206110b9565b604051602001611075929190611639565b60408051601f198184030181529082905262461bcd60e51b8252610757916004016116a8565b80610e4057604051631f2a200560e01b815260040160405180910390fd5b606060006110c88360026116db565b6110d39060026116fa565b67ffffffffffffffff8111156110eb576110eb61127f565b6040519080825280601f01601f191660200182016040528015611115576020820181803683370190505b509050600360fc1b81600081518110611130576111306115f3565b60200101906001600160f81b031916908160001a905350600f60fb1b8160018151811061115f5761115f6115f3565b60200101906001600160f81b031916908160001a90535060006111838460026116db565b61118e9060016116fa565b90505b6001811115611206576f181899199a1a9b1b9c1cb0b131b232b360811b85600f16601081106111c2576111c26115f3565b1a60f81b8282815181106111d8576111d86115f3565b60200101906001600160f81b031916908160001a90535060049490941c936111ff81611712565b9050611191565b508315610f7b5760405162461bcd60e51b815260206004820181905260248201527f537472696e67733a20686578206c656e67746820696e73756666696369656e746044820152606401610757565b60006020828403121561126757600080fd5b81356001600160e01b031981168114610f7b57600080fd5b634e487b7160e01b600052604160045260246000fd5b80356001600160a01b03811681146112ac57600080fd5b919050565b600082601f8301126112c257600080fd5b6040516040810181811067ffffffffffffffff821117156112f357634e487b7160e01b600052604160045260246000fd5b806040525080604084018581111561130a57600080fd5b845b8181101561132b5761131d81611295565b83526020928301920161130c565b509195945050505050565b600082601f83011261134757600080fd5b6040516101a080820182811067ffffffffffffffff8211171561137a57634e487b7160e01b600052604160045260246000fd5b6040528301818582111561138d57600080fd5b845b8281101561132b57803582526020918201910161138f565b6000806101e083850312156113bb57600080fd5b6113c584846112b1565b91506113d48460408501611336565b90509250929050565b6000602082840312156113ef57600080fd5b5035919050565b6000806040838503121561140957600080fd5b823591506113d460208401611295565b60008060006060848603121561142e57600080fd5b61143784611295565b925061144560208501611295565b9150604084013590509250925092565b60008060006060848603121561146a57600080fd5b61147384611295565b95602085013595506040909401359392505050565b6000806040838503121561149b57600080fd5b6114a483611295565b91506113d460208401611295565b600080600061020084860312156114c857600080fd5b6114d184611295565b92506114e085602086016112b1565b91506114ef8560608601611336565b90509250925092565b60006020828403121561150a57600080fd5b610f7b82611295565b6020808252825182820181905260009190848201906040850190845b818110156115545783516001600160a01b03168352928401929184019160010161152f565b50909695505050505050565b6101e08101818460005b60028110156115925781516001600160a01b031683526020928301929091019060010161156a565b505050604082018360005b600d8110156115bc57815183526020928301929091019060010161159d565b5050509392505050565b634e487b7160e01b600052601160045260246000fd5b6000828210156115ee576115ee6115c6565b500390565b634e487b7160e01b600052603260045260246000fd5b60005b8381101561162457818101518382015260200161160c565b83811115611633576000848401525b50505050565b76020b1b1b2b9b9a1b7b73a3937b61d1030b1b1b7bab73a1604d1b81526000835161166b816017850160208801611609565b7001034b99036b4b9b9b4b733903937b6329607d1b601791840191820152835161169c816028840160208801611609565b01602801949350505050565b60208152600082518060208401526116c7816040850160208701611609565b601f01601f19169190910160400192915050565b60008160001904831182151516156116f5576116f56115c6565b500290565b6000821982111561170d5761170d6115c6565b500190565b600081611721576117216115c6565b50600019019056fedf8b4c520ffe197c5343c6f5aec59570151ef9a492f2c624fd45ddde6135ec42a2646970667358221220f1c8d5ae47699e883f3ed0d416de9d98f9c7ccd3905ae80019d15b4984e5bde464736f6c63430008090033",
  "devdoc": {
    "kind": "dev",
    "methods": {
      "allPoolsLength()": {
        "returns": {
          "_0": "Return number of created pools"
        }
      },
      "getCreatedPoolsByToken(address,address)": {
        "details": "User can retrieve their created pool by address of tokens",
        "params": {
          "_creator": "Address of created pool user",
          "_token": "Address of token want to query"
        },
        "returns": {
          "_0": "Created Pool Address"
        }
      },
      "getCreatedPoolsLengthByToken(address,address)": {
        "params": {
          "_creator": "Address of created pool user",
          "_token": "Address of token want to query"
        },
        "returns": {
          "_0": "Return number of created pool"
        }
      },
      "getRoleAdmin(bytes32)": {
        "details": "Returns the admin role that controls `role`. See {grantRole} and {revokeRole}. To change a role's admin, use {_setRoleAdmin}."
      },
      "grantRole(bytes32,address)": {
        "details": "Grants `role` to `account`. If `account` had not been already granted `role`, emits a {RoleGranted} event. Requirements: - the caller must have ``role``'s admin role. May emit a {RoleGranted} event."
      },
      "hasRole(bytes32,address)": {
        "details": "Returns `true` if `account` has been granted `role`."
      },
      "renounceRole(bytes32,address)": {
        "details": "Revokes `role` from the calling account. Roles are often managed via {grantRole} and {revokeRole}: this function's purpose is to provide a mechanism for accounts to lose their privileges if they are compromised (such as when a trusted device is misplaced). If the calling account had been revoked `role`, emits a {RoleRevoked} event. Requirements: - the caller must be `account`. May emit a {RoleRevoked} event."
      },
      "revokeRole(bytes32,address)": {
        "details": "Revokes `role` from `account`. If `account` had been granted `role`, emits a {RoleRevoked} event. Requirements: - the caller must have ``role``'s admin role. May emit a {RoleRevoked} event."
      },
      "supportsInterface(bytes4)": {
        "details": "See {IERC165-supportsInterface}."
      }
    },
    "version": 1
  },
  "userdoc": {
    "kind": "user",
    "methods": {
      "allPoolsLength()": {
        "notice": "Get the number of all created pools"
      },
      "getCreatedPoolsByToken(address,address)": {
        "notice": "Get the created pools by token address"
      },
      "getCreatedPoolsLengthByToken(address,address)": {
        "notice": "Retrieve number of pools created for specific token"
      }
    },
    "version": 1
  },
  "storageLayout": {
    "storage": [
      {
        "astId": 8666,
        "contract": "contracts/IDOpool/PoolFactory.sol:PoolFactory",
        "label": "_initialized",
        "offset": 0,
        "slot": "0",
        "type": "t_uint8"
      },
      {
        "astId": 8669,
        "contract": "contracts/IDOpool/PoolFactory.sol:PoolFactory",
        "label": "_initializing",
        "offset": 1,
        "slot": "0",
        "type": "t_bool"
      },
      {
        "astId": 8319,
        "contract": "contracts/IDOpool/PoolFactory.sol:PoolFactory",
        "label": "_roles",
        "offset": 0,
        "slot": "1",
        "type": "t_mapping(t_bytes32,t_struct(RoleData)8314_storage)"
      },
      {
        "astId": 4087,
        "contract": "contracts/IDOpool/PoolFactory.sol:PoolFactory",
        "label": "poolImplementationAddress",
        "offset": 0,
        "slot": "2",
        "type": "t_address"
      },
      {
        "astId": 4095,
        "contract": "contracts/IDOpool/PoolFactory.sol:PoolFactory",
        "label": "allPools",
        "offset": 0,
        "slot": "3",
        "type": "t_array(t_address)dyn_storage"
      },
      {
        "astId": 4102,
        "contract": "contracts/IDOpool/PoolFactory.sol:PoolFactory",
        "label": "getCreatedPools",
        "offset": 0,
        "slot": "4",
        "type": "t_mapping(t_address,t_mapping(t_address,t_array(t_address)dyn_storage))"
      },
      {
        "astId": 4110,
        "contract": "contracts/IDOpool/PoolFactory.sol:PoolFactory",
        "label": "registerPools",
        "offset": 0,
        "slot": "5",
        "type": "t_mapping(t_address,t_mapping(t_uint256,t_mapping(t_uint256,t_address)))"
      },
      {
        "astId": 4117,
        "contract": "contracts/IDOpool/PoolFactory.sol:PoolFactory",
        "label": "getRegisteredPools",
        "offset": 0,
        "slot": "6",
        "type": "t_mapping(t_address,t_mapping(t_address,t_array(t_address)dyn_storage))"
      },
      {
        "astId": 4705,
        "contract": "contracts/IDOpool/PoolFactory.sol:PoolFactory",
        "label": "testFactory",
        "offset": 0,
        "slot": "7",
        "type": "t_uint256"
      }
    ],
    "types": {
      "t_address": {
        "encoding": "inplace",
        "label": "address",
        "numberOfBytes": "20"
      },
      "t_array(t_address)dyn_storage": {
        "base": "t_address",
        "encoding": "dynamic_array",
        "label": "address[]",
        "numberOfBytes": "32"
      },
      "t_bool": {
        "encoding": "inplace",
        "label": "bool",
        "numberOfBytes": "1"
      },
      "t_bytes32": {
        "encoding": "inplace",
        "label": "bytes32",
        "numberOfBytes": "32"
      },
      "t_mapping(t_address,t_array(t_address)dyn_storage)": {
        "encoding": "mapping",
        "key": "t_address",
        "label": "mapping(address => address[])",
        "numberOfBytes": "32",
        "value": "t_array(t_address)dyn_storage"
      },
      "t_mapping(t_address,t_bool)": {
        "encoding": "mapping",
        "key": "t_address",
        "label": "mapping(address => bool)",
        "numberOfBytes": "32",
        "value": "t_bool"
      },
      "t_mapping(t_address,t_mapping(t_address,t_array(t_address)dyn_storage))": {
        "encoding": "mapping",
        "key": "t_address",
        "label": "mapping(address => mapping(address => address[]))",
        "numberOfBytes": "32",
        "value": "t_mapping(t_address,t_array(t_address)dyn_storage)"
      },
      "t_mapping(t_address,t_mapping(t_uint256,t_mapping(t_uint256,t_address)))": {
        "encoding": "mapping",
        "key": "t_address",
        "label": "mapping(address => mapping(uint256 => mapping(uint256 => address)))",
        "numberOfBytes": "32",
        "value": "t_mapping(t_uint256,t_mapping(t_uint256,t_address))"
      },
      "t_mapping(t_bytes32,t_struct(RoleData)8314_storage)": {
        "encoding": "mapping",
        "key": "t_bytes32",
        "label": "mapping(bytes32 => struct AccessControl.RoleData)",
        "numberOfBytes": "32",
        "value": "t_struct(RoleData)8314_storage"
      },
      "t_mapping(t_uint256,t_address)": {
        "encoding": "mapping",
        "key": "t_uint256",
        "label": "mapping(uint256 => address)",
        "numberOfBytes": "32",
        "value": "t_address"
      },
      "t_mapping(t_uint256,t_mapping(t_uint256,t_address))": {
        "encoding": "mapping",
        "key": "t_uint256",
        "label": "mapping(uint256 => mapping(uint256 => address))",
        "numberOfBytes": "32",
        "value": "t_mapping(t_uint256,t_address)"
      },
      "t_struct(RoleData)8314_storage": {
        "encoding": "inplace",
        "label": "struct AccessControl.RoleData",
        "members": [
          {
            "astId": 8311,
            "contract": "contracts/IDOpool/PoolFactory.sol:PoolFactory",
            "label": "members",
            "offset": 0,
            "slot": "0",
            "type": "t_mapping(t_address,t_bool)"
          },
          {
            "astId": 8313,
            "contract": "contracts/IDOpool/PoolFactory.sol:PoolFactory",
            "label": "adminRole",
            "offset": 0,
            "slot": "1",
            "type": "t_bytes32"
          }
        ],
        "numberOfBytes": "64"
      },
      "t_uint256": {
        "encoding": "inplace",
        "label": "uint256",
        "numberOfBytes": "32"
      },
      "t_uint8": {
        "encoding": "inplace",
        "label": "uint8",
        "numberOfBytes": "1"
      }
    }
  }
}