{
  "address": "0x97De52487433711145d504185A846c98FEA2Ac45",
  "abi": [
    {
      "inputs": [],
      "name": "PERCENTAGE_DENOMINATOR",
      "outputs": [
        {
          "internalType": "uint16",
          "name": "",
          "type": "uint16"
        }
      ],
      "stateMutability": "view",
      "type": "function"
    },
    {
      "inputs": [
        {
          "internalType": "uint256",
          "name": "totalAmount",
          "type": "uint256"
        },
        {
          "internalType": "uint256",
          "name": "claimedAmount",
          "type": "uint256"
        },
        {
          "internalType": "uint16",
          "name": "TGEPercentage",
          "type": "uint16"
        },
        {
          "internalType": "uint64",
          "name": "TGEDate",
          "type": "uint64"
        },
        {
          "internalType": "uint64",
          "name": "vestingCliff",
          "type": "uint64"
        },
        {
          "internalType": "uint64",
          "name": "vestingFrequency",
          "type": "uint64"
        },
        {
          "internalType": "uint256",
          "name": "numberOfVestingRelease",
          "type": "uint256"
        }
      ],
      "name": "calculateClaimableAmount",
      "outputs": [
        {
          "internalType": "uint256",
          "name": "",
          "type": "uint256"
        }
      ],
      "stateMutability": "view",
      "type": "function"
    },
    {
      "inputs": [
        {
          "internalType": "uint256",
          "name": "_TGEPercentage",
          "type": "uint256"
        }
      ],
      "name": "verifyVestingInfo",
      "outputs": [],
      "stateMutability": "pure",
      "type": "function"
    }
  ],
  "transactionHash": "0x009c4b32c4dea3695b575624d3f871beba0172052845c96a8804ff791987f179",
  "args": [],
  "numDeployments": 1,
  "solcInputHash": "4daafae0a5624c0083fece4af88f22bb",
  "bytecode": "0x6103f861003a600b82828239805160001a60731461002d57634e487b7160e01b600052600060045260246000fd5b30600052607381538281f3fe730000000000000000000000000000000000000000301460806040526004361061004b5760003560e01c80633954a8c714610050578063b3cd425414610076578063e206f93414610092575b600080fd5b61006361005e366004610229565b6100a7565b6040519081526020015b60405180910390f35b61007f61271081565b60405161ffff909116815260200161006d565b6100a56100a03660046102a3565b6101c5565b005b60008787106100b8575060006101ba565b60006127106100cb61ffff89168b6102d2565b6100d591906102f1565b90506100e18587610313565b6001600160401b03164210806100fe57506001600160401b038416155b156101155761010d888261033e565b9150506101ba565b6000846001600160401b0316866001600160401b0316886001600160401b031642610140919061033e565b61014a919061033e565b61015491906102f1565b61015f906001610355565b905083811061017b57610172898b61033e565b925050506101ba565b6000610187838c61033e565b905089838661019684866102d2565b6101a091906102f1565b6101aa9190610355565b6101b4919061033e565b93505050505b979650505050505050565b6040805180820190915260018152601b60f91b60208201526127108211156102095760405162461bcd60e51b8152600401610200919061036d565b60405180910390fd5b5050565b80356001600160401b038116811461022457600080fd5b919050565b600080600080600080600060e0888a03121561024457600080fd5b8735965060208801359550604088013561ffff8116811461026457600080fd5b94506102726060890161020d565b93506102806080890161020d565b925061028e60a0890161020d565b915060c0880135905092959891949750929550565b6000602082840312156102b557600080fd5b5035919050565b634e487b7160e01b600052601160045260246000fd5b60008160001904831182151516156102ec576102ec6102bc565b500290565b60008261030e57634e487b7160e01b600052601260045260246000fd5b500490565b60006001600160401b03808316818516808303821115610335576103356102bc565b01949350505050565b600082821015610350576103506102bc565b500390565b60008219821115610368576103686102bc565b500190565b600060208083528351808285015260005b8181101561039a5785810183015185820160400152820161037e565b818111156103ac576000604083870101525b50601f01601f191692909201604001939250505056fea2646970667358221220d9e6cd5167a99d0b98c10048db6973135d36ee169d6958e3030931139e303a8b64736f6c634300080a0033",
  "devdoc": {
    "kind": "dev",
    "methods": {},
    "stateVariables": {
      "PERCENTAGE_DENOMINATOR": {
        "details": "Percentage denominator"
      }
    },
    "version": 1
  },
  "userdoc": {
    "kind": "user",
    "methods": {},
    "version": 1
  },
  "storageLayout": {
    "storage": [],
    "types": null
  }
}