{
  "address": "0x3D1E02522E11B08eA6382FD04cF2928A20858342",
  "abi": [
    {
      "inputs": [
        {
          "internalType": "bool",
          "name": "presentStatus",
          "type": "bool"
        }
      ],
      "name": "AlreadySetRedeemableTGE",
      "type": "error"
    },
    {
      "inputs": [
        {
          "internalType": "address",
          "name": "buyer",
          "type": "address"
        },
        {
          "internalType": "uint256",
          "name": "purchaseAmount",
          "type": "uint256"
        }
      ],
      "name": "ExceedMaxPurchaseAmountForEarlyAccess",
      "type": "error"
    },
    {
      "inputs": [
        {
          "internalType": "address",
          "name": "buyer",
          "type": "address"
        },
        {
          "internalType": "uint256",
          "name": "purchaseAmount",
          "type": "uint256"
        }
      ],
      "name": "ExceedMaxPurchaseAmountForKYCUser",
      "type": "error"
    },
    {
      "inputs": [
        {
          "internalType": "address",
          "name": "buyer",
          "type": "address"
        },
        {
          "internalType": "uint256",
          "name": "purchaseAmount",
          "type": "uint256"
        }
      ],
      "name": "ExceedMaxPurchaseAmountForNotKYCUser",
      "type": "error"
    },
    {
      "inputs": [],
      "name": "ExceedMaxPurchaseAmountForUser",
      "type": "error"
    },
    {
      "inputs": [
        {
          "internalType": "address",
          "name": "buyer",
          "type": "address"
        },
        {
          "internalType": "uint256",
          "name": "purchaseAmount",
          "type": "uint256"
        }
      ],
      "name": "ExceedTotalRaiseAmount",
      "type": "error"
    },
    {
      "inputs": [],
      "name": "NotAdmin",
      "type": "error"
    },
    {
      "inputs": [],
      "name": "NotAllowedToRedeemTGEIDOAmount",
      "type": "error"
    },
    {
      "inputs": [
        {
          "internalType": "address",
          "name": "buyer",
          "type": "address"
        },
        {
          "internalType": "address",
          "name": "purchaseToken",
          "type": "address"
        },
        {
          "internalType": "uint256",
          "name": "allowance",
          "type": "uint256"
        },
        {
          "internalType": "uint256",
          "name": "amount",
          "type": "uint256"
        }
      ],
      "name": "NotEnoughAllowance",
      "type": "error"
    },
    {
      "inputs": [],
      "name": "NotEnoughConditionToWithdrawIDOToken",
      "type": "error"
    },
    {
      "inputs": [],
      "name": "NotEnoughConditionToWithdrawPurchaseToken",
      "type": "error"
    },
    {
      "inputs": [
        {
          "internalType": "address",
          "name": "buyer",
          "type": "address"
        }
      ],
      "name": "NotInWhaleList",
      "type": "error"
    },
    {
      "inputs": [
        {
          "internalType": "uint256",
          "name": "whaleOpenTime",
          "type": "uint256"
        },
        {
          "internalType": "uint256",
          "name": "whaleCloseTime",
          "type": "uint256"
        },
        {
          "internalType": "uint256",
          "name": "communityOpenTime",
          "type": "uint256"
        },
        {
          "internalType": "uint256",
          "name": "communityCloseTime",
          "type": "uint256"
        }
      ],
      "name": "NotUpdateValidTime",
      "type": "error"
    },
    {
      "inputs": [],
      "name": "NotValidSignature",
      "type": "error"
    },
    {
      "inputs": [],
      "name": "Redeemed",
      "type": "error"
    },
    {
      "inputs": [
        {
          "internalType": "uint256",
          "name": "whaleOpenTime",
          "type": "uint256"
        },
        {
          "internalType": "uint256",
          "name": "whaleCloseTime",
          "type": "uint256"
        },
        {
          "internalType": "uint256",
          "name": "communityOpenTime",
          "type": "uint256"
        },
        {
          "internalType": "uint256",
          "name": "communityCloseTime",
          "type": "uint256"
        },
        {
          "internalType": "uint256",
          "name": "timestamp",
          "type": "uint256"
        },
        {
          "internalType": "address",
          "name": "buyer",
          "type": "address"
        }
      ],
      "name": "TimeOutToBuyToken",
      "type": "error"
    },
    {
      "inputs": [],
      "name": "ZeroAddress",
      "type": "error"
    },
    {
      "inputs": [],
      "name": "ZeroAmount",
      "type": "error"
    },
    {
      "anonymous": false,
      "inputs": [
        {
          "indexed": true,
          "internalType": "address",
          "name": "buyer",
          "type": "address"
        },
        {
          "indexed": true,
          "internalType": "address",
          "name": "pool",
          "type": "address"
        },
        {
          "indexed": true,
          "internalType": "address",
          "name": "IDOToken",
          "type": "address"
        },
        {
          "indexed": false,
          "internalType": "uint256",
          "name": "purchaseAmount",
          "type": "uint256"
        },
        {
          "indexed": false,
          "internalType": "uint8",
          "name": "poolType",
          "type": "uint8"
        }
      ],
      "name": "BuyToken",
      "type": "event"
    },
    {
      "anonymous": false,
      "inputs": [
        {
          "indexed": false,
          "internalType": "uint8",
          "name": "version",
          "type": "uint8"
        }
      ],
      "name": "Initialized",
      "type": "event"
    },
    {
      "anonymous": false,
      "inputs": [
        {
          "indexed": false,
          "internalType": "address",
          "name": "account",
          "type": "address"
        }
      ],
      "name": "Paused",
      "type": "event"
    },
    {
      "anonymous": false,
      "inputs": [
        {
          "indexed": false,
          "internalType": "address",
          "name": "IDOToken",
          "type": "address"
        },
        {
          "indexed": false,
          "internalType": "address",
          "name": "purchaseToken",
          "type": "address"
        },
        {
          "indexed": false,
          "internalType": "uint256",
          "name": "maxPurchaseAmountForKYCUser",
          "type": "uint256"
        },
        {
          "indexed": false,
          "internalType": "uint256",
          "name": "maxPurchaseAmountForNotKYCUser",
          "type": "uint256"
        },
        {
          "indexed": false,
          "internalType": "uint64",
          "name": "TGEDate",
          "type": "uint64"
        },
        {
          "indexed": false,
          "internalType": "uint16",
          "name": "TGEPercentage",
          "type": "uint16"
        },
        {
          "indexed": false,
          "internalType": "uint16",
          "name": "galaxyParticipationFeePercentage",
          "type": "uint16"
        },
        {
          "indexed": false,
          "internalType": "uint16",
          "name": "crowdfundingParticipationFeePercentage",
          "type": "uint16"
        }
      ],
      "name": "PoolCreatedChild1",
      "type": "event"
    },
    {
      "anonymous": false,
      "inputs": [
        {
          "indexed": false,
          "internalType": "uint16",
          "name": "galaxyPoolProportion",
          "type": "uint16"
        },
        {
          "indexed": false,
          "internalType": "uint16",
          "name": "earlyAccessProportion",
          "type": "uint16"
        },
        {
          "indexed": false,
          "internalType": "uint256",
          "name": "totalRaiseAmount",
          "type": "uint256"
        },
        {
          "indexed": false,
          "internalType": "uint64",
          "name": "whaleOpenTime",
          "type": "uint64"
        },
        {
          "indexed": false,
          "internalType": "uint64",
          "name": "whaleCloseTime",
          "type": "uint64"
        },
        {
          "indexed": false,
          "internalType": "uint64",
          "name": "communityCloseTime",
          "type": "uint64"
        },
        {
          "indexed": false,
          "internalType": "uint256",
          "name": "rate",
          "type": "uint256"
        },
        {
          "indexed": false,
          "internalType": "uint256",
          "name": "decimal",
          "type": "uint256"
        }
      ],
      "name": "PoolCreatedChild2",
      "type": "event"
    },
    {
      "anonymous": false,
      "inputs": [
        {
          "indexed": false,
          "internalType": "address",
          "name": "buyer",
          "type": "address"
        },
        {
          "indexed": false,
          "internalType": "uint256",
          "name": "redeemAmount",
          "type": "uint256"
        }
      ],
      "name": "RedeemTGEAmount",
      "type": "event"
    },
    {
      "anonymous": false,
      "inputs": [
        {
          "indexed": false,
          "internalType": "bool",
          "name": "redeemable",
          "type": "bool"
        }
      ],
      "name": "SetTGERedeemable",
      "type": "event"
    },
    {
      "anonymous": false,
      "inputs": [
        {
          "indexed": false,
          "internalType": "address",
          "name": "account",
          "type": "address"
        }
      ],
      "name": "Unpaused",
      "type": "event"
    },
    {
      "anonymous": false,
      "inputs": [
        {
          "indexed": true,
          "internalType": "address",
          "name": "pool",
          "type": "address"
        },
        {
          "indexed": false,
          "internalType": "bool",
          "name": "status",
          "type": "bool"
        }
      ],
      "name": "UpdateOpenPoolStatus",
      "type": "event"
    },
    {
      "anonymous": false,
      "inputs": [
        {
          "indexed": false,
          "internalType": "bytes32",
          "name": "root",
          "type": "bytes32"
        }
      ],
      "name": "UpdateRoot",
      "type": "event"
    },
    {
      "anonymous": false,
      "inputs": [
        {
          "indexed": false,
          "internalType": "uint64",
          "name": "whaleOpenTime",
          "type": "uint64"
        },
        {
          "indexed": false,
          "internalType": "uint64",
          "name": "whaleCloseTime",
          "type": "uint64"
        },
        {
          "indexed": false,
          "internalType": "uint64",
          "name": "communityOpenTime",
          "type": "uint64"
        },
        {
          "indexed": false,
          "internalType": "uint64",
          "name": "communityCloseTime",
          "type": "uint64"
        }
      ],
      "name": "UpdateTime",
      "type": "event"
    },
    {
      "anonymous": false,
      "inputs": [
        {
          "indexed": false,
          "internalType": "address",
          "name": "withdrawIDOTokenRecipient",
          "type": "address"
        },
        {
          "indexed": false,
          "internalType": "address",
          "name": "IDOToken",
          "type": "address"
        },
        {
          "indexed": false,
          "internalType": "uint256",
          "name": "remainAmount",
          "type": "uint256"
        }
      ],
      "name": "WithdrawIDOToken",
      "type": "event"
    },
    {
      "anonymous": false,
      "inputs": [
        {
          "indexed": false,
          "internalType": "address",
          "name": "withdrawPurchaseTokenRecipient",
          "type": "address"
        },
        {
          "indexed": false,
          "internalType": "address",
          "name": "purchaseToken",
          "type": "address"
        },
        {
          "indexed": false,
          "internalType": "uint256",
          "name": "purchaseAmount",
          "type": "uint256"
        }
      ],
      "name": "WithdrawPurchaseToken",
      "type": "event"
    },
    {
      "inputs": [],
      "name": "IDOToken",
      "outputs": [
        {
          "internalType": "contract IERC20",
          "name": "",
          "type": "address"
        }
      ],
      "stateMutability": "view",
      "type": "function"
    },
    {
      "inputs": [],
      "name": "NORMAL_USER",
      "outputs": [
        {
          "internalType": "bytes32",
          "name": "",
          "type": "bytes32"
        }
      ],
      "stateMutability": "view",
      "type": "function"
    },
    {
      "inputs": [],
      "name": "PERCENTAGE_DENOMINATOR",
      "outputs": [
        {
          "internalType": "uint16",
          "name": "",
          "type": "uint16"
        }
      ],
      "stateMutability": "view",
      "type": "function"
    },
    {
      "inputs": [],
      "name": "TGEDate",
      "outputs": [
        {
          "internalType": "uint64",
          "name": "",
          "type": "uint64"
        }
      ],
      "stateMutability": "view",
      "type": "function"
    },
    {
      "inputs": [],
      "name": "TGEPercentage",
      "outputs": [
        {
          "internalType": "uint16",
          "name": "",
          "type": "uint16"
        }
      ],
      "stateMutability": "view",
      "type": "function"
    },
    {
      "inputs": [],
      "name": "TGERedeemable",
      "outputs": [
        {
          "internalType": "bool",
          "name": "",
          "type": "bool"
        }
      ],
      "stateMutability": "view",
      "type": "function"
    },
    {
      "inputs": [],
      "name": "WHALE",
      "outputs": [
        {
          "internalType": "bytes32",
          "name": "",
          "type": "bytes32"
        }
      ],
      "stateMutability": "view",
      "type": "function"
    },
    {
      "inputs": [
        {
          "internalType": "bytes32[]",
          "name": "proof",
          "type": "bytes32[]"
        },
        {
          "internalType": "uint256",
          "name": "_purchaseAmount",
          "type": "uint256"
        }
      ],
      "name": "buyTokenInCrowdfundingPool",
      "outputs": [],
      "stateMutability": "nonpayable",
      "type": "function"
    },
    {
      "inputs": [
        {
          "internalType": "bytes32[]",
          "name": "proof",
          "type": "bytes32[]"
        },
        {
          "internalType": "uint256",
          "name": "_purchaseAmount",
          "type": "uint256"
        },
        {
          "internalType": "uint256",
          "name": "_allowance",
          "type": "uint256"
        },
        {
          "internalType": "uint256",
          "name": "_deadline",
          "type": "uint256"
        },
        {
          "internalType": "bytes",
          "name": "_signature",
          "type": "bytes"
        }
      ],
      "name": "buyTokenInCrowdfundingPoolWithPermit",
      "outputs": [],
      "stateMutability": "nonpayable",
      "type": "function"
    },
    {
      "inputs": [
        {
          "internalType": "bytes32[]",
          "name": "proof",
          "type": "bytes32[]"
        },
        {
          "internalType": "uint256",
          "name": "_purchaseAmount",
          "type": "uint256"
        },
        {
          "internalType": "uint256",
          "name": "_maxPurchaseBaseOnAllocations",
          "type": "uint256"
        }
      ],
      "name": "buyTokenInGalaxyPool",
      "outputs": [],
      "stateMutability": "nonpayable",
      "type": "function"
    },
    {
      "inputs": [
        {
          "internalType": "bytes32[]",
          "name": "proof",
          "type": "bytes32[]"
        },
        {
          "internalType": "uint256",
          "name": "_purchaseAmount",
          "type": "uint256"
        },
        {
          "internalType": "uint256",
          "name": "_maxPurchaseBaseOnAllocations",
          "type": "uint256"
        },
        {
          "internalType": "uint256",
          "name": "_deadline",
          "type": "uint256"
        },
        {
          "internalType": "bytes",
          "name": "_signature",
          "type": "bytes"
        }
      ],
      "name": "buyTokenInGalaxyPoolWithPermit",
      "outputs": [],
      "stateMutability": "nonpayable",
      "type": "function"
    },
    {
      "inputs": [],
      "name": "closePool",
      "outputs": [],
      "stateMutability": "nonpayable",
      "type": "function"
    },
    {
      "inputs": [],
      "name": "communityCloseTime",
      "outputs": [
        {
          "internalType": "uint64",
          "name": "",
          "type": "uint64"
        }
      ],
      "stateMutability": "view",
      "type": "function"
    },
    {
      "inputs": [],
      "name": "communityOpenTime",
      "outputs": [
        {
          "internalType": "uint64",
          "name": "",
          "type": "uint64"
        }
      ],
      "stateMutability": "view",
      "type": "function"
    },
    {
      "inputs": [],
      "name": "crowdfundingParticipationFeePercentage",
      "outputs": [
        {
          "internalType": "uint16",
          "name": "",
          "type": "uint16"
        }
      ],
      "stateMutability": "view",
      "type": "function"
    },
    {
      "inputs": [],
      "name": "earlyAccessProportion",
      "outputs": [
        {
          "internalType": "uint16",
          "name": "",
          "type": "uint16"
        }
      ],
      "stateMutability": "view",
      "type": "function"
    },
    {
      "inputs": [],
      "name": "galaxyParticipationFeePercentage",
      "outputs": [
        {
          "internalType": "uint16",
          "name": "",
          "type": "uint16"
        }
      ],
      "stateMutability": "view",
      "type": "function"
    },
    {
      "inputs": [],
      "name": "galaxyPoolProportion",
      "outputs": [
        {
          "internalType": "uint16",
          "name": "",
          "type": "uint16"
        }
      ],
      "stateMutability": "view",
      "type": "function"
    },
    {
      "inputs": [
        {
          "internalType": "uint256",
          "name": "_amount",
          "type": "uint256"
        }
      ],
      "name": "getIDOTokenAmountByOfferedCurrency",
      "outputs": [
        {
          "internalType": "uint256",
          "name": "",
          "type": "uint256"
        }
      ],
      "stateMutability": "view",
      "type": "function"
    },
    {
      "inputs": [
        {
          "internalType": "address[2]",
          "name": "addrs",
          "type": "address[2]"
        },
        {
          "internalType": "uint256[14]",
          "name": "uints",
          "type": "uint256[14]"
        }
      ],
      "name": "initialize",
      "outputs": [],
      "stateMutability": "nonpayable",
      "type": "function"
    },
    {
      "inputs": [],
      "name": "maxPurchaseAmountForEarlyAccess",
      "outputs": [
        {
          "internalType": "uint256",
          "name": "",
          "type": "uint256"
        }
      ],
      "stateMutability": "view",
      "type": "function"
    },
    {
      "inputs": [],
      "name": "maxPurchaseAmountForGalaxyPool",
      "outputs": [
        {
          "internalType": "uint256",
          "name": "",
          "type": "uint256"
        }
      ],
      "stateMutability": "view",
      "type": "function"
    },
    {
      "inputs": [],
      "name": "maxPurchaseAmountForKYCUser",
      "outputs": [
        {
          "internalType": "uint256",
          "name": "",
          "type": "uint256"
        }
      ],
      "stateMutability": "view",
      "type": "function"
    },
    {
      "inputs": [],
      "name": "maxPurchaseAmountForNotKYCUser",
      "outputs": [
        {
          "internalType": "uint256",
          "name": "",
          "type": "uint256"
        }
      ],
      "stateMutability": "view",
      "type": "function"
    },
    {
      "inputs": [],
      "name": "offeredCurrency",
      "outputs": [
        {
          "internalType": "uint256",
          "name": "rate",
          "type": "uint256"
        },
        {
          "internalType": "uint256",
          "name": "decimal",
          "type": "uint256"
        }
      ],
      "stateMutability": "view",
      "type": "function"
    },
    {
      "inputs": [],
      "name": "paused",
      "outputs": [
        {
          "internalType": "bool",
          "name": "",
          "type": "bool"
        }
      ],
      "stateMutability": "view",
      "type": "function"
    },
    {
      "inputs": [],
      "name": "poolFactory",
      "outputs": [
        {
          "internalType": "contract IPoolFactory",
          "name": "",
          "type": "address"
        }
      ],
      "stateMutability": "view",
      "type": "function"
    },
    {
      "inputs": [],
      "name": "purchaseToken",
      "outputs": [
        {
          "internalType": "contract IERC20",
          "name": "",
          "type": "address"
        }
      ],
      "stateMutability": "view",
      "type": "function"
    },
    {
      "inputs": [],
      "name": "purchasedAmount",
      "outputs": [
        {
          "internalType": "uint256",
          "name": "",
          "type": "uint256"
        }
      ],
      "stateMutability": "view",
      "type": "function"
    },
    {
      "inputs": [],
      "name": "purchasedAmountInEarlyAccess",
      "outputs": [
        {
          "internalType": "uint256",
          "name": "",
          "type": "uint256"
        }
      ],
      "stateMutability": "view",
      "type": "function"
    },
    {
      "inputs": [],
      "name": "purchasedAmountInGalaxyPool",
      "outputs": [
        {
          "internalType": "uint256",
          "name": "",
          "type": "uint256"
        }
      ],
      "stateMutability": "view",
      "type": "function"
    },
    {
      "inputs": [],
      "name": "redeemTGEIDOToken",
      "outputs": [],
      "stateMutability": "nonpayable",
      "type": "function"
    },
    {
      "inputs": [
        {
          "internalType": "address",
          "name": "",
          "type": "address"
        }
      ],
      "name": "redeemed",
      "outputs": [
        {
          "internalType": "bool",
          "name": "",
          "type": "bool"
        }
      ],
      "stateMutability": "view",
      "type": "function"
    },
    {
      "inputs": [],
      "name": "root",
      "outputs": [
        {
          "internalType": "bytes32",
          "name": "",
          "type": "bytes32"
        }
      ],
      "stateMutability": "view",
      "type": "function"
    },
    {
      "inputs": [
        {
          "internalType": "bool",
          "name": "_TGERedeemableStatus",
          "type": "bool"
        }
      ],
      "name": "setRedeemableTGEIDOToken",
      "outputs": [],
      "stateMutability": "nonpayable",
      "type": "function"
    },
    {
      "inputs": [
        {
          "internalType": "bytes32",
          "name": "_root",
          "type": "bytes32"
        }
      ],
      "name": "setRoot",
      "outputs": [],
      "stateMutability": "nonpayable",
      "type": "function"
    },
    {
      "inputs": [],
      "name": "totalRaiseAmount",
      "outputs": [
        {
          "internalType": "uint256",
          "name": "",
          "type": "uint256"
        }
      ],
      "stateMutability": "view",
      "type": "function"
    },
    {
      "inputs": [
        {
          "internalType": "uint64",
          "name": "_newWhaleCloseTime",
          "type": "uint64"
        },
        {
          "internalType": "uint64",
          "name": "_newCommunityCloseTime",
          "type": "uint64"
        }
      ],
      "name": "updateTime",
      "outputs": [],
      "stateMutability": "nonpayable",
      "type": "function"
    },
    {
      "inputs": [
        {
          "internalType": "address",
          "name": "",
          "type": "address"
        }
      ],
      "name": "userIDOAirdropAmount",
      "outputs": [
        {
          "internalType": "uint256",
          "name": "",
          "type": "uint256"
        }
      ],
      "stateMutability": "view",
      "type": "function"
    },
    {
      "inputs": [
        {
          "internalType": "address",
          "name": "",
          "type": "address"
        }
      ],
      "name": "userIDOTGEAmount",
      "outputs": [
        {
          "internalType": "uint256",
          "name": "",
          "type": "uint256"
        }
      ],
      "stateMutability": "view",
      "type": "function"
    },
    {
      "inputs": [
        {
          "internalType": "address",
          "name": "",
          "type": "address"
        }
      ],
      "name": "userPurchasedAmount",
      "outputs": [
        {
          "internalType": "uint256",
          "name": "",
          "type": "uint256"
        }
      ],
      "stateMutability": "view",
      "type": "function"
    },
    {
      "inputs": [],
      "name": "whaleCloseTime",
      "outputs": [
        {
          "internalType": "uint64",
          "name": "",
          "type": "uint64"
        }
      ],
      "stateMutability": "view",
      "type": "function"
    },
    {
      "inputs": [],
      "name": "whaleOpenTime",
      "outputs": [
        {
          "internalType": "uint64",
          "name": "",
          "type": "uint64"
        }
      ],
      "stateMutability": "view",
      "type": "function"
    },
    {
      "inputs": [
        {
          "internalType": "address",
          "name": "_withdrawIDOTokenRecipient",
          "type": "address"
        }
      ],
      "name": "withdrawIDOToken",
      "outputs": [],
      "stateMutability": "nonpayable",
      "type": "function"
    },
    {
      "inputs": [
        {
          "internalType": "address",
          "name": "_withdrawPurchaseTokenRecipient",
          "type": "address"
        }
      ],
      "name": "withdrawPurchaseToken",
      "outputs": [],
      "stateMutability": "nonpayable",
      "type": "function"
    }
  ],
  "transactionHash": "0x452750d32cdc17cfd36f0443bf2de4eccdb0ed2f92838ccba213395c8670e71c",
  "args": [],
  "numDeployments": 1,
  "solcInputHash": "083f6f8abc110f07a1a7aaf2de3cb9ab",
  "bytecode": "0x608060405234801561001057600080fd5b506000805460ff1916905560018055612bbb8061002e6000396000f3fe608060405234801561001057600080fd5b506004361061027f5760003560e01c806387e449351161015c578063be5bb519116100ce578063ce7c641011610087578063ce7c6410146105bc578063dab5f340146105d6578063e9959149146105e9578063ebf0c717146105fe578063efaad0ec14610607578063f13799391461061a57600080fd5b8063be5bb51914610544578063c09d6fb914610557578063c4746f011461056c578063c6b3665c1461057f578063cb12872814610594578063cdc5598e146105a757600080fd5b8063a558b65c11610120578063a558b65c146104dc578063a95c4d62146104f6578063aad967e414610509578063b3679bda1461051d578063b3cd425414610526578063b45822761461052f57600080fd5b806387e44935146104605780638a39face146104735780639f4568ef14610486578063a09e06a1146104a9578063a4f276c7146104bc57600080fd5b80633da1d412116101f557806366805de5116101b957806366805de51461041557806377292d5b1461041d5780637837734f146104265780637b1a08381461043b57806381e2403b1461044457806385f8f4be1461045757600080fd5b80633da1d412146103755780634219dc40146103955780634f93d1ad146103bb5780635c5b1f83146103de5780635c975abb146103fe57600080fd5b806326e3e0d41161024757806326e3e0d4146102f857806330bba6c41461030b57806331f7ebc51461031457806334fa224b146103275780633baa6fca1461034f5780633d3e37631461036257600080fd5b8063086425bc146102845780631353ff75146102995780631acbc823146102b55780632013b4c4146102be578063230b322d146102f0575b600080fd5b610297610292366004612519565b610623565b005b6102a260085481565b6040519081526020015b60405180910390f35b6102a260115481565b600e546102d890600160c01b90046001600160401b031681565b6040516001600160401b0390911681526020016102ac565b61029761072f565b610297610306366004612582565b61083c565b6102a2600b5481565b61029761032236600461259d565b6109fb565b600c5461033c90600160701b900461ffff1681565b60405161ffff90911681526020016102ac565b600e546102d8906001600160401b031681565b61029761037036600461266b565b610f0a565b6102a2610383366004612582565b60136020526000908152604090205481565b6003546103ae906201000090046001600160a01b031681565b6040516102ac919061269e565b6006546007546103c9919082565b604080519283526020830191909152016102ac565b6102a26103ec366004612582565b60146020526000908152604090205481565b60005460ff165b60405190151581526020016102ac565b6102976110bb565b6102a2600f5481565b600c5461033c90600160501b900461ffff1681565b6102a260105481565b6102976104523660046126b2565b61118d565b6102a2600a5481565b6004546103ae906001600160a01b031681565b6102a2610481366004612785565b6112bc565b610405610494366004612582565b60156020526000908152604090205460ff1681565b6102976104b73660046126b2565b6112ea565b6102a26104ca366004612582565b60126020526000908152604090205481565b600e546102d890600160801b90046001600160401b031681565b6005546103ae906001600160a01b031681565b600c5461040590600160901b900460ff1681565b6102a2600d5481565b61033c61271081565b600c5461033c90600160401b900461ffff1681565b610297610552366004612582565b611442565b6102a2600080516020612b4683398151915281565b61029761057a3660046127ac565b611624565b600c5461033c90600160601b900461ffff1681565b600c546102d8906001600160401b031681565b600c5461033c90600160801b900461ffff1681565b600e546102d890600160401b90046001600160401b031681565b6102976105e4366004612785565b611759565b6102a2600080516020612b6683398151915281565b6102a260025481565b6102976106153660046127c9565b611820565b6102a260095481565b61062b6118c7565b600260015414156106575760405162461bcd60e51b815260040161064e9061280d565b60405180910390fd5b600260015561066461190f565b6106ea57600e546001600160401b0380821691600160401b8104821691600160801b8204811691600160c01b90041642335b6040516364daa85360e11b81526001600160401b039687166004820152948616602486015292851660448501529316606483015260848201929092526001600160a01b0390911660a482015260c40161064e565b6106f43383611943565b6106fe8282611a00565b600c5461071d90849084908490600160501b900461ffff166001611a2e565b61072682611ab7565b50506001805550565b600260015414156107525760405162461bcd60e51b815260040161064e9061280d565b600260015560045461076c906001600160a01b0316611ad1565b600c54600160901b900460ff1661079657604051631b8b49f960e01b815260040160405180910390fd5b3360009081526015602052604090205460ff161515600114156107cb5760405162b8cac360e81b815260040160405180910390fd5b336000818152601460209081526040808320546015909252909120805460ff19166001179055906107fc9082611af8565b7f248517048bc1878f5d0308e1114eba756dc34c77ea2627325801a71c05b5d395338260405161082d929190612844565b60405180910390a15060018055565b6003546201000090046001600160a01b031663c395fcb3336040518263ffffffff1660e01b8152600401610870919061269e565b602060405180830381865afa15801561088d573d6000803e3d6000fd5b505050506040513d601f19601f820116820180604052508101906108b1919061285d565b6108ce57604051637bfa4b9f60e01b815260040160405180910390fd5b6108d781611ad1565b60005460ff161515600114806108fe5750600e54600160c01b90046001600160401b031642115b156109df576005546040516370a0823160e01b81526000916001600160a01b0316906370a082319061093490309060040161269e565b602060405180830381865afa158015610951573d6000803e3d6000fd5b505050506040513d601f19601f82011682018060405250810190610975919061287a565b9050801561099457600554610994906001600160a01b03168383611b0b565b6005546040517f5fd58c95befebb6f19ad0a64e78722ab52aa3dcb7bb63efd80edb730b0cf12e8916109d39185916001600160a01b0316908590612893565b60405180910390a15050565b6040516356621b7b60e11b815260040160405180910390fd5b50565b600354610100900460ff1615808015610a1b5750600354600160ff909116105b80610a355750303b158015610a35575060035460ff166001145b610a985760405162461bcd60e51b815260206004820152602e60248201527f496e697469616c697a61626c653a20636f6e747261637420697320616c72656160448201526d191e481a5b9a5d1a585b1a5e995960921b606482015260840161064e565b6003805460ff191660011790558015610abb576003805461ff0019166101001790555b6003805462010000330262010000600160b01b03199091161790558251602080850151600480546001600160a01b039485166001600160a01b0319918216179091556005805492909416911617909155825190830151600a91909155600b5560408201516060830151610b2d82611b61565b600c805467ffffffffffffffff19166001600160401b0392909216919091179055610b5781611bcd565b600c805461ffff92909216600160401b0261ffff60401b199092169190911790555050608082015160a0830151610b8d82611bcd565b600c600a6101000a81548161ffff021916908361ffff160217905550610bb281611bcd565b600c805461ffff92909216600160601b0261ffff60601b19909216919091179055505060c082015160e0830151610100840151610bee83611bcd565b600c600e6101000a81548161ffff021916908361ffff160217905550610c1382611bcd565b600c805461ffff92909216600160801b0261ffff60801b19909216919091179055600d819055612710610c4684836128e3565b610c509190612902565b6008556127108083610c628683612924565b610c6c90856128e3565b610c7691906128e3565b610c809190612902565b610c8a9190612902565b600955505050610120820151610140830151610160840151610cab83611b61565b600e805467ffffffffffffffff19166001600160401b0392909216919091179055610cde610cd9838561293b565b611b61565b600e8054600160401b600160c01b0319811667ffffffffffffffff60801b196001600160401b03948516600160401b9081029182169290921767ffffffffffffffff60401b1990931617048316600160801b9081029190911791829055610d4d92610cd992859290041661293b565b600e80546001600160c01b0316600160c01b6001600160401b03938416021790556101808601516101a0870151600691909155600755600454600554600a54600b54600c54604080516001600160a01b039687168152959094166020860152928401919091526060830152918216608082015261ffff600160401b8304811660a0830152600160501b8304811660c0830152600160601b90920490911660e08201527f75ab989fd8fb2390aca189e73e7167205ac4a3c29fd9d89c112c8a2fc97102fd93506101000191505060405180910390a1600c54600d54600e546006546007546040805161ffff600160701b880481168252600160801b90970490961660208701528501939093526001600160401b038083166060860152600160401b830481166080860152600160c01b90920490911660a084015260c083015260e08201527fe2a22c458b2e239482efb8652576064c276b0d1ce108e306de284c6c614e8f72906101000160405180910390a18015610f05576003805461ff0019169055604051600181527f7f26b83ff96e1f2b6a682f133852f6798a09c465da95921460cefb3847402498906020015b60405180910390a15b505050565b6003546201000090046001600160a01b031663c395fcb3336040518263ffffffff1660e01b8152600401610f3e919061269e565b602060405180830381865afa158015610f5b573d6000803e3d6000fd5b505050506040513d601f19601f82011682018060405250810190610f7f919061285d565b610f9c57604051637bfa4b9f60e01b815260040160405180910390fd5b806001600160401b0316826001600160401b0316101580610fcc5750600e546001600160401b0390811690831611155b1561101757600e54604051633d9877ad60e11b815261064e916001600160401b0380821692600160401b8304821692600160801b8104831692600160c01b9091041690600401612953565b600e8054600160401b600160c01b031916600160401b6001600160401b0385811682810267ffffffffffffffff60801b191693909317600160801b938402176001600160c01b038116600160c01b8784168102918217968790556040517feedf049ba2a9e400be9e2a2d93b7e6023411a5c4fd77fe703bc75c2fea691fc3976109d39794861693861693909317958304851694938304841693919092041690612953565b6003546201000090046001600160a01b031663c395fcb3336040518263ffffffff1660e01b81526004016110ef919061269e565b602060405180830381865afa15801561110c573d6000803e3d6000fd5b505050506040513d601f19601f82011682018060405250810190611130919061285d565b61114d57604051637bfa4b9f60e01b815260040160405180910390fd5b611155611c30565b6040516000815230907ff0d6825187080fb76e877d6e8990b1e2a60ed4f2d8ccf610e889659854577e749060200160405180910390a2565b6111956118c7565b600260015414156111b85760405162461bcd60e51b815260040161064e9061280d565b6002600155600080806111ca84611c84565b60055460405163d505accf60e01b815293965091945092506001600160a01b03169063d505accf9061120c90339030908c908b9088908b908b9060040161297e565b600060405180830381600087803b15801561122657600080fd5b505af115801561123a573d6000803e3d6000fd5b5050505061124661190f565b61127c57600e546001600160401b0380821691600160401b8104821691600160801b8204811691600160c01b9004164233610696565b6112868787611a00565b600c546112a590899089908990600160501b900461ffff166001611a2e565b6112ae87611ab7565b505060018055505050505050565b6007546000906112cd90600a612aa3565b6006546112da90846128e3565b6112e49190612902565b92915050565b6112f26118c7565b600260015414156113155760405162461bcd60e51b815260040161064e9061280d565b60026001556000808061132784611c84565b60055460405163d505accf60e01b815293965091945092506001600160a01b03169063d505accf9061136990339030908b908b9088908b908b9060040161297e565b600060405180830381600087803b15801561138357600080fd5b505af1158015611397573d6000803e3d6000fd5b505050506113ab6113a53390565b88611943565b6113b361190f565b156113f0576113c187611cb0565b6113e288886000600c8054906101000a900461ffff1661ffff166002611a2e565b6113eb87611ced565b6112ae565b6113f8611cff565b156114105761140687611d38565b6113eb8888611d75565b600e546001600160401b0380821691600160401b8104821691600160801b8204811691600160c01b9004164233610696565b6003546201000090046001600160a01b031663c395fcb3336040518263ffffffff1660e01b8152600401611476919061269e565b602060405180830381865afa158015611493573d6000803e3d6000fd5b505050506040513d601f19601f820116820180604052508101906114b7919061285d565b6114d457604051637bfa4b9f60e01b815260040160405180910390fd5b6004546114e9906001600160a01b0316611ad1565b6114f281611ad1565b60005460ff161515600114806115195750600e54600160c01b90046001600160401b031642115b1561160b57600061152b6011546112bc565b600480546040516370a0823160e01b815292935060009284926001600160a01b03909216916370a08231916115629130910161269e565b602060405180830381865afa15801561157f573d6000803e3d6000fd5b505050506040513d601f19601f820116820180604052508101906115a3919061287a565b6115ad9190612924565b905080156115cc576004546115cc906001600160a01b03168483611b0b565b6004546040517f7645a5c54de72438a4de1507bde579a46ca541fe92760409bca92b588af0314091610efc9186916001600160a01b0316908590612893565b60405163b5d0229760e01b815260040160405180910390fd5b6003546201000090046001600160a01b031663c395fcb3336040518263ffffffff1660e01b8152600401611658919061269e565b602060405180830381865afa158015611675573d6000803e3d6000fd5b505050506040513d601f19601f82011682018060405250810190611699919061285d565b6116b657604051637bfa4b9f60e01b815260040160405180910390fd5b6004546116cb906001600160a01b0316611ad1565b600c5460ff600160901b909104161515811515141561170157604051633a5c93f960e11b8152811515600482015260240161064e565b600c8054821515600160901b0260ff60901b199091161790556040517f54b036c17e62300d398f2d9af8763c2bf1ebce09c3b5743016e62cdccebec2c59061174e90831515815260200190565b60405180910390a150565b6003546201000090046001600160a01b031663c395fcb3336040518263ffffffff1660e01b815260040161178d919061269e565b602060405180830381865afa1580156117aa573d6000803e3d6000fd5b505050506040513d601f19601f820116820180604052508101906117ce919061285d565b6117eb57604051637bfa4b9f60e01b815260040160405180910390fd5b60028190556040518181527fc8d52687b85ab11e6859cb0b390a9e926e1b348d9796e084f88f88420c176fc69060200161174e565b6118286118c7565b6002600154141561184b5760405162461bcd60e51b815260040161064e9061280d565b600260015561185a3382611943565b61186261190f565b1561189f5761187081611cb0565b61189182826000600c8054906101000a900461ffff1661ffff166002611a2e565b61189a81611ced565b6118bf565b6118a7611cff565b15611410576118b581611d38565b61189a8282611d75565b505060018055565b60005460ff161561190d5760405162461bcd60e51b815260206004820152601060248201526f14185d5cd8589b194e881c185d5cd95960821b604482015260640161064e565b565b600e546000906001600160401b03164211801561193e5750600e54600160401b90046001600160401b03164211155b905090565b600554604051636eb1769f60e11b81526001600160a01b038481166004830152306024830152600092169063dd62ed3e90604401602060405180830381865afa158015611994573d6000803e3d6000fd5b505050506040513d601f19601f820116820180604052508101906119b8919061287a565b905081811015610f05576005546040516304fee01560e31b81526001600160a01b0380861660048301529091166024820152604481018290526064810183905260840161064e565b611a0982611df7565b80821115611a2a57604051632b37c00360e11b815260040160405180910390fd5b5050565b611a4c33600a54600080516020612b46833981519152908689611e15565b15611a6457611a5f338584600185611e7e565b611ab0565b611a8233600b54600080516020612b46833981519152908689611e15565b15611a9557611a5f338584600085611e7e565b33604051632e4f414f60e01b815260040161064e919061269e565b5050505050565b80600f6000828254611ac9919061293b565b909155505050565b6001600160a01b0381166109f85760405163d92e233d60e01b815260040160405180910390fd5b600454611a2a906001600160a01b031683835b610f058363a9059cbb60e01b8484604051602401611b2a929190612844565b60408051601f198184030181529190526020810180516001600160e01b03166001600160e01b031990931692909217909152612029565b60006001600160401b03821115611bc95760405162461bcd60e51b815260206004820152602660248201527f53616665436173743a2076616c756520646f65736e27742066697420696e203660448201526534206269747360d01b606482015260840161064e565b5090565b600061ffff821115611bc95760405162461bcd60e51b815260206004820152602660248201527f53616665436173743a2076616c756520646f65736e27742066697420696e203160448201526536206269747360d01b606482015260840161064e565b611c386118c7565b6000805460ff191660011790557f62e78cea01bee320cd4e420270b5ea74000d11b0c9f74754ebdbfc544b05a258611c6d3390565b604051611c7a919061269e565b60405180910390a1565b6000806000611c92846120fb565b50505060208101516040820151606090920151909260009190911a90565b611cb981611df7565b60095481601054611cca919061293b565b11156109f85733816040516330b052c360e01b815260040161064e929190612844565b8060106000828254611ac9919061293b565b600e54600090600160801b90046001600160401b03164211801561193e575050600e54600160c01b90046001600160401b031642111590565b611d4181611df7565b600d5481601154611d52919061293b565b11156109f857338160405163b17009d360e01b815260040161064e929190612844565b6003611d9633600a54600080516020612b6683398151915290600087611e15565b15611db757610f0533600c548490600160601b900461ffff16600185611e7e565b611dd633600b54600080516020612b6683398151915290600087611e15565b15611a9557610f0533600c548490600160601b900461ffff16600085611e7e565b806109f857604051631f2a200560e01b815260040160405180910390fd5b6040516bffffffffffffffffffffffff19606087901b1660208201526034810185905260548101849052607481018390526000908190609401604051602081830303815290604052805190602001209050611e73836002548361211d565b979650505050505050565b6001821515148015611eab5750600a5433600090815260126020526040902054611ea990869061293b565b115b15611ecd573384604051631087b52160e01b815260040161064e929190612844565b81158015611ef65750600b5433600090815260126020526040902054611ef490869061293b565b115b15611f185733846040516384e66cd160e01b815260040161064e929190612844565b6000611f248585612135565b90508015611f4457600554611f44906001600160a01b031687308461215b565b611f4e8686612182565b6004546001600160a01b0316151580611f68575060065415155b15611fc7576000611f78866112bc565b600c5490915060009061271090611f9a90600160401b900461ffff16846128e3565b611fa49190612902565b90506000611fb28284612924565b9050611fbf88828461219a565b505050611fd3565b611fd38560008061219a565b6004546040805187815260ff851660208201526001600160a01b0390921691309133917f0ad96521127d50f348b2a64e3c39dd5e11e958af27e103a39cda1b604cf3d4ee910160405180910390a4505050505050565b600061207e826040518060400160405280602081526020017f5361666545524332303a206c6f772d6c6576656c2063616c6c206661696c6564815250856001600160a01b03166122229092919063ffffffff16565b805190915015610f05578080602001905181019061209c919061285d565b610f055760405162461bcd60e51b815260206004820152602a60248201527f5361666545524332303a204552433230206f7065726174696f6e20646964206e6044820152691bdd081cdd58d8d9595960b21b606482015260840161064e565b80516041146109f857604051637141605d60e11b815260040160405180910390fd5b60008261212a8584612239565b1490505b9392505050565b600081612144575060006112e4565b61271061215183856128e3565b61212e9190612902565b61217c846323b872dd60e01b858585604051602401611b2a93929190612893565b50505050565b600554611a2a906001600160a01b031683308461215b565b82601160008282546121ac919061293b565b909155505033600090815260126020526040812080548592906121d090849061293b565b909155505033600090815260136020526040812080548492906121f490849061293b565b9091555050336000908152601460205260408120805483929061221890849061293b565b9091555050505050565b60606122318484600085612286565b949350505050565b600081815b845181101561227e5761226a8286838151811061225d5761225d6128b7565b60200260200101516123ac565b91508061227681612aaf565b91505061223e565b509392505050565b6060824710156122e75760405162461bcd60e51b815260206004820152602660248201527f416464726573733a20696e73756666696369656e742062616c616e636520666f6044820152651c8818d85b1b60d21b606482015260840161064e565b6001600160a01b0385163b61233e5760405162461bcd60e51b815260206004820152601d60248201527f416464726573733a2063616c6c20746f206e6f6e2d636f6e7472616374000000604482015260640161064e565b600080866001600160a01b0316858760405161235a9190612af6565b60006040518083038185875af1925050503d8060008114612397576040519150601f19603f3d011682016040523d82523d6000602084013e61239c565b606091505b5091509150611e738282866123db565b60008183106123c857600082815260208490526040902061212e565b600083815260208390526040902061212e565b606083156123ea57508161212e565b8251156123fa5782518084602001fd5b8160405162461bcd60e51b815260040161064e9190612b12565b634e487b7160e01b600052604160045260246000fd5b604080519081016001600160401b038111828210171561244c5761244c612414565b60405290565b6040516101c081016001600160401b038111828210171561244c5761244c612414565b604051601f8201601f191681016001600160401b038111828210171561249d5761249d612414565b604052919050565b600082601f8301126124b657600080fd5b813560206001600160401b038211156124d1576124d1612414565b8160051b6124e0828201612475565b92835284810182019282810190878511156124fa57600080fd5b83870192505b84831015611e7357823582529183019190830190612500565b60008060006060848603121561252e57600080fd5b83356001600160401b0381111561254457600080fd5b612550868287016124a5565b9660208601359650604090950135949350505050565b80356001600160a01b038116811461257d57600080fd5b919050565b60006020828403121561259457600080fd5b61212e82612566565b6000806102008084860312156125b257600080fd5b84601f8501126125c157600080fd5b6125c961242a565b8060408601878111156125db57600080fd5b865b818110156125fc576125ee81612566565b8452602093840193016125dd565b5081955087605f88011261260f57600080fd5b612617612452565b9387019392508291508784111561262d57600080fd5b5b8381101561264657803583526020928301920161262e565b508093505050509250929050565b80356001600160401b038116811461257d57600080fd5b6000806040838503121561267e57600080fd5b61268783612654565b915061269560208401612654565b90509250929050565b6001600160a01b0391909116815260200190565b600080600080600060a086880312156126ca57600080fd5b85356001600160401b03808211156126e157600080fd5b6126ed89838a016124a5565b965060209150818801359550604088013594506060880135935060808801358181111561271957600080fd5b8801601f81018a1361272a57600080fd5b80358281111561273c5761273c612414565b61274e601f8201601f19168501612475565b92508083528a8482840101111561276457600080fd5b80848301858501376000848285010152505080925050509295509295909350565b60006020828403121561279757600080fd5b5035919050565b80151581146109f857600080fd5b6000602082840312156127be57600080fd5b813561212e8161279e565b600080604083850312156127dc57600080fd5b82356001600160401b038111156127f257600080fd5b6127fe858286016124a5565b95602094909401359450505050565b6020808252601f908201527f5265656e7472616e637947756172643a207265656e7472616e742063616c6c00604082015260600190565b6001600160a01b03929092168252602082015260400190565b60006020828403121561286f57600080fd5b815161212e8161279e565b60006020828403121561288c57600080fd5b5051919050565b6001600160a01b039384168152919092166020820152604081019190915260600190565b634e487b7160e01b600052603260045260246000fd5b634e487b7160e01b600052601160045260246000fd5b60008160001904831182151516156128fd576128fd6128cd565b500290565b60008261291f57634e487b7160e01b600052601260045260246000fd5b500490565b600082821015612936576129366128cd565b500390565b6000821982111561294e5761294e6128cd565b500190565b6001600160401b03948516815292841660208401529083166040830152909116606082015260800190565b6001600160a01b0397881681529590961660208601526040850193909352606084019190915260ff16608083015260a082015260c081019190915260e00190565b600181815b808511156129fa5781600019048211156129e0576129e06128cd565b808516156129ed57918102915b93841c93908002906129c4565b509250929050565b600082612a11575060016112e4565b81612a1e575060006112e4565b8160018114612a345760028114612a3e57612a5a565b60019150506112e4565b60ff841115612a4f57612a4f6128cd565b50506001821b6112e4565b5060208310610133831016604e8410600b8410161715612a7d575081810a6112e4565b612a8783836129bf565b8060001904821115612a9b57612a9b6128cd565b029392505050565b600061212e8383612a02565b6000600019821415612ac357612ac36128cd565b5060010190565b60005b83811015612ae5578181015183820152602001612acd565b8381111561217c5750506000910152565b60008251612b08818460208701612aca565b9190910192915050565b6020815260008251806020840152612b31816040850160208701612aca565b601f01601f1916919091016040019291505056feed4b80c86c7954bdbf516c492acb4a2899eb0ee85b7c74e26d85e55a07562c9513e31188d81b941f4c541528790db4031bef078b78d364bde6fc2d4e5ad79e01a2646970667358221220d4b5e8bbf5d19a717b6e0cfc6cbae4986e9e219dc56dc345f399d7a2a81d0b8064736f6c634300080a0033",
  "devdoc": {
    "kind": "dev",
    "methods": {
      "buyTokenInCrowdfundingPool(bytes32[],uint256)": {
        "details": "Must be in time for crowdfunding pool and pool is not closed",
        "params": {
          "_purchaseAmount": "Purchase amount of investor",
          "proof": "Respective proof for a leaf, which is respective for investor in merkle tree"
        }
      },
      "buyTokenInCrowdfundingPoolWithPermit(bytes32[],uint256,uint256,uint256,bytes)": {
        "details": "Investor do not need execute approve transaction, but need to sign data off-chain; used only for USDC. Must be in time for crowdfunding pool and pool is not closed",
        "params": {
          "_allowance": "Allowance amount of investor's USDC for pool",
          "_deadline": "Deadline of off-chain investor's signature",
          "_purchaseAmount": "Purchase amount of investor",
          "_signature": "Signature of investor",
          "proof": "Respective proof for a leaf, which is respective for investor in merkle tree"
        }
      },
      "buyTokenInGalaxyPool(bytes32[],uint256,uint256)": {
        "details": "Must be in time for whale and pool is not closed",
        "params": {
          "_maxPurchaseBaseOnAllocations": "Max purchase amount base on allocation of whale",
          "_purchaseAmount": "Purchase amount of investor",
          "proof": "Respective proof for a leaf, which is respective for investor in merkle tree"
        }
      },
      "buyTokenInGalaxyPoolWithPermit(bytes32[],uint256,uint256,uint256,bytes)": {
        "details": "Investor do not need execute approve transaction, but need to sign data off-chain; used only for USDC. Must be in time for whale and pool is not closed",
        "params": {
          "_deadline": "Deadline of off-chain investor's signature",
          "_maxPurchaseBaseOnAllocations": "Max purchase amount base on allocation of whale",
          "_purchaseAmount": "Purchase amount of investor",
          "_signature": "Signature of investor",
          "proof": "Respective proof for a leaf, which is respective for investor in merkle tree"
        }
      },
      "closePool()": {
        "details": "Only admin can call it"
      },
      "getIDOTokenAmountByOfferedCurrency(uint256)": {
        "details": "Get IDO token amount base on amount of purchase token",
        "params": {
          "_amount": "Amount of purchase token"
        },
        "returns": {
          "_0": "Return amount of respective IDO token"
        }
      },
      "initialize(address[2],uint256[14])": {
        "details": "Emit 2 events",
        "params": {
          "addrs": "Array of address includes: address of IDO token, address of purchase token",
          "uints": "Array of pool information includes: max purchase amount for KYC user, max purchase amount for Not KYC user, TGE date, TGE percentage,  galaxy participation fee percentage, crowdfunding participation fee percentage, galaxy pool proportion, early access proportion, total raise amount, whale open time, whale duration, community duration, rate and decimal of IDO token"
        }
      },
      "paused()": {
        "details": "Returns true if the contract is paused, and false otherwise."
      },
      "setRedeemableTGEIDOToken(bool)": {
        "details": "Only admin can call it"
      },
      "setRoot(bytes32)": {
        "details": "Only admin can call it",
        "params": {
          "_root": "Root of merkle tree"
        }
      },
      "updateTime(uint64,uint64)": {
        "details": "Only admin can call it, galaxy pool must be closed before crowdfunding pool",
        "params": {
          "_newCommunityCloseTime": "New close time of crowdfunding pool",
          "_newWhaleCloseTime": "New close time of galaxy pool"
        }
      },
      "withdrawIDOToken(address)": {
        "details": "Only admin can call it after pool closed",
        "params": {
          "_withdrawIDOTokenRecipient": "Address of recipient"
        }
      },
      "withdrawPurchaseToken(address)": {
        "details": "Only admin can call it after pool closed",
        "params": {
          "_withdrawPurchaseTokenRecipient": "Address of recipient"
        }
      }
    },
    "stateVariables": {
      "IDOToken": {
        "details": "Address of IDO token"
      },
      "NORMAL_USER": {
        "details": "keccak256(\"NORMAL_USER\")"
      },
      "PERCENTAGE_DENOMINATOR": {
        "details": "Percentage denominator"
      },
      "TGEDate": {
        "details": "Time for user to redeem IDO token"
      },
      "TGEPercentage": {
        "details": "Percentage of IDO token amount of user, which can be redeemed after TGEDate"
      },
      "TGERedeemable": {
        "details": "Status whether or not investor can redeem IDO token"
      },
      "WHALE": {
        "details": "keccak256(\"WHALE\") "
      },
      "communityCloseTime": {
        "details": "Close time of crowdfunding pool"
      },
      "communityOpenTime": {
        "details": "Open time for community user = Close time of galaxy pool"
      },
      "crowdfundingParticipationFeePercentage": {
        "details": "Fee percentage when buying token in crowdfunding pool"
      },
      "earlyAccessProportion": {
        "details": "Proportion of crowdfunding pool amount for early access    "
      },
      "galaxyParticipationFeePercentage": {
        "details": "Fee percentage when buying token in galaxy pool"
      },
      "galaxyPoolProportion": {
        "details": "Proportion of total raise for galaxy pool"
      },
      "maxPurchaseAmountForEarlyAccess": {
        "details": "Max purchase amount for early access = (total raise amount - total raise amount * galaxy pool proportion) * early access proportion"
      },
      "maxPurchaseAmountForGalaxyPool": {
        "details": "Max purchase amount for galaxy pool = total raise amount * galaxy pool proportion"
      },
      "maxPurchaseAmountForKYCUser": {
        "details": "Max purchase amount for KYC user"
      },
      "maxPurchaseAmountForNotKYCUser": {
        "details": "Max purchase amount for NOT KYC user"
      },
      "offeredCurrency": {
        "details": "Store rate and decimal to display price of IDO token"
      },
      "poolFactory": {
        "details": "Address of pool factory"
      },
      "purchaseToken": {
        "details": "Address of purchase token"
      },
      "purchasedAmount": {
        "details": "Purchased amount in all pools"
      },
      "purchasedAmountInEarlyAccess": {
        "details": "Purchased amount in early access"
      },
      "purchasedAmountInGalaxyPool": {
        "details": "Purchased amount in galaxy pool"
      },
      "redeemed": {
        "details": "Mapping from User to redeemed or not"
      },
      "totalRaiseAmount": {
        "details": "Total raise amount of all pools"
      },
      "userIDOAirdropAmount": {
        "details": "Mapping from User to airdrop amount"
      },
      "userIDOTGEAmount": {
        "details": "Mapping from User to TGE amount"
      },
      "userPurchasedAmount": {
        "details": "Mapping from User to purchased amount "
      },
      "whaleCloseTime": {
        "details": "Close time of galaxy pool"
      },
      "whaleOpenTime": {
        "details": "Open time of galaxy pool"
      }
    },
    "version": 1
  },
  "userdoc": {
    "kind": "user",
    "methods": {
      "buyTokenInCrowdfundingPool(bytes32[],uint256)": {
        "notice": "Investor buy token in crowdfunding pool"
      },
      "buyTokenInCrowdfundingPoolWithPermit(bytes32[],uint256,uint256,uint256,bytes)": {
        "notice": "Investor buy token in crowdfunding pool"
      },
      "buyTokenInGalaxyPool(bytes32[],uint256,uint256)": {
        "notice": "Investor buy token in galaxy pool"
      },
      "buyTokenInGalaxyPoolWithPermit(bytes32[],uint256,uint256,uint256,bytes)": {
        "notice": "Investor buy token in galaxy pool"
      },
      "closePool()": {
        "notice": "Close pool: cancel project, nobody can buy token"
      },
      "initialize(address[2],uint256[14])": {
        "notice": "Initialize a pool with its information"
      },
      "redeemTGEIDOToken()": {
        "notice": "Investor redeem IDO token after TGE date"
      },
      "setRedeemableTGEIDOToken(bool)": {
        "notice": "Allow or disallow investors to redeem TGE amount of IDO token"
      },
      "setRoot(bytes32)": {
        "notice": "Set merkle tree root after snapshoting information of investor"
      },
      "updateTime(uint64,uint64)": {
        "notice": "Update time for galaxy pool and crowdfunding pool"
      },
      "withdrawIDOToken(address)": {
        "notice": "Admin withdraw redundant IDO token in pool"
      },
      "withdrawPurchaseToken(address)": {
        "notice": "Admin withdraw purchase token in pool"
      }
    },
    "version": 1
  },
  "storageLayout": {
    "storage": [
      {
        "astId": 9483,
        "contract": "contracts/IDOpool/Pool.sol:Pool",
        "label": "_paused",
        "offset": 0,
        "slot": "0",
        "type": "t_bool"
      },
      {
        "astId": 9584,
        "contract": "contracts/IDOpool/Pool.sol:Pool",
        "label": "_status",
        "offset": 0,
        "slot": "1",
        "type": "t_uint256"
      },
      {
        "astId": 5229,
        "contract": "contracts/IDOpool/Pool.sol:Pool",
        "label": "root",
        "offset": 0,
        "slot": "2",
        "type": "t_bytes32"
      },
      {
        "astId": 9319,
        "contract": "contracts/IDOpool/Pool.sol:Pool",
        "label": "_initialized",
        "offset": 0,
        "slot": "3",
        "type": "t_uint8"
      },
      {
        "astId": 9322,
        "contract": "contracts/IDOpool/Pool.sol:Pool",
        "label": "_initializing",
        "offset": 1,
        "slot": "3",
        "type": "t_bool"
      },
      {
        "astId": 3025,
        "contract": "contracts/IDOpool/Pool.sol:Pool",
        "label": "poolFactory",
        "offset": 2,
        "slot": "3",
        "type": "t_contract(IPoolFactory)5489"
      },
      {
        "astId": 3033,
        "contract": "contracts/IDOpool/Pool.sol:Pool",
        "label": "IDOToken",
        "offset": 0,
        "slot": "4",
        "type": "t_contract(IERC20)2372"
      },
      {
        "astId": 3037,
        "contract": "contracts/IDOpool/Pool.sol:Pool",
        "label": "purchaseToken",
        "offset": 0,
        "slot": "5",
        "type": "t_contract(IERC20)2372"
      },
      {
        "astId": 3041,
        "contract": "contracts/IDOpool/Pool.sol:Pool",
        "label": "offeredCurrency",
        "offset": 0,
        "slot": "6",
        "type": "t_struct(OfferedCurrency)3013_storage"
      },
      {
        "astId": 3044,
        "contract": "contracts/IDOpool/Pool.sol:Pool",
        "label": "maxPurchaseAmountForGalaxyPool",
        "offset": 0,
        "slot": "8",
        "type": "t_uint256"
      },
      {
        "astId": 3047,
        "contract": "contracts/IDOpool/Pool.sol:Pool",
        "label": "maxPurchaseAmountForEarlyAccess",
        "offset": 0,
        "slot": "9",
        "type": "t_uint256"
      },
      {
        "astId": 3050,
        "contract": "contracts/IDOpool/Pool.sol:Pool",
        "label": "maxPurchaseAmountForKYCUser",
        "offset": 0,
        "slot": "10",
        "type": "t_uint256"
      },
      {
        "astId": 3053,
        "contract": "contracts/IDOpool/Pool.sol:Pool",
        "label": "maxPurchaseAmountForNotKYCUser",
        "offset": 0,
        "slot": "11",
        "type": "t_uint256"
      },
      {
        "astId": 3056,
        "contract": "contracts/IDOpool/Pool.sol:Pool",
        "label": "TGEDate",
        "offset": 0,
        "slot": "12",
        "type": "t_uint64"
      },
      {
        "astId": 3059,
        "contract": "contracts/IDOpool/Pool.sol:Pool",
        "label": "TGEPercentage",
        "offset": 8,
        "slot": "12",
        "type": "t_uint16"
      },
      {
        "astId": 3062,
        "contract": "contracts/IDOpool/Pool.sol:Pool",
        "label": "galaxyParticipationFeePercentage",
        "offset": 10,
        "slot": "12",
        "type": "t_uint16"
      },
      {
        "astId": 3065,
        "contract": "contracts/IDOpool/Pool.sol:Pool",
        "label": "crowdfundingParticipationFeePercentage",
        "offset": 12,
        "slot": "12",
        "type": "t_uint16"
      },
      {
        "astId": 3068,
        "contract": "contracts/IDOpool/Pool.sol:Pool",
        "label": "galaxyPoolProportion",
        "offset": 14,
        "slot": "12",
        "type": "t_uint16"
      },
      {
        "astId": 3071,
        "contract": "contracts/IDOpool/Pool.sol:Pool",
        "label": "earlyAccessProportion",
        "offset": 16,
        "slot": "12",
        "type": "t_uint16"
      },
      {
        "astId": 3074,
        "contract": "contracts/IDOpool/Pool.sol:Pool",
        "label": "TGERedeemable",
        "offset": 18,
        "slot": "12",
        "type": "t_bool"
      },
      {
        "astId": 3077,
        "contract": "contracts/IDOpool/Pool.sol:Pool",
        "label": "totalRaiseAmount",
        "offset": 0,
        "slot": "13",
        "type": "t_uint256"
      },
      {
        "astId": 3080,
        "contract": "contracts/IDOpool/Pool.sol:Pool",
        "label": "whaleOpenTime",
        "offset": 0,
        "slot": "14",
        "type": "t_uint64"
      },
      {
        "astId": 3083,
        "contract": "contracts/IDOpool/Pool.sol:Pool",
        "label": "whaleCloseTime",
        "offset": 8,
        "slot": "14",
        "type": "t_uint64"
      },
      {
        "astId": 3086,
        "contract": "contracts/IDOpool/Pool.sol:Pool",
        "label": "communityOpenTime",
        "offset": 16,
        "slot": "14",
        "type": "t_uint64"
      },
      {
        "astId": 3089,
        "contract": "contracts/IDOpool/Pool.sol:Pool",
        "label": "communityCloseTime",
        "offset": 24,
        "slot": "14",
        "type": "t_uint64"
      },
      {
        "astId": 3092,
        "contract": "contracts/IDOpool/Pool.sol:Pool",
        "label": "purchasedAmountInGalaxyPool",
        "offset": 0,
        "slot": "15",
        "type": "t_uint256"
      },
      {
        "astId": 3095,
        "contract": "contracts/IDOpool/Pool.sol:Pool",
        "label": "purchasedAmountInEarlyAccess",
        "offset": 0,
        "slot": "16",
        "type": "t_uint256"
      },
      {
        "astId": 3098,
        "contract": "contracts/IDOpool/Pool.sol:Pool",
        "label": "purchasedAmount",
        "offset": 0,
        "slot": "17",
        "type": "t_uint256"
      },
      {
        "astId": 3103,
        "contract": "contracts/IDOpool/Pool.sol:Pool",
        "label": "userPurchasedAmount",
        "offset": 0,
        "slot": "18",
        "type": "t_mapping(t_address,t_uint256)"
      },
      {
        "astId": 3108,
        "contract": "contracts/IDOpool/Pool.sol:Pool",
        "label": "userIDOAirdropAmount",
        "offset": 0,
        "slot": "19",
        "type": "t_mapping(t_address,t_uint256)"
      },
      {
        "astId": 3113,
        "contract": "contracts/IDOpool/Pool.sol:Pool",
        "label": "userIDOTGEAmount",
        "offset": 0,
        "slot": "20",
        "type": "t_mapping(t_address,t_uint256)"
      },
      {
        "astId": 3118,
        "contract": "contracts/IDOpool/Pool.sol:Pool",
        "label": "redeemed",
        "offset": 0,
        "slot": "21",
        "type": "t_mapping(t_address,t_bool)"
      }
    ],
    "types": {
      "t_address": {
        "encoding": "inplace",
        "label": "address",
        "numberOfBytes": "20"
      },
      "t_bool": {
        "encoding": "inplace",
        "label": "bool",
        "numberOfBytes": "1"
      },
      "t_bytes32": {
        "encoding": "inplace",
        "label": "bytes32",
        "numberOfBytes": "32"
      },
      "t_contract(IERC20)2372": {
        "encoding": "inplace",
        "label": "contract IERC20",
        "numberOfBytes": "20"
      },
      "t_contract(IPoolFactory)5489": {
        "encoding": "inplace",
        "label": "contract IPoolFactory",
        "numberOfBytes": "20"
      },
      "t_mapping(t_address,t_bool)": {
        "encoding": "mapping",
        "key": "t_address",
        "label": "mapping(address => bool)",
        "numberOfBytes": "32",
        "value": "t_bool"
      },
      "t_mapping(t_address,t_uint256)": {
        "encoding": "mapping",
        "key": "t_address",
        "label": "mapping(address => uint256)",
        "numberOfBytes": "32",
        "value": "t_uint256"
      },
      "t_struct(OfferedCurrency)3013_storage": {
        "encoding": "inplace",
        "label": "struct Pool.OfferedCurrency",
        "members": [
          {
            "astId": 3010,
            "contract": "contracts/IDOpool/Pool.sol:Pool",
            "label": "rate",
            "offset": 0,
            "slot": "0",
            "type": "t_uint256"
          },
          {
            "astId": 3012,
            "contract": "contracts/IDOpool/Pool.sol:Pool",
            "label": "decimal",
            "offset": 0,
            "slot": "1",
            "type": "t_uint256"
          }
        ],
        "numberOfBytes": "64"
      },
      "t_uint16": {
        "encoding": "inplace",
        "label": "uint16",
        "numberOfBytes": "2"
      },
      "t_uint256": {
        "encoding": "inplace",
        "label": "uint256",
        "numberOfBytes": "32"
      },
      "t_uint64": {
        "encoding": "inplace",
        "label": "uint64",
        "numberOfBytes": "8"
      },
      "t_uint8": {
        "encoding": "inplace",
        "label": "uint8",
        "numberOfBytes": "1"
      }
    }
  }
}