{
  "address": "0x46C9Fe14882d4f4865B79159E85b2bF228c102B3",
  "abi": [
    {
      "inputs": [],
      "name": "AlreadyAdmin",
      "type": "error"
    },
    {
      "inputs": [],
      "name": "AlreadyNotAdmin",
      "type": "error"
    },
    {
      "inputs": [],
      "name": "NotValidEarlyAccessProportion",
      "type": "error"
    },
    {
      "inputs": [],
      "name": "NotValidGalaxyPoolProportion",
      "type": "error"
    },
    {
      "inputs": [],
      "name": "ZeroAddress",
      "type": "error"
    },
    {
      "inputs": [],
      "name": "ZeroAmount",
      "type": "error"
    },
    {
      "inputs": [],
      "name": "ZeroOfferedRate",
      "type": "error"
    },
    {
      "anonymous": false,
      "inputs": [
        {
          "indexed": false,
          "internalType": "uint8",
          "name": "version",
          "type": "uint8"
        }
      ],
      "name": "Initialized",
      "type": "event"
    },
    {
      "anonymous": false,
      "inputs": [
        {
          "indexed": false,
          "internalType": "bytes32",
          "name": "poolInfoHash",
          "type": "bytes32"
        },
        {
          "indexed": false,
          "internalType": "address",
          "name": "pool",
          "type": "address"
        }
      ],
      "name": "PoolCreated",
      "type": "event"
    },
    {
      "anonymous": false,
      "inputs": [
        {
          "indexed": true,
          "internalType": "bytes32",
          "name": "role",
          "type": "bytes32"
        },
        {
          "indexed": true,
          "internalType": "bytes32",
          "name": "previousAdminRole",
          "type": "bytes32"
        },
        {
          "indexed": true,
          "internalType": "bytes32",
          "name": "newAdminRole",
          "type": "bytes32"
        }
      ],
      "name": "RoleAdminChanged",
      "type": "event"
    },
    {
      "anonymous": false,
      "inputs": [
        {
          "indexed": true,
          "internalType": "bytes32",
          "name": "role",
          "type": "bytes32"
        },
        {
          "indexed": true,
          "internalType": "address",
          "name": "account",
          "type": "address"
        },
        {
          "indexed": true,
          "internalType": "address",
          "name": "sender",
          "type": "address"
        }
      ],
      "name": "RoleGranted",
      "type": "event"
    },
    {
      "anonymous": false,
      "inputs": [
        {
          "indexed": true,
          "internalType": "bytes32",
          "name": "role",
          "type": "bytes32"
        },
        {
          "indexed": true,
          "internalType": "address",
          "name": "account",
          "type": "address"
        },
        {
          "indexed": true,
          "internalType": "address",
          "name": "sender",
          "type": "address"
        }
      ],
      "name": "RoleRevoked",
      "type": "event"
    },
    {
      "anonymous": false,
      "inputs": [
        {
          "indexed": true,
          "internalType": "address",
          "name": "oldPoolImplementation",
          "type": "address"
        },
        {
          "indexed": true,
          "internalType": "address",
          "name": "newPoolImplementation",
          "type": "address"
        }
      ],
      "name": "UpdatePoolImplementation",
      "type": "event"
    },
    {
      "inputs": [],
      "name": "ADMIN",
      "outputs": [
        {
          "internalType": "bytes32",
          "name": "",
          "type": "bytes32"
        }
      ],
      "stateMutability": "view",
      "type": "function"
    },
    {
      "inputs": [],
      "name": "DEFAULT_ADMIN_ROLE",
      "outputs": [
        {
          "internalType": "bytes32",
          "name": "",
          "type": "bytes32"
        }
      ],
      "stateMutability": "view",
      "type": "function"
    },
    {
      "inputs": [],
      "name": "PERCENTAGE_DENOMINATOR",
      "outputs": [
        {
          "internalType": "uint16",
          "name": "",
          "type": "uint16"
        }
      ],
      "stateMutability": "view",
      "type": "function"
    },
    {
      "inputs": [
        {
          "internalType": "uint256",
          "name": "",
          "type": "uint256"
        }
      ],
      "name": "allPools",
      "outputs": [
        {
          "internalType": "address",
          "name": "",
          "type": "address"
        }
      ],
      "stateMutability": "view",
      "type": "function"
    },
    {
      "inputs": [],
      "name": "allPoolsLength",
      "outputs": [
        {
          "internalType": "uint256",
          "name": "",
          "type": "uint256"
        }
      ],
      "stateMutability": "view",
      "type": "function"
    },
    {
      "inputs": [
        {
          "internalType": "address[2]",
          "name": "addrs",
          "type": "address[2]"
        },
        {
          "internalType": "uint256[14]",
          "name": "uints",
          "type": "uint256[14]"
        },
        {
          "internalType": "uint256",
          "name": "dbProjectId",
          "type": "uint256"
        }
      ],
      "name": "createPool",
      "outputs": [
        {
          "internalType": "address",
          "name": "pool",
          "type": "address"
        }
      ],
      "stateMutability": "nonpayable",
      "type": "function"
    },
    {
      "inputs": [
        {
          "internalType": "address",
          "name": "",
          "type": "address"
        },
        {
          "internalType": "address",
          "name": "",
          "type": "address"
        },
        {
          "internalType": "uint256",
          "name": "",
          "type": "uint256"
        }
      ],
      "name": "getCreatedPools",
      "outputs": [
        {
          "internalType": "address",
          "name": "",
          "type": "address"
        }
      ],
      "stateMutability": "view",
      "type": "function"
    },
    {
      "inputs": [
        {
          "internalType": "address",
          "name": "_creator",
          "type": "address"
        },
        {
          "internalType": "address",
          "name": "_token",
          "type": "address"
        }
      ],
      "name": "getCreatedPoolsByToken",
      "outputs": [
        {
          "internalType": "address[]",
          "name": "",
          "type": "address[]"
        }
      ],
      "stateMutability": "view",
      "type": "function"
    },
    {
      "inputs": [
        {
          "internalType": "address",
          "name": "_creator",
          "type": "address"
        },
        {
          "internalType": "address",
          "name": "_token",
          "type": "address"
        }
      ],
      "name": "getCreatedPoolsLengthByToken",
      "outputs": [
        {
          "internalType": "uint256",
          "name": "",
          "type": "uint256"
        }
      ],
      "stateMutability": "view",
      "type": "function"
    },
    {
      "inputs": [
        {
          "internalType": "bytes32",
          "name": "role",
          "type": "bytes32"
        }
      ],
      "name": "getRoleAdmin",
      "outputs": [
        {
          "internalType": "bytes32",
          "name": "",
          "type": "bytes32"
        }
      ],
      "stateMutability": "view",
      "type": "function"
    },
    {
      "inputs": [
        {
          "internalType": "address",
          "name": "_admin",
          "type": "address"
        }
      ],
      "name": "grantAdminRole",
      "outputs": [],
      "stateMutability": "nonpayable",
      "type": "function"
    },
    {
      "inputs": [
        {
          "internalType": "bytes32",
          "name": "role",
          "type": "bytes32"
        },
        {
          "internalType": "address",
          "name": "account",
          "type": "address"
        }
      ],
      "name": "grantRole",
      "outputs": [],
      "stateMutability": "nonpayable",
      "type": "function"
    },
    {
      "inputs": [
        {
          "internalType": "address",
          "name": "_admin",
          "type": "address"
        }
      ],
      "name": "hasAdminRole",
      "outputs": [
        {
          "internalType": "bool",
          "name": "",
          "type": "bool"
        }
      ],
      "stateMutability": "view",
      "type": "function"
    },
    {
      "inputs": [
        {
          "internalType": "bytes32",
          "name": "role",
          "type": "bytes32"
        },
        {
          "internalType": "address",
          "name": "account",
          "type": "address"
        }
      ],
      "name": "hasRole",
      "outputs": [
        {
          "internalType": "bool",
          "name": "",
          "type": "bool"
        }
      ],
      "stateMutability": "view",
      "type": "function"
    },
    {
      "inputs": [
        {
          "internalType": "address",
          "name": "_poolImplementationAddress",
          "type": "address"
        }
      ],
      "name": "initialize",
      "outputs": [],
      "stateMutability": "nonpayable",
      "type": "function"
    },
    {
      "inputs": [],
      "name": "poolImplementationAddress",
      "outputs": [
        {
          "internalType": "address",
          "name": "",
          "type": "address"
        }
      ],
      "stateMutability": "view",
      "type": "function"
    },
    {
      "inputs": [
        {
          "internalType": "bytes32",
          "name": "role",
          "type": "bytes32"
        },
        {
          "internalType": "address",
          "name": "account",
          "type": "address"
        }
      ],
      "name": "renounceRole",
      "outputs": [],
      "stateMutability": "nonpayable",
      "type": "function"
    },
    {
      "inputs": [
        {
          "internalType": "address",
          "name": "_admin",
          "type": "address"
        }
      ],
      "name": "revokeAdminRole",
      "outputs": [],
      "stateMutability": "nonpayable",
      "type": "function"
    },
    {
      "inputs": [
        {
          "internalType": "bytes32",
          "name": "role",
          "type": "bytes32"
        },
        {
          "internalType": "address",
          "name": "account",
          "type": "address"
        }
      ],
      "name": "revokeRole",
      "outputs": [],
      "stateMutability": "nonpayable",
      "type": "function"
    },
    {
      "inputs": [
        {
          "internalType": "address",
          "name": "_poolImplementationAddress",
          "type": "address"
        }
      ],
      "name": "setPoolImplementation",
      "outputs": [],
      "stateMutability": "nonpayable",
      "type": "function"
    },
    {
      "inputs": [
        {
          "internalType": "bytes4",
          "name": "interfaceId",
          "type": "bytes4"
        }
      ],
      "name": "supportsInterface",
      "outputs": [
        {
          "internalType": "bool",
          "name": "",
          "type": "bool"
        }
      ],
      "stateMutability": "view",
      "type": "function"
    }
  ],
  "transactionHash": "0x77eb94abbe434d3e85c78d91e26758dccab4fa009328cf865f72ec82f722e8ce",
  "args": [],
  "numDeployments": 1,
  "solcInputHash": "083f6f8abc110f07a1a7aaf2de3cb9ab",
  "bytecode": "0x608060405234801561001057600080fd5b5061131f806100206000396000f3fe608060405234801561001057600080fd5b50600436106101375760003560e01c80639a19c7b0116100b8578063c4d66de81161007c578063c4d66de8146102da578063c634b78e146102ed578063d547741f14610300578063d5ed52de14610313578063d6f7489814610326578063efde4e641461033957600080fd5b80639a19c7b014610270578063a217fddf14610283578063ae7a774b1461028b578063b3cd4254146102ab578063c395fcb3146102c757600080fd5b8063343fb63a116100ff578063343fb63a146101eb57806336568abe146101fe57806341d1de97146102115780637fd376091461022457806391d148541461025d57600080fd5b806301ffc9a71461013c57806315ef4ddc14610164578063248a9ca31461018f5780632a0acc6a146101c15780632f2ff15d146101d6575b600080fd5b61014f61014a366004610e17565b610341565b60405190151581526020015b60405180910390f35b600254610177906001600160a01b031681565b6040516001600160a01b03909116815260200161015b565b6101b361019d366004610e41565b6000908152600160208190526040909120015490565b60405190815260200161015b565b6101b36000805160206112ca83398151915281565b6101e96101e4366004610e76565b610378565b005b6101776101f9366004610ea2565b6103a3565b6101e961020c366004610e76565b6103e8565b61017761021f366004610e41565b61046b565b6101b3610232366004610ede565b6001600160a01b03918216600090815260046020908152604080832093909416825291909152205490565b61014f61026b366004610e76565b610495565b6101e961027e366004610f08565b6104c0565b6101b3600081565b61029e610299366004610ede565b610525565b60405161015b9190610f23565b6102b461271081565b60405161ffff909116815260200161015b565b61014f6102d5366004610f08565b6105a8565b6101e96102e8366004610f08565b6105c2565b6101e96102fb366004610f08565b6106fe565b6101e961030e366004610e76565b61076d565b610177610321366004610fef565b610793565b6101e9610334366004610f08565b610958565b6003546101b3565b60006001600160e01b03198216637965db0b60e01b148061037257506301ffc9a760e01b6001600160e01b03198316145b92915050565b60008281526001602081905260409091200154610394816109cc565b61039e83836109d9565b505050565b600460205282600052604060002060205281600052604060002081815481106103cb57600080fd5b6000918252602090912001546001600160a01b0316925083915050565b6001600160a01b038116331461045d5760405162461bcd60e51b815260206004820152602f60248201527f416363657373436f6e74726f6c3a2063616e206f6e6c792072656e6f756e636560448201526e103937b632b9903337b91039b2b63360891b60648201526084015b60405180910390fd5b6104678282610a44565b5050565b6003818154811061047b57600080fd5b6000918252602090912001546001600160a01b0316905081565b60009182526001602090815260408084206001600160a01b0393909316845291905290205460ff1690565b6000805160206112ca8339815191526104d8816109cc565b6104f06000805160206112ca83398151915283610495565b61050d5760405163e901e0f560e01b815260040160405180910390fd5b6104676000805160206112ca83398151915283610a44565b6001600160a01b03808316600090815260046020908152604080832093851683529281529082902080548351818402810184019094528084526060939283018282801561059b57602002820191906000526020600020905b81546001600160a01b0316815260019091019060200180831161057d575b5050505050905092915050565b60006103726000805160206112ca83398151915283610495565b600054610100900460ff16158080156105e25750600054600160ff909116105b806105fc5750303b1580156105fc575060005460ff166001145b61065f5760405162461bcd60e51b815260206004820152602e60248201527f496e697469616c697a61626c653a20636f6e747261637420697320616c72656160448201526d191e481a5b9a5d1a585b1a5e995960921b6064820152608401610454565b6000805460ff191660011790558015610682576000805461ff0019166101001790555b600280546001600160a01b0319166001600160a01b0384161790556106b56000805160206112ca83398151915233610aab565b8015610467576000805461ff0019169055604051600181527f7f26b83ff96e1f2b6a682f133852f6798a09c465da95921460cefb38474024989060200160405180910390a15050565b6000805160206112ca833981519152610716816109cc565b61071f82610ab5565b6107376000805160206112ca83398151915283610495565b1561075557604051631c3681a560e11b815260040160405180910390fd5b6104676000805160206112ca833981519152836109d9565b60008281526001602081905260409091200154610789816109cc565b61039e8383610a44565b600061079f8484610adc565b83516000858533866040516020016107ba9493929190611117565b60408051601f1981840301815291905280516020909101206002549091506107eb906001600160a01b031682610b58565b6040516331f7ebc560e01b81529093506001600160a01b038416906331f7ebc59061081c9089908990600401611150565b600060405180830381600087803b15801561083657600080fd5b505af115801561084a573d6000803e3d6000fd5b50505050600460006108593390565b6001600160a01b03908116825260208083019390935260409182016000908120868316825284528281208054600181810183559183528583200180549389166001600160a01b0319948516811790915560038054928301815583527fc2575a0e9e593c00f959f8c92f12db2869c3395a3b0502d05e2516446f71f85b909101805490931617909155905190916108f5918991899189910161116c565b60408051601f1981840301815282825280516020918201208084526001600160a01b0388169184019190915292507fa843b0068d872c047023d406f9e5cea249189566b6fe594909f554578e81656d910160405180910390a15050509392505050565b6000805160206112ca833981519152610970816109cc565b61097982610ab5565b600280546001600160a01b038481166001600160a01b0319831681179093556040519116919082907f0617fd31aa5ab95ec80eefc1eb61a2c477aa419d1d761b4e46f5f077e47852aa90600090a3505050565b6109d68133610bf2565b50565b6109e38282610495565b6104675760008281526001602081815260408084206001600160a01b0386168086529252808420805460ff19169093179092559051339285917f2f8788117e7eff1d82e926ec794901d17c78024a50270940304540a733656f0d9190a45050565b610a4e8282610495565b156104675760008281526001602090815260408083206001600160a01b0385168085529252808320805460ff1916905551339285917ff6391f5c32d9c69d2a47ea670b442974b53935d1edc7fd64eb21e047a839171b9190a45050565b61046782826109d9565b6001600160a01b0381166109d65760405163d92e233d60e01b815260040160405180910390fd5b6020820151610aea81610ab5565b5060c0810151610af981610c56565b6127108110610b1b5760405163f8967ebd60e01b815260040160405180910390fd5b60e08201516127108110610b42576040516343edeabb60e11b815260040160405180910390fd5b610100830151610b5181610c56565b5050505050565b6000604051733d602d80600a3d3981f3363d3d373d3d3d363d7360601b81528360601b60148201526e5af43d82803e903d91602b57fd5bf360881b6028820152826037826000f59150506001600160a01b0381166103725760405162461bcd60e51b8152602060048201526017602482015276115490cc4c4d8dce8818dc99585d194c8819985a5b1959604a1b6044820152606401610454565b610bfc8282610495565b61046757610c14816001600160a01b03166014610c74565b610c1f836020610c74565b604051602001610c309291906111c3565b60408051601f198184030181529082905262461bcd60e51b825261045491600401611232565b806109d657604051631f2a200560e01b815260040160405180910390fd5b60606000610c8383600261127b565b610c8e90600261129a565b67ffffffffffffffff811115610ca657610ca6610f70565b6040519080825280601f01601f191660200182016040528015610cd0576020820181803683370190505b509050600360fc1b81600081518110610ceb57610ceb6110ac565b60200101906001600160f81b031916908160001a905350600f60fb1b81600181518110610d1a57610d1a6110ac565b60200101906001600160f81b031916908160001a9053506000610d3e84600261127b565b610d4990600161129a565b90505b6001811115610dc1576f181899199a1a9b1b9c1cb0b131b232b360811b85600f1660108110610d7d57610d7d6110ac565b1a60f81b828281518110610d9357610d936110ac565b60200101906001600160f81b031916908160001a90535060049490941c93610dba816112b2565b9050610d4c565b508315610e105760405162461bcd60e51b815260206004820181905260248201527f537472696e67733a20686578206c656e67746820696e73756666696369656e746044820152606401610454565b9392505050565b600060208284031215610e2957600080fd5b81356001600160e01b031981168114610e1057600080fd5b600060208284031215610e5357600080fd5b5035919050565b80356001600160a01b0381168114610e7157600080fd5b919050565b60008060408385031215610e8957600080fd5b82359150610e9960208401610e5a565b90509250929050565b600080600060608486031215610eb757600080fd5b610ec084610e5a565b9250610ece60208501610e5a565b9150604084013590509250925092565b60008060408385031215610ef157600080fd5b610efa83610e5a565b9150610e9960208401610e5a565b600060208284031215610f1a57600080fd5b610e1082610e5a565b6020808252825182820181905260009190848201906040850190845b81811015610f645783516001600160a01b031683529284019291840191600101610f3f565b50909695505050505050565b634e487b7160e01b600052604160045260246000fd5b6040805190810167ffffffffffffffff81118282101715610fb757634e487b7160e01b600052604160045260246000fd5b60405290565b6040516101c0810167ffffffffffffffff81118282101715610fb757634e487b7160e01b600052604160045260246000fd5b6000806000610220848603121561100557600080fd5b84601f85011261101457600080fd5b61101c610f86565b80604086018781111561102e57600080fd5b865b8181101561104f5761104181610e5a565b845260209384019301611030565b5081955087605f88011261106257600080fd5b61106a610fbd565b925082915061020087018881111561108157600080fd5b5b8082101561109d578135845260209384019390910190611082565b95989197505093359450505050565b634e487b7160e01b600052603260045260246000fd5b8060005b60028110156110ee5781516001600160a01b03168452602093840193909101906001016110c6565b50505050565b8060005b600e8110156110ee5781518452602093840193909101906001016110f8565b610240810161112682876110c2565b61113360408301866110f4565b6001600160a01b0393909316610200820152610220015292915050565b610200810161115f82856110c2565b610e1060408301846110f4565b610220810161117b82866110c2565b61118860408301856110f4565b82610200830152949350505050565b60005b838110156111b257818101518382015260200161119a565b838111156110ee5750506000910152565b76020b1b1b2b9b9a1b7b73a3937b61d1030b1b1b7bab73a1604d1b8152600083516111f5816017850160208801611197565b7001034b99036b4b9b9b4b733903937b6329607d1b6017918401918201528351611226816028840160208801611197565b01602801949350505050565b6020815260008251806020840152611251816040850160208701611197565b601f01601f19169190910160400192915050565b634e487b7160e01b600052601160045260246000fd5b600081600019048311821515161561129557611295611265565b500290565b600082198211156112ad576112ad611265565b500190565b6000816112c1576112c1611265565b50600019019056fedf8b4c520ffe197c5343c6f5aec59570151ef9a492f2c624fd45ddde6135ec42a2646970667358221220637c8ce4929de603354317345697ef9c929a14423546fb36fb5f12eb0a2a270564736f6c634300080a0033",
  "devdoc": {
    "kind": "dev",
    "methods": {
      "allPoolsLength()": {
        "returns": {
          "_0": "Return number of created pools"
        }
      },
      "createPool(address[2],uint256[14],uint256)": {
        "details": "Only has one pool address respectively for one input params",
        "params": {
          "addrs": "Array of address includes: address of IDO token, address of purchase token",
          "dbProjectId": "Project Id in database",
          "uints": "Array of pool information includes: max purchase amount for KYC user, max purchase amount for Not KYC user, TGE date, TGE percentage,  galaxy participation fee percentage, crowdfunding participation fee percentage, galaxy pool proportion, early access proportion, total raise amount, whale open time, whale duration, community duration, rate and decimal of IDO token"
        },
        "returns": {
          "pool": "Address of new pool"
        }
      },
      "getCreatedPoolsByToken(address,address)": {
        "details": "User can retrieve their created pool by address of tokens",
        "params": {
          "_creator": "Address of created pool user",
          "_token": "Address of token want to query"
        },
        "returns": {
          "_0": "Created Pool Address"
        }
      },
      "getCreatedPoolsLengthByToken(address,address)": {
        "params": {
          "_creator": "Address of created pool user",
          "_token": "Address of token want to query"
        },
        "returns": {
          "_0": "Return number of created pool"
        }
      },
      "getRoleAdmin(bytes32)": {
        "details": "Returns the admin role that controls `role`. See {grantRole} and {revokeRole}. To change a role's admin, use {_setRoleAdmin}."
      },
      "grantAdminRole(address)": {
        "details": "Only admin can call it",
        "params": {
          "_admin": "Address of new admin"
        }
      },
      "grantRole(bytes32,address)": {
        "details": "Grants `role` to `account`. If `account` had not been already granted `role`, emits a {RoleGranted} event. Requirements: - the caller must have ``role``'s admin role. May emit a {RoleGranted} event."
      },
      "hasAdminRole(address)": {
        "params": {
          "_admin": "Address of an account"
        },
        "returns": {
          "_0": "Return true if account has admin role, and vice versa."
        }
      },
      "hasRole(bytes32,address)": {
        "details": "Returns `true` if `account` has been granted `role`."
      },
      "initialize(address)": {
        "details": "Called only once",
        "params": {
          "_poolImplementationAddress": "Address of pool implementation"
        }
      },
      "renounceRole(bytes32,address)": {
        "details": "Revokes `role` from the calling account. Roles are often managed via {grantRole} and {revokeRole}: this function's purpose is to provide a mechanism for accounts to lose their privileges if they are compromised (such as when a trusted device is misplaced). If the calling account had been revoked `role`, emits a {RoleRevoked} event. Requirements: - the caller must be `account`. May emit a {RoleRevoked} event."
      },
      "revokeAdminRole(address)": {
        "details": "Only admin can call it",
        "params": {
          "_admin": "Address of an admin"
        }
      },
      "revokeRole(bytes32,address)": {
        "details": "Revokes `role` from `account`. If `account` had been granted `role`, emits a {RoleRevoked} event. Requirements: - the caller must have ``role``'s admin role. May emit a {RoleRevoked} event."
      },
      "setPoolImplementation(address)": {
        "details": "Only admin can can call it",
        "params": {
          "_poolImplementationAddress": "Address of new pool implementation"
        }
      },
      "supportsInterface(bytes4)": {
        "details": "See {IERC165-supportsInterface}."
      }
    },
    "stateVariables": {
      "ADMIN": {
        "details": "keccak256(\"ADMIN\")"
      },
      "PERCENTAGE_DENOMINATOR": {
        "details": "Percentage denominator"
      },
      "allPools": {
        "details": "Array of created pools address"
      },
      "getCreatedPools": {
        "details": "Mapping from user to (From token to array of created pools for token)"
      },
      "poolImplementationAddress": {
        "details": "Address of pool implementation"
      }
    },
    "version": 1
  },
  "userdoc": {
    "kind": "user",
    "methods": {
      "allPoolsLength()": {
        "notice": "Get the number of all created pools"
      },
      "createPool(address[2],uint256[14],uint256)": {
        "notice": "Create new pool"
      },
      "getCreatedPoolsByToken(address,address)": {
        "notice": "Get created pools by token address"
      },
      "getCreatedPoolsLengthByToken(address,address)": {
        "notice": "Retrieve number of pools created for specific token"
      },
      "grantAdminRole(address)": {
        "notice": "Grant admin role for new admin"
      },
      "hasAdminRole(address)": {
        "notice": "Check whether or not an account has admin role"
      },
      "initialize(address)": {
        "notice": "Initialize pool factory with address of pool implementation"
      },
      "revokeAdminRole(address)": {
        "notice": "Revoke admin role of an admin"
      },
      "setPoolImplementation(address)": {
        "notice": "Set or change address of pool implementation"
      }
    },
    "version": 1
  },
  "storageLayout": {
    "storage": [
      {
        "astId": 9319,
        "contract": "contracts/IDOpool/PoolFactory.sol:PoolFactory",
        "label": "_initialized",
        "offset": 0,
        "slot": "0",
        "type": "t_uint8"
      },
      {
        "astId": 9322,
        "contract": "contracts/IDOpool/PoolFactory.sol:PoolFactory",
        "label": "_initializing",
        "offset": 1,
        "slot": "0",
        "type": "t_bool"
      },
      {
        "astId": 8972,
        "contract": "contracts/IDOpool/PoolFactory.sol:PoolFactory",
        "label": "_roles",
        "offset": 0,
        "slot": "1",
        "type": "t_mapping(t_bytes32,t_struct(RoleData)8967_storage)"
      },
      {
        "astId": 4837,
        "contract": "contracts/IDOpool/PoolFactory.sol:PoolFactory",
        "label": "poolImplementationAddress",
        "offset": 0,
        "slot": "2",
        "type": "t_address"
      },
      {
        "astId": 4841,
        "contract": "contracts/IDOpool/PoolFactory.sol:PoolFactory",
        "label": "allPools",
        "offset": 0,
        "slot": "3",
        "type": "t_array(t_address)dyn_storage"
      },
      {
        "astId": 4849,
        "contract": "contracts/IDOpool/PoolFactory.sol:PoolFactory",
        "label": "getCreatedPools",
        "offset": 0,
        "slot": "4",
        "type": "t_mapping(t_address,t_mapping(t_address,t_array(t_address)dyn_storage))"
      }
    ],
    "types": {
      "t_address": {
        "encoding": "inplace",
        "label": "address",
        "numberOfBytes": "20"
      },
      "t_array(t_address)dyn_storage": {
        "base": "t_address",
        "encoding": "dynamic_array",
        "label": "address[]",
        "numberOfBytes": "32"
      },
      "t_bool": {
        "encoding": "inplace",
        "label": "bool",
        "numberOfBytes": "1"
      },
      "t_bytes32": {
        "encoding": "inplace",
        "label": "bytes32",
        "numberOfBytes": "32"
      },
      "t_mapping(t_address,t_array(t_address)dyn_storage)": {
        "encoding": "mapping",
        "key": "t_address",
        "label": "mapping(address => address[])",
        "numberOfBytes": "32",
        "value": "t_array(t_address)dyn_storage"
      },
      "t_mapping(t_address,t_bool)": {
        "encoding": "mapping",
        "key": "t_address",
        "label": "mapping(address => bool)",
        "numberOfBytes": "32",
        "value": "t_bool"
      },
      "t_mapping(t_address,t_mapping(t_address,t_array(t_address)dyn_storage))": {
        "encoding": "mapping",
        "key": "t_address",
        "label": "mapping(address => mapping(address => address[]))",
        "numberOfBytes": "32",
        "value": "t_mapping(t_address,t_array(t_address)dyn_storage)"
      },
      "t_mapping(t_bytes32,t_struct(RoleData)8967_storage)": {
        "encoding": "mapping",
        "key": "t_bytes32",
        "label": "mapping(bytes32 => struct AccessControl.RoleData)",
        "numberOfBytes": "32",
        "value": "t_struct(RoleData)8967_storage"
      },
      "t_struct(RoleData)8967_storage": {
        "encoding": "inplace",
        "label": "struct AccessControl.RoleData",
        "members": [
          {
            "astId": 8964,
            "contract": "contracts/IDOpool/PoolFactory.sol:PoolFactory",
            "label": "members",
            "offset": 0,
            "slot": "0",
            "type": "t_mapping(t_address,t_bool)"
          },
          {
            "astId": 8966,
            "contract": "contracts/IDOpool/PoolFactory.sol:PoolFactory",
            "label": "adminRole",
            "offset": 0,
            "slot": "1",
            "type": "t_bytes32"
          }
        ],
        "numberOfBytes": "64"
      },
      "t_uint8": {
        "encoding": "inplace",
        "label": "uint8",
        "numberOfBytes": "1"
      }
    }
  }
}